{
	"data": {
		"bytecode": {
			"linkReferences": {},
			"object": "608060405234801562000010575f80fd5b50604051620021f1380380620021f183398181016040528101906200003691906200069f565b33848481600390816200004a91906200097a565b5080600490816200005c91906200097a565b5050505f73ffffffffffffffffffffffffffffffffffffffff168173ffffffffffffffffffffffffffffffffffffffff1603620000d2575f6040517f1e4fbdf7000000000000000000000000000000000000000000000000000000008152600401620000c9919062000aa1565b60405180910390fd5b620000e3816200013660201b60201c565b5081600560146101000a81548160ff021916908360ff1602179055506200012c3383600a62000113919062000c39565b8362000120919062000c89565b620001f960201b60201c565b5050505062000d74565b5f60055f9054906101000a900473ffffffffffffffffffffffffffffffffffffffff1690508160055f6101000a81548173ffffffffffffffffffffffffffffffffffffffff021916908373ffffffffffffffffffffffffffffffffffffffff1602179055508173ffffffffffffffffffffffffffffffffffffffff168173ffffffffffffffffffffffffffffffffffffffff167f8be0079c531659141344cd1fd0a4f28419497f9722a3daafe3b4186f6b6457e060405160405180910390a35050565b5f73ffffffffffffffffffffffffffffffffffffffff168273ffffffffffffffffffffffffffffffffffffffff16036200026c575f6040517fec442f0500000000000000000000000000000000000000000000000000000000815260040162000263919062000aa1565b60405180910390fd5b6200027f5f83836200028360201b60201c565b5050565b5f73ffffffffffffffffffffffffffffffffffffffff168373ffffffffffffffffffffffffffffffffffffffff1603620002d7578060025f828254620002ca919062000cd3565b92505081905550620003a8565b5f805f8573ffffffffffffffffffffffffffffffffffffffff1673ffffffffffffffffffffffffffffffffffffffff1681526020019081526020015f205490508181101562000363578381836040517fe450d38c0000000000000000000000000000000000000000000000000000000081526004016200035a9392919062000d1e565b60405180910390fd5b8181035f808673ffffffffffffffffffffffffffffffffffffffff1673ffffffffffffffffffffffffffffffffffffffff1681526020019081526020015f2081905550505b5f73ffffffffffffffffffffffffffffffffffffffff168273ffffffffffffffffffffffffffffffffffffffff1603620003f1578060025f82825403925050819055506200043b565b805f808473ffffffffffffffffffffffffffffffffffffffff1673ffffffffffffffffffffffffffffffffffffffff1681526020019081526020015f205f82825401925050819055505b8173ffffffffffffffffffffffffffffffffffffffff168373ffffffffffffffffffffffffffffffffffffffff167fddf252ad1be2c89b69c2b068fc378daa952ba7f163c4a11628f55a4df523b3ef836040516200049a919062000d59565b60405180910390a3505050565b5f604051905090565b5f80fd5b5f80fd5b5f80fd5b5f80fd5b5f601f19601f8301169050919050565b7f4e487b71000000000000000000000000000000000000000000000000000000005f52604160045260245ffd5b6200050882620004c0565b810181811067ffffffffffffffff821117156200052a5762000529620004d0565b5b80604052505050565b5f6200053e620004a7565b90506200054c8282620004fd565b919050565b5f67ffffffffffffffff8211156200056e576200056d620004d0565b5b6200057982620004c0565b9050602081019050919050565b5f5b83811015620005a557808201518184015260208101905062000588565b5f8484015250505050565b5f620005c6620005c08462000551565b62000533565b905082815260208101848484011115620005e557620005e4620004bc565b5b620005f284828562000586565b509392505050565b5f82601f830112620006115762000610620004b8565b5b815162000623848260208601620005b0565b91505092915050565b5f60ff82169050919050565b62000643816200062c565b81146200064e575f80fd5b50565b5f81519050620006618162000638565b92915050565b5f819050919050565b6200067b8162000667565b811462000686575f80fd5b50565b5f81519050620006998162000670565b92915050565b5f805f8060808587031215620006ba57620006b9620004b0565b5b5f85015167ffffffffffffffff811115620006da57620006d9620004b4565b5b620006e887828801620005fa565b945050602085015167ffffffffffffffff8111156200070c576200070b620004b4565b5b6200071a87828801620005fa565b93505060406200072d8782880162000651565b9250506060620007408782880162000689565b91505092959194509250565b5f81519050919050565b7f4e487b71000000000000000000000000000000000000000000000000000000005f52602260045260245ffd5b5f60028204905060018216806200079b57607f821691505b602082108103620007b157620007b062000756565b5b50919050565b5f819050815f5260205f209050919050565b5f6020601f8301049050919050565b5f82821b905092915050565b5f60088302620008157fffffffffffffffffffffffffffffffffffffffffffffffffffffffffffffffff82620007d8565b620008218683620007d8565b95508019841693508086168417925050509392505050565b5f819050919050565b5f620008626200085c620008568462000667565b62000839565b62000667565b9050919050565b5f819050919050565b6200087d8362000842565b620008956200088c8262000869565b848454620007e4565b825550505050565b5f90565b620008ab6200089d565b620008b881848462000872565b505050565b5b81811015620008df57620008d35f82620008a1565b600181019050620008be565b5050565b601f8211156200092e57620008f881620007b7565b6200090384620007c9565b8101602085101562000913578190505b6200092b6200092285620007c9565b830182620008bd565b50505b505050565b5f82821c905092915050565b5f620009505f198460080262000933565b1980831691505092915050565b5f6200096a83836200093f565b9150826002028217905092915050565b62000985826200074c565b67ffffffffffffffff811115620009a157620009a0620004d0565b5b620009ad825462000783565b620009ba828285620008e3565b5f60209050601f831160018114620009f0575f8415620009db578287015190505b620009e785826200095d565b86555062000a56565b601f19841662000a0086620007b7565b5f5b8281101562000a295784890151825560018201915060208501945060208101905062000a02565b8683101562000a49578489015162000a45601f8916826200093f565b8355505b6001600288020188555050505b505050505050565b5f73ffffffffffffffffffffffffffffffffffffffff82169050919050565b5f62000a898262000a5e565b9050919050565b62000a9b8162000a7d565b82525050565b5f60208201905062000ab65f83018462000a90565b92915050565b7f4e487b71000000000000000000000000000000000000000000000000000000005f52601160045260245ffd5b5f8160011c9050919050565b5f808291508390505b600185111562000b465780860481111562000b1e5762000b1d62000abc565b5b600185161562000b2e5780820291505b808102905062000b3e8562000ae9565b945062000afe565b94509492505050565b5f8262000b60576001905062000c32565b8162000b6f575f905062000c32565b816001811462000b88576002811462000b935762000bc9565b600191505062000c32565b60ff84111562000ba85762000ba762000abc565b5b8360020a91508482111562000bc25762000bc162000abc565b5b5062000c32565b5060208310610133831016604e8410600b841016171562000c035782820a90508381111562000bfd5762000bfc62000abc565b5b62000c32565b62000c12848484600162000af5565b9250905081840481111562000c2c5762000c2b62000abc565b5b81810290505b9392505050565b5f62000c458262000667565b915062000c52836200062c565b925062000c817fffffffffffffffffffffffffffffffffffffffffffffffffffffffffffffffff848462000b4f565b905092915050565b5f62000c958262000667565b915062000ca28362000667565b925082820262000cb28162000667565b9150828204841483151762000ccc5762000ccb62000abc565b5b5092915050565b5f62000cdf8262000667565b915062000cec8362000667565b925082820190508082111562000d075762000d0662000abc565b5b92915050565b62000d188162000667565b82525050565b5f60608201905062000d335f83018662000a90565b62000d42602083018562000d0d565b62000d51604083018462000d0d565b949350505050565b5f60208201905062000d6e5f83018462000d0d565b92915050565b61146f8062000d825f395ff3fe608060405234801561000f575f80fd5b50600436106100e8575f3560e01c8063715018a61161008a57806395d89b411161006457806395d89b4114610236578063a9059cbb14610254578063dd62ed3e14610284578063f2fde38b146102b4576100e8565b8063715018a6146101f257806388d695b2146101fc5780638da5cb5b14610218576100e8565b806323b872dd116100c657806323b872dd14610158578063313ce5671461018857806340c10f19146101a657806370a08231146101c2576100e8565b806306fdde03146100ec578063095ea7b31461010a57806318160ddd1461013a575b5f80fd5b6100f46102d0565b6040516101019190610eae565b60405180910390f35b610124600480360381019061011f9190610f63565b610360565b6040516101319190610fbb565b60405180910390f35b610142610382565b60405161014f9190610fe3565b60405180910390f35b610172600480360381019061016d9190610ffc565b61038b565b60405161017f9190610fbb565b60405180910390f35b6101906103b9565b60405161019d9190611067565b60405180910390f35b6101c060048036038101906101bb9190610f63565b6103cf565b005b6101dc60048036038101906101d79190611080565b6103e5565b6040516101e99190610fe3565b60405180910390f35b6101fa61042a565b005b61021660048036038101906102119190611161565b61043d565b005b6102206104f7565b60405161022d91906111ee565b60405180910390f35b61023e61051f565b60405161024b9190610eae565b60405180910390f35b61026e60048036038101906102699190610f63565b6105af565b60405161027b9190610fbb565b60405180910390f35b61029e60048036038101906102999190611207565b6105d1565b6040516102ab9190610fe3565b60405180910390f35b6102ce60048036038101906102c99190611080565b610653565b005b6060600380546102df90611272565b80601f016020809104026020016040519081016040528092919081815260200182805461030b90611272565b80156103565780601f1061032d57610100808354040283529160200191610356565b820191905f5260205f20905b81548152906001019060200180831161033957829003601f168201915b5050505050905090565b5f8061036a6106d7565b90506103778185856106de565b600191505092915050565b5f600254905090565b5f806103956106d7565b90506103a28582856106f0565b6103ad858585610783565b60019150509392505050565b5f600560149054906101000a900460ff16905090565b6103d7610873565b6103e182826108fa565b5050565b5f805f8373ffffffffffffffffffffffffffffffffffffffff1673ffffffffffffffffffffffffffffffffffffffff1681526020019081526020015f20549050919050565b610432610873565b61043b5f610979565b565b818190508484905014610485576040517f08c379a000000000000000000000000000000000000000000000000000000000815260040161047c90611312565b60405180910390fd5b5f5b848490508110156104f0576104dc8585838181106104a8576104a7611330565b5b90506020020160208101906104bd9190611080565b8484848181106104d0576104cf611330565b5b905060200201356105af565b5080806104e89061138a565b915050610487565b5050505050565b5f60055f9054906101000a900473ffffffffffffffffffffffffffffffffffffffff16905090565b60606004805461052e90611272565b80601f016020809104026020016040519081016040528092919081815260200182805461055a90611272565b80156105a55780601f1061057c576101008083540402835291602001916105a5565b820191905f5260205f20905b81548152906001019060200180831161058857829003601f168201915b5050505050905090565b5f806105b96106d7565b90506105c6818585610783565b600191505092915050565b5f60015f8473ffffffffffffffffffffffffffffffffffffffff1673ffffffffffffffffffffffffffffffffffffffff1681526020019081526020015f205f8373ffffffffffffffffffffffffffffffffffffffff1673ffffffffffffffffffffffffffffffffffffffff1681526020019081526020015f2054905092915050565b61065b610873565b5f73ffffffffffffffffffffffffffffffffffffffff168173ffffffffffffffffffffffffffffffffffffffff16036106cb575f6040517f1e4fbdf70000000000000000000000000000000000000000000000000000000081526004016106c291906111ee565b60405180910390fd5b6106d481610979565b50565b5f33905090565b6106eb8383836001610a3c565b505050565b5f6106fb84846105d1565b90507fffffffffffffffffffffffffffffffffffffffffffffffffffffffffffffffff81101561077d578181101561076e578281836040517ffb8f41b2000000000000000000000000000000000000000000000000000000008152600401610765939291906113d1565b60405180910390fd5b61077c84848484035f610a3c565b5b50505050565b5f73ffffffffffffffffffffffffffffffffffffffff168373ffffffffffffffffffffffffffffffffffffffff16036107f3575f6040517f96c6fd1e0000000000000000000000000000000000000000000000000000000081526004016107ea91906111ee565b60405180910390fd5b5f73ffffffffffffffffffffffffffffffffffffffff168273ffffffffffffffffffffffffffffffffffffffff1603610863575f6040517fec442f0500000000000000000000000000000000000000000000000000000000815260040161085a91906111ee565b60405180910390fd5b61086e838383610c0b565b505050565b61087b6106d7565b73ffffffffffffffffffffffffffffffffffffffff166108996104f7565b73ffffffffffffffffffffffffffffffffffffffff16146108f8576108bc6106d7565b6040517f118cdaa70000000000000000000000000000000000000000000000000000000081526004016108ef91906111ee565b60405180910390fd5b565b5f73ffffffffffffffffffffffffffffffffffffffff168273ffffffffffffffffffffffffffffffffffffffff160361096a575f6040517fec442f0500000000000000000000000000000000000000000000000000000000815260040161096191906111ee565b60405180910390fd5b6109755f8383610c0b565b5050565b5f60055f9054906101000a900473ffffffffffffffffffffffffffffffffffffffff1690508160055f6101000a81548173ffffffffffffffffffffffffffffffffffffffff021916908373ffffffffffffffffffffffffffffffffffffffff1602179055508173ffffffffffffffffffffffffffffffffffffffff168173ffffffffffffffffffffffffffffffffffffffff167f8be0079c531659141344cd1fd0a4f28419497f9722a3daafe3b4186f6b6457e060405160405180910390a35050565b5f73ffffffffffffffffffffffffffffffffffffffff168473ffffffffffffffffffffffffffffffffffffffff1603610aac575f6040517fe602df05000000000000000000000000000000000000000000000000000000008152600401610aa391906111ee565b60405180910390fd5b5f73ffffffffffffffffffffffffffffffffffffffff168373ffffffffffffffffffffffffffffffffffffffff1603610b1c575f6040517f94280d62000000000000000000000000000000000000000000000000000000008152600401610b1391906111ee565b60405180910390fd5b8160015f8673ffffffffffffffffffffffffffffffffffffffff1673ffffffffffffffffffffffffffffffffffffffff1681526020019081526020015f205f8573ffffffffffffffffffffffffffffffffffffffff1673ffffffffffffffffffffffffffffffffffffffff1681526020019081526020015f20819055508015610c05578273ffffffffffffffffffffffffffffffffffffffff168473ffffffffffffffffffffffffffffffffffffffff167f8c5be1e5ebec7d5bd14f71427d1e84f3dd0314c0f7b2291e5b200ac8c7c3b92584604051610bfc9190610fe3565b60405180910390a35b50505050565b5f73ffffffffffffffffffffffffffffffffffffffff168373ffffffffffffffffffffffffffffffffffffffff1603610c5b578060025f828254610c4f9190611406565b92505081905550610d29565b5f805f8573ffffffffffffffffffffffffffffffffffffffff1673ffffffffffffffffffffffffffffffffffffffff1681526020019081526020015f2054905081811015610ce4578381836040517fe450d38c000000000000000000000000000000000000000000000000000000008152600401610cdb939291906113d1565b60405180910390fd5b8181035f808673ffffffffffffffffffffffffffffffffffffffff1673ffffffffffffffffffffffffffffffffffffffff1681526020019081526020015f2081905550505b5f73ffffffffffffffffffffffffffffffffffffffff168273ffffffffffffffffffffffffffffffffffffffff1603610d70578060025f8282540392505081905550610dba565b805f808473ffffffffffffffffffffffffffffffffffffffff1673ffffffffffffffffffffffffffffffffffffffff1681526020019081526020015f205f82825401925050819055505b8173ffffffffffffffffffffffffffffffffffffffff168373ffffffffffffffffffffffffffffffffffffffff167fddf252ad1be2c89b69c2b068fc378daa952ba7f163c4a11628f55a4df523b3ef83604051610e179190610fe3565b60405180910390a3505050565b5f81519050919050565b5f82825260208201905092915050565b5f5b83811015610e5b578082015181840152602081019050610e40565b5f8484015250505050565b5f601f19601f8301169050919050565b5f610e8082610e24565b610e8a8185610e2e565b9350610e9a818560208601610e3e565b610ea381610e66565b840191505092915050565b5f6020820190508181035f830152610ec68184610e76565b905092915050565b5f80fd5b5f80fd5b5f73ffffffffffffffffffffffffffffffffffffffff82169050919050565b5f610eff82610ed6565b9050919050565b610f0f81610ef5565b8114610f19575f80fd5b50565b5f81359050610f2a81610f06565b92915050565b5f819050919050565b610f4281610f30565b8114610f4c575f80fd5b50565b5f81359050610f5d81610f39565b92915050565b5f8060408385031215610f7957610f78610ece565b5b5f610f8685828601610f1c565b9250506020610f9785828601610f4f565b9150509250929050565b5f8115159050919050565b610fb581610fa1565b82525050565b5f602082019050610fce5f830184610fac565b92915050565b610fdd81610f30565b82525050565b5f602082019050610ff65f830184610fd4565b92915050565b5f805f6060848603121561101357611012610ece565b5b5f61102086828701610f1c565b935050602061103186828701610f1c565b925050604061104286828701610f4f565b9150509250925092565b5f60ff82169050919050565b6110618161104c565b82525050565b5f60208201905061107a5f830184611058565b92915050565b5f6020828403121561109557611094610ece565b5b5f6110a284828501610f1c565b91505092915050565b5f80fd5b5f80fd5b5f80fd5b5f8083601f8401126110cc576110cb6110ab565b5b8235905067ffffffffffffffff8111156110e9576110e86110af565b5b602083019150836020820283011115611105576111046110b3565b5b9250929050565b5f8083601f840112611121576111206110ab565b5b8235905067ffffffffffffffff81111561113e5761113d6110af565b5b60208301915083602082028301111561115a576111596110b3565b5b9250929050565b5f805f806040858703121561117957611178610ece565b5b5f85013567ffffffffffffffff81111561119657611195610ed2565b5b6111a2878288016110b7565b9450945050602085013567ffffffffffffffff8111156111c5576111c4610ed2565b5b6111d18782880161110c565b925092505092959194509250565b6111e881610ef5565b82525050565b5f6020820190506112015f8301846111df565b92915050565b5f806040838503121561121d5761121c610ece565b5b5f61122a85828601610f1c565b925050602061123b85828601610f1c565b9150509250929050565b7f4e487b71000000000000000000000000000000000000000000000000000000005f52602260045260245ffd5b5f600282049050600182168061128957607f821691505b60208210810361129c5761129b611245565b5b50919050565b7f526563697069656e747320616e6420616d6f756e7473206c656e677468206d695f8201527f736d617463680000000000000000000000000000000000000000000000000000602082015250565b5f6112fc602683610e2e565b9150611307826112a2565b604082019050919050565b5f6020820190508181035f830152611329816112f0565b9050919050565b7f4e487b71000000000000000000000000000000000000000000000000000000005f52603260045260245ffd5b7f4e487b71000000000000000000000000000000000000000000000000000000005f52601160045260245ffd5b5f61139482610f30565b91507fffffffffffffffffffffffffffffffffffffffffffffffffffffffffffffffff82036113c6576113c561135d565b5b600182019050919050565b5f6060820190506113e45f8301866111df565b6113f16020830185610fd4565b6113fe6040830184610fd4565b949350505050565b5f61141082610f30565b915061141b83610f30565b92508282019050808211156114335761143261135d565b5b9291505056fea2646970667358221220268c1b7a7188483071cb0b974c1493d4006cc1e492696b8a34b63aeb9aca61f264736f6c63430008140033",
			"opcodes": "PUSH1 0x80 PUSH1 0x40 MSTORE CALLVALUE DUP1 ISZERO PUSH3 0x10 JUMPI PUSH0 DUP1 REVERT JUMPDEST POP PUSH1 0x40 MLOAD PUSH3 0x21F1 CODESIZE SUB DUP1 PUSH3 0x21F1 DUP4 CODECOPY DUP2 DUP2 ADD PUSH1 0x40 MSTORE DUP2 ADD SWAP1 PUSH3 0x36 SWAP2 SWAP1 PUSH3 0x69F JUMP JUMPDEST CALLER DUP5 DUP5 DUP2 PUSH1 0x3 SWAP1 DUP2 PUSH3 0x4A SWAP2 SWAP1 PUSH3 0x97A JUMP JUMPDEST POP DUP1 PUSH1 0x4 SWAP1 DUP2 PUSH3 0x5C SWAP2 SWAP1 PUSH3 0x97A JUMP JUMPDEST POP POP POP PUSH0 PUSH20 0xFFFFFFFFFFFFFFFFFFFFFFFFFFFFFFFFFFFFFFFF AND DUP2 PUSH20 0xFFFFFFFFFFFFFFFFFFFFFFFFFFFFFFFFFFFFFFFF AND SUB PUSH3 0xD2 JUMPI PUSH0 PUSH1 0x40 MLOAD PUSH32 0x1E4FBDF700000000000000000000000000000000000000000000000000000000 DUP2 MSTORE PUSH1 0x4 ADD PUSH3 0xC9 SWAP2 SWAP1 PUSH3 0xAA1 JUMP JUMPDEST PUSH1 0x40 MLOAD DUP1 SWAP2 SUB SWAP1 REVERT JUMPDEST PUSH3 0xE3 DUP2 PUSH3 0x136 PUSH1 0x20 SHL PUSH1 0x20 SHR JUMP JUMPDEST POP DUP2 PUSH1 0x5 PUSH1 0x14 PUSH2 0x100 EXP DUP2 SLOAD DUP2 PUSH1 0xFF MUL NOT AND SWAP1 DUP4 PUSH1 0xFF AND MUL OR SWAP1 SSTORE POP PUSH3 0x12C CALLER DUP4 PUSH1 0xA PUSH3 0x113 SWAP2 SWAP1 PUSH3 0xC39 JUMP JUMPDEST DUP4 PUSH3 0x120 SWAP2 SWAP1 PUSH3 0xC89 JUMP JUMPDEST PUSH3 0x1F9 PUSH1 0x20 SHL PUSH1 0x20 SHR JUMP JUMPDEST POP POP POP POP PUSH3 0xD74 JUMP JUMPDEST PUSH0 PUSH1 0x5 PUSH0 SWAP1 SLOAD SWAP1 PUSH2 0x100 EXP SWAP1 DIV PUSH20 0xFFFFFFFFFFFFFFFFFFFFFFFFFFFFFFFFFFFFFFFF AND SWAP1 POP DUP2 PUSH1 0x5 PUSH0 PUSH2 0x100 EXP DUP2 SLOAD DUP2 PUSH20 0xFFFFFFFFFFFFFFFFFFFFFFFFFFFFFFFFFFFFFFFF MUL NOT AND SWAP1 DUP4 PUSH20 0xFFFFFFFFFFFFFFFFFFFFFFFFFFFFFFFFFFFFFFFF AND MUL OR SWAP1 SSTORE POP DUP2 PUSH20 0xFFFFFFFFFFFFFFFFFFFFFFFFFFFFFFFFFFFFFFFF AND DUP2 PUSH20 0xFFFFFFFFFFFFFFFFFFFFFFFFFFFFFFFFFFFFFFFF AND PUSH32 0x8BE0079C531659141344CD1FD0A4F28419497F9722A3DAAFE3B4186F6B6457E0 PUSH1 0x40 MLOAD PUSH1 0x40 MLOAD DUP1 SWAP2 SUB SWAP1 LOG3 POP POP JUMP JUMPDEST PUSH0 PUSH20 0xFFFFFFFFFFFFFFFFFFFFFFFFFFFFFFFFFFFFFFFF AND DUP3 PUSH20 0xFFFFFFFFFFFFFFFFFFFFFFFFFFFFFFFFFFFFFFFF AND SUB PUSH3 0x26C JUMPI PUSH0 PUSH1 0x40 MLOAD PUSH32 0xEC442F0500000000000000000000000000000000000000000000000000000000 DUP2 MSTORE PUSH1 0x4 ADD PUSH3 0x263 SWAP2 SWAP1 PUSH3 0xAA1 JUMP JUMPDEST PUSH1 0x40 MLOAD DUP1 SWAP2 SUB SWAP1 REVERT JUMPDEST PUSH3 0x27F PUSH0 DUP4 DUP4 PUSH3 0x283 PUSH1 0x20 SHL PUSH1 0x20 SHR JUMP JUMPDEST POP POP JUMP JUMPDEST PUSH0 PUSH20 0xFFFFFFFFFFFFFFFFFFFFFFFFFFFFFFFFFFFFFFFF AND DUP4 PUSH20 0xFFFFFFFFFFFFFFFFFFFFFFFFFFFFFFFFFFFFFFFF AND SUB PUSH3 0x2D7 JUMPI DUP1 PUSH1 0x2 PUSH0 DUP3 DUP3 SLOAD PUSH3 0x2CA SWAP2 SWAP1 PUSH3 0xCD3 JUMP JUMPDEST SWAP3 POP POP DUP2 SWAP1 SSTORE POP PUSH3 0x3A8 JUMP JUMPDEST PUSH0 DUP1 PUSH0 DUP6 PUSH20 0xFFFFFFFFFFFFFFFFFFFFFFFFFFFFFFFFFFFFFFFF AND PUSH20 0xFFFFFFFFFFFFFFFFFFFFFFFFFFFFFFFFFFFFFFFF AND DUP2 MSTORE PUSH1 0x20 ADD SWAP1 DUP2 MSTORE PUSH1 0x20 ADD PUSH0 KECCAK256 SLOAD SWAP1 POP DUP2 DUP2 LT ISZERO PUSH3 0x363 JUMPI DUP4 DUP2 DUP4 PUSH1 0x40 MLOAD PUSH32 0xE450D38C00000000000000000000000000000000000000000000000000000000 DUP2 MSTORE PUSH1 0x4 ADD PUSH3 0x35A SWAP4 SWAP3 SWAP2 SWAP1 PUSH3 0xD1E JUMP JUMPDEST PUSH1 0x40 MLOAD DUP1 SWAP2 SUB SWAP1 REVERT JUMPDEST DUP2 DUP2 SUB PUSH0 DUP1 DUP7 PUSH20 0xFFFFFFFFFFFFFFFFFFFFFFFFFFFFFFFFFFFFFFFF AND PUSH20 0xFFFFFFFFFFFFFFFFFFFFFFFFFFFFFFFFFFFFFFFF AND DUP2 MSTORE PUSH1 0x20 ADD SWAP1 DUP2 MSTORE PUSH1 0x20 ADD PUSH0 KECCAK256 DUP2 SWAP1 SSTORE POP POP JUMPDEST PUSH0 PUSH20 0xFFFFFFFFFFFFFFFFFFFFFFFFFFFFFFFFFFFFFFFF AND DUP3 PUSH20 0xFFFFFFFFFFFFFFFFFFFFFFFFFFFFFFFFFFFFFFFF AND SUB PUSH3 0x3F1 JUMPI DUP1 PUSH1 0x2 PUSH0 DUP3 DUP3 SLOAD SUB SWAP3 POP POP DUP2 SWAP1 SSTORE POP PUSH3 0x43B JUMP JUMPDEST DUP1 PUSH0 DUP1 DUP5 PUSH20 0xFFFFFFFFFFFFFFFFFFFFFFFFFFFFFFFFFFFFFFFF AND PUSH20 0xFFFFFFFFFFFFFFFFFFFFFFFFFFFFFFFFFFFFFFFF AND DUP2 MSTORE PUSH1 0x20 ADD SWAP1 DUP2 MSTORE PUSH1 0x20 ADD PUSH0 KECCAK256 PUSH0 DUP3 DUP3 SLOAD ADD SWAP3 POP POP DUP2 SWAP1 SSTORE POP JUMPDEST DUP2 PUSH20 0xFFFFFFFFFFFFFFFFFFFFFFFFFFFFFFFFFFFFFFFF AND DUP4 PUSH20 0xFFFFFFFFFFFFFFFFFFFFFFFFFFFFFFFFFFFFFFFF AND PUSH32 0xDDF252AD1BE2C89B69C2B068FC378DAA952BA7F163C4A11628F55A4DF523B3EF DUP4 PUSH1 0x40 MLOAD PUSH3 0x49A SWAP2 SWAP1 PUSH3 0xD59 JUMP JUMPDEST PUSH1 0x40 MLOAD DUP1 SWAP2 SUB SWAP1 LOG3 POP POP POP JUMP JUMPDEST PUSH0 PUSH1 0x40 MLOAD SWAP1 POP SWAP1 JUMP JUMPDEST PUSH0 DUP1 REVERT JUMPDEST PUSH0 DUP1 REVERT JUMPDEST PUSH0 DUP1 REVERT JUMPDEST PUSH0 DUP1 REVERT JUMPDEST PUSH0 PUSH1 0x1F NOT PUSH1 0x1F DUP4 ADD AND SWAP1 POP SWAP2 SWAP1 POP JUMP JUMPDEST PUSH32 0x4E487B7100000000000000000000000000000000000000000000000000000000 PUSH0 MSTORE PUSH1 0x41 PUSH1 0x4 MSTORE PUSH1 0x24 PUSH0 REVERT JUMPDEST PUSH3 0x508 DUP3 PUSH3 0x4C0 JUMP JUMPDEST DUP2 ADD DUP2 DUP2 LT PUSH8 0xFFFFFFFFFFFFFFFF DUP3 GT OR ISZERO PUSH3 0x52A JUMPI PUSH3 0x529 PUSH3 0x4D0 JUMP JUMPDEST JUMPDEST DUP1 PUSH1 0x40 MSTORE POP POP POP JUMP JUMPDEST PUSH0 PUSH3 0x53E PUSH3 0x4A7 JUMP JUMPDEST SWAP1 POP PUSH3 0x54C DUP3 DUP3 PUSH3 0x4FD JUMP JUMPDEST SWAP2 SWAP1 POP JUMP JUMPDEST PUSH0 PUSH8 0xFFFFFFFFFFFFFFFF DUP3 GT ISZERO PUSH3 0x56E JUMPI PUSH3 0x56D PUSH3 0x4D0 JUMP JUMPDEST JUMPDEST PUSH3 0x579 DUP3 PUSH3 0x4C0 JUMP JUMPDEST SWAP1 POP PUSH1 0x20 DUP2 ADD SWAP1 POP SWAP2 SWAP1 POP JUMP JUMPDEST PUSH0 JUMPDEST DUP4 DUP2 LT ISZERO PUSH3 0x5A5 JUMPI DUP1 DUP3 ADD MLOAD DUP2 DUP5 ADD MSTORE PUSH1 0x20 DUP2 ADD SWAP1 POP PUSH3 0x588 JUMP JUMPDEST PUSH0 DUP5 DUP5 ADD MSTORE POP POP POP POP JUMP JUMPDEST PUSH0 PUSH3 0x5C6 PUSH3 0x5C0 DUP5 PUSH3 0x551 JUMP JUMPDEST PUSH3 0x533 JUMP JUMPDEST SWAP1 POP DUP3 DUP2 MSTORE PUSH1 0x20 DUP2 ADD DUP5 DUP5 DUP5 ADD GT ISZERO PUSH3 0x5E5 JUMPI PUSH3 0x5E4 PUSH3 0x4BC JUMP JUMPDEST JUMPDEST PUSH3 0x5F2 DUP5 DUP3 DUP6 PUSH3 0x586 JUMP JUMPDEST POP SWAP4 SWAP3 POP POP POP JUMP JUMPDEST PUSH0 DUP3 PUSH1 0x1F DUP4 ADD SLT PUSH3 0x611 JUMPI PUSH3 0x610 PUSH3 0x4B8 JUMP JUMPDEST JUMPDEST DUP2 MLOAD PUSH3 0x623 DUP5 DUP3 PUSH1 0x20 DUP7 ADD PUSH3 0x5B0 JUMP JUMPDEST SWAP2 POP POP SWAP3 SWAP2 POP POP JUMP JUMPDEST PUSH0 PUSH1 0xFF DUP3 AND SWAP1 POP SWAP2 SWAP1 POP JUMP JUMPDEST PUSH3 0x643 DUP2 PUSH3 0x62C JUMP JUMPDEST DUP2 EQ PUSH3 0x64E JUMPI PUSH0 DUP1 REVERT JUMPDEST POP JUMP JUMPDEST PUSH0 DUP2 MLOAD SWAP1 POP PUSH3 0x661 DUP2 PUSH3 0x638 JUMP JUMPDEST SWAP3 SWAP2 POP POP JUMP JUMPDEST PUSH0 DUP2 SWAP1 POP SWAP2 SWAP1 POP JUMP JUMPDEST PUSH3 0x67B DUP2 PUSH3 0x667 JUMP JUMPDEST DUP2 EQ PUSH3 0x686 JUMPI PUSH0 DUP1 REVERT JUMPDEST POP JUMP JUMPDEST PUSH0 DUP2 MLOAD SWAP1 POP PUSH3 0x699 DUP2 PUSH3 0x670 JUMP JUMPDEST SWAP3 SWAP2 POP POP JUMP JUMPDEST PUSH0 DUP1 PUSH0 DUP1 PUSH1 0x80 DUP6 DUP8 SUB SLT ISZERO PUSH3 0x6BA JUMPI PUSH3 0x6B9 PUSH3 0x4B0 JUMP JUMPDEST JUMPDEST PUSH0 DUP6 ADD MLOAD PUSH8 0xFFFFFFFFFFFFFFFF DUP2 GT ISZERO PUSH3 0x6DA JUMPI PUSH3 0x6D9 PUSH3 0x4B4 JUMP JUMPDEST JUMPDEST PUSH3 0x6E8 DUP8 DUP3 DUP9 ADD PUSH3 0x5FA JUMP JUMPDEST SWAP5 POP POP PUSH1 0x20 DUP6 ADD MLOAD PUSH8 0xFFFFFFFFFFFFFFFF DUP2 GT ISZERO PUSH3 0x70C JUMPI PUSH3 0x70B PUSH3 0x4B4 JUMP JUMPDEST JUMPDEST PUSH3 0x71A DUP8 DUP3 DUP9 ADD PUSH3 0x5FA JUMP JUMPDEST SWAP4 POP POP PUSH1 0x40 PUSH3 0x72D DUP8 DUP3 DUP9 ADD PUSH3 0x651 JUMP JUMPDEST SWAP3 POP POP PUSH1 0x60 PUSH3 0x740 DUP8 DUP3 DUP9 ADD PUSH3 0x689 JUMP JUMPDEST SWAP2 POP POP SWAP3 SWAP6 SWAP2 SWAP5 POP SWAP3 POP JUMP JUMPDEST PUSH0 DUP2 MLOAD SWAP1 POP SWAP2 SWAP1 POP JUMP JUMPDEST PUSH32 0x4E487B7100000000000000000000000000000000000000000000000000000000 PUSH0 MSTORE PUSH1 0x22 PUSH1 0x4 MSTORE PUSH1 0x24 PUSH0 REVERT JUMPDEST PUSH0 PUSH1 0x2 DUP3 DIV SWAP1 POP PUSH1 0x1 DUP3 AND DUP1 PUSH3 0x79B JUMPI PUSH1 0x7F DUP3 AND SWAP2 POP JUMPDEST PUSH1 0x20 DUP3 LT DUP2 SUB PUSH3 0x7B1 JUMPI PUSH3 0x7B0 PUSH3 0x756 JUMP JUMPDEST JUMPDEST POP SWAP2 SWAP1 POP JUMP JUMPDEST PUSH0 DUP2 SWAP1 POP DUP2 PUSH0 MSTORE PUSH1 0x20 PUSH0 KECCAK256 SWAP1 POP SWAP2 SWAP1 POP JUMP JUMPDEST PUSH0 PUSH1 0x20 PUSH1 0x1F DUP4 ADD DIV SWAP1 POP SWAP2 SWAP1 POP JUMP JUMPDEST PUSH0 DUP3 DUP3 SHL SWAP1 POP SWAP3 SWAP2 POP POP JUMP JUMPDEST PUSH0 PUSH1 0x8 DUP4 MUL PUSH3 0x815 PUSH32 0xFFFFFFFFFFFFFFFFFFFFFFFFFFFFFFFFFFFFFFFFFFFFFFFFFFFFFFFFFFFFFFFF DUP3 PUSH3 0x7D8 JUMP JUMPDEST PUSH3 0x821 DUP7 DUP4 PUSH3 0x7D8 JUMP JUMPDEST SWAP6 POP DUP1 NOT DUP5 AND SWAP4 POP DUP1 DUP7 AND DUP5 OR SWAP3 POP POP POP SWAP4 SWAP3 POP POP POP JUMP JUMPDEST PUSH0 DUP2 SWAP1 POP SWAP2 SWAP1 POP JUMP JUMPDEST PUSH0 PUSH3 0x862 PUSH3 0x85C PUSH3 0x856 DUP5 PUSH3 0x667 JUMP JUMPDEST PUSH3 0x839 JUMP JUMPDEST PUSH3 0x667 JUMP JUMPDEST SWAP1 POP SWAP2 SWAP1 POP JUMP JUMPDEST PUSH0 DUP2 SWAP1 POP SWAP2 SWAP1 POP JUMP JUMPDEST PUSH3 0x87D DUP4 PUSH3 0x842 JUMP JUMPDEST PUSH3 0x895 PUSH3 0x88C DUP3 PUSH3 0x869 JUMP JUMPDEST DUP5 DUP5 SLOAD PUSH3 0x7E4 JUMP JUMPDEST DUP3 SSTORE POP POP POP POP JUMP JUMPDEST PUSH0 SWAP1 JUMP JUMPDEST PUSH3 0x8AB PUSH3 0x89D JUMP JUMPDEST PUSH3 0x8B8 DUP2 DUP5 DUP5 PUSH3 0x872 JUMP JUMPDEST POP POP POP JUMP JUMPDEST JUMPDEST DUP2 DUP2 LT ISZERO PUSH3 0x8DF JUMPI PUSH3 0x8D3 PUSH0 DUP3 PUSH3 0x8A1 JUMP JUMPDEST PUSH1 0x1 DUP2 ADD SWAP1 POP PUSH3 0x8BE JUMP JUMPDEST POP POP JUMP JUMPDEST PUSH1 0x1F DUP3 GT ISZERO PUSH3 0x92E JUMPI PUSH3 0x8F8 DUP2 PUSH3 0x7B7 JUMP JUMPDEST PUSH3 0x903 DUP5 PUSH3 0x7C9 JUMP JUMPDEST DUP2 ADD PUSH1 0x20 DUP6 LT ISZERO PUSH3 0x913 JUMPI DUP2 SWAP1 POP JUMPDEST PUSH3 0x92B PUSH3 0x922 DUP6 PUSH3 0x7C9 JUMP JUMPDEST DUP4 ADD DUP3 PUSH3 0x8BD JUMP JUMPDEST POP POP JUMPDEST POP POP POP JUMP JUMPDEST PUSH0 DUP3 DUP3 SHR SWAP1 POP SWAP3 SWAP2 POP POP JUMP JUMPDEST PUSH0 PUSH3 0x950 PUSH0 NOT DUP5 PUSH1 0x8 MUL PUSH3 0x933 JUMP JUMPDEST NOT DUP1 DUP4 AND SWAP2 POP POP SWAP3 SWAP2 POP POP JUMP JUMPDEST PUSH0 PUSH3 0x96A DUP4 DUP4 PUSH3 0x93F JUMP JUMPDEST SWAP2 POP DUP3 PUSH1 0x2 MUL DUP3 OR SWAP1 POP SWAP3 SWAP2 POP POP JUMP JUMPDEST PUSH3 0x985 DUP3 PUSH3 0x74C JUMP JUMPDEST PUSH8 0xFFFFFFFFFFFFFFFF DUP2 GT ISZERO PUSH3 0x9A1 JUMPI PUSH3 0x9A0 PUSH3 0x4D0 JUMP JUMPDEST JUMPDEST PUSH3 0x9AD DUP3 SLOAD PUSH3 0x783 JUMP JUMPDEST PUSH3 0x9BA DUP3 DUP3 DUP6 PUSH3 0x8E3 JUMP JUMPDEST PUSH0 PUSH1 0x20 SWAP1 POP PUSH1 0x1F DUP4 GT PUSH1 0x1 DUP2 EQ PUSH3 0x9F0 JUMPI PUSH0 DUP5 ISZERO PUSH3 0x9DB JUMPI DUP3 DUP8 ADD MLOAD SWAP1 POP JUMPDEST PUSH3 0x9E7 DUP6 DUP3 PUSH3 0x95D JUMP JUMPDEST DUP7 SSTORE POP PUSH3 0xA56 JUMP JUMPDEST PUSH1 0x1F NOT DUP5 AND PUSH3 0xA00 DUP7 PUSH3 0x7B7 JUMP JUMPDEST PUSH0 JUMPDEST DUP3 DUP2 LT ISZERO PUSH3 0xA29 JUMPI DUP5 DUP10 ADD MLOAD DUP3 SSTORE PUSH1 0x1 DUP3 ADD SWAP2 POP PUSH1 0x20 DUP6 ADD SWAP5 POP PUSH1 0x20 DUP2 ADD SWAP1 POP PUSH3 0xA02 JUMP JUMPDEST DUP7 DUP4 LT ISZERO PUSH3 0xA49 JUMPI DUP5 DUP10 ADD MLOAD PUSH3 0xA45 PUSH1 0x1F DUP10 AND DUP3 PUSH3 0x93F JUMP JUMPDEST DUP4 SSTORE POP JUMPDEST PUSH1 0x1 PUSH1 0x2 DUP9 MUL ADD DUP9 SSTORE POP POP POP JUMPDEST POP POP POP POP POP POP JUMP JUMPDEST PUSH0 PUSH20 0xFFFFFFFFFFFFFFFFFFFFFFFFFFFFFFFFFFFFFFFF DUP3 AND SWAP1 POP SWAP2 SWAP1 POP JUMP JUMPDEST PUSH0 PUSH3 0xA89 DUP3 PUSH3 0xA5E JUMP JUMPDEST SWAP1 POP SWAP2 SWAP1 POP JUMP JUMPDEST PUSH3 0xA9B DUP2 PUSH3 0xA7D JUMP JUMPDEST DUP3 MSTORE POP POP JUMP JUMPDEST PUSH0 PUSH1 0x20 DUP3 ADD SWAP1 POP PUSH3 0xAB6 PUSH0 DUP4 ADD DUP5 PUSH3 0xA90 JUMP JUMPDEST SWAP3 SWAP2 POP POP JUMP JUMPDEST PUSH32 0x4E487B7100000000000000000000000000000000000000000000000000000000 PUSH0 MSTORE PUSH1 0x11 PUSH1 0x4 MSTORE PUSH1 0x24 PUSH0 REVERT JUMPDEST PUSH0 DUP2 PUSH1 0x1 SHR SWAP1 POP SWAP2 SWAP1 POP JUMP JUMPDEST PUSH0 DUP1 DUP3 SWAP2 POP DUP4 SWAP1 POP JUMPDEST PUSH1 0x1 DUP6 GT ISZERO PUSH3 0xB46 JUMPI DUP1 DUP7 DIV DUP2 GT ISZERO PUSH3 0xB1E JUMPI PUSH3 0xB1D PUSH3 0xABC JUMP JUMPDEST JUMPDEST PUSH1 0x1 DUP6 AND ISZERO PUSH3 0xB2E JUMPI DUP1 DUP3 MUL SWAP2 POP JUMPDEST DUP1 DUP2 MUL SWAP1 POP PUSH3 0xB3E DUP6 PUSH3 0xAE9 JUMP JUMPDEST SWAP5 POP PUSH3 0xAFE JUMP JUMPDEST SWAP5 POP SWAP5 SWAP3 POP POP POP JUMP JUMPDEST PUSH0 DUP3 PUSH3 0xB60 JUMPI PUSH1 0x1 SWAP1 POP PUSH3 0xC32 JUMP JUMPDEST DUP2 PUSH3 0xB6F JUMPI PUSH0 SWAP1 POP PUSH3 0xC32 JUMP JUMPDEST DUP2 PUSH1 0x1 DUP2 EQ PUSH3 0xB88 JUMPI PUSH1 0x2 DUP2 EQ PUSH3 0xB93 JUMPI PUSH3 0xBC9 JUMP JUMPDEST PUSH1 0x1 SWAP2 POP POP PUSH3 0xC32 JUMP JUMPDEST PUSH1 0xFF DUP5 GT ISZERO PUSH3 0xBA8 JUMPI PUSH3 0xBA7 PUSH3 0xABC JUMP JUMPDEST JUMPDEST DUP4 PUSH1 0x2 EXP SWAP2 POP DUP5 DUP3 GT ISZERO PUSH3 0xBC2 JUMPI PUSH3 0xBC1 PUSH3 0xABC JUMP JUMPDEST JUMPDEST POP PUSH3 0xC32 JUMP JUMPDEST POP PUSH1 0x20 DUP4 LT PUSH2 0x133 DUP4 LT AND PUSH1 0x4E DUP5 LT PUSH1 0xB DUP5 LT AND OR ISZERO PUSH3 0xC03 JUMPI DUP3 DUP3 EXP SWAP1 POP DUP4 DUP2 GT ISZERO PUSH3 0xBFD JUMPI PUSH3 0xBFC PUSH3 0xABC JUMP JUMPDEST JUMPDEST PUSH3 0xC32 JUMP JUMPDEST PUSH3 0xC12 DUP5 DUP5 DUP5 PUSH1 0x1 PUSH3 0xAF5 JUMP JUMPDEST SWAP3 POP SWAP1 POP DUP2 DUP5 DIV DUP2 GT ISZERO PUSH3 0xC2C JUMPI PUSH3 0xC2B PUSH3 0xABC JUMP JUMPDEST JUMPDEST DUP2 DUP2 MUL SWAP1 POP JUMPDEST SWAP4 SWAP3 POP POP POP JUMP JUMPDEST PUSH0 PUSH3 0xC45 DUP3 PUSH3 0x667 JUMP JUMPDEST SWAP2 POP PUSH3 0xC52 DUP4 PUSH3 0x62C JUMP JUMPDEST SWAP3 POP PUSH3 0xC81 PUSH32 0xFFFFFFFFFFFFFFFFFFFFFFFFFFFFFFFFFFFFFFFFFFFFFFFFFFFFFFFFFFFFFFFF DUP5 DUP5 PUSH3 0xB4F JUMP JUMPDEST SWAP1 POP SWAP3 SWAP2 POP POP JUMP JUMPDEST PUSH0 PUSH3 0xC95 DUP3 PUSH3 0x667 JUMP JUMPDEST SWAP2 POP PUSH3 0xCA2 DUP4 PUSH3 0x667 JUMP JUMPDEST SWAP3 POP DUP3 DUP3 MUL PUSH3 0xCB2 DUP2 PUSH3 0x667 JUMP JUMPDEST SWAP2 POP DUP3 DUP3 DIV DUP5 EQ DUP4 ISZERO OR PUSH3 0xCCC JUMPI PUSH3 0xCCB PUSH3 0xABC JUMP JUMPDEST JUMPDEST POP SWAP3 SWAP2 POP POP JUMP JUMPDEST PUSH0 PUSH3 0xCDF DUP3 PUSH3 0x667 JUMP JUMPDEST SWAP2 POP PUSH3 0xCEC DUP4 PUSH3 0x667 JUMP JUMPDEST SWAP3 POP DUP3 DUP3 ADD SWAP1 POP DUP1 DUP3 GT ISZERO PUSH3 0xD07 JUMPI PUSH3 0xD06 PUSH3 0xABC JUMP JUMPDEST JUMPDEST SWAP3 SWAP2 POP POP JUMP JUMPDEST PUSH3 0xD18 DUP2 PUSH3 0x667 JUMP JUMPDEST DUP3 MSTORE POP POP JUMP JUMPDEST PUSH0 PUSH1 0x60 DUP3 ADD SWAP1 POP PUSH3 0xD33 PUSH0 DUP4 ADD DUP7 PUSH3 0xA90 JUMP JUMPDEST PUSH3 0xD42 PUSH1 0x20 DUP4 ADD DUP6 PUSH3 0xD0D JUMP JUMPDEST PUSH3 0xD51 PUSH1 0x40 DUP4 ADD DUP5 PUSH3 0xD0D JUMP JUMPDEST SWAP5 SWAP4 POP POP POP POP JUMP JUMPDEST PUSH0 PUSH1 0x20 DUP3 ADD SWAP1 POP PUSH3 0xD6E PUSH0 DUP4 ADD DUP5 PUSH3 0xD0D JUMP JUMPDEST SWAP3 SWAP2 POP POP JUMP JUMPDEST PUSH2 0x146F DUP1 PUSH3 0xD82 PUSH0 CODECOPY PUSH0 RETURN INVALID PUSH1 0x80 PUSH1 0x40 MSTORE CALLVALUE DUP1 ISZERO PUSH2 0xF JUMPI PUSH0 DUP1 REVERT JUMPDEST POP PUSH1 0x4 CALLDATASIZE LT PUSH2 0xE8 JUMPI PUSH0 CALLDATALOAD PUSH1 0xE0 SHR DUP1 PUSH4 0x715018A6 GT PUSH2 0x8A JUMPI DUP1 PUSH4 0x95D89B41 GT PUSH2 0x64 JUMPI DUP1 PUSH4 0x95D89B41 EQ PUSH2 0x236 JUMPI DUP1 PUSH4 0xA9059CBB EQ PUSH2 0x254 JUMPI DUP1 PUSH4 0xDD62ED3E EQ PUSH2 0x284 JUMPI DUP1 PUSH4 0xF2FDE38B EQ PUSH2 0x2B4 JUMPI PUSH2 0xE8 JUMP JUMPDEST DUP1 PUSH4 0x715018A6 EQ PUSH2 0x1F2 JUMPI DUP1 PUSH4 0x88D695B2 EQ PUSH2 0x1FC JUMPI DUP1 PUSH4 0x8DA5CB5B EQ PUSH2 0x218 JUMPI PUSH2 0xE8 JUMP JUMPDEST DUP1 PUSH4 0x23B872DD GT PUSH2 0xC6 JUMPI DUP1 PUSH4 0x23B872DD EQ PUSH2 0x158 JUMPI DUP1 PUSH4 0x313CE567 EQ PUSH2 0x188 JUMPI DUP1 PUSH4 0x40C10F19 EQ PUSH2 0x1A6 JUMPI DUP1 PUSH4 0x70A08231 EQ PUSH2 0x1C2 JUMPI PUSH2 0xE8 JUMP JUMPDEST DUP1 PUSH4 0x6FDDE03 EQ PUSH2 0xEC JUMPI DUP1 PUSH4 0x95EA7B3 EQ PUSH2 0x10A JUMPI DUP1 PUSH4 0x18160DDD EQ PUSH2 0x13A JUMPI JUMPDEST PUSH0 DUP1 REVERT JUMPDEST PUSH2 0xF4 PUSH2 0x2D0 JUMP JUMPDEST PUSH1 0x40 MLOAD PUSH2 0x101 SWAP2 SWAP1 PUSH2 0xEAE JUMP JUMPDEST PUSH1 0x40 MLOAD DUP1 SWAP2 SUB SWAP1 RETURN JUMPDEST PUSH2 0x124 PUSH1 0x4 DUP1 CALLDATASIZE SUB DUP2 ADD SWAP1 PUSH2 0x11F SWAP2 SWAP1 PUSH2 0xF63 JUMP JUMPDEST PUSH2 0x360 JUMP JUMPDEST PUSH1 0x40 MLOAD PUSH2 0x131 SWAP2 SWAP1 PUSH2 0xFBB JUMP JUMPDEST PUSH1 0x40 MLOAD DUP1 SWAP2 SUB SWAP1 RETURN JUMPDEST PUSH2 0x142 PUSH2 0x382 JUMP JUMPDEST PUSH1 0x40 MLOAD PUSH2 0x14F SWAP2 SWAP1 PUSH2 0xFE3 JUMP JUMPDEST PUSH1 0x40 MLOAD DUP1 SWAP2 SUB SWAP1 RETURN JUMPDEST PUSH2 0x172 PUSH1 0x4 DUP1 CALLDATASIZE SUB DUP2 ADD SWAP1 PUSH2 0x16D SWAP2 SWAP1 PUSH2 0xFFC JUMP JUMPDEST PUSH2 0x38B JUMP JUMPDEST PUSH1 0x40 MLOAD PUSH2 0x17F SWAP2 SWAP1 PUSH2 0xFBB JUMP JUMPDEST PUSH1 0x40 MLOAD DUP1 SWAP2 SUB SWAP1 RETURN JUMPDEST PUSH2 0x190 PUSH2 0x3B9 JUMP JUMPDEST PUSH1 0x40 MLOAD PUSH2 0x19D SWAP2 SWAP1 PUSH2 0x1067 JUMP JUMPDEST PUSH1 0x40 MLOAD DUP1 SWAP2 SUB SWAP1 RETURN JUMPDEST PUSH2 0x1C0 PUSH1 0x4 DUP1 CALLDATASIZE SUB DUP2 ADD SWAP1 PUSH2 0x1BB SWAP2 SWAP1 PUSH2 0xF63 JUMP JUMPDEST PUSH2 0x3CF JUMP JUMPDEST STOP JUMPDEST PUSH2 0x1DC PUSH1 0x4 DUP1 CALLDATASIZE SUB DUP2 ADD SWAP1 PUSH2 0x1D7 SWAP2 SWAP1 PUSH2 0x1080 JUMP JUMPDEST PUSH2 0x3E5 JUMP JUMPDEST PUSH1 0x40 MLOAD PUSH2 0x1E9 SWAP2 SWAP1 PUSH2 0xFE3 JUMP JUMPDEST PUSH1 0x40 MLOAD DUP1 SWAP2 SUB SWAP1 RETURN JUMPDEST PUSH2 0x1FA PUSH2 0x42A JUMP JUMPDEST STOP JUMPDEST PUSH2 0x216 PUSH1 0x4 DUP1 CALLDATASIZE SUB DUP2 ADD SWAP1 PUSH2 0x211 SWAP2 SWAP1 PUSH2 0x1161 JUMP JUMPDEST PUSH2 0x43D JUMP JUMPDEST STOP JUMPDEST PUSH2 0x220 PUSH2 0x4F7 JUMP JUMPDEST PUSH1 0x40 MLOAD PUSH2 0x22D SWAP2 SWAP1 PUSH2 0x11EE JUMP JUMPDEST PUSH1 0x40 MLOAD DUP1 SWAP2 SUB SWAP1 RETURN JUMPDEST PUSH2 0x23E PUSH2 0x51F JUMP JUMPDEST PUSH1 0x40 MLOAD PUSH2 0x24B SWAP2 SWAP1 PUSH2 0xEAE JUMP JUMPDEST PUSH1 0x40 MLOAD DUP1 SWAP2 SUB SWAP1 RETURN JUMPDEST PUSH2 0x26E PUSH1 0x4 DUP1 CALLDATASIZE SUB DUP2 ADD SWAP1 PUSH2 0x269 SWAP2 SWAP1 PUSH2 0xF63 JUMP JUMPDEST PUSH2 0x5AF JUMP JUMPDEST PUSH1 0x40 MLOAD PUSH2 0x27B SWAP2 SWAP1 PUSH2 0xFBB JUMP JUMPDEST PUSH1 0x40 MLOAD DUP1 SWAP2 SUB SWAP1 RETURN JUMPDEST PUSH2 0x29E PUSH1 0x4 DUP1 CALLDATASIZE SUB DUP2 ADD SWAP1 PUSH2 0x299 SWAP2 SWAP1 PUSH2 0x1207 JUMP JUMPDEST PUSH2 0x5D1 JUMP JUMPDEST PUSH1 0x40 MLOAD PUSH2 0x2AB SWAP2 SWAP1 PUSH2 0xFE3 JUMP JUMPDEST PUSH1 0x40 MLOAD DUP1 SWAP2 SUB SWAP1 RETURN JUMPDEST PUSH2 0x2CE PUSH1 0x4 DUP1 CALLDATASIZE SUB DUP2 ADD SWAP1 PUSH2 0x2C9 SWAP2 SWAP1 PUSH2 0x1080 JUMP JUMPDEST PUSH2 0x653 JUMP JUMPDEST STOP JUMPDEST PUSH1 0x60 PUSH1 0x3 DUP1 SLOAD PUSH2 0x2DF SWAP1 PUSH2 0x1272 JUMP JUMPDEST DUP1 PUSH1 0x1F ADD PUSH1 0x20 DUP1 SWAP2 DIV MUL PUSH1 0x20 ADD PUSH1 0x40 MLOAD SWAP1 DUP2 ADD PUSH1 0x40 MSTORE DUP1 SWAP3 SWAP2 SWAP1 DUP2 DUP2 MSTORE PUSH1 0x20 ADD DUP3 DUP1 SLOAD PUSH2 0x30B SWAP1 PUSH2 0x1272 JUMP JUMPDEST DUP1 ISZERO PUSH2 0x356 JUMPI DUP1 PUSH1 0x1F LT PUSH2 0x32D JUMPI PUSH2 0x100 DUP1 DUP4 SLOAD DIV MUL DUP4 MSTORE SWAP2 PUSH1 0x20 ADD SWAP2 PUSH2 0x356 JUMP JUMPDEST DUP3 ADD SWAP2 SWAP1 PUSH0 MSTORE PUSH1 0x20 PUSH0 KECCAK256 SWAP1 JUMPDEST DUP2 SLOAD DUP2 MSTORE SWAP1 PUSH1 0x1 ADD SWAP1 PUSH1 0x20 ADD DUP1 DUP4 GT PUSH2 0x339 JUMPI DUP3 SWAP1 SUB PUSH1 0x1F AND DUP3 ADD SWAP2 JUMPDEST POP POP POP POP POP SWAP1 POP SWAP1 JUMP JUMPDEST PUSH0 DUP1 PUSH2 0x36A PUSH2 0x6D7 JUMP JUMPDEST SWAP1 POP PUSH2 0x377 DUP2 DUP6 DUP6 PUSH2 0x6DE JUMP JUMPDEST PUSH1 0x1 SWAP2 POP POP SWAP3 SWAP2 POP POP JUMP JUMPDEST PUSH0 PUSH1 0x2 SLOAD SWAP1 POP SWAP1 JUMP JUMPDEST PUSH0 DUP1 PUSH2 0x395 PUSH2 0x6D7 JUMP JUMPDEST SWAP1 POP PUSH2 0x3A2 DUP6 DUP3 DUP6 PUSH2 0x6F0 JUMP JUMPDEST PUSH2 0x3AD DUP6 DUP6 DUP6 PUSH2 0x783 JUMP JUMPDEST PUSH1 0x1 SWAP2 POP POP SWAP4 SWAP3 POP POP POP JUMP JUMPDEST PUSH0 PUSH1 0x5 PUSH1 0x14 SWAP1 SLOAD SWAP1 PUSH2 0x100 EXP SWAP1 DIV PUSH1 0xFF AND SWAP1 POP SWAP1 JUMP JUMPDEST PUSH2 0x3D7 PUSH2 0x873 JUMP JUMPDEST PUSH2 0x3E1 DUP3 DUP3 PUSH2 0x8FA JUMP JUMPDEST POP POP JUMP JUMPDEST PUSH0 DUP1 PUSH0 DUP4 PUSH20 0xFFFFFFFFFFFFFFFFFFFFFFFFFFFFFFFFFFFFFFFF AND PUSH20 0xFFFFFFFFFFFFFFFFFFFFFFFFFFFFFFFFFFFFFFFF AND DUP2 MSTORE PUSH1 0x20 ADD SWAP1 DUP2 MSTORE PUSH1 0x20 ADD PUSH0 KECCAK256 SLOAD SWAP1 POP SWAP2 SWAP1 POP JUMP JUMPDEST PUSH2 0x432 PUSH2 0x873 JUMP JUMPDEST PUSH2 0x43B PUSH0 PUSH2 0x979 JUMP JUMPDEST JUMP JUMPDEST DUP2 DUP2 SWAP1 POP DUP5 DUP5 SWAP1 POP EQ PUSH2 0x485 JUMPI PUSH1 0x40 MLOAD PUSH32 0x8C379A000000000000000000000000000000000000000000000000000000000 DUP2 MSTORE PUSH1 0x4 ADD PUSH2 0x47C SWAP1 PUSH2 0x1312 JUMP JUMPDEST PUSH1 0x40 MLOAD DUP1 SWAP2 SUB SWAP1 REVERT JUMPDEST PUSH0 JUMPDEST DUP5 DUP5 SWAP1 POP DUP2 LT ISZERO PUSH2 0x4F0 JUMPI PUSH2 0x4DC DUP6 DUP6 DUP4 DUP2 DUP2 LT PUSH2 0x4A8 JUMPI PUSH2 0x4A7 PUSH2 0x1330 JUMP JUMPDEST JUMPDEST SWAP1 POP PUSH1 0x20 MUL ADD PUSH1 0x20 DUP2 ADD SWAP1 PUSH2 0x4BD SWAP2 SWAP1 PUSH2 0x1080 JUMP JUMPDEST DUP5 DUP5 DUP5 DUP2 DUP2 LT PUSH2 0x4D0 JUMPI PUSH2 0x4CF PUSH2 0x1330 JUMP JUMPDEST JUMPDEST SWAP1 POP PUSH1 0x20 MUL ADD CALLDATALOAD PUSH2 0x5AF JUMP JUMPDEST POP DUP1 DUP1 PUSH2 0x4E8 SWAP1 PUSH2 0x138A JUMP JUMPDEST SWAP2 POP POP PUSH2 0x487 JUMP JUMPDEST POP POP POP POP POP JUMP JUMPDEST PUSH0 PUSH1 0x5 PUSH0 SWAP1 SLOAD SWAP1 PUSH2 0x100 EXP SWAP1 DIV PUSH20 0xFFFFFFFFFFFFFFFFFFFFFFFFFFFFFFFFFFFFFFFF AND SWAP1 POP SWAP1 JUMP JUMPDEST PUSH1 0x60 PUSH1 0x4 DUP1 SLOAD PUSH2 0x52E SWAP1 PUSH2 0x1272 JUMP JUMPDEST DUP1 PUSH1 0x1F ADD PUSH1 0x20 DUP1 SWAP2 DIV MUL PUSH1 0x20 ADD PUSH1 0x40 MLOAD SWAP1 DUP2 ADD PUSH1 0x40 MSTORE DUP1 SWAP3 SWAP2 SWAP1 DUP2 DUP2 MSTORE PUSH1 0x20 ADD DUP3 DUP1 SLOAD PUSH2 0x55A SWAP1 PUSH2 0x1272 JUMP JUMPDEST DUP1 ISZERO PUSH2 0x5A5 JUMPI DUP1 PUSH1 0x1F LT PUSH2 0x57C JUMPI PUSH2 0x100 DUP1 DUP4 SLOAD DIV MUL DUP4 MSTORE SWAP2 PUSH1 0x20 ADD SWAP2 PUSH2 0x5A5 JUMP JUMPDEST DUP3 ADD SWAP2 SWAP1 PUSH0 MSTORE PUSH1 0x20 PUSH0 KECCAK256 SWAP1 JUMPDEST DUP2 SLOAD DUP2 MSTORE SWAP1 PUSH1 0x1 ADD SWAP1 PUSH1 0x20 ADD DUP1 DUP4 GT PUSH2 0x588 JUMPI DUP3 SWAP1 SUB PUSH1 0x1F AND DUP3 ADD SWAP2 JUMPDEST POP POP POP POP POP SWAP1 POP SWAP1 JUMP JUMPDEST PUSH0 DUP1 PUSH2 0x5B9 PUSH2 0x6D7 JUMP JUMPDEST SWAP1 POP PUSH2 0x5C6 DUP2 DUP6 DUP6 PUSH2 0x783 JUMP JUMPDEST PUSH1 0x1 SWAP2 POP POP SWAP3 SWAP2 POP POP JUMP JUMPDEST PUSH0 PUSH1 0x1 PUSH0 DUP5 PUSH20 0xFFFFFFFFFFFFFFFFFFFFFFFFFFFFFFFFFFFFFFFF AND PUSH20 0xFFFFFFFFFFFFFFFFFFFFFFFFFFFFFFFFFFFFFFFF AND DUP2 MSTORE PUSH1 0x20 ADD SWAP1 DUP2 MSTORE PUSH1 0x20 ADD PUSH0 KECCAK256 PUSH0 DUP4 PUSH20 0xFFFFFFFFFFFFFFFFFFFFFFFFFFFFFFFFFFFFFFFF AND PUSH20 0xFFFFFFFFFFFFFFFFFFFFFFFFFFFFFFFFFFFFFFFF AND DUP2 MSTORE PUSH1 0x20 ADD SWAP1 DUP2 MSTORE PUSH1 0x20 ADD PUSH0 KECCAK256 SLOAD SWAP1 POP SWAP3 SWAP2 POP POP JUMP JUMPDEST PUSH2 0x65B PUSH2 0x873 JUMP JUMPDEST PUSH0 PUSH20 0xFFFFFFFFFFFFFFFFFFFFFFFFFFFFFFFFFFFFFFFF AND DUP2 PUSH20 0xFFFFFFFFFFFFFFFFFFFFFFFFFFFFFFFFFFFFFFFF AND SUB PUSH2 0x6CB JUMPI PUSH0 PUSH1 0x40 MLOAD PUSH32 0x1E4FBDF700000000000000000000000000000000000000000000000000000000 DUP2 MSTORE PUSH1 0x4 ADD PUSH2 0x6C2 SWAP2 SWAP1 PUSH2 0x11EE JUMP JUMPDEST PUSH1 0x40 MLOAD DUP1 SWAP2 SUB SWAP1 REVERT JUMPDEST PUSH2 0x6D4 DUP2 PUSH2 0x979 JUMP JUMPDEST POP JUMP JUMPDEST PUSH0 CALLER SWAP1 POP SWAP1 JUMP JUMPDEST PUSH2 0x6EB DUP4 DUP4 DUP4 PUSH1 0x1 PUSH2 0xA3C JUMP JUMPDEST POP POP POP JUMP JUMPDEST PUSH0 PUSH2 0x6FB DUP5 DUP5 PUSH2 0x5D1 JUMP JUMPDEST SWAP1 POP PUSH32 0xFFFFFFFFFFFFFFFFFFFFFFFFFFFFFFFFFFFFFFFFFFFFFFFFFFFFFFFFFFFFFFFF DUP2 LT ISZERO PUSH2 0x77D JUMPI DUP2 DUP2 LT ISZERO PUSH2 0x76E JUMPI DUP3 DUP2 DUP4 PUSH1 0x40 MLOAD PUSH32 0xFB8F41B200000000000000000000000000000000000000000000000000000000 DUP2 MSTORE PUSH1 0x4 ADD PUSH2 0x765 SWAP4 SWAP3 SWAP2 SWAP1 PUSH2 0x13D1 JUMP JUMPDEST PUSH1 0x40 MLOAD DUP1 SWAP2 SUB SWAP1 REVERT JUMPDEST PUSH2 0x77C DUP5 DUP5 DUP5 DUP5 SUB PUSH0 PUSH2 0xA3C JUMP JUMPDEST JUMPDEST POP POP POP POP JUMP JUMPDEST PUSH0 PUSH20 0xFFFFFFFFFFFFFFFFFFFFFFFFFFFFFFFFFFFFFFFF AND DUP4 PUSH20 0xFFFFFFFFFFFFFFFFFFFFFFFFFFFFFFFFFFFFFFFF AND SUB PUSH2 0x7F3 JUMPI PUSH0 PUSH1 0x40 MLOAD PUSH32 0x96C6FD1E00000000000000000000000000000000000000000000000000000000 DUP2 MSTORE PUSH1 0x4 ADD PUSH2 0x7EA SWAP2 SWAP1 PUSH2 0x11EE JUMP JUMPDEST PUSH1 0x40 MLOAD DUP1 SWAP2 SUB SWAP1 REVERT JUMPDEST PUSH0 PUSH20 0xFFFFFFFFFFFFFFFFFFFFFFFFFFFFFFFFFFFFFFFF AND DUP3 PUSH20 0xFFFFFFFFFFFFFFFFFFFFFFFFFFFFFFFFFFFFFFFF AND SUB PUSH2 0x863 JUMPI PUSH0 PUSH1 0x40 MLOAD PUSH32 0xEC442F0500000000000000000000000000000000000000000000000000000000 DUP2 MSTORE PUSH1 0x4 ADD PUSH2 0x85A SWAP2 SWAP1 PUSH2 0x11EE JUMP JUMPDEST PUSH1 0x40 MLOAD DUP1 SWAP2 SUB SWAP1 REVERT JUMPDEST PUSH2 0x86E DUP4 DUP4 DUP4 PUSH2 0xC0B JUMP JUMPDEST POP POP POP JUMP JUMPDEST PUSH2 0x87B PUSH2 0x6D7 JUMP JUMPDEST PUSH20 0xFFFFFFFFFFFFFFFFFFFFFFFFFFFFFFFFFFFFFFFF AND PUSH2 0x899 PUSH2 0x4F7 JUMP JUMPDEST PUSH20 0xFFFFFFFFFFFFFFFFFFFFFFFFFFFFFFFFFFFFFFFF AND EQ PUSH2 0x8F8 JUMPI PUSH2 0x8BC PUSH2 0x6D7 JUMP JUMPDEST PUSH1 0x40 MLOAD PUSH32 0x118CDAA700000000000000000000000000000000000000000000000000000000 DUP2 MSTORE PUSH1 0x4 ADD PUSH2 0x8EF SWAP2 SWAP1 PUSH2 0x11EE JUMP JUMPDEST PUSH1 0x40 MLOAD DUP1 SWAP2 SUB SWAP1 REVERT JUMPDEST JUMP JUMPDEST PUSH0 PUSH20 0xFFFFFFFFFFFFFFFFFFFFFFFFFFFFFFFFFFFFFFFF AND DUP3 PUSH20 0xFFFFFFFFFFFFFFFFFFFFFFFFFFFFFFFFFFFFFFFF AND SUB PUSH2 0x96A JUMPI PUSH0 PUSH1 0x40 MLOAD PUSH32 0xEC442F0500000000000000000000000000000000000000000000000000000000 DUP2 MSTORE PUSH1 0x4 ADD PUSH2 0x961 SWAP2 SWAP1 PUSH2 0x11EE JUMP JUMPDEST PUSH1 0x40 MLOAD DUP1 SWAP2 SUB SWAP1 REVERT JUMPDEST PUSH2 0x975 PUSH0 DUP4 DUP4 PUSH2 0xC0B JUMP JUMPDEST POP POP JUMP JUMPDEST PUSH0 PUSH1 0x5 PUSH0 SWAP1 SLOAD SWAP1 PUSH2 0x100 EXP SWAP1 DIV PUSH20 0xFFFFFFFFFFFFFFFFFFFFFFFFFFFFFFFFFFFFFFFF AND SWAP1 POP DUP2 PUSH1 0x5 PUSH0 PUSH2 0x100 EXP DUP2 SLOAD DUP2 PUSH20 0xFFFFFFFFFFFFFFFFFFFFFFFFFFFFFFFFFFFFFFFF MUL NOT AND SWAP1 DUP4 PUSH20 0xFFFFFFFFFFFFFFFFFFFFFFFFFFFFFFFFFFFFFFFF AND MUL OR SWAP1 SSTORE POP DUP2 PUSH20 0xFFFFFFFFFFFFFFFFFFFFFFFFFFFFFFFFFFFFFFFF AND DUP2 PUSH20 0xFFFFFFFFFFFFFFFFFFFFFFFFFFFFFFFFFFFFFFFF AND PUSH32 0x8BE0079C531659141344CD1FD0A4F28419497F9722A3DAAFE3B4186F6B6457E0 PUSH1 0x40 MLOAD PUSH1 0x40 MLOAD DUP1 SWAP2 SUB SWAP1 LOG3 POP POP JUMP JUMPDEST PUSH0 PUSH20 0xFFFFFFFFFFFFFFFFFFFFFFFFFFFFFFFFFFFFFFFF AND DUP5 PUSH20 0xFFFFFFFFFFFFFFFFFFFFFFFFFFFFFFFFFFFFFFFF AND SUB PUSH2 0xAAC JUMPI PUSH0 PUSH1 0x40 MLOAD PUSH32 0xE602DF0500000000000000000000000000000000000000000000000000000000 DUP2 MSTORE PUSH1 0x4 ADD PUSH2 0xAA3 SWAP2 SWAP1 PUSH2 0x11EE JUMP JUMPDEST PUSH1 0x40 MLOAD DUP1 SWAP2 SUB SWAP1 REVERT JUMPDEST PUSH0 PUSH20 0xFFFFFFFFFFFFFFFFFFFFFFFFFFFFFFFFFFFFFFFF AND DUP4 PUSH20 0xFFFFFFFFFFFFFFFFFFFFFFFFFFFFFFFFFFFFFFFF AND SUB PUSH2 0xB1C JUMPI PUSH0 PUSH1 0x40 MLOAD PUSH32 0x94280D6200000000000000000000000000000000000000000000000000000000 DUP2 MSTORE PUSH1 0x4 ADD PUSH2 0xB13 SWAP2 SWAP1 PUSH2 0x11EE JUMP JUMPDEST PUSH1 0x40 MLOAD DUP1 SWAP2 SUB SWAP1 REVERT JUMPDEST DUP2 PUSH1 0x1 PUSH0 DUP7 PUSH20 0xFFFFFFFFFFFFFFFFFFFFFFFFFFFFFFFFFFFFFFFF AND PUSH20 0xFFFFFFFFFFFFFFFFFFFFFFFFFFFFFFFFFFFFFFFF AND DUP2 MSTORE PUSH1 0x20 ADD SWAP1 DUP2 MSTORE PUSH1 0x20 ADD PUSH0 KECCAK256 PUSH0 DUP6 PUSH20 0xFFFFFFFFFFFFFFFFFFFFFFFFFFFFFFFFFFFFFFFF AND PUSH20 0xFFFFFFFFFFFFFFFFFFFFFFFFFFFFFFFFFFFFFFFF AND DUP2 MSTORE PUSH1 0x20 ADD SWAP1 DUP2 MSTORE PUSH1 0x20 ADD PUSH0 KECCAK256 DUP2 SWAP1 SSTORE POP DUP1 ISZERO PUSH2 0xC05 JUMPI DUP3 PUSH20 0xFFFFFFFFFFFFFFFFFFFFFFFFFFFFFFFFFFFFFFFF AND DUP5 PUSH20 0xFFFFFFFFFFFFFFFFFFFFFFFFFFFFFFFFFFFFFFFF AND PUSH32 0x8C5BE1E5EBEC7D5BD14F71427D1E84F3DD0314C0F7B2291E5B200AC8C7C3B925 DUP5 PUSH1 0x40 MLOAD PUSH2 0xBFC SWAP2 SWAP1 PUSH2 0xFE3 JUMP JUMPDEST PUSH1 0x40 MLOAD DUP1 SWAP2 SUB SWAP1 LOG3 JUMPDEST POP POP POP POP JUMP JUMPDEST PUSH0 PUSH20 0xFFFFFFFFFFFFFFFFFFFFFFFFFFFFFFFFFFFFFFFF AND DUP4 PUSH20 0xFFFFFFFFFFFFFFFFFFFFFFFFFFFFFFFFFFFFFFFF AND SUB PUSH2 0xC5B JUMPI DUP1 PUSH1 0x2 PUSH0 DUP3 DUP3 SLOAD PUSH2 0xC4F SWAP2 SWAP1 PUSH2 0x1406 JUMP JUMPDEST SWAP3 POP POP DUP2 SWAP1 SSTORE POP PUSH2 0xD29 JUMP JUMPDEST PUSH0 DUP1 PUSH0 DUP6 PUSH20 0xFFFFFFFFFFFFFFFFFFFFFFFFFFFFFFFFFFFFFFFF AND PUSH20 0xFFFFFFFFFFFFFFFFFFFFFFFFFFFFFFFFFFFFFFFF AND DUP2 MSTORE PUSH1 0x20 ADD SWAP1 DUP2 MSTORE PUSH1 0x20 ADD PUSH0 KECCAK256 SLOAD SWAP1 POP DUP2 DUP2 LT ISZERO PUSH2 0xCE4 JUMPI DUP4 DUP2 DUP4 PUSH1 0x40 MLOAD PUSH32 0xE450D38C00000000000000000000000000000000000000000000000000000000 DUP2 MSTORE PUSH1 0x4 ADD PUSH2 0xCDB SWAP4 SWAP3 SWAP2 SWAP1 PUSH2 0x13D1 JUMP JUMPDEST PUSH1 0x40 MLOAD DUP1 SWAP2 SUB SWAP1 REVERT JUMPDEST DUP2 DUP2 SUB PUSH0 DUP1 DUP7 PUSH20 0xFFFFFFFFFFFFFFFFFFFFFFFFFFFFFFFFFFFFFFFF AND PUSH20 0xFFFFFFFFFFFFFFFFFFFFFFFFFFFFFFFFFFFFFFFF AND DUP2 MSTORE PUSH1 0x20 ADD SWAP1 DUP2 MSTORE PUSH1 0x20 ADD PUSH0 KECCAK256 DUP2 SWAP1 SSTORE POP POP JUMPDEST PUSH0 PUSH20 0xFFFFFFFFFFFFFFFFFFFFFFFFFFFFFFFFFFFFFFFF AND DUP3 PUSH20 0xFFFFFFFFFFFFFFFFFFFFFFFFFFFFFFFFFFFFFFFF AND SUB PUSH2 0xD70 JUMPI DUP1 PUSH1 0x2 PUSH0 DUP3 DUP3 SLOAD SUB SWAP3 POP POP DUP2 SWAP1 SSTORE POP PUSH2 0xDBA JUMP JUMPDEST DUP1 PUSH0 DUP1 DUP5 PUSH20 0xFFFFFFFFFFFFFFFFFFFFFFFFFFFFFFFFFFFFFFFF AND PUSH20 0xFFFFFFFFFFFFFFFFFFFFFFFFFFFFFFFFFFFFFFFF AND DUP2 MSTORE PUSH1 0x20 ADD SWAP1 DUP2 MSTORE PUSH1 0x20 ADD PUSH0 KECCAK256 PUSH0 DUP3 DUP3 SLOAD ADD SWAP3 POP POP DUP2 SWAP1 SSTORE POP JUMPDEST DUP2 PUSH20 0xFFFFFFFFFFFFFFFFFFFFFFFFFFFFFFFFFFFFFFFF AND DUP4 PUSH20 0xFFFFFFFFFFFFFFFFFFFFFFFFFFFFFFFFFFFFFFFF AND PUSH32 0xDDF252AD1BE2C89B69C2B068FC378DAA952BA7F163C4A11628F55A4DF523B3EF DUP4 PUSH1 0x40 MLOAD PUSH2 0xE17 SWAP2 SWAP1 PUSH2 0xFE3 JUMP JUMPDEST PUSH1 0x40 MLOAD DUP1 SWAP2 SUB SWAP1 LOG3 POP POP POP JUMP JUMPDEST PUSH0 DUP2 MLOAD SWAP1 POP SWAP2 SWAP1 POP JUMP JUMPDEST PUSH0 DUP3 DUP3 MSTORE PUSH1 0x20 DUP3 ADD SWAP1 POP SWAP3 SWAP2 POP POP JUMP JUMPDEST PUSH0 JUMPDEST DUP4 DUP2 LT ISZERO PUSH2 0xE5B JUMPI DUP1 DUP3 ADD MLOAD DUP2 DUP5 ADD MSTORE PUSH1 0x20 DUP2 ADD SWAP1 POP PUSH2 0xE40 JUMP JUMPDEST PUSH0 DUP5 DUP5 ADD MSTORE POP POP POP POP JUMP JUMPDEST PUSH0 PUSH1 0x1F NOT PUSH1 0x1F DUP4 ADD AND SWAP1 POP SWAP2 SWAP1 POP JUMP JUMPDEST PUSH0 PUSH2 0xE80 DUP3 PUSH2 0xE24 JUMP JUMPDEST PUSH2 0xE8A DUP2 DUP6 PUSH2 0xE2E JUMP JUMPDEST SWAP4 POP PUSH2 0xE9A DUP2 DUP6 PUSH1 0x20 DUP7 ADD PUSH2 0xE3E JUMP JUMPDEST PUSH2 0xEA3 DUP2 PUSH2 0xE66 JUMP JUMPDEST DUP5 ADD SWAP2 POP POP SWAP3 SWAP2 POP POP JUMP JUMPDEST PUSH0 PUSH1 0x20 DUP3 ADD SWAP1 POP DUP2 DUP2 SUB PUSH0 DUP4 ADD MSTORE PUSH2 0xEC6 DUP2 DUP5 PUSH2 0xE76 JUMP JUMPDEST SWAP1 POP SWAP3 SWAP2 POP POP JUMP JUMPDEST PUSH0 DUP1 REVERT JUMPDEST PUSH0 DUP1 REVERT JUMPDEST PUSH0 PUSH20 0xFFFFFFFFFFFFFFFFFFFFFFFFFFFFFFFFFFFFFFFF DUP3 AND SWAP1 POP SWAP2 SWAP1 POP JUMP JUMPDEST PUSH0 PUSH2 0xEFF DUP3 PUSH2 0xED6 JUMP JUMPDEST SWAP1 POP SWAP2 SWAP1 POP JUMP JUMPDEST PUSH2 0xF0F DUP2 PUSH2 0xEF5 JUMP JUMPDEST DUP2 EQ PUSH2 0xF19 JUMPI PUSH0 DUP1 REVERT JUMPDEST POP JUMP JUMPDEST PUSH0 DUP2 CALLDATALOAD SWAP1 POP PUSH2 0xF2A DUP2 PUSH2 0xF06 JUMP JUMPDEST SWAP3 SWAP2 POP POP JUMP JUMPDEST PUSH0 DUP2 SWAP1 POP SWAP2 SWAP1 POP JUMP JUMPDEST PUSH2 0xF42 DUP2 PUSH2 0xF30 JUMP JUMPDEST DUP2 EQ PUSH2 0xF4C JUMPI PUSH0 DUP1 REVERT JUMPDEST POP JUMP JUMPDEST PUSH0 DUP2 CALLDATALOAD SWAP1 POP PUSH2 0xF5D DUP2 PUSH2 0xF39 JUMP JUMPDEST SWAP3 SWAP2 POP POP JUMP JUMPDEST PUSH0 DUP1 PUSH1 0x40 DUP4 DUP6 SUB SLT ISZERO PUSH2 0xF79 JUMPI PUSH2 0xF78 PUSH2 0xECE JUMP JUMPDEST JUMPDEST PUSH0 PUSH2 0xF86 DUP6 DUP3 DUP7 ADD PUSH2 0xF1C JUMP JUMPDEST SWAP3 POP POP PUSH1 0x20 PUSH2 0xF97 DUP6 DUP3 DUP7 ADD PUSH2 0xF4F JUMP JUMPDEST SWAP2 POP POP SWAP3 POP SWAP3 SWAP1 POP JUMP JUMPDEST PUSH0 DUP2 ISZERO ISZERO SWAP1 POP SWAP2 SWAP1 POP JUMP JUMPDEST PUSH2 0xFB5 DUP2 PUSH2 0xFA1 JUMP JUMPDEST DUP3 MSTORE POP POP JUMP JUMPDEST PUSH0 PUSH1 0x20 DUP3 ADD SWAP1 POP PUSH2 0xFCE PUSH0 DUP4 ADD DUP5 PUSH2 0xFAC JUMP JUMPDEST SWAP3 SWAP2 POP POP JUMP JUMPDEST PUSH2 0xFDD DUP2 PUSH2 0xF30 JUMP JUMPDEST DUP3 MSTORE POP POP JUMP JUMPDEST PUSH0 PUSH1 0x20 DUP3 ADD SWAP1 POP PUSH2 0xFF6 PUSH0 DUP4 ADD DUP5 PUSH2 0xFD4 JUMP JUMPDEST SWAP3 SWAP2 POP POP JUMP JUMPDEST PUSH0 DUP1 PUSH0 PUSH1 0x60 DUP5 DUP7 SUB SLT ISZERO PUSH2 0x1013 JUMPI PUSH2 0x1012 PUSH2 0xECE JUMP JUMPDEST JUMPDEST PUSH0 PUSH2 0x1020 DUP7 DUP3 DUP8 ADD PUSH2 0xF1C JUMP JUMPDEST SWAP4 POP POP PUSH1 0x20 PUSH2 0x1031 DUP7 DUP3 DUP8 ADD PUSH2 0xF1C JUMP JUMPDEST SWAP3 POP POP PUSH1 0x40 PUSH2 0x1042 DUP7 DUP3 DUP8 ADD PUSH2 0xF4F JUMP JUMPDEST SWAP2 POP POP SWAP3 POP SWAP3 POP SWAP3 JUMP JUMPDEST PUSH0 PUSH1 0xFF DUP3 AND SWAP1 POP SWAP2 SWAP1 POP JUMP JUMPDEST PUSH2 0x1061 DUP2 PUSH2 0x104C JUMP JUMPDEST DUP3 MSTORE POP POP JUMP JUMPDEST PUSH0 PUSH1 0x20 DUP3 ADD SWAP1 POP PUSH2 0x107A PUSH0 DUP4 ADD DUP5 PUSH2 0x1058 JUMP JUMPDEST SWAP3 SWAP2 POP POP JUMP JUMPDEST PUSH0 PUSH1 0x20 DUP3 DUP5 SUB SLT ISZERO PUSH2 0x1095 JUMPI PUSH2 0x1094 PUSH2 0xECE JUMP JUMPDEST JUMPDEST PUSH0 PUSH2 0x10A2 DUP5 DUP3 DUP6 ADD PUSH2 0xF1C JUMP JUMPDEST SWAP2 POP POP SWAP3 SWAP2 POP POP JUMP JUMPDEST PUSH0 DUP1 REVERT JUMPDEST PUSH0 DUP1 REVERT JUMPDEST PUSH0 DUP1 REVERT JUMPDEST PUSH0 DUP1 DUP4 PUSH1 0x1F DUP5 ADD SLT PUSH2 0x10CC JUMPI PUSH2 0x10CB PUSH2 0x10AB JUMP JUMPDEST JUMPDEST DUP3 CALLDATALOAD SWAP1 POP PUSH8 0xFFFFFFFFFFFFFFFF DUP2 GT ISZERO PUSH2 0x10E9 JUMPI PUSH2 0x10E8 PUSH2 0x10AF JUMP JUMPDEST JUMPDEST PUSH1 0x20 DUP4 ADD SWAP2 POP DUP4 PUSH1 0x20 DUP3 MUL DUP4 ADD GT ISZERO PUSH2 0x1105 JUMPI PUSH2 0x1104 PUSH2 0x10B3 JUMP JUMPDEST JUMPDEST SWAP3 POP SWAP3 SWAP1 POP JUMP JUMPDEST PUSH0 DUP1 DUP4 PUSH1 0x1F DUP5 ADD SLT PUSH2 0x1121 JUMPI PUSH2 0x1120 PUSH2 0x10AB JUMP JUMPDEST JUMPDEST DUP3 CALLDATALOAD SWAP1 POP PUSH8 0xFFFFFFFFFFFFFFFF DUP2 GT ISZERO PUSH2 0x113E JUMPI PUSH2 0x113D PUSH2 0x10AF JUMP JUMPDEST JUMPDEST PUSH1 0x20 DUP4 ADD SWAP2 POP DUP4 PUSH1 0x20 DUP3 MUL DUP4 ADD GT ISZERO PUSH2 0x115A JUMPI PUSH2 0x1159 PUSH2 0x10B3 JUMP JUMPDEST JUMPDEST SWAP3 POP SWAP3 SWAP1 POP JUMP JUMPDEST PUSH0 DUP1 PUSH0 DUP1 PUSH1 0x40 DUP6 DUP8 SUB SLT ISZERO PUSH2 0x1179 JUMPI PUSH2 0x1178 PUSH2 0xECE JUMP JUMPDEST JUMPDEST PUSH0 DUP6 ADD CALLDATALOAD PUSH8 0xFFFFFFFFFFFFFFFF DUP2 GT ISZERO PUSH2 0x1196 JUMPI PUSH2 0x1195 PUSH2 0xED2 JUMP JUMPDEST JUMPDEST PUSH2 0x11A2 DUP8 DUP3 DUP9 ADD PUSH2 0x10B7 JUMP JUMPDEST SWAP5 POP SWAP5 POP POP PUSH1 0x20 DUP6 ADD CALLDATALOAD PUSH8 0xFFFFFFFFFFFFFFFF DUP2 GT ISZERO PUSH2 0x11C5 JUMPI PUSH2 0x11C4 PUSH2 0xED2 JUMP JUMPDEST JUMPDEST PUSH2 0x11D1 DUP8 DUP3 DUP9 ADD PUSH2 0x110C JUMP JUMPDEST SWAP3 POP SWAP3 POP POP SWAP3 SWAP6 SWAP2 SWAP5 POP SWAP3 POP JUMP JUMPDEST PUSH2 0x11E8 DUP2 PUSH2 0xEF5 JUMP JUMPDEST DUP3 MSTORE POP POP JUMP JUMPDEST PUSH0 PUSH1 0x20 DUP3 ADD SWAP1 POP PUSH2 0x1201 PUSH0 DUP4 ADD DUP5 PUSH2 0x11DF JUMP JUMPDEST SWAP3 SWAP2 POP POP JUMP JUMPDEST PUSH0 DUP1 PUSH1 0x40 DUP4 DUP6 SUB SLT ISZERO PUSH2 0x121D JUMPI PUSH2 0x121C PUSH2 0xECE JUMP JUMPDEST JUMPDEST PUSH0 PUSH2 0x122A DUP6 DUP3 DUP7 ADD PUSH2 0xF1C JUMP JUMPDEST SWAP3 POP POP PUSH1 0x20 PUSH2 0x123B DUP6 DUP3 DUP7 ADD PUSH2 0xF1C JUMP JUMPDEST SWAP2 POP POP SWAP3 POP SWAP3 SWAP1 POP JUMP JUMPDEST PUSH32 0x4E487B7100000000000000000000000000000000000000000000000000000000 PUSH0 MSTORE PUSH1 0x22 PUSH1 0x4 MSTORE PUSH1 0x24 PUSH0 REVERT JUMPDEST PUSH0 PUSH1 0x2 DUP3 DIV SWAP1 POP PUSH1 0x1 DUP3 AND DUP1 PUSH2 0x1289 JUMPI PUSH1 0x7F DUP3 AND SWAP2 POP JUMPDEST PUSH1 0x20 DUP3 LT DUP2 SUB PUSH2 0x129C JUMPI PUSH2 0x129B PUSH2 0x1245 JUMP JUMPDEST JUMPDEST POP SWAP2 SWAP1 POP JUMP JUMPDEST PUSH32 0x526563697069656E747320616E6420616D6F756E7473206C656E677468206D69 PUSH0 DUP3 ADD MSTORE PUSH32 0x736D617463680000000000000000000000000000000000000000000000000000 PUSH1 0x20 DUP3 ADD MSTORE POP JUMP JUMPDEST PUSH0 PUSH2 0x12FC PUSH1 0x26 DUP4 PUSH2 0xE2E JUMP JUMPDEST SWAP2 POP PUSH2 0x1307 DUP3 PUSH2 0x12A2 JUMP JUMPDEST PUSH1 0x40 DUP3 ADD SWAP1 POP SWAP2 SWAP1 POP JUMP JUMPDEST PUSH0 PUSH1 0x20 DUP3 ADD SWAP1 POP DUP2 DUP2 SUB PUSH0 DUP4 ADD MSTORE PUSH2 0x1329 DUP2 PUSH2 0x12F0 JUMP JUMPDEST SWAP1 POP SWAP2 SWAP1 POP JUMP JUMPDEST PUSH32 0x4E487B7100000000000000000000000000000000000000000000000000000000 PUSH0 MSTORE PUSH1 0x32 PUSH1 0x4 MSTORE PUSH1 0x24 PUSH0 REVERT JUMPDEST PUSH32 0x4E487B7100000000000000000000000000000000000000000000000000000000 PUSH0 MSTORE PUSH1 0x11 PUSH1 0x4 MSTORE PUSH1 0x24 PUSH0 REVERT JUMPDEST PUSH0 PUSH2 0x1394 DUP3 PUSH2 0xF30 JUMP JUMPDEST SWAP2 POP PUSH32 0xFFFFFFFFFFFFFFFFFFFFFFFFFFFFFFFFFFFFFFFFFFFFFFFFFFFFFFFFFFFFFFFF DUP3 SUB PUSH2 0x13C6 JUMPI PUSH2 0x13C5 PUSH2 0x135D JUMP JUMPDEST JUMPDEST PUSH1 0x1 DUP3 ADD SWAP1 POP SWAP2 SWAP1 POP JUMP JUMPDEST PUSH0 PUSH1 0x60 DUP3 ADD SWAP1 POP PUSH2 0x13E4 PUSH0 DUP4 ADD DUP7 PUSH2 0x11DF JUMP JUMPDEST PUSH2 0x13F1 PUSH1 0x20 DUP4 ADD DUP6 PUSH2 0xFD4 JUMP JUMPDEST PUSH2 0x13FE PUSH1 0x40 DUP4 ADD DUP5 PUSH2 0xFD4 JUMP JUMPDEST SWAP5 SWAP4 POP POP POP POP JUMP JUMPDEST PUSH0 PUSH2 0x1410 DUP3 PUSH2 0xF30 JUMP JUMPDEST SWAP2 POP PUSH2 0x141B DUP4 PUSH2 0xF30 JUMP JUMPDEST SWAP3 POP DUP3 DUP3 ADD SWAP1 POP DUP1 DUP3 GT ISZERO PUSH2 0x1433 JUMPI PUSH2 0x1432 PUSH2 0x135D JUMP JUMPDEST JUMPDEST SWAP3 SWAP2 POP POP JUMP INVALID LOG2 PUSH5 0x6970667358 0x22 SLT KECCAK256 0x26 DUP13 SHL PUSH27 0x7188483071CB0B974C1493D4006CC1E492696B8A34B63AEB9ACA61 CALLCODE PUSH5 0x736F6C6343 STOP ADDMOD EQ STOP CALLER "
		},
		"gasEstimates": {
			"creation": {
				"codeDepositCost": "1046200",
				"executionCost": "infinite",
				"totalCost": "infinite"
			},
			"external": {
				"allowance(address,address)": "infinite",
				"approve(address,uint256)": "infinite",
				"balanceOf(address)": "2918",
				"batchTransfer(address[],uint256[])": "infinite",
				"decimals()": "2569",
				"mint(address,uint256)": "infinite",
				"name()": "infinite",
				"owner()": "2582",
				"renounceOwnership()": "infinite",
				"symbol()": "infinite",
				"totalSupply()": "2500",
				"transfer(address,uint256)": "infinite",
				"transferFrom(address,address,uint256)": "infinite",
				"transferOwnership(address)": "infinite"
			}
		},
		"methodIdentifiers": {
			"allowance(address,address)": "dd62ed3e",
			"approve(address,uint256)": "095ea7b3",
			"balanceOf(address)": "70a08231",
			"batchTransfer(address[],uint256[])": "88d695b2",
			"decimals()": "313ce567",
			"mint(address,uint256)": "40c10f19",
			"name()": "06fdde03",
			"owner()": "8da5cb5b",
			"renounceOwnership()": "715018a6",
			"symbol()": "95d89b41",
			"totalSupply()": "18160ddd",
			"transfer(address,uint256)": "a9059cbb",
			"transferFrom(address,address,uint256)": "23b872dd",
			"transferOwnership(address)": "f2fde38b"
		}
	},
	"abi": [
		{
			"inputs": [
				{
					"internalType": "string",
					"name": "name",
					"type": "string"
				},
				{
					"internalType": "string",
					"name": "symbol",
					"type": "string"
				},
				{
					"internalType": "uint8",
					"name": "tokenDecimals",
					"type": "uint8"
				},
				{
					"internalType": "uint256",
					"name": "initialSupply",
					"type": "uint256"
				}
			],
			"stateMutability": "nonpayable",
			"type": "constructor"
		},
		{
			"inputs": [
				{
					"internalType": "address",
					"name": "spender",
					"type": "address"
				},
				{
					"internalType": "uint256",
					"name": "allowance",
					"type": "uint256"
				},
				{
					"internalType": "uint256",
					"name": "needed",
					"type": "uint256"
				}
			],
			"name": "ERC20InsufficientAllowance",
			"type": "error"
		},
		{
			"inputs": [
				{
					"internalType": "address",
					"name": "sender",
					"type": "address"
				},
				{
					"internalType": "uint256",
					"name": "balance",
					"type": "uint256"
				},
				{
					"internalType": "uint256",
					"name": "needed",
					"type": "uint256"
				}
			],
			"name": "ERC20InsufficientBalance",
			"type": "error"
		},
		{
			"inputs": [
				{
					"internalType": "address",
					"name": "approver",
					"type": "address"
				}
			],
			"name": "ERC20InvalidApprover",
			"type": "error"
		},
		{
			"inputs": [
				{
					"internalType": "address",
					"name": "receiver",
					"type": "address"
				}
			],
			"name": "ERC20InvalidReceiver",
			"type": "error"
		},
		{
			"inputs": [
				{
					"internalType": "address",
					"name": "sender",
					"type": "address"
				}
			],
			"name": "ERC20InvalidSender",
			"type": "error"
		},
		{
			"inputs": [
				{
					"internalType": "address",
					"name": "spender",
					"type": "address"
				}
			],
			"name": "ERC20InvalidSpender",
			"type": "error"
		},
		{
			"inputs": [
				{
					"internalType": "address",
					"name": "owner",
					"type": "address"
				}
			],
			"name": "OwnableInvalidOwner",
			"type": "error"
		},
		{
			"inputs": [
				{
					"internalType": "address",
					"name": "account",
					"type": "address"
				}
			],
			"name": "OwnableUnauthorizedAccount",
			"type": "error"
		},
		{
			"anonymous": false,
			"inputs": [
				{
					"indexed": true,
					"internalType": "address",
					"name": "owner",
					"type": "address"
				},
				{
					"indexed": true,
					"internalType": "address",
					"name": "spender",
					"type": "address"
				},
				{
					"indexed": false,
					"internalType": "uint256",
					"name": "value",
					"type": "uint256"
				}
			],
			"name": "Approval",
			"type": "event"
		},
		{
			"anonymous": false,
			"inputs": [
				{
					"indexed": true,
					"internalType": "address",
					"name": "previousOwner",
					"type": "address"
				},
				{
					"indexed": true,
					"internalType": "address",
					"name": "newOwner",
					"type": "address"
				}
			],
			"name": "OwnershipTransferred",
			"type": "event"
		},
		{
			"anonymous": false,
			"inputs": [
				{
					"indexed": true,
					"internalType": "address",
					"name": "from",
					"type": "address"
				},
				{
					"indexed": true,
					"internalType": "address",
					"name": "to",
					"type": "address"
				},
				{
					"indexed": false,
					"internalType": "uint256",
					"name": "value",
					"type": "uint256"
				}
			],
			"name": "Transfer",
			"type": "event"
		},
		{
			"inputs": [
				{
					"internalType": "address",
					"name": "owner",
					"type": "address"
				},
				{
					"internalType": "address",
					"name": "spender",
					"type": "address"
				}
			],
			"name": "allowance",
			"outputs": [
				{
					"internalType": "uint256",
					"name": "",
					"type": "uint256"
				}
			],
			"stateMutability": "view",
			"type": "function"
		},
		{
			"inputs": [
				{
					"internalType": "address",
					"name": "spender",
					"type": "address"
				},
				{
					"internalType": "uint256",
					"name": "value",
					"type": "uint256"
				}
			],
			"name": "approve",
			"outputs": [
				{
					"internalType": "bool",
					"name": "",
					"type": "bool"
				}
			],
			"stateMutability": "nonpayable",
			"type": "function"
		},
		{
			"inputs": [
				{
					"internalType": "address",
					"name": "account",
					"type": "address"
				}
			],
			"name": "balanceOf",
			"outputs": [
				{
					"internalType": "uint256",
					"name": "",
					"type": "uint256"
				}
			],
			"stateMutability": "view",
			"type": "function"
		},
		{
			"inputs": [
				{
					"internalType": "address[]",
					"name": "recipients",
					"type": "address[]"
				},
				{
					"internalType": "uint256[]",
					"name": "amounts",
					"type": "uint256[]"
				}
			],
			"name": "batchTransfer",
			"outputs": [],
			"stateMutability": "nonpayable",
			"type": "function"
		},
		{
			"inputs": [],
			"name": "decimals",
			"outputs": [
				{
					"internalType": "uint8",
					"name": "",
					"type": "uint8"
				}
			],
			"stateMutability": "view",
			"type": "function"
		},
		{
			"inputs": [
				{
					"internalType": "address",
					"name": "to",
					"type": "address"
				},
				{
					"internalType": "uint256",
					"name": "amount",
					"type": "uint256"
				}
			],
			"name": "mint",
			"outputs": [],
			"stateMutability": "nonpayable",
			"type": "function"
		},
		{
			"inputs": [],
			"name": "name",
			"outputs": [
				{
					"internalType": "string",
					"name": "",
					"type": "string"
				}
			],
			"stateMutability": "view",
			"type": "function"
		},
		{
			"inputs": [],
			"name": "owner",
			"outputs": [
				{
					"internalType": "address",
					"name": "",
					"type": "address"
				}
			],
			"stateMutability": "view",
			"type": "function"
		},
		{
			"inputs": [],
			"name": "renounceOwnership",
			"outputs": [],
			"stateMutability": "nonpayable",
			"type": "function"
		},
		{
			"inputs": [],
			"name": "symbol",
			"outputs": [
				{
					"internalType": "string",
					"name": "",
					"type": "string"
				}
			],
			"stateMutability": "view",
			"type": "function"
		},
		{
			"inputs": [],
			"name": "totalSupply",
			"outputs": [
				{
					"internalType": "uint256",
					"name": "",
					"type": "uint256"
				}
			],
			"stateMutability": "view",
			"type": "function"
		},
		{
			"inputs": [
				{
					"internalType": "address",
					"name": "to",
					"type": "address"
				},
				{
					"internalType": "uint256",
					"name": "value",
					"type": "uint256"
				}
			],
			"name": "transfer",
			"outputs": [
				{
					"internalType": "bool",
					"name": "",
					"type": "bool"
				}
			],
			"stateMutability": "nonpayable",
			"type": "function"
		},
		{
			"inputs": [
				{
					"internalType": "address",
					"name": "from",
					"type": "address"
				},
				{
					"internalType": "address",
					"name": "to",
					"type": "address"
				},
				{
					"internalType": "uint256",
					"name": "value",
					"type": "uint256"
				}
			],
			"name": "transferFrom",
			"outputs": [
				{
					"internalType": "bool",
					"name": "",
					"type": "bool"
				}
			],
			"stateMutability": "nonpayable",
			"type": "function"
		},
		{
			"inputs": [
				{
					"internalType": "address",
					"name": "newOwner",
					"type": "address"
				}
			],
			"name": "transferOwnership",
			"outputs": [],
			"stateMutability": "nonpayable",
			"type": "function"
		}
	]
}