{
	"TestToken.sol": {
		"TestToken": {
			"abi": [
				{
					"inputs": [
						{
							"internalType": "string",
							"name": "name",
							"type": "string"
						},
						{
							"internalType": "string",
							"name": "symbol",
							"type": "string"
						},
						{
							"internalType": "uint8",
							"name": "tokenDecimals",
							"type": "uint8"
						},
						{
							"internalType": "uint256",
							"name": "initialSupply",
							"type": "uint256"
						}
					],
					"stateMutability": "nonpayable",
					"type": "constructor"
				},
				{
					"inputs": [
						{
							"internalType": "address",
							"name": "spender",
							"type": "address"
						},
						{
							"internalType": "uint256",
							"name": "allowance",
							"type": "uint256"
						},
						{
							"internalType": "uint256",
							"name": "needed",
							"type": "uint256"
						}
					],
					"name": "ERC20InsufficientAllowance",
					"type": "error"
				},
				{
					"inputs": [
						{
							"internalType": "address",
							"name": "sender",
							"type": "address"
						},
						{
							"internalType": "uint256",
							"name": "balance",
							"type": "uint256"
						},
						{
							"internalType": "uint256",
							"name": "needed",
							"type": "uint256"
						}
					],
					"name": "ERC20InsufficientBalance",
					"type": "error"
				},
				{
					"inputs": [
						{
							"internalType": "address",
							"name": "approver",
							"type": "address"
						}
					],
					"name": "ERC20InvalidApprover",
					"type": "error"
				},
				{
					"inputs": [
						{
							"internalType": "address",
							"name": "receiver",
							"type": "address"
						}
					],
					"name": "ERC20InvalidReceiver",
					"type": "error"
				},
				{
					"inputs": [
						{
							"internalType": "address",
							"name": "sender",
							"type": "address"
						}
					],
					"name": "ERC20InvalidSender",
					"type": "error"
				},
				{
					"inputs": [
						{
							"internalType": "address",
							"name": "spender",
							"type": "address"
						}
					],
					"name": "ERC20InvalidSpender",
					"type": "error"
				},
				{
					"inputs": [
						{
							"internalType": "address",
							"name": "owner",
							"type": "address"
						}
					],
					"name": "OwnableInvalidOwner",
					"type": "error"
				},
				{
					"inputs": [
						{
							"internalType": "address",
							"name": "account",
							"type": "address"
						}
					],
					"name": "OwnableUnauthorizedAccount",
					"type": "error"
				},
				{
					"anonymous": false,
					"inputs": [
						{
							"indexed": true,
							"internalType": "address",
							"name": "owner",
							"type": "address"
						},
						{
							"indexed": true,
							"internalType": "address",
							"name": "spender",
							"type": "address"
						},
						{
							"indexed": false,
							"internalType": "uint256",
							"name": "value",
							"type": "uint256"
						}
					],
					"name": "Approval",
					"type": "event"
				},
				{
					"anonymous": false,
					"inputs": [
						{
							"indexed": true,
							"internalType": "address",
							"name": "previousOwner",
							"type": "address"
						},
						{
							"indexed": true,
							"internalType": "address",
							"name": "newOwner",
							"type": "address"
						}
					],
					"name": "OwnershipTransferred",
					"type": "event"
				},
				{
					"anonymous": false,
					"inputs": [
						{
							"indexed": true,
							"internalType": "address",
							"name": "from",
							"type": "address"
						},
						{
							"indexed": true,
							"internalType": "address",
							"name": "to",
							"type": "address"
						},
						{
							"indexed": false,
							"internalType": "uint256",
							"name": "value",
							"type": "uint256"
						}
					],
					"name": "Transfer",
					"type": "event"
				},
				{
					"inputs": [
						{
							"internalType": "address",
							"name": "owner",
							"type": "address"
						},
						{
							"internalType": "address",
							"name": "spender",
							"type": "address"
						}
					],
					"name": "allowance",
					"outputs": [
						{
							"internalType": "uint256",
							"name": "",
							"type": "uint256"
						}
					],
					"stateMutability": "view",
					"type": "function"
				},
				{
					"inputs": [
						{
							"internalType": "address",
							"name": "spender",
							"type": "address"
						},
						{
							"internalType": "uint256",
							"name": "value",
							"type": "uint256"
						}
					],
					"name": "approve",
					"outputs": [
						{
							"internalType": "bool",
							"name": "",
							"type": "bool"
						}
					],
					"stateMutability": "nonpayable",
					"type": "function"
				},
				{
					"inputs": [
						{
							"internalType": "address",
							"name": "account",
							"type": "address"
						}
					],
					"name": "balanceOf",
					"outputs": [
						{
							"internalType": "uint256",
							"name": "",
							"type": "uint256"
						}
					],
					"stateMutability": "view",
					"type": "function"
				},
				{
					"inputs": [
						{
							"internalType": "address[]",
							"name": "recipients",
							"type": "address[]"
						},
						{
							"internalType": "uint256[]",
							"name": "amounts",
							"type": "uint256[]"
						}
					],
					"name": "batchTransfer",
					"outputs": [],
					"stateMutability": "nonpayable",
					"type": "function"
				},
				{
					"inputs": [],
					"name": "decimals",
					"outputs": [
						{
							"internalType": "uint8",
							"name": "",
							"type": "uint8"
						}
					],
					"stateMutability": "view",
					"type": "function"
				},
				{
					"inputs": [
						{
							"internalType": "address",
							"name": "to",
							"type": "address"
						},
						{
							"internalType": "uint256",
							"name": "amount",
							"type": "uint256"
						}
					],
					"name": "mint",
					"outputs": [],
					"stateMutability": "nonpayable",
					"type": "function"
				},
				{
					"inputs": [],
					"name": "name",
					"outputs": [
						{
							"internalType": "string",
							"name": "",
							"type": "string"
						}
					],
					"stateMutability": "view",
					"type": "function"
				},
				{
					"inputs": [],
					"name": "owner",
					"outputs": [
						{
							"internalType": "address",
							"name": "",
							"type": "address"
						}
					],
					"stateMutability": "view",
					"type": "function"
				},
				{
					"inputs": [],
					"name": "renounceOwnership",
					"outputs": [],
					"stateMutability": "nonpayable",
					"type": "function"
				},
				{
					"inputs": [],
					"name": "symbol",
					"outputs": [
						{
							"internalType": "string",
							"name": "",
							"type": "string"
						}
					],
					"stateMutability": "view",
					"type": "function"
				},
				{
					"inputs": [],
					"name": "totalSupply",
					"outputs": [
						{
							"internalType": "uint256",
							"name": "",
							"type": "uint256"
						}
					],
					"stateMutability": "view",
					"type": "function"
				},
				{
					"inputs": [
						{
							"internalType": "address",
							"name": "to",
							"type": "address"
						},
						{
							"internalType": "uint256",
							"name": "value",
							"type": "uint256"
						}
					],
					"name": "transfer",
					"outputs": [
						{
							"internalType": "bool",
							"name": "",
							"type": "bool"
						}
					],
					"stateMutability": "nonpayable",
					"type": "function"
				},
				{
					"inputs": [
						{
							"internalType": "address",
							"name": "from",
							"type": "address"
						},
						{
							"internalType": "address",
							"name": "to",
							"type": "address"
						},
						{
							"internalType": "uint256",
							"name": "value",
							"type": "uint256"
						}
					],
					"name": "transferFrom",
					"outputs": [
						{
							"internalType": "bool",
							"name": "",
							"type": "bool"
						}
					],
					"stateMutability": "nonpayable",
					"type": "function"
				},
				{
					"inputs": [
						{
							"internalType": "address",
							"name": "newOwner",
							"type": "address"
						}
					],
					"name": "transferOwnership",
					"outputs": [],
					"stateMutability": "nonpayable",
					"type": "function"
				}
			],
			"devdoc": {
				"details": "A simple ERC20 token for testing the PayMe3Core contract",
				"errors": {
					"ERC20InsufficientAllowance(address,uint256,uint256)": [
						{
							"details": "Indicates a failure with the `spender`’s `allowance`. Used in transfers.",
							"params": {
								"allowance": "Amount of tokens a `spender` is allowed to operate with.",
								"needed": "Minimum amount required to perform a transfer.",
								"spender": "Address that may be allowed to operate on tokens without being their owner."
							}
						}
					],
					"ERC20InsufficientBalance(address,uint256,uint256)": [
						{
							"details": "Indicates an error related to the current `balance` of a `sender`. Used in transfers.",
							"params": {
								"balance": "Current balance for the interacting account.",
								"needed": "Minimum amount required to perform a transfer.",
								"sender": "Address whose tokens are being transferred."
							}
						}
					],
					"ERC20InvalidApprover(address)": [
						{
							"details": "Indicates a failure with the `approver` of a token to be approved. Used in approvals.",
							"params": {
								"approver": "Address initiating an approval operation."
							}
						}
					],
					"ERC20InvalidReceiver(address)": [
						{
							"details": "Indicates a failure with the token `receiver`. Used in transfers.",
							"params": {
								"receiver": "Address to which tokens are being transferred."
							}
						}
					],
					"ERC20InvalidSender(address)": [
						{
							"details": "Indicates a failure with the token `sender`. Used in transfers.",
							"params": {
								"sender": "Address whose tokens are being transferred."
							}
						}
					],
					"ERC20InvalidSpender(address)": [
						{
							"details": "Indicates a failure with the `spender` to be approved. Used in approvals.",
							"params": {
								"spender": "Address that may be allowed to operate on tokens without being their owner."
							}
						}
					],
					"OwnableInvalidOwner(address)": [
						{
							"details": "The owner is not a valid owner account. (eg. `address(0)`)"
						}
					],
					"OwnableUnauthorizedAccount(address)": [
						{
							"details": "The caller account is not authorized to perform an operation."
						}
					]
				},
				"events": {
					"Approval(address,address,uint256)": {
						"details": "Emitted when the allowance of a `spender` for an `owner` is set by a call to {approve}. `value` is the new allowance."
					},
					"Transfer(address,address,uint256)": {
						"details": "Emitted when `value` tokens are moved from one account (`from`) to another (`to`). Note that `value` may be zero."
					}
				},
				"kind": "dev",
				"methods": {
					"allowance(address,address)": {
						"details": "See {IERC20-allowance}."
					},
					"approve(address,uint256)": {
						"details": "See {IERC20-approve}. NOTE: If `value` is the maximum `uint256`, the allowance is not updated on `transferFrom`. This is semantically equivalent to an infinite approval. Requirements: - `spender` cannot be the zero address."
					},
					"balanceOf(address)": {
						"details": "See {IERC20-balanceOf}."
					},
					"batchTransfer(address[],uint256[])": {
						"details": "Batch transfer tokens to multiple addresses",
						"params": {
							"amounts": "Array of amounts to transfer to each recipient",
							"recipients": "Array of recipient addresses"
						}
					},
					"decimals()": {
						"details": "Returns the number of decimals used to get its user representation. For example, if `decimals` equals `2`, a balance of `505` tokens should be displayed to a user as `5.05` (`505 / 10 ** 2`). Tokens usually opt for a value of 18, imitating the relationship between Ether and Wei. This is the default value returned by this function, unless it's overridden. NOTE: This information is only used for _display_ purposes: it in no way affects any of the arithmetic of the contract, including {IERC20-balanceOf} and {IERC20-transfer}."
					},
					"mint(address,uint256)": {
						"details": "Mint new tokens (only owner)",
						"params": {
							"amount": "Amount of tokens to mint",
							"to": "Address to mint tokens to"
						}
					},
					"name()": {
						"details": "Returns the name of the token."
					},
					"owner()": {
						"details": "Returns the address of the current owner."
					},
					"renounceOwnership()": {
						"details": "Leaves the contract without owner. It will not be possible to call `onlyOwner` functions. Can only be called by the current owner. NOTE: Renouncing ownership will leave the contract without an owner, thereby disabling any functionality that is only available to the owner."
					},
					"symbol()": {
						"details": "Returns the symbol of the token, usually a shorter version of the name."
					},
					"totalSupply()": {
						"details": "See {IERC20-totalSupply}."
					},
					"transfer(address,uint256)": {
						"details": "See {IERC20-transfer}. Requirements: - `to` cannot be the zero address. - the caller must have a balance of at least `value`."
					},
					"transferFrom(address,address,uint256)": {
						"details": "See {IERC20-transferFrom}. Skips emitting an {Approval} event indicating an allowance update. This is not required by the ERC. See {xref-ERC20-_approve-address-address-uint256-bool-}[_approve]. NOTE: Does not update the allowance if the current allowance is the maximum `uint256`. Requirements: - `from` and `to` cannot be the zero address. - `from` must have a balance of at least `value`. - the caller must have allowance for ``from``'s tokens of at least `value`."
					},
					"transferOwnership(address)": {
						"details": "Transfers ownership of the contract to a new account (`newOwner`). Can only be called by the current owner."
					}
				},
				"title": "TestToken",
				"version": 1
			},
			"evm": {
				"assembly": "    /* \"TestToken.sol\":271:1555  contract TestToken is ERC20, Ownable {... */\n  mstore(0x40, 0x80)\n    /* \"TestToken.sol\":369:657  constructor(... */\n  callvalue\n  dup1\n  iszero\n  tag_1\n  jumpi\n  0x00\n  dup1\n  revert\ntag_1:\n  pop\n  mload(0x40)\n  sub(codesize, bytecodeSize)\n  dup1\n  bytecodeSize\n  dup4\n  codecopy\n  dup2\n  dup2\n  add\n  0x40\n  mstore\n  dup2\n  add\n  swap1\n  tag_2\n  swap2\n  swap1\n  tag_3\n  jump\t// in\ntag_2:\n    /* \"TestToken.sol\":538:548  msg.sender */\n  caller\n    /* \"TestToken.sol\":516:520  name */\n  dup5\n    /* \"TestToken.sol\":522:528  symbol */\n  dup5\n    /* \"@openzeppelin/contracts/token/ERC20/ERC20.sol\":1675:1680  name_ */\n  dup2\n    /* \"@openzeppelin/contracts/token/ERC20/ERC20.sol\":1667:1672  _name */\n  0x03\n    /* \"@openzeppelin/contracts/token/ERC20/ERC20.sol\":1667:1680  _name = name_ */\n  swap1\n  dup2\n  tag_8\n  swap2\n  swap1\n  tag_9\n  jump\t// in\ntag_8:\n  pop\n    /* \"@openzeppelin/contracts/token/ERC20/ERC20.sol\":1700:1707  symbol_ */\n  dup1\n    /* \"@openzeppelin/contracts/token/ERC20/ERC20.sol\":1690:1697  _symbol */\n  0x04\n    /* \"@openzeppelin/contracts/token/ERC20/ERC20.sol\":1690:1707  _symbol = symbol_ */\n  swap1\n  dup2\n  tag_10\n  swap2\n  swap1\n  tag_9\n  jump\t// in\ntag_10:\n  pop\n    /* \"@openzeppelin/contracts/token/ERC20/ERC20.sol\":1601:1714  constructor(string memory name_, string memory symbol_) {... */\n  pop\n  pop\n    /* \"@openzeppelin/contracts/access/Ownable.sol\":1297:1298  0 */\n  0x00\n    /* \"@openzeppelin/contracts/access/Ownable.sol\":1273:1299  initialOwner == address(0) */\n  0xffffffffffffffffffffffffffffffffffffffff\n  and\n    /* \"@openzeppelin/contracts/access/Ownable.sol\":1273:1285  initialOwner */\n  dup2\n    /* \"@openzeppelin/contracts/access/Ownable.sol\":1273:1299  initialOwner == address(0) */\n  0xffffffffffffffffffffffffffffffffffffffff\n  and\n  sub\n    /* \"@openzeppelin/contracts/access/Ownable.sol\":1269:1364  if (initialOwner == address(0)) {... */\n  tag_12\n  jumpi\n    /* \"@openzeppelin/contracts/access/Ownable.sol\":1350:1351  0 */\n  0x00\n    /* \"@openzeppelin/contracts/access/Ownable.sol\":1322:1353  OwnableInvalidOwner(address(0)) */\n  mload(0x40)\n  0x1e4fbdf700000000000000000000000000000000000000000000000000000000\n  dup2\n  mstore\n  0x04\n  add\n  tag_13\n  swap2\n  swap1\n  tag_14\n  jump\t// in\ntag_13:\n  mload(0x40)\n  dup1\n  swap2\n  sub\n  swap1\n  revert\n    /* \"@openzeppelin/contracts/access/Ownable.sol\":1269:1364  if (initialOwner == address(0)) {... */\ntag_12:\n    /* \"@openzeppelin/contracts/access/Ownable.sol\":1373:1405  _transferOwnership(initialOwner) */\n  tag_15\n    /* \"@openzeppelin/contracts/access/Ownable.sol\":1392:1404  initialOwner */\n  dup2\n    /* \"@openzeppelin/contracts/access/Ownable.sol\":1373:1391  _transferOwnership */\n  shl(0x20, tag_16)\n    /* \"@openzeppelin/contracts/access/Ownable.sol\":1373:1405  _transferOwnership(initialOwner) */\n  0x20\n  shr\n  jump\t// in\ntag_15:\n    /* \"@openzeppelin/contracts/access/Ownable.sol\":1225:1412  constructor(address initialOwner) {... */\n  pop\n    /* \"TestToken.sol\":573:586  tokenDecimals */\n  dup2\n    /* \"TestToken.sol\":561:570  _decimals */\n  0x05\n  0x14\n    /* \"TestToken.sol\":561:586  _decimals = tokenDecimals */\n  0x0100\n  exp\n  dup2\n  sload\n  dup2\n  0xff\n  mul\n  not\n  and\n  swap1\n  dup4\n  0xff\n  and\n  mul\n  or\n  swap1\n  sstore\n  pop\n    /* \"TestToken.sol\":597:649  _mint(msg.sender, initialSupply * 10**tokenDecimals) */\n  tag_18\n    /* \"TestToken.sol\":603:613  msg.sender */\n  caller\n    /* \"TestToken.sol\":635:648  tokenDecimals */\n  dup4\n    /* \"TestToken.sol\":631:633  10 */\n  0x0a\n    /* \"TestToken.sol\":631:648  10**tokenDecimals */\n  tag_19\n  swap2\n  swap1\n  tag_20\n  jump\t// in\ntag_19:\n    /* \"TestToken.sol\":615:628  initialSupply */\n  dup4\n    /* \"TestToken.sol\":615:648  initialSupply * 10**tokenDecimals */\n  tag_21\n  swap2\n  swap1\n  tag_22\n  jump\t// in\ntag_21:\n    /* \"TestToken.sol\":597:602  _mint */\n  shl(0x20, tag_23)\n    /* \"TestToken.sol\":597:649  _mint(msg.sender, initialSupply * 10**tokenDecimals) */\n  0x20\n  shr\n  jump\t// in\ntag_18:\n    /* \"TestToken.sol\":369:657  constructor(... */\n  pop\n  pop\n  pop\n  pop\n    /* \"TestToken.sol\":271:1555  contract TestToken is ERC20, Ownable {... */\n  jump(tag_24)\n    /* \"@openzeppelin/contracts/access/Ownable.sol\":2912:3099  function _transferOwnership(address newOwner) internal virtual {... */\ntag_16:\n    /* \"@openzeppelin/contracts/access/Ownable.sol\":2985:3001  address oldOwner */\n  0x00\n    /* \"@openzeppelin/contracts/access/Ownable.sol\":3004:3010  _owner */\n  0x05\n  0x00\n  swap1\n  sload\n  swap1\n  0x0100\n  exp\n  swap1\n  div\n  0xffffffffffffffffffffffffffffffffffffffff\n  and\n    /* \"@openzeppelin/contracts/access/Ownable.sol\":2985:3010  address oldOwner = _owner */\n  swap1\n  pop\n    /* \"@openzeppelin/contracts/access/Ownable.sol\":3029:3037  newOwner */\n  dup2\n    /* \"@openzeppelin/contracts/access/Ownable.sol\":3020:3026  _owner */\n  0x05\n  0x00\n    /* \"@openzeppelin/contracts/access/Ownable.sol\":3020:3037  _owner = newOwner */\n  0x0100\n  exp\n  dup2\n  sload\n  dup2\n  0xffffffffffffffffffffffffffffffffffffffff\n  mul\n  not\n  and\n  swap1\n  dup4\n  0xffffffffffffffffffffffffffffffffffffffff\n  and\n  mul\n  or\n  swap1\n  sstore\n  pop\n    /* \"@openzeppelin/contracts/access/Ownable.sol\":3083:3091  newOwner */\n  dup2\n    /* \"@openzeppelin/contracts/access/Ownable.sol\":3052:3092  OwnershipTransferred(oldOwner, newOwner) */\n  0xffffffffffffffffffffffffffffffffffffffff\n  and\n    /* \"@openzeppelin/contracts/access/Ownable.sol\":3073:3081  oldOwner */\n  dup2\n    /* \"@openzeppelin/contracts/access/Ownable.sol\":3052:3092  OwnershipTransferred(oldOwner, newOwner) */\n  0xffffffffffffffffffffffffffffffffffffffff\n  and\n  0x8be0079c531659141344cd1fd0a4f28419497f9722a3daafe3b4186f6b6457e0\n  mload(0x40)\n  mload(0x40)\n  dup1\n  swap2\n  sub\n  swap1\n  log3\n    /* \"@openzeppelin/contracts/access/Ownable.sol\":2975:3099  {... */\n  pop\n    /* \"@openzeppelin/contracts/access/Ownable.sol\":2912:3099  function _transferOwnership(address newOwner) internal virtual {... */\n  pop\n  jump\t// out\n    /* \"@openzeppelin/contracts/token/ERC20/ERC20.sol\":7458:7666  function _mint(address account, uint256 value) internal {... */\ntag_23:\n    /* \"@openzeppelin/contracts/token/ERC20/ERC20.sol\":7547:7548  0 */\n  0x00\n    /* \"@openzeppelin/contracts/token/ERC20/ERC20.sol\":7528:7549  account == address(0) */\n  0xffffffffffffffffffffffffffffffffffffffff\n  and\n    /* \"@openzeppelin/contracts/token/ERC20/ERC20.sol\":7528:7535  account */\n  dup3\n    /* \"@openzeppelin/contracts/token/ERC20/ERC20.sol\":7528:7549  account == address(0) */\n  0xffffffffffffffffffffffffffffffffffffffff\n  and\n  sub\n    /* \"@openzeppelin/contracts/token/ERC20/ERC20.sol\":7524:7615  if (account == address(0)) {... */\n  tag_27\n  jumpi\n    /* \"@openzeppelin/contracts/token/ERC20/ERC20.sol\":7601:7602  0 */\n  0x00\n    /* \"@openzeppelin/contracts/token/ERC20/ERC20.sol\":7572:7604  ERC20InvalidReceiver(address(0)) */\n  mload(0x40)\n  0xec442f0500000000000000000000000000000000000000000000000000000000\n  dup2\n  mstore\n  0x04\n  add\n  tag_28\n  swap2\n  swap1\n  tag_14\n  jump\t// in\ntag_28:\n  mload(0x40)\n  dup1\n  swap2\n  sub\n  swap1\n  revert\n    /* \"@openzeppelin/contracts/token/ERC20/ERC20.sol\":7524:7615  if (account == address(0)) {... */\ntag_27:\n    /* \"@openzeppelin/contracts/token/ERC20/ERC20.sol\":7624:7659  _update(address(0), account, value) */\n  tag_29\n    /* \"@openzeppelin/contracts/token/ERC20/ERC20.sol\":7640:7641  0 */\n  0x00\n    /* \"@openzeppelin/contracts/token/ERC20/ERC20.sol\":7644:7651  account */\n  dup4\n    /* \"@openzeppelin/contracts/token/ERC20/ERC20.sol\":7653:7658  value */\n  dup4\n    /* \"@openzeppelin/contracts/token/ERC20/ERC20.sol\":7624:7631  _update */\n  shl(0x20, tag_30)\n    /* \"@openzeppelin/contracts/token/ERC20/ERC20.sol\":7624:7659  _update(address(0), account, value) */\n  0x20\n  shr\n  jump\t// in\ntag_29:\n    /* \"@openzeppelin/contracts/token/ERC20/ERC20.sol\":7458:7666  function _mint(address account, uint256 value) internal {... */\n  pop\n  pop\n  jump\t// out\n    /* \"@openzeppelin/contracts/token/ERC20/ERC20.sol\":6008:7115  function _update(address from, address to, uint256 value) internal virtual {... */\ntag_30:\n    /* \"@openzeppelin/contracts/token/ERC20/ERC20.sol\":6113:6114  0 */\n  0x00\n    /* \"@openzeppelin/contracts/token/ERC20/ERC20.sol\":6097:6115  from == address(0) */\n  0xffffffffffffffffffffffffffffffffffffffff\n  and\n    /* \"@openzeppelin/contracts/token/ERC20/ERC20.sol\":6097:6101  from */\n  dup4\n    /* \"@openzeppelin/contracts/token/ERC20/ERC20.sol\":6097:6115  from == address(0) */\n  0xffffffffffffffffffffffffffffffffffffffff\n  and\n  sub\n    /* \"@openzeppelin/contracts/token/ERC20/ERC20.sol\":6093:6633  if (from == address(0)) {... */\n  tag_32\n  jumpi\n    /* \"@openzeppelin/contracts/token/ERC20/ERC20.sol\":6249:6254  value */\n  dup1\n    /* \"@openzeppelin/contracts/token/ERC20/ERC20.sol\":6233:6245  _totalSupply */\n  0x02\n  0x00\n    /* \"@openzeppelin/contracts/token/ERC20/ERC20.sol\":6233:6254  _totalSupply += value */\n  dup3\n  dup3\n  sload\n  tag_33\n  swap2\n  swap1\n  tag_34\n  jump\t// in\ntag_33:\n  swap3\n  pop\n  pop\n  dup2\n  swap1\n  sstore\n  pop\n    /* \"@openzeppelin/contracts/token/ERC20/ERC20.sol\":6093:6633  if (from == address(0)) {... */\n  jump(tag_35)\ntag_32:\n    /* \"@openzeppelin/contracts/token/ERC20/ERC20.sol\":6285:6304  uint256 fromBalance */\n  0x00\n    /* \"@openzeppelin/contracts/token/ERC20/ERC20.sol\":6307:6316  _balances */\n  dup1\n    /* \"@openzeppelin/contracts/token/ERC20/ERC20.sol\":6307:6322  _balances[from] */\n  0x00\n    /* \"@openzeppelin/contracts/token/ERC20/ERC20.sol\":6317:6321  from */\n  dup6\n    /* \"@openzeppelin/contracts/token/ERC20/ERC20.sol\":6307:6322  _balances[from] */\n  0xffffffffffffffffffffffffffffffffffffffff\n  and\n  0xffffffffffffffffffffffffffffffffffffffff\n  and\n  dup2\n  mstore\n  0x20\n  add\n  swap1\n  dup2\n  mstore\n  0x20\n  add\n  0x00\n  keccak256\n  sload\n    /* \"@openzeppelin/contracts/token/ERC20/ERC20.sol\":6285:6322  uint256 fromBalance = _balances[from] */\n  swap1\n  pop\n    /* \"@openzeppelin/contracts/token/ERC20/ERC20.sol\":6354:6359  value */\n  dup2\n    /* \"@openzeppelin/contracts/token/ERC20/ERC20.sol\":6340:6351  fromBalance */\n  dup2\n    /* \"@openzeppelin/contracts/token/ERC20/ERC20.sol\":6340:6359  fromBalance < value */\n  lt\n    /* \"@openzeppelin/contracts/token/ERC20/ERC20.sol\":6336:6451  if (fromBalance < value) {... */\n  iszero\n  tag_36\n  jumpi\n    /* \"@openzeppelin/contracts/token/ERC20/ERC20.sol\":6411:6415  from */\n  dup4\n    /* \"@openzeppelin/contracts/token/ERC20/ERC20.sol\":6417:6428  fromBalance */\n  dup2\n    /* \"@openzeppelin/contracts/token/ERC20/ERC20.sol\":6430:6435  value */\n  dup4\n    /* \"@openzeppelin/contracts/token/ERC20/ERC20.sol\":6386:6436  ERC20InsufficientBalance(from, fromBalance, value) */\n  mload(0x40)\n  0xe450d38c00000000000000000000000000000000000000000000000000000000\n  dup2\n  mstore\n  0x04\n  add\n  tag_37\n  swap4\n  swap3\n  swap2\n  swap1\n  tag_38\n  jump\t// in\ntag_37:\n  mload(0x40)\n  dup1\n  swap2\n  sub\n  swap1\n  revert\n    /* \"@openzeppelin/contracts/token/ERC20/ERC20.sol\":6336:6451  if (fromBalance < value) {... */\ntag_36:\n    /* \"@openzeppelin/contracts/token/ERC20/ERC20.sol\":6603:6608  value */\n  dup2\n    /* \"@openzeppelin/contracts/token/ERC20/ERC20.sol\":6589:6600  fromBalance */\n  dup2\n    /* \"@openzeppelin/contracts/token/ERC20/ERC20.sol\":6589:6608  fromBalance - value */\n  sub\n    /* \"@openzeppelin/contracts/token/ERC20/ERC20.sol\":6571:6580  _balances */\n  0x00\n    /* \"@openzeppelin/contracts/token/ERC20/ERC20.sol\":6571:6586  _balances[from] */\n  dup1\n    /* \"@openzeppelin/contracts/token/ERC20/ERC20.sol\":6581:6585  from */\n  dup7\n    /* \"@openzeppelin/contracts/token/ERC20/ERC20.sol\":6571:6586  _balances[from] */\n  0xffffffffffffffffffffffffffffffffffffffff\n  and\n  0xffffffffffffffffffffffffffffffffffffffff\n  and\n  dup2\n  mstore\n  0x20\n  add\n  swap1\n  dup2\n  mstore\n  0x20\n  add\n  0x00\n  keccak256\n    /* \"@openzeppelin/contracts/token/ERC20/ERC20.sol\":6571:6608  _balances[from] = fromBalance - value */\n  dup2\n  swap1\n  sstore\n  pop\n    /* \"@openzeppelin/contracts/token/ERC20/ERC20.sol\":6271:6633  {... */\n  pop\n    /* \"@openzeppelin/contracts/token/ERC20/ERC20.sol\":6093:6633  if (from == address(0)) {... */\ntag_35:\n    /* \"@openzeppelin/contracts/token/ERC20/ERC20.sol\":6661:6662  0 */\n  0x00\n    /* \"@openzeppelin/contracts/token/ERC20/ERC20.sol\":6647:6663  to == address(0) */\n  0xffffffffffffffffffffffffffffffffffffffff\n  and\n    /* \"@openzeppelin/contracts/token/ERC20/ERC20.sol\":6647:6649  to */\n  dup3\n    /* \"@openzeppelin/contracts/token/ERC20/ERC20.sol\":6647:6663  to == address(0) */\n  0xffffffffffffffffffffffffffffffffffffffff\n  and\n  sub\n    /* \"@openzeppelin/contracts/token/ERC20/ERC20.sol\":6643:7068  if (to == address(0)) {... */\n  tag_39\n  jumpi\n    /* \"@openzeppelin/contracts/token/ERC20/ERC20.sol\":6826:6831  value */\n  dup1\n    /* \"@openzeppelin/contracts/token/ERC20/ERC20.sol\":6810:6822  _totalSupply */\n  0x02\n  0x00\n    /* \"@openzeppelin/contracts/token/ERC20/ERC20.sol\":6810:6831  _totalSupply -= value */\n  dup3\n  dup3\n  sload\n  sub\n  swap3\n  pop\n  pop\n  dup2\n  swap1\n  sstore\n  pop\n    /* \"@openzeppelin/contracts/token/ERC20/ERC20.sol\":6643:7068  if (to == address(0)) {... */\n  jump(tag_40)\ntag_39:\n    /* \"@openzeppelin/contracts/token/ERC20/ERC20.sol\":7038:7043  value */\n  dup1\n    /* \"@openzeppelin/contracts/token/ERC20/ERC20.sol\":7021:7030  _balances */\n  0x00\n    /* \"@openzeppelin/contracts/token/ERC20/ERC20.sol\":7021:7034  _balances[to] */\n  dup1\n    /* \"@openzeppelin/contracts/token/ERC20/ERC20.sol\":7031:7033  to */\n  dup5\n    /* \"@openzeppelin/contracts/token/ERC20/ERC20.sol\":7021:7034  _balances[to] */\n  0xffffffffffffffffffffffffffffffffffffffff\n  and\n  0xffffffffffffffffffffffffffffffffffffffff\n  and\n  dup2\n  mstore\n  0x20\n  add\n  swap1\n  dup2\n  mstore\n  0x20\n  add\n  0x00\n  keccak256\n  0x00\n    /* \"@openzeppelin/contracts/token/ERC20/ERC20.sol\":7021:7043  _balances[to] += value */\n  dup3\n  dup3\n  sload\n  add\n  swap3\n  pop\n  pop\n  dup2\n  swap1\n  sstore\n  pop\n    /* \"@openzeppelin/contracts/token/ERC20/ERC20.sol\":6643:7068  if (to == address(0)) {... */\ntag_40:\n    /* \"@openzeppelin/contracts/token/ERC20/ERC20.sol\":7098:7100  to */\n  dup2\n    /* \"@openzeppelin/contracts/token/ERC20/ERC20.sol\":7083:7108  Transfer(from, to, value) */\n  0xffffffffffffffffffffffffffffffffffffffff\n  and\n    /* \"@openzeppelin/contracts/token/ERC20/ERC20.sol\":7092:7096  from */\n  dup4\n    /* \"@openzeppelin/contracts/token/ERC20/ERC20.sol\":7083:7108  Transfer(from, to, value) */\n  0xffffffffffffffffffffffffffffffffffffffff\n  and\n  0xddf252ad1be2c89b69c2b068fc378daa952ba7f163c4a11628f55a4df523b3ef\n    /* \"@openzeppelin/contracts/token/ERC20/ERC20.sol\":7102:7107  value */\n  dup4\n    /* \"@openzeppelin/contracts/token/ERC20/ERC20.sol\":7083:7108  Transfer(from, to, value) */\n  mload(0x40)\n  tag_41\n  swap2\n  swap1\n  tag_42\n  jump\t// in\ntag_41:\n  mload(0x40)\n  dup1\n  swap2\n  sub\n  swap1\n  log3\n    /* \"@openzeppelin/contracts/token/ERC20/ERC20.sol\":6008:7115  function _update(address from, address to, uint256 value) internal virtual {... */\n  pop\n  pop\n  pop\n  jump\t// out\n    /* \"#utility.yul\":7:82   */\ntag_43:\n    /* \"#utility.yul\":40:46   */\n  0x00\n    /* \"#utility.yul\":73:75   */\n  0x40\n    /* \"#utility.yul\":67:76   */\n  mload\n    /* \"#utility.yul\":57:76   */\n  swap1\n  pop\n    /* \"#utility.yul\":7:82   */\n  swap1\n  jump\t// out\n    /* \"#utility.yul\":88:205   */\ntag_44:\n    /* \"#utility.yul\":197:198   */\n  0x00\n    /* \"#utility.yul\":194:195   */\n  dup1\n    /* \"#utility.yul\":187:199   */\n  revert\n    /* \"#utility.yul\":211:328   */\ntag_45:\n    /* \"#utility.yul\":320:321   */\n  0x00\n    /* \"#utility.yul\":317:318   */\n  dup1\n    /* \"#utility.yul\":310:322   */\n  revert\n    /* \"#utility.yul\":334:451   */\ntag_46:\n    /* \"#utility.yul\":443:444   */\n  0x00\n    /* \"#utility.yul\":440:441   */\n  dup1\n    /* \"#utility.yul\":433:445   */\n  revert\n    /* \"#utility.yul\":457:574   */\ntag_47:\n    /* \"#utility.yul\":566:567   */\n  0x00\n    /* \"#utility.yul\":563:564   */\n  dup1\n    /* \"#utility.yul\":556:568   */\n  revert\n    /* \"#utility.yul\":580:682   */\ntag_48:\n    /* \"#utility.yul\":621:627   */\n  0x00\n    /* \"#utility.yul\":672:674   */\n  0x1f\n    /* \"#utility.yul\":668:675   */\n  not\n    /* \"#utility.yul\":663:665   */\n  0x1f\n    /* \"#utility.yul\":656:661   */\n  dup4\n    /* \"#utility.yul\":652:666   */\n  add\n    /* \"#utility.yul\":648:676   */\n  and\n    /* \"#utility.yul\":638:676   */\n  swap1\n  pop\n    /* \"#utility.yul\":580:682   */\n  swap2\n  swap1\n  pop\n  jump\t// out\n    /* \"#utility.yul\":688:868   */\ntag_49:\n    /* \"#utility.yul\":736:813   */\n  0x4e487b7100000000000000000000000000000000000000000000000000000000\n    /* \"#utility.yul\":733:734   */\n  0x00\n    /* \"#utility.yul\":726:814   */\n  mstore\n    /* \"#utility.yul\":833:837   */\n  0x41\n    /* \"#utility.yul\":830:831   */\n  0x04\n    /* \"#utility.yul\":823:838   */\n  mstore\n    /* \"#utility.yul\":857:861   */\n  0x24\n    /* \"#utility.yul\":854:855   */\n  0x00\n    /* \"#utility.yul\":847:862   */\n  revert\n    /* \"#utility.yul\":874:1155   */\ntag_50:\n    /* \"#utility.yul\":957:984   */\n  tag_97\n    /* \"#utility.yul\":979:983   */\n  dup3\n    /* \"#utility.yul\":957:984   */\n  tag_48\n  jump\t// in\ntag_97:\n    /* \"#utility.yul\":949:955   */\n  dup2\n    /* \"#utility.yul\":945:985   */\n  add\n    /* \"#utility.yul\":1087:1093   */\n  dup2\n    /* \"#utility.yul\":1075:1085   */\n  dup2\n    /* \"#utility.yul\":1072:1094   */\n  lt\n    /* \"#utility.yul\":1051:1069   */\n  0xffffffffffffffff\n    /* \"#utility.yul\":1039:1049   */\n  dup3\n    /* \"#utility.yul\":1036:1070   */\n  gt\n    /* \"#utility.yul\":1033:1095   */\n  or\n    /* \"#utility.yul\":1030:1118   */\n  iszero\n  tag_98\n  jumpi\n    /* \"#utility.yul\":1098:1116   */\n  tag_99\n  tag_49\n  jump\t// in\ntag_99:\n    /* \"#utility.yul\":1030:1118   */\ntag_98:\n    /* \"#utility.yul\":1138:1148   */\n  dup1\n    /* \"#utility.yul\":1134:1136   */\n  0x40\n    /* \"#utility.yul\":1127:1149   */\n  mstore\n    /* \"#utility.yul\":917:1155   */\n  pop\n    /* \"#utility.yul\":874:1155   */\n  pop\n  pop\n  jump\t// out\n    /* \"#utility.yul\":1161:1290   */\ntag_51:\n    /* \"#utility.yul\":1195:1201   */\n  0x00\n    /* \"#utility.yul\":1222:1242   */\n  tag_101\n  tag_43\n  jump\t// in\ntag_101:\n    /* \"#utility.yul\":1212:1242   */\n  swap1\n  pop\n    /* \"#utility.yul\":1251:1284   */\n  tag_102\n    /* \"#utility.yul\":1279:1283   */\n  dup3\n    /* \"#utility.yul\":1271:1277   */\n  dup3\n    /* \"#utility.yul\":1251:1284   */\n  tag_50\n  jump\t// in\ntag_102:\n    /* \"#utility.yul\":1161:1290   */\n  swap2\n  swap1\n  pop\n  jump\t// out\n    /* \"#utility.yul\":1296:1604   */\ntag_52:\n    /* \"#utility.yul\":1358:1362   */\n  0x00\n    /* \"#utility.yul\":1448:1466   */\n  0xffffffffffffffff\n    /* \"#utility.yul\":1440:1446   */\n  dup3\n    /* \"#utility.yul\":1437:1467   */\n  gt\n    /* \"#utility.yul\":1434:1490   */\n  iszero\n  tag_104\n  jumpi\n    /* \"#utility.yul\":1470:1488   */\n  tag_105\n  tag_49\n  jump\t// in\ntag_105:\n    /* \"#utility.yul\":1434:1490   */\ntag_104:\n    /* \"#utility.yul\":1508:1537   */\n  tag_106\n    /* \"#utility.yul\":1530:1536   */\n  dup3\n    /* \"#utility.yul\":1508:1537   */\n  tag_48\n  jump\t// in\ntag_106:\n    /* \"#utility.yul\":1500:1537   */\n  swap1\n  pop\n    /* \"#utility.yul\":1592:1596   */\n  0x20\n    /* \"#utility.yul\":1586:1590   */\n  dup2\n    /* \"#utility.yul\":1582:1597   */\n  add\n    /* \"#utility.yul\":1574:1597   */\n  swap1\n  pop\n    /* \"#utility.yul\":1296:1604   */\n  swap2\n  swap1\n  pop\n  jump\t// out\n    /* \"#utility.yul\":1610:1856   */\ntag_53:\n    /* \"#utility.yul\":1691:1692   */\n  0x00\n    /* \"#utility.yul\":1701:1814   */\ntag_108:\n    /* \"#utility.yul\":1715:1721   */\n  dup4\n    /* \"#utility.yul\":1712:1713   */\n  dup2\n    /* \"#utility.yul\":1709:1722   */\n  lt\n    /* \"#utility.yul\":1701:1814   */\n  iszero\n  tag_110\n  jumpi\n    /* \"#utility.yul\":1800:1801   */\n  dup1\n    /* \"#utility.yul\":1795:1798   */\n  dup3\n    /* \"#utility.yul\":1791:1802   */\n  add\n    /* \"#utility.yul\":1785:1803   */\n  mload\n    /* \"#utility.yul\":1781:1782   */\n  dup2\n    /* \"#utility.yul\":1776:1779   */\n  dup5\n    /* \"#utility.yul\":1772:1783   */\n  add\n    /* \"#utility.yul\":1765:1804   */\n  mstore\n    /* \"#utility.yul\":1737:1739   */\n  0x20\n    /* \"#utility.yul\":1734:1735   */\n  dup2\n    /* \"#utility.yul\":1730:1740   */\n  add\n    /* \"#utility.yul\":1725:1740   */\n  swap1\n  pop\n    /* \"#utility.yul\":1701:1814   */\n  jump(tag_108)\ntag_110:\n    /* \"#utility.yul\":1848:1849   */\n  0x00\n    /* \"#utility.yul\":1839:1845   */\n  dup5\n    /* \"#utility.yul\":1834:1837   */\n  dup5\n    /* \"#utility.yul\":1830:1846   */\n  add\n    /* \"#utility.yul\":1823:1850   */\n  mstore\n    /* \"#utility.yul\":1672:1856   */\n  pop\n    /* \"#utility.yul\":1610:1856   */\n  pop\n  pop\n  pop\n  jump\t// out\n    /* \"#utility.yul\":1862:2296   */\ntag_54:\n    /* \"#utility.yul\":1951:1956   */\n  0x00\n    /* \"#utility.yul\":1976:2042   */\n  tag_112\n    /* \"#utility.yul\":1992:2041   */\n  tag_113\n    /* \"#utility.yul\":2034:2040   */\n  dup5\n    /* \"#utility.yul\":1992:2041   */\n  tag_52\n  jump\t// in\ntag_113:\n    /* \"#utility.yul\":1976:2042   */\n  tag_51\n  jump\t// in\ntag_112:\n    /* \"#utility.yul\":1967:2042   */\n  swap1\n  pop\n    /* \"#utility.yul\":2065:2071   */\n  dup3\n    /* \"#utility.yul\":2058:2063   */\n  dup2\n    /* \"#utility.yul\":2051:2072   */\n  mstore\n    /* \"#utility.yul\":2103:2107   */\n  0x20\n    /* \"#utility.yul\":2096:2101   */\n  dup2\n    /* \"#utility.yul\":2092:2108   */\n  add\n    /* \"#utility.yul\":2141:2144   */\n  dup5\n    /* \"#utility.yul\":2132:2138   */\n  dup5\n    /* \"#utility.yul\":2127:2130   */\n  dup5\n    /* \"#utility.yul\":2123:2139   */\n  add\n    /* \"#utility.yul\":2120:2145   */\n  gt\n    /* \"#utility.yul\":2117:2229   */\n  iszero\n  tag_114\n  jumpi\n    /* \"#utility.yul\":2148:2227   */\n  tag_115\n  tag_47\n  jump\t// in\ntag_115:\n    /* \"#utility.yul\":2117:2229   */\ntag_114:\n    /* \"#utility.yul\":2238:2290   */\n  tag_116\n    /* \"#utility.yul\":2283:2289   */\n  dup5\n    /* \"#utility.yul\":2278:2281   */\n  dup3\n    /* \"#utility.yul\":2273:2276   */\n  dup6\n    /* \"#utility.yul\":2238:2290   */\n  tag_53\n  jump\t// in\ntag_116:\n    /* \"#utility.yul\":1957:2296   */\n  pop\n    /* \"#utility.yul\":1862:2296   */\n  swap4\n  swap3\n  pop\n  pop\n  pop\n  jump\t// out\n    /* \"#utility.yul\":2316:2671   */\ntag_55:\n    /* \"#utility.yul\":2383:2388   */\n  0x00\n    /* \"#utility.yul\":2432:2435   */\n  dup3\n    /* \"#utility.yul\":2425:2429   */\n  0x1f\n    /* \"#utility.yul\":2417:2423   */\n  dup4\n    /* \"#utility.yul\":2413:2430   */\n  add\n    /* \"#utility.yul\":2409:2436   */\n  slt\n    /* \"#utility.yul\":2399:2521   */\n  tag_118\n  jumpi\n    /* \"#utility.yul\":2440:2519   */\n  tag_119\n  tag_46\n  jump\t// in\ntag_119:\n    /* \"#utility.yul\":2399:2521   */\ntag_118:\n    /* \"#utility.yul\":2550:2556   */\n  dup2\n    /* \"#utility.yul\":2544:2557   */\n  mload\n    /* \"#utility.yul\":2575:2665   */\n  tag_120\n    /* \"#utility.yul\":2661:2664   */\n  dup5\n    /* \"#utility.yul\":2653:2659   */\n  dup3\n    /* \"#utility.yul\":2646:2650   */\n  0x20\n    /* \"#utility.yul\":2638:2644   */\n  dup7\n    /* \"#utility.yul\":2634:2651   */\n  add\n    /* \"#utility.yul\":2575:2665   */\n  tag_54\n  jump\t// in\ntag_120:\n    /* \"#utility.yul\":2566:2665   */\n  swap2\n  pop\n    /* \"#utility.yul\":2389:2671   */\n  pop\n    /* \"#utility.yul\":2316:2671   */\n  swap3\n  swap2\n  pop\n  pop\n  jump\t// out\n    /* \"#utility.yul\":2677:2763   */\ntag_56:\n    /* \"#utility.yul\":2712:2719   */\n  0x00\n    /* \"#utility.yul\":2752:2756   */\n  0xff\n    /* \"#utility.yul\":2745:2750   */\n  dup3\n    /* \"#utility.yul\":2741:2757   */\n  and\n    /* \"#utility.yul\":2730:2757   */\n  swap1\n  pop\n    /* \"#utility.yul\":2677:2763   */\n  swap2\n  swap1\n  pop\n  jump\t// out\n    /* \"#utility.yul\":2769:2887   */\ntag_57:\n    /* \"#utility.yul\":2840:2862   */\n  tag_123\n    /* \"#utility.yul\":2856:2861   */\n  dup2\n    /* \"#utility.yul\":2840:2862   */\n  tag_56\n  jump\t// in\ntag_123:\n    /* \"#utility.yul\":2833:2838   */\n  dup2\n    /* \"#utility.yul\":2830:2863   */\n  eq\n    /* \"#utility.yul\":2820:2881   */\n  tag_124\n  jumpi\n    /* \"#utility.yul\":2877:2878   */\n  0x00\n    /* \"#utility.yul\":2874:2875   */\n  dup1\n    /* \"#utility.yul\":2867:2879   */\n  revert\n    /* \"#utility.yul\":2820:2881   */\ntag_124:\n    /* \"#utility.yul\":2769:2887   */\n  pop\n  jump\t// out\n    /* \"#utility.yul\":2893:3032   */\ntag_58:\n    /* \"#utility.yul\":2948:2953   */\n  0x00\n    /* \"#utility.yul\":2979:2985   */\n  dup2\n    /* \"#utility.yul\":2973:2986   */\n  mload\n    /* \"#utility.yul\":2964:2986   */\n  swap1\n  pop\n    /* \"#utility.yul\":2995:3026   */\n  tag_126\n    /* \"#utility.yul\":3020:3025   */\n  dup2\n    /* \"#utility.yul\":2995:3026   */\n  tag_57\n  jump\t// in\ntag_126:\n    /* \"#utility.yul\":2893:3032   */\n  swap3\n  swap2\n  pop\n  pop\n  jump\t// out\n    /* \"#utility.yul\":3038:3115   */\ntag_59:\n    /* \"#utility.yul\":3075:3082   */\n  0x00\n    /* \"#utility.yul\":3104:3109   */\n  dup2\n    /* \"#utility.yul\":3093:3109   */\n  swap1\n  pop\n    /* \"#utility.yul\":3038:3115   */\n  swap2\n  swap1\n  pop\n  jump\t// out\n    /* \"#utility.yul\":3121:3243   */\ntag_60:\n    /* \"#utility.yul\":3194:3218   */\n  tag_129\n    /* \"#utility.yul\":3212:3217   */\n  dup2\n    /* \"#utility.yul\":3194:3218   */\n  tag_59\n  jump\t// in\ntag_129:\n    /* \"#utility.yul\":3187:3192   */\n  dup2\n    /* \"#utility.yul\":3184:3219   */\n  eq\n    /* \"#utility.yul\":3174:3237   */\n  tag_130\n  jumpi\n    /* \"#utility.yul\":3233:3234   */\n  0x00\n    /* \"#utility.yul\":3230:3231   */\n  dup1\n    /* \"#utility.yul\":3223:3235   */\n  revert\n    /* \"#utility.yul\":3174:3237   */\ntag_130:\n    /* \"#utility.yul\":3121:3243   */\n  pop\n  jump\t// out\n    /* \"#utility.yul\":3249:3392   */\ntag_61:\n    /* \"#utility.yul\":3306:3311   */\n  0x00\n    /* \"#utility.yul\":3337:3343   */\n  dup2\n    /* \"#utility.yul\":3331:3344   */\n  mload\n    /* \"#utility.yul\":3322:3344   */\n  swap1\n  pop\n    /* \"#utility.yul\":3353:3386   */\n  tag_132\n    /* \"#utility.yul\":3380:3385   */\n  dup2\n    /* \"#utility.yul\":3353:3386   */\n  tag_60\n  jump\t// in\ntag_132:\n    /* \"#utility.yul\":3249:3392   */\n  swap3\n  swap2\n  pop\n  pop\n  jump\t// out\n    /* \"#utility.yul\":3398:4560   */\ntag_3:\n    /* \"#utility.yul\":3513:3519   */\n  0x00\n    /* \"#utility.yul\":3521:3527   */\n  dup1\n    /* \"#utility.yul\":3529:3535   */\n  0x00\n    /* \"#utility.yul\":3537:3543   */\n  dup1\n    /* \"#utility.yul\":3586:3589   */\n  0x80\n    /* \"#utility.yul\":3574:3583   */\n  dup6\n    /* \"#utility.yul\":3565:3572   */\n  dup8\n    /* \"#utility.yul\":3561:3584   */\n  sub\n    /* \"#utility.yul\":3557:3590   */\n  slt\n    /* \"#utility.yul\":3554:3674   */\n  iszero\n  tag_134\n  jumpi\n    /* \"#utility.yul\":3593:3672   */\n  tag_135\n  tag_44\n  jump\t// in\ntag_135:\n    /* \"#utility.yul\":3554:3674   */\ntag_134:\n    /* \"#utility.yul\":3734:3735   */\n  0x00\n    /* \"#utility.yul\":3723:3732   */\n  dup6\n    /* \"#utility.yul\":3719:3736   */\n  add\n    /* \"#utility.yul\":3713:3737   */\n  mload\n    /* \"#utility.yul\":3764:3782   */\n  0xffffffffffffffff\n    /* \"#utility.yul\":3756:3762   */\n  dup2\n    /* \"#utility.yul\":3753:3783   */\n  gt\n    /* \"#utility.yul\":3750:3867   */\n  iszero\n  tag_136\n  jumpi\n    /* \"#utility.yul\":3786:3865   */\n  tag_137\n  tag_45\n  jump\t// in\ntag_137:\n    /* \"#utility.yul\":3750:3867   */\ntag_136:\n    /* \"#utility.yul\":3891:3965   */\n  tag_138\n    /* \"#utility.yul\":3957:3964   */\n  dup8\n    /* \"#utility.yul\":3948:3954   */\n  dup3\n    /* \"#utility.yul\":3937:3946   */\n  dup9\n    /* \"#utility.yul\":3933:3955   */\n  add\n    /* \"#utility.yul\":3891:3965   */\n  tag_55\n  jump\t// in\ntag_138:\n    /* \"#utility.yul\":3881:3965   */\n  swap5\n  pop\n    /* \"#utility.yul\":3684:3975   */\n  pop\n    /* \"#utility.yul\":4035:4037   */\n  0x20\n    /* \"#utility.yul\":4024:4033   */\n  dup6\n    /* \"#utility.yul\":4020:4038   */\n  add\n    /* \"#utility.yul\":4014:4039   */\n  mload\n    /* \"#utility.yul\":4066:4084   */\n  0xffffffffffffffff\n    /* \"#utility.yul\":4058:4064   */\n  dup2\n    /* \"#utility.yul\":4055:4085   */\n  gt\n    /* \"#utility.yul\":4052:4169   */\n  iszero\n  tag_139\n  jumpi\n    /* \"#utility.yul\":4088:4167   */\n  tag_140\n  tag_45\n  jump\t// in\ntag_140:\n    /* \"#utility.yul\":4052:4169   */\ntag_139:\n    /* \"#utility.yul\":4193:4267   */\n  tag_141\n    /* \"#utility.yul\":4259:4266   */\n  dup8\n    /* \"#utility.yul\":4250:4256   */\n  dup3\n    /* \"#utility.yul\":4239:4248   */\n  dup9\n    /* \"#utility.yul\":4235:4257   */\n  add\n    /* \"#utility.yul\":4193:4267   */\n  tag_55\n  jump\t// in\ntag_141:\n    /* \"#utility.yul\":4183:4267   */\n  swap4\n  pop\n    /* \"#utility.yul\":3985:4277   */\n  pop\n    /* \"#utility.yul\":4316:4318   */\n  0x40\n    /* \"#utility.yul\":4342:4404   */\n  tag_142\n    /* \"#utility.yul\":4396:4403   */\n  dup8\n    /* \"#utility.yul\":4387:4393   */\n  dup3\n    /* \"#utility.yul\":4376:4385   */\n  dup9\n    /* \"#utility.yul\":4372:4394   */\n  add\n    /* \"#utility.yul\":4342:4404   */\n  tag_58\n  jump\t// in\ntag_142:\n    /* \"#utility.yul\":4332:4404   */\n  swap3\n  pop\n    /* \"#utility.yul\":4287:4414   */\n  pop\n    /* \"#utility.yul\":4453:4455   */\n  0x60\n    /* \"#utility.yul\":4479:4543   */\n  tag_143\n    /* \"#utility.yul\":4535:4542   */\n  dup8\n    /* \"#utility.yul\":4526:4532   */\n  dup3\n    /* \"#utility.yul\":4515:4524   */\n  dup9\n    /* \"#utility.yul\":4511:4533   */\n  add\n    /* \"#utility.yul\":4479:4543   */\n  tag_61\n  jump\t// in\ntag_143:\n    /* \"#utility.yul\":4469:4543   */\n  swap2\n  pop\n    /* \"#utility.yul\":4424:4553   */\n  pop\n    /* \"#utility.yul\":3398:4560   */\n  swap3\n  swap6\n  swap2\n  swap5\n  pop\n  swap3\n  pop\n  jump\t// out\n    /* \"#utility.yul\":4566:4665   */\ntag_62:\n    /* \"#utility.yul\":4618:4624   */\n  0x00\n    /* \"#utility.yul\":4652:4657   */\n  dup2\n    /* \"#utility.yul\":4646:4658   */\n  mload\n    /* \"#utility.yul\":4636:4658   */\n  swap1\n  pop\n    /* \"#utility.yul\":4566:4665   */\n  swap2\n  swap1\n  pop\n  jump\t// out\n    /* \"#utility.yul\":4671:4851   */\ntag_63:\n    /* \"#utility.yul\":4719:4796   */\n  0x4e487b7100000000000000000000000000000000000000000000000000000000\n    /* \"#utility.yul\":4716:4717   */\n  0x00\n    /* \"#utility.yul\":4709:4797   */\n  mstore\n    /* \"#utility.yul\":4816:4820   */\n  0x22\n    /* \"#utility.yul\":4813:4814   */\n  0x04\n    /* \"#utility.yul\":4806:4821   */\n  mstore\n    /* \"#utility.yul\":4840:4844   */\n  0x24\n    /* \"#utility.yul\":4837:4838   */\n  0x00\n    /* \"#utility.yul\":4830:4845   */\n  revert\n    /* \"#utility.yul\":4857:5177   */\ntag_64:\n    /* \"#utility.yul\":4901:4907   */\n  0x00\n    /* \"#utility.yul\":4938:4939   */\n  0x02\n    /* \"#utility.yul\":4932:4936   */\n  dup3\n    /* \"#utility.yul\":4928:4940   */\n  div\n    /* \"#utility.yul\":4918:4940   */\n  swap1\n  pop\n    /* \"#utility.yul\":4985:4986   */\n  0x01\n    /* \"#utility.yul\":4979:4983   */\n  dup3\n    /* \"#utility.yul\":4975:4987   */\n  and\n    /* \"#utility.yul\":5006:5024   */\n  dup1\n    /* \"#utility.yul\":4996:5077   */\n  tag_147\n  jumpi\n    /* \"#utility.yul\":5062:5066   */\n  0x7f\n    /* \"#utility.yul\":5054:5060   */\n  dup3\n    /* \"#utility.yul\":5050:5067   */\n  and\n    /* \"#utility.yul\":5040:5067   */\n  swap2\n  pop\n    /* \"#utility.yul\":4996:5077   */\ntag_147:\n    /* \"#utility.yul\":5124:5126   */\n  0x20\n    /* \"#utility.yul\":5116:5122   */\n  dup3\n    /* \"#utility.yul\":5113:5127   */\n  lt\n    /* \"#utility.yul\":5093:5111   */\n  dup2\n    /* \"#utility.yul\":5090:5128   */\n  sub\n    /* \"#utility.yul\":5087:5171   */\n  tag_148\n  jumpi\n    /* \"#utility.yul\":5143:5161   */\n  tag_149\n  tag_63\n  jump\t// in\ntag_149:\n    /* \"#utility.yul\":5087:5171   */\ntag_148:\n    /* \"#utility.yul\":4908:5177   */\n  pop\n    /* \"#utility.yul\":4857:5177   */\n  swap2\n  swap1\n  pop\n  jump\t// out\n    /* \"#utility.yul\":5183:5324   */\ntag_65:\n    /* \"#utility.yul\":5232:5236   */\n  0x00\n    /* \"#utility.yul\":5255:5258   */\n  dup2\n    /* \"#utility.yul\":5247:5258   */\n  swap1\n  pop\n    /* \"#utility.yul\":5278:5281   */\n  dup2\n    /* \"#utility.yul\":5275:5276   */\n  0x00\n    /* \"#utility.yul\":5268:5282   */\n  mstore\n    /* \"#utility.yul\":5312:5316   */\n  0x20\n    /* \"#utility.yul\":5309:5310   */\n  0x00\n    /* \"#utility.yul\":5299:5317   */\n  keccak256\n    /* \"#utility.yul\":5291:5317   */\n  swap1\n  pop\n    /* \"#utility.yul\":5183:5324   */\n  swap2\n  swap1\n  pop\n  jump\t// out\n    /* \"#utility.yul\":5330:5423   */\ntag_66:\n    /* \"#utility.yul\":5367:5373   */\n  0x00\n    /* \"#utility.yul\":5414:5416   */\n  0x20\n    /* \"#utility.yul\":5409:5411   */\n  0x1f\n    /* \"#utility.yul\":5402:5407   */\n  dup4\n    /* \"#utility.yul\":5398:5412   */\n  add\n    /* \"#utility.yul\":5394:5417   */\n  div\n    /* \"#utility.yul\":5384:5417   */\n  swap1\n  pop\n    /* \"#utility.yul\":5330:5423   */\n  swap2\n  swap1\n  pop\n  jump\t// out\n    /* \"#utility.yul\":5429:5536   */\ntag_67:\n    /* \"#utility.yul\":5473:5481   */\n  0x00\n    /* \"#utility.yul\":5523:5528   */\n  dup3\n    /* \"#utility.yul\":5517:5521   */\n  dup3\n    /* \"#utility.yul\":5513:5529   */\n  shl\n    /* \"#utility.yul\":5492:5529   */\n  swap1\n  pop\n    /* \"#utility.yul\":5429:5536   */\n  swap3\n  swap2\n  pop\n  pop\n  jump\t// out\n    /* \"#utility.yul\":5542:5935   */\ntag_68:\n    /* \"#utility.yul\":5611:5617   */\n  0x00\n    /* \"#utility.yul\":5661:5662   */\n  0x08\n    /* \"#utility.yul\":5649:5659   */\n  dup4\n    /* \"#utility.yul\":5645:5663   */\n  mul\n    /* \"#utility.yul\":5684:5781   */\n  tag_154\n    /* \"#utility.yul\":5714:5780   */\n  0xffffffffffffffffffffffffffffffffffffffffffffffffffffffffffffffff\n    /* \"#utility.yul\":5703:5712   */\n  dup3\n    /* \"#utility.yul\":5684:5781   */\n  tag_67\n  jump\t// in\ntag_154:\n    /* \"#utility.yul\":5802:5841   */\n  tag_155\n    /* \"#utility.yul\":5832:5840   */\n  dup7\n    /* \"#utility.yul\":5821:5830   */\n  dup4\n    /* \"#utility.yul\":5802:5841   */\n  tag_67\n  jump\t// in\ntag_155:\n    /* \"#utility.yul\":5790:5841   */\n  swap6\n  pop\n    /* \"#utility.yul\":5874:5878   */\n  dup1\n    /* \"#utility.yul\":5870:5879   */\n  not\n    /* \"#utility.yul\":5863:5868   */\n  dup5\n    /* \"#utility.yul\":5859:5880   */\n  and\n    /* \"#utility.yul\":5850:5880   */\n  swap4\n  pop\n    /* \"#utility.yul\":5923:5927   */\n  dup1\n    /* \"#utility.yul\":5913:5921   */\n  dup7\n    /* \"#utility.yul\":5909:5928   */\n  and\n    /* \"#utility.yul\":5902:5907   */\n  dup5\n    /* \"#utility.yul\":5899:5929   */\n  or\n    /* \"#utility.yul\":5889:5929   */\n  swap3\n  pop\n    /* \"#utility.yul\":5618:5935   */\n  pop\n  pop\n    /* \"#utility.yul\":5542:5935   */\n  swap4\n  swap3\n  pop\n  pop\n  pop\n  jump\t// out\n    /* \"#utility.yul\":5941:6001   */\ntag_69:\n    /* \"#utility.yul\":5969:5972   */\n  0x00\n    /* \"#utility.yul\":5990:5995   */\n  dup2\n    /* \"#utility.yul\":5983:5995   */\n  swap1\n  pop\n    /* \"#utility.yul\":5941:6001   */\n  swap2\n  swap1\n  pop\n  jump\t// out\n    /* \"#utility.yul\":6007:6149   */\ntag_70:\n    /* \"#utility.yul\":6057:6066   */\n  0x00\n    /* \"#utility.yul\":6090:6143   */\n  tag_158\n    /* \"#utility.yul\":6108:6142   */\n  tag_159\n    /* \"#utility.yul\":6117:6141   */\n  tag_160\n    /* \"#utility.yul\":6135:6140   */\n  dup5\n    /* \"#utility.yul\":6117:6141   */\n  tag_59\n  jump\t// in\ntag_160:\n    /* \"#utility.yul\":6108:6142   */\n  tag_69\n  jump\t// in\ntag_159:\n    /* \"#utility.yul\":6090:6143   */\n  tag_59\n  jump\t// in\ntag_158:\n    /* \"#utility.yul\":6077:6143   */\n  swap1\n  pop\n    /* \"#utility.yul\":6007:6149   */\n  swap2\n  swap1\n  pop\n  jump\t// out\n    /* \"#utility.yul\":6155:6230   */\ntag_71:\n    /* \"#utility.yul\":6198:6201   */\n  0x00\n    /* \"#utility.yul\":6219:6224   */\n  dup2\n    /* \"#utility.yul\":6212:6224   */\n  swap1\n  pop\n    /* \"#utility.yul\":6155:6230   */\n  swap2\n  swap1\n  pop\n  jump\t// out\n    /* \"#utility.yul\":6236:6505   */\ntag_72:\n    /* \"#utility.yul\":6346:6385   */\n  tag_163\n    /* \"#utility.yul\":6377:6384   */\n  dup4\n    /* \"#utility.yul\":6346:6385   */\n  tag_70\n  jump\t// in\ntag_163:\n    /* \"#utility.yul\":6407:6498   */\n  tag_164\n    /* \"#utility.yul\":6456:6497   */\n  tag_165\n    /* \"#utility.yul\":6480:6496   */\n  dup3\n    /* \"#utility.yul\":6456:6497   */\n  tag_71\n  jump\t// in\ntag_165:\n    /* \"#utility.yul\":6448:6454   */\n  dup5\n    /* \"#utility.yul\":6441:6445   */\n  dup5\n    /* \"#utility.yul\":6435:6446   */\n  sload\n    /* \"#utility.yul\":6407:6498   */\n  tag_68\n  jump\t// in\ntag_164:\n    /* \"#utility.yul\":6401:6405   */\n  dup3\n    /* \"#utility.yul\":6394:6499   */\n  sstore\n    /* \"#utility.yul\":6312:6505   */\n  pop\n    /* \"#utility.yul\":6236:6505   */\n  pop\n  pop\n  pop\n  jump\t// out\n    /* \"#utility.yul\":6511:6584   */\ntag_73:\n    /* \"#utility.yul\":6556:6559   */\n  0x00\n    /* \"#utility.yul\":6511:6584   */\n  swap1\n  jump\t// out\n    /* \"#utility.yul\":6590:6779   */\ntag_74:\n    /* \"#utility.yul\":6667:6699   */\n  tag_168\n  tag_73\n  jump\t// in\ntag_168:\n    /* \"#utility.yul\":6708:6773   */\n  tag_169\n    /* \"#utility.yul\":6766:6772   */\n  dup2\n    /* \"#utility.yul\":6758:6764   */\n  dup5\n    /* \"#utility.yul\":6752:6756   */\n  dup5\n    /* \"#utility.yul\":6708:6773   */\n  tag_72\n  jump\t// in\ntag_169:\n    /* \"#utility.yul\":6643:6779   */\n  pop\n    /* \"#utility.yul\":6590:6779   */\n  pop\n  pop\n  jump\t// out\n    /* \"#utility.yul\":6785:6971   */\ntag_75:\n    /* \"#utility.yul\":6845:6965   */\ntag_171:\n    /* \"#utility.yul\":6862:6865   */\n  dup2\n    /* \"#utility.yul\":6855:6860   */\n  dup2\n    /* \"#utility.yul\":6852:6866   */\n  lt\n    /* \"#utility.yul\":6845:6965   */\n  iszero\n  tag_173\n  jumpi\n    /* \"#utility.yul\":6916:6955   */\n  tag_174\n    /* \"#utility.yul\":6953:6954   */\n  0x00\n    /* \"#utility.yul\":6946:6951   */\n  dup3\n    /* \"#utility.yul\":6916:6955   */\n  tag_74\n  jump\t// in\ntag_174:\n    /* \"#utility.yul\":6889:6890   */\n  0x01\n    /* \"#utility.yul\":6882:6887   */\n  dup2\n    /* \"#utility.yul\":6878:6891   */\n  add\n    /* \"#utility.yul\":6869:6891   */\n  swap1\n  pop\n    /* \"#utility.yul\":6845:6965   */\n  jump(tag_171)\ntag_173:\n    /* \"#utility.yul\":6785:6971   */\n  pop\n  pop\n  jump\t// out\n    /* \"#utility.yul\":6977:7520   */\ntag_76:\n    /* \"#utility.yul\":7078:7080   */\n  0x1f\n    /* \"#utility.yul\":7073:7076   */\n  dup3\n    /* \"#utility.yul\":7070:7081   */\n  gt\n    /* \"#utility.yul\":7067:7513   */\n  iszero\n  tag_176\n  jumpi\n    /* \"#utility.yul\":7112:7150   */\n  tag_177\n    /* \"#utility.yul\":7144:7149   */\n  dup2\n    /* \"#utility.yul\":7112:7150   */\n  tag_65\n  jump\t// in\ntag_177:\n    /* \"#utility.yul\":7196:7225   */\n  tag_178\n    /* \"#utility.yul\":7214:7224   */\n  dup5\n    /* \"#utility.yul\":7196:7225   */\n  tag_66\n  jump\t// in\ntag_178:\n    /* \"#utility.yul\":7186:7194   */\n  dup2\n    /* \"#utility.yul\":7182:7226   */\n  add\n    /* \"#utility.yul\":7379:7381   */\n  0x20\n    /* \"#utility.yul\":7367:7377   */\n  dup6\n    /* \"#utility.yul\":7364:7382   */\n  lt\n    /* \"#utility.yul\":7361:7410   */\n  iszero\n  tag_179\n  jumpi\n    /* \"#utility.yul\":7400:7408   */\n  dup2\n    /* \"#utility.yul\":7385:7408   */\n  swap1\n  pop\n    /* \"#utility.yul\":7361:7410   */\ntag_179:\n    /* \"#utility.yul\":7423:7503   */\n  tag_180\n    /* \"#utility.yul\":7479:7501   */\n  tag_181\n    /* \"#utility.yul\":7497:7500   */\n  dup6\n    /* \"#utility.yul\":7479:7501   */\n  tag_66\n  jump\t// in\ntag_181:\n    /* \"#utility.yul\":7469:7477   */\n  dup4\n    /* \"#utility.yul\":7465:7502   */\n  add\n    /* \"#utility.yul\":7452:7463   */\n  dup3\n    /* \"#utility.yul\":7423:7503   */\n  tag_75\n  jump\t// in\ntag_180:\n    /* \"#utility.yul\":7082:7513   */\n  pop\n  pop\n    /* \"#utility.yul\":7067:7513   */\ntag_176:\n    /* \"#utility.yul\":6977:7520   */\n  pop\n  pop\n  pop\n  jump\t// out\n    /* \"#utility.yul\":7526:7643   */\ntag_77:\n    /* \"#utility.yul\":7580:7588   */\n  0x00\n    /* \"#utility.yul\":7630:7635   */\n  dup3\n    /* \"#utility.yul\":7624:7628   */\n  dup3\n    /* \"#utility.yul\":7620:7636   */\n  shr\n    /* \"#utility.yul\":7599:7636   */\n  swap1\n  pop\n    /* \"#utility.yul\":7526:7643   */\n  swap3\n  swap2\n  pop\n  pop\n  jump\t// out\n    /* \"#utility.yul\":7649:7818   */\ntag_78:\n    /* \"#utility.yul\":7693:7699   */\n  0x00\n    /* \"#utility.yul\":7726:7777   */\n  tag_184\n    /* \"#utility.yul\":7774:7775   */\n  0x00\n    /* \"#utility.yul\":7770:7776   */\n  not\n    /* \"#utility.yul\":7762:7767   */\n  dup5\n    /* \"#utility.yul\":7759:7760   */\n  0x08\n    /* \"#utility.yul\":7755:7768   */\n  mul\n    /* \"#utility.yul\":7726:7777   */\n  tag_77\n  jump\t// in\ntag_184:\n    /* \"#utility.yul\":7722:7778   */\n  not\n    /* \"#utility.yul\":7807:7811   */\n  dup1\n    /* \"#utility.yul\":7801:7805   */\n  dup4\n    /* \"#utility.yul\":7797:7812   */\n  and\n    /* \"#utility.yul\":7787:7812   */\n  swap2\n  pop\n    /* \"#utility.yul\":7700:7818   */\n  pop\n    /* \"#utility.yul\":7649:7818   */\n  swap3\n  swap2\n  pop\n  pop\n  jump\t// out\n    /* \"#utility.yul\":7823:8118   */\ntag_79:\n    /* \"#utility.yul\":7899:7903   */\n  0x00\n    /* \"#utility.yul\":8045:8074   */\n  tag_186\n    /* \"#utility.yul\":8070:8073   */\n  dup4\n    /* \"#utility.yul\":8064:8068   */\n  dup4\n    /* \"#utility.yul\":8045:8074   */\n  tag_78\n  jump\t// in\ntag_186:\n    /* \"#utility.yul\":8037:8074   */\n  swap2\n  pop\n    /* \"#utility.yul\":8107:8110   */\n  dup3\n    /* \"#utility.yul\":8104:8105   */\n  0x02\n    /* \"#utility.yul\":8100:8111   */\n  mul\n    /* \"#utility.yul\":8094:8098   */\n  dup3\n    /* \"#utility.yul\":8091:8112   */\n  or\n    /* \"#utility.yul\":8083:8112   */\n  swap1\n  pop\n    /* \"#utility.yul\":7823:8118   */\n  swap3\n  swap2\n  pop\n  pop\n  jump\t// out\n    /* \"#utility.yul\":8123:9518   */\ntag_9:\n    /* \"#utility.yul\":8240:8277   */\n  tag_188\n    /* \"#utility.yul\":8273:8276   */\n  dup3\n    /* \"#utility.yul\":8240:8277   */\n  tag_62\n  jump\t// in\ntag_188:\n    /* \"#utility.yul\":8342:8360   */\n  0xffffffffffffffff\n    /* \"#utility.yul\":8334:8340   */\n  dup2\n    /* \"#utility.yul\":8331:8361   */\n  gt\n    /* \"#utility.yul\":8328:8384   */\n  iszero\n  tag_189\n  jumpi\n    /* \"#utility.yul\":8364:8382   */\n  tag_190\n  tag_49\n  jump\t// in\ntag_190:\n    /* \"#utility.yul\":8328:8384   */\ntag_189:\n    /* \"#utility.yul\":8408:8446   */\n  tag_191\n    /* \"#utility.yul\":8440:8444   */\n  dup3\n    /* \"#utility.yul\":8434:8445   */\n  sload\n    /* \"#utility.yul\":8408:8446   */\n  tag_64\n  jump\t// in\ntag_191:\n    /* \"#utility.yul\":8493:8560   */\n  tag_192\n    /* \"#utility.yul\":8553:8559   */\n  dup3\n    /* \"#utility.yul\":8545:8551   */\n  dup3\n    /* \"#utility.yul\":8539:8543   */\n  dup6\n    /* \"#utility.yul\":8493:8560   */\n  tag_76\n  jump\t// in\ntag_192:\n    /* \"#utility.yul\":8587:8588   */\n  0x00\n    /* \"#utility.yul\":8611:8615   */\n  0x20\n    /* \"#utility.yul\":8598:8615   */\n  swap1\n  pop\n    /* \"#utility.yul\":8643:8645   */\n  0x1f\n    /* \"#utility.yul\":8635:8641   */\n  dup4\n    /* \"#utility.yul\":8632:8646   */\n  gt\n    /* \"#utility.yul\":8660:8661   */\n  0x01\n    /* \"#utility.yul\":8655:9273   */\n  dup2\n  eq\n  tag_194\n  jumpi\n    /* \"#utility.yul\":9317:9318   */\n  0x00\n    /* \"#utility.yul\":9334:9340   */\n  dup5\n    /* \"#utility.yul\":9331:9408   */\n  iszero\n  tag_195\n  jumpi\n    /* \"#utility.yul\":9383:9392   */\n  dup3\n    /* \"#utility.yul\":9378:9381   */\n  dup8\n    /* \"#utility.yul\":9374:9393   */\n  add\n    /* \"#utility.yul\":9368:9394   */\n  mload\n    /* \"#utility.yul\":9359:9394   */\n  swap1\n  pop\n    /* \"#utility.yul\":9331:9408   */\ntag_195:\n    /* \"#utility.yul\":9434:9501   */\n  tag_196\n    /* \"#utility.yul\":9494:9500   */\n  dup6\n    /* \"#utility.yul\":9487:9492   */\n  dup3\n    /* \"#utility.yul\":9434:9501   */\n  tag_79\n  jump\t// in\ntag_196:\n    /* \"#utility.yul\":9428:9432   */\n  dup7\n    /* \"#utility.yul\":9421:9502   */\n  sstore\n    /* \"#utility.yul\":9290:9512   */\n  pop\n    /* \"#utility.yul\":8625:9512   */\n  jump(tag_193)\n    /* \"#utility.yul\":8655:9273   */\ntag_194:\n    /* \"#utility.yul\":8707:8711   */\n  0x1f\n    /* \"#utility.yul\":8703:8712   */\n  not\n    /* \"#utility.yul\":8695:8701   */\n  dup5\n    /* \"#utility.yul\":8691:8713   */\n  and\n    /* \"#utility.yul\":8741:8778   */\n  tag_197\n    /* \"#utility.yul\":8773:8777   */\n  dup7\n    /* \"#utility.yul\":8741:8778   */\n  tag_65\n  jump\t// in\ntag_197:\n    /* \"#utility.yul\":8800:8801   */\n  0x00\n    /* \"#utility.yul\":8814:9022   */\ntag_198:\n    /* \"#utility.yul\":8828:8835   */\n  dup3\n    /* \"#utility.yul\":8825:8826   */\n  dup2\n    /* \"#utility.yul\":8822:8836   */\n  lt\n    /* \"#utility.yul\":8814:9022   */\n  iszero\n  tag_200\n  jumpi\n    /* \"#utility.yul\":8907:8916   */\n  dup5\n    /* \"#utility.yul\":8902:8905   */\n  dup10\n    /* \"#utility.yul\":8898:8917   */\n  add\n    /* \"#utility.yul\":8892:8918   */\n  mload\n    /* \"#utility.yul\":8884:8890   */\n  dup3\n    /* \"#utility.yul\":8877:8919   */\n  sstore\n    /* \"#utility.yul\":8958:8959   */\n  0x01\n    /* \"#utility.yul\":8950:8956   */\n  dup3\n    /* \"#utility.yul\":8946:8960   */\n  add\n    /* \"#utility.yul\":8936:8960   */\n  swap2\n  pop\n    /* \"#utility.yul\":9005:9007   */\n  0x20\n    /* \"#utility.yul\":8994:9003   */\n  dup6\n    /* \"#utility.yul\":8990:9008   */\n  add\n    /* \"#utility.yul\":8977:9008   */\n  swap5\n  pop\n    /* \"#utility.yul\":8851:8855   */\n  0x20\n    /* \"#utility.yul\":8848:8849   */\n  dup2\n    /* \"#utility.yul\":8844:8856   */\n  add\n    /* \"#utility.yul\":8839:8856   */\n  swap1\n  pop\n    /* \"#utility.yul\":8814:9022   */\n  jump(tag_198)\ntag_200:\n    /* \"#utility.yul\":9050:9056   */\n  dup7\n    /* \"#utility.yul\":9041:9048   */\n  dup4\n    /* \"#utility.yul\":9038:9057   */\n  lt\n    /* \"#utility.yul\":9035:9214   */\n  iszero\n  tag_201\n  jumpi\n    /* \"#utility.yul\":9108:9117   */\n  dup5\n    /* \"#utility.yul\":9103:9106   */\n  dup10\n    /* \"#utility.yul\":9099:9118   */\n  add\n    /* \"#utility.yul\":9093:9119   */\n  mload\n    /* \"#utility.yul\":9151:9199   */\n  tag_202\n    /* \"#utility.yul\":9193:9197   */\n  0x1f\n    /* \"#utility.yul\":9185:9191   */\n  dup10\n    /* \"#utility.yul\":9181:9198   */\n  and\n    /* \"#utility.yul\":9170:9179   */\n  dup3\n    /* \"#utility.yul\":9151:9199   */\n  tag_78\n  jump\t// in\ntag_202:\n    /* \"#utility.yul\":9143:9149   */\n  dup4\n    /* \"#utility.yul\":9136:9200   */\n  sstore\n    /* \"#utility.yul\":9058:9214   */\n  pop\n    /* \"#utility.yul\":9035:9214   */\ntag_201:\n    /* \"#utility.yul\":9260:9261   */\n  0x01\n    /* \"#utility.yul\":9256:9257   */\n  0x02\n    /* \"#utility.yul\":9248:9254   */\n  dup9\n    /* \"#utility.yul\":9244:9258   */\n  mul\n    /* \"#utility.yul\":9240:9262   */\n  add\n    /* \"#utility.yul\":9234:9238   */\n  dup9\n    /* \"#utility.yul\":9227:9263   */\n  sstore\n    /* \"#utility.yul\":8662:9273   */\n  pop\n  pop\n  pop\n    /* \"#utility.yul\":8625:9512   */\ntag_193:\n  pop\n    /* \"#utility.yul\":8215:9518   */\n  pop\n  pop\n  pop\n    /* \"#utility.yul\":8123:9518   */\n  pop\n  pop\n  jump\t// out\n    /* \"#utility.yul\":9524:9650   */\ntag_80:\n    /* \"#utility.yul\":9561:9568   */\n  0x00\n    /* \"#utility.yul\":9601:9643   */\n  0xffffffffffffffffffffffffffffffffffffffff\n    /* \"#utility.yul\":9594:9599   */\n  dup3\n    /* \"#utility.yul\":9590:9644   */\n  and\n    /* \"#utility.yul\":9579:9644   */\n  swap1\n  pop\n    /* \"#utility.yul\":9524:9650   */\n  swap2\n  swap1\n  pop\n  jump\t// out\n    /* \"#utility.yul\":9656:9752   */\ntag_81:\n    /* \"#utility.yul\":9693:9700   */\n  0x00\n    /* \"#utility.yul\":9722:9746   */\n  tag_205\n    /* \"#utility.yul\":9740:9745   */\n  dup3\n    /* \"#utility.yul\":9722:9746   */\n  tag_80\n  jump\t// in\ntag_205:\n    /* \"#utility.yul\":9711:9746   */\n  swap1\n  pop\n    /* \"#utility.yul\":9656:9752   */\n  swap2\n  swap1\n  pop\n  jump\t// out\n    /* \"#utility.yul\":9758:9876   */\ntag_82:\n    /* \"#utility.yul\":9845:9869   */\n  tag_207\n    /* \"#utility.yul\":9863:9868   */\n  dup2\n    /* \"#utility.yul\":9845:9869   */\n  tag_81\n  jump\t// in\ntag_207:\n    /* \"#utility.yul\":9840:9843   */\n  dup3\n    /* \"#utility.yul\":9833:9870   */\n  mstore\n    /* \"#utility.yul\":9758:9876   */\n  pop\n  pop\n  jump\t// out\n    /* \"#utility.yul\":9882:10104   */\ntag_14:\n    /* \"#utility.yul\":9975:9979   */\n  0x00\n    /* \"#utility.yul\":10013:10015   */\n  0x20\n    /* \"#utility.yul\":10002:10011   */\n  dup3\n    /* \"#utility.yul\":9998:10016   */\n  add\n    /* \"#utility.yul\":9990:10016   */\n  swap1\n  pop\n    /* \"#utility.yul\":10026:10097   */\n  tag_209\n    /* \"#utility.yul\":10094:10095   */\n  0x00\n    /* \"#utility.yul\":10083:10092   */\n  dup4\n    /* \"#utility.yul\":10079:10096   */\n  add\n    /* \"#utility.yul\":10070:10076   */\n  dup5\n    /* \"#utility.yul\":10026:10097   */\n  tag_82\n  jump\t// in\ntag_209:\n    /* \"#utility.yul\":9882:10104   */\n  swap3\n  swap2\n  pop\n  pop\n  jump\t// out\n    /* \"#utility.yul\":10110:10290   */\ntag_83:\n    /* \"#utility.yul\":10158:10235   */\n  0x4e487b7100000000000000000000000000000000000000000000000000000000\n    /* \"#utility.yul\":10155:10156   */\n  0x00\n    /* \"#utility.yul\":10148:10236   */\n  mstore\n    /* \"#utility.yul\":10255:10259   */\n  0x11\n    /* \"#utility.yul\":10252:10253   */\n  0x04\n    /* \"#utility.yul\":10245:10260   */\n  mstore\n    /* \"#utility.yul\":10279:10283   */\n  0x24\n    /* \"#utility.yul\":10276:10277   */\n  0x00\n    /* \"#utility.yul\":10269:10284   */\n  revert\n    /* \"#utility.yul\":10296:10398   */\ntag_84:\n    /* \"#utility.yul\":10338:10346   */\n  0x00\n    /* \"#utility.yul\":10385:10390   */\n  dup2\n    /* \"#utility.yul\":10382:10383   */\n  0x01\n    /* \"#utility.yul\":10378:10391   */\n  shr\n    /* \"#utility.yul\":10357:10391   */\n  swap1\n  pop\n    /* \"#utility.yul\":10296:10398   */\n  swap2\n  swap1\n  pop\n  jump\t// out\n    /* \"#utility.yul\":10404:11252   */\ntag_85:\n    /* \"#utility.yul\":10465:10470   */\n  0x00\n    /* \"#utility.yul\":10472:10476   */\n  dup1\n    /* \"#utility.yul\":10496:10502   */\n  dup3\n    /* \"#utility.yul\":10487:10502   */\n  swap2\n  pop\n    /* \"#utility.yul\":10520:10525   */\n  dup4\n    /* \"#utility.yul\":10511:10525   */\n  swap1\n  pop\n    /* \"#utility.yul\":10534:11246   */\ntag_213:\n    /* \"#utility.yul\":10555:10556   */\n  0x01\n    /* \"#utility.yul\":10545:10553   */\n  dup6\n    /* \"#utility.yul\":10542:10557   */\n  gt\n    /* \"#utility.yul\":10534:11246   */\n  iszero\n  tag_215\n  jumpi\n    /* \"#utility.yul\":10650:10654   */\n  dup1\n    /* \"#utility.yul\":10645:10648   */\n  dup7\n    /* \"#utility.yul\":10641:10655   */\n  div\n    /* \"#utility.yul\":10635:10639   */\n  dup2\n    /* \"#utility.yul\":10632:10656   */\n  gt\n    /* \"#utility.yul\":10629:10679   */\n  iszero\n  tag_216\n  jumpi\n    /* \"#utility.yul\":10659:10677   */\n  tag_217\n  tag_83\n  jump\t// in\ntag_217:\n    /* \"#utility.yul\":10629:10679   */\ntag_216:\n    /* \"#utility.yul\":10709:10710   */\n  0x01\n    /* \"#utility.yul\":10699:10707   */\n  dup6\n    /* \"#utility.yul\":10695:10711   */\n  and\n    /* \"#utility.yul\":10692:11143   */\n  iszero\n  tag_218\n  jumpi\n    /* \"#utility.yul\":11124:11128   */\n  dup1\n    /* \"#utility.yul\":11117:11122   */\n  dup3\n    /* \"#utility.yul\":11113:11129   */\n  mul\n    /* \"#utility.yul\":11104:11129   */\n  swap2\n  pop\n    /* \"#utility.yul\":10692:11143   */\ntag_218:\n    /* \"#utility.yul\":11174:11178   */\n  dup1\n    /* \"#utility.yul\":11168:11172   */\n  dup2\n    /* \"#utility.yul\":11164:11179   */\n  mul\n    /* \"#utility.yul\":11156:11179   */\n  swap1\n  pop\n    /* \"#utility.yul\":11204:11236   */\n  tag_219\n    /* \"#utility.yul\":11227:11235   */\n  dup6\n    /* \"#utility.yul\":11204:11236   */\n  tag_84\n  jump\t// in\ntag_219:\n    /* \"#utility.yul\":11192:11236   */\n  swap5\n  pop\n    /* \"#utility.yul\":10534:11246   */\n  jump(tag_213)\ntag_215:\n    /* \"#utility.yul\":10404:11252   */\n  swap5\n  pop\n  swap5\n  swap3\n  pop\n  pop\n  pop\n  jump\t// out\n    /* \"#utility.yul\":11258:12331   */\ntag_86:\n    /* \"#utility.yul\":11312:11317   */\n  0x00\n    /* \"#utility.yul\":11503:11511   */\n  dup3\n    /* \"#utility.yul\":11493:11533   */\n  tag_221\n  jumpi\n    /* \"#utility.yul\":11524:11525   */\n  0x01\n    /* \"#utility.yul\":11515:11525   */\n  swap1\n  pop\n    /* \"#utility.yul\":11526:11531   */\n  jump(tag_220)\n    /* \"#utility.yul\":11493:11533   */\ntag_221:\n    /* \"#utility.yul\":11552:11556   */\n  dup2\n    /* \"#utility.yul\":11542:11578   */\n  tag_222\n  jumpi\n    /* \"#utility.yul\":11569:11570   */\n  0x00\n    /* \"#utility.yul\":11560:11570   */\n  swap1\n  pop\n    /* \"#utility.yul\":11571:11576   */\n  jump(tag_220)\n    /* \"#utility.yul\":11542:11578   */\ntag_222:\n    /* \"#utility.yul\":11638:11642   */\n  dup2\n    /* \"#utility.yul\":11686:11687   */\n  0x01\n    /* \"#utility.yul\":11681:11708   */\n  dup2\n  eq\n  tag_224\n  jumpi\n    /* \"#utility.yul\":11722:11723   */\n  0x02\n    /* \"#utility.yul\":11717:11908   */\n  dup2\n  eq\n  tag_225\n  jumpi\n    /* \"#utility.yul\":11631:11908   */\n  jump(tag_223)\n    /* \"#utility.yul\":11681:11708   */\ntag_224:\n    /* \"#utility.yul\":11699:11700   */\n  0x01\n    /* \"#utility.yul\":11690:11700   */\n  swap2\n  pop\n    /* \"#utility.yul\":11701:11706   */\n  pop\n  jump(tag_220)\n    /* \"#utility.yul\":11717:11908   */\ntag_225:\n    /* \"#utility.yul\":11762:11765   */\n  0xff\n    /* \"#utility.yul\":11752:11760   */\n  dup5\n    /* \"#utility.yul\":11749:11766   */\n  gt\n    /* \"#utility.yul\":11746:11789   */\n  iszero\n  tag_226\n  jumpi\n    /* \"#utility.yul\":11769:11787   */\n  tag_227\n  tag_83\n  jump\t// in\ntag_227:\n    /* \"#utility.yul\":11746:11789   */\ntag_226:\n    /* \"#utility.yul\":11818:11826   */\n  dup4\n    /* \"#utility.yul\":11815:11816   */\n  0x02\n    /* \"#utility.yul\":11811:11827   */\n  exp\n    /* \"#utility.yul\":11802:11827   */\n  swap2\n  pop\n    /* \"#utility.yul\":11853:11856   */\n  dup5\n    /* \"#utility.yul\":11846:11851   */\n  dup3\n    /* \"#utility.yul\":11843:11857   */\n  gt\n    /* \"#utility.yul\":11840:11880   */\n  iszero\n  tag_228\n  jumpi\n    /* \"#utility.yul\":11860:11878   */\n  tag_229\n  tag_83\n  jump\t// in\ntag_229:\n    /* \"#utility.yul\":11840:11880   */\ntag_228:\n    /* \"#utility.yul\":11893:11898   */\n  pop\n  jump(tag_220)\n    /* \"#utility.yul\":11631:11908   */\ntag_223:\n  pop\n    /* \"#utility.yul\":12017:12019   */\n  0x20\n    /* \"#utility.yul\":12007:12015   */\n  dup4\n    /* \"#utility.yul\":12004:12020   */\n  lt\n    /* \"#utility.yul\":11998:12001   */\n  0x0133\n    /* \"#utility.yul\":11992:11996   */\n  dup4\n    /* \"#utility.yul\":11989:12002   */\n  lt\n    /* \"#utility.yul\":11985:12021   */\n  and\n    /* \"#utility.yul\":11967:11969   */\n  0x4e\n    /* \"#utility.yul\":11957:11965   */\n  dup5\n    /* \"#utility.yul\":11954:11970   */\n  lt\n    /* \"#utility.yul\":11949:11951   */\n  0x0b\n    /* \"#utility.yul\":11943:11947   */\n  dup5\n    /* \"#utility.yul\":11940:11952   */\n  lt\n    /* \"#utility.yul\":11936:11971   */\n  and\n    /* \"#utility.yul\":11920:12031   */\n  or\n    /* \"#utility.yul\":11917:12163   */\n  iszero\n  tag_230\n  jumpi\n    /* \"#utility.yul\":12073:12081   */\n  dup3\n    /* \"#utility.yul\":12067:12071   */\n  dup3\n    /* \"#utility.yul\":12063:12082   */\n  exp\n    /* \"#utility.yul\":12054:12082   */\n  swap1\n  pop\n    /* \"#utility.yul\":12108:12111   */\n  dup4\n    /* \"#utility.yul\":12101:12106   */\n  dup2\n    /* \"#utility.yul\":12098:12112   */\n  gt\n    /* \"#utility.yul\":12095:12135   */\n  iszero\n  tag_231\n  jumpi\n    /* \"#utility.yul\":12115:12133   */\n  tag_232\n  tag_83\n  jump\t// in\ntag_232:\n    /* \"#utility.yul\":12095:12135   */\ntag_231:\n    /* \"#utility.yul\":12148:12153   */\n  jump(tag_220)\n    /* \"#utility.yul\":11917:12163   */\ntag_230:\n    /* \"#utility.yul\":12188:12230   */\n  tag_233\n    /* \"#utility.yul\":12226:12229   */\n  dup5\n    /* \"#utility.yul\":12216:12224   */\n  dup5\n    /* \"#utility.yul\":12210:12214   */\n  dup5\n    /* \"#utility.yul\":12207:12208   */\n  0x01\n    /* \"#utility.yul\":12188:12230   */\n  tag_85\n  jump\t// in\ntag_233:\n    /* \"#utility.yul\":12173:12230   */\n  swap3\n  pop\n  swap1\n  pop\n    /* \"#utility.yul\":12262:12266   */\n  dup2\n    /* \"#utility.yul\":12257:12260   */\n  dup5\n    /* \"#utility.yul\":12253:12267   */\n  div\n    /* \"#utility.yul\":12246:12251   */\n  dup2\n    /* \"#utility.yul\":12243:12268   */\n  gt\n    /* \"#utility.yul\":12240:12291   */\n  iszero\n  tag_234\n  jumpi\n    /* \"#utility.yul\":12271:12289   */\n  tag_235\n  tag_83\n  jump\t// in\ntag_235:\n    /* \"#utility.yul\":12240:12291   */\ntag_234:\n    /* \"#utility.yul\":12320:12324   */\n  dup2\n    /* \"#utility.yul\":12313:12318   */\n  dup2\n    /* \"#utility.yul\":12309:12325   */\n  mul\n    /* \"#utility.yul\":12300:12325   */\n  swap1\n  pop\n    /* \"#utility.yul\":11258:12331   */\ntag_220:\n  swap4\n  swap3\n  pop\n  pop\n  pop\n  jump\t// out\n    /* \"#utility.yul\":12337:12618   */\ntag_20:\n    /* \"#utility.yul\":12395:12400   */\n  0x00\n    /* \"#utility.yul\":12419:12442   */\n  tag_237\n    /* \"#utility.yul\":12437:12441   */\n  dup3\n    /* \"#utility.yul\":12419:12442   */\n  tag_59\n  jump\t// in\ntag_237:\n    /* \"#utility.yul\":12411:12442   */\n  swap2\n  pop\n    /* \"#utility.yul\":12463:12488   */\n  tag_238\n    /* \"#utility.yul\":12479:12487   */\n  dup4\n    /* \"#utility.yul\":12463:12488   */\n  tag_56\n  jump\t// in\ntag_238:\n    /* \"#utility.yul\":12451:12488   */\n  swap3\n  pop\n    /* \"#utility.yul\":12507:12611   */\n  tag_239\n    /* \"#utility.yul\":12544:12610   */\n  0xffffffffffffffffffffffffffffffffffffffffffffffffffffffffffffffff\n    /* \"#utility.yul\":12534:12542   */\n  dup5\n    /* \"#utility.yul\":12528:12532   */\n  dup5\n    /* \"#utility.yul\":12507:12611   */\n  tag_86\n  jump\t// in\ntag_239:\n    /* \"#utility.yul\":12498:12611   */\n  swap1\n  pop\n    /* \"#utility.yul\":12337:12618   */\n  swap3\n  swap2\n  pop\n  pop\n  jump\t// out\n    /* \"#utility.yul\":12624:13034   */\ntag_22:\n    /* \"#utility.yul\":12664:12671   */\n  0x00\n    /* \"#utility.yul\":12687:12707   */\n  tag_241\n    /* \"#utility.yul\":12705:12706   */\n  dup3\n    /* \"#utility.yul\":12687:12707   */\n  tag_59\n  jump\t// in\ntag_241:\n    /* \"#utility.yul\":12682:12707   */\n  swap2\n  pop\n    /* \"#utility.yul\":12721:12741   */\n  tag_242\n    /* \"#utility.yul\":12739:12740   */\n  dup4\n    /* \"#utility.yul\":12721:12741   */\n  tag_59\n  jump\t// in\ntag_242:\n    /* \"#utility.yul\":12716:12741   */\n  swap3\n  pop\n    /* \"#utility.yul\":12776:12777   */\n  dup3\n    /* \"#utility.yul\":12773:12774   */\n  dup3\n    /* \"#utility.yul\":12769:12778   */\n  mul\n    /* \"#utility.yul\":12798:12828   */\n  tag_243\n    /* \"#utility.yul\":12816:12827   */\n  dup2\n    /* \"#utility.yul\":12798:12828   */\n  tag_59\n  jump\t// in\ntag_243:\n    /* \"#utility.yul\":12787:12828   */\n  swap2\n  pop\n    /* \"#utility.yul\":12977:12978   */\n  dup3\n    /* \"#utility.yul\":12968:12975   */\n  dup3\n    /* \"#utility.yul\":12964:12979   */\n  div\n    /* \"#utility.yul\":12961:12962   */\n  dup5\n    /* \"#utility.yul\":12958:12980   */\n  eq\n    /* \"#utility.yul\":12938:12939   */\n  dup4\n    /* \"#utility.yul\":12931:12940   */\n  iszero\n    /* \"#utility.yul\":12911:12994   */\n  or\n    /* \"#utility.yul\":12888:13027   */\n  tag_244\n  jumpi\n    /* \"#utility.yul\":13007:13025   */\n  tag_245\n  tag_83\n  jump\t// in\ntag_245:\n    /* \"#utility.yul\":12888:13027   */\ntag_244:\n    /* \"#utility.yul\":12672:13034   */\n  pop\n    /* \"#utility.yul\":12624:13034   */\n  swap3\n  swap2\n  pop\n  pop\n  jump\t// out\n    /* \"#utility.yul\":13040:13231   */\ntag_34:\n    /* \"#utility.yul\":13080:13083   */\n  0x00\n    /* \"#utility.yul\":13099:13119   */\n  tag_247\n    /* \"#utility.yul\":13117:13118   */\n  dup3\n    /* \"#utility.yul\":13099:13119   */\n  tag_59\n  jump\t// in\ntag_247:\n    /* \"#utility.yul\":13094:13119   */\n  swap2\n  pop\n    /* \"#utility.yul\":13133:13153   */\n  tag_248\n    /* \"#utility.yul\":13151:13152   */\n  dup4\n    /* \"#utility.yul\":13133:13153   */\n  tag_59\n  jump\t// in\ntag_248:\n    /* \"#utility.yul\":13128:13153   */\n  swap3\n  pop\n    /* \"#utility.yul\":13176:13177   */\n  dup3\n    /* \"#utility.yul\":13173:13174   */\n  dup3\n    /* \"#utility.yul\":13169:13178   */\n  add\n    /* \"#utility.yul\":13162:13178   */\n  swap1\n  pop\n    /* \"#utility.yul\":13197:13200   */\n  dup1\n    /* \"#utility.yul\":13194:13195   */\n  dup3\n    /* \"#utility.yul\":13191:13201   */\n  gt\n    /* \"#utility.yul\":13188:13224   */\n  iszero\n  tag_249\n  jumpi\n    /* \"#utility.yul\":13204:13222   */\n  tag_250\n  tag_83\n  jump\t// in\ntag_250:\n    /* \"#utility.yul\":13188:13224   */\ntag_249:\n    /* \"#utility.yul\":13040:13231   */\n  swap3\n  swap2\n  pop\n  pop\n  jump\t// out\n    /* \"#utility.yul\":13237:13355   */\ntag_87:\n    /* \"#utility.yul\":13324:13348   */\n  tag_252\n    /* \"#utility.yul\":13342:13347   */\n  dup2\n    /* \"#utility.yul\":13324:13348   */\n  tag_59\n  jump\t// in\ntag_252:\n    /* \"#utility.yul\":13319:13322   */\n  dup3\n    /* \"#utility.yul\":13312:13349   */\n  mstore\n    /* \"#utility.yul\":13237:13355   */\n  pop\n  pop\n  jump\t// out\n    /* \"#utility.yul\":13361:13803   */\ntag_38:\n    /* \"#utility.yul\":13510:13514   */\n  0x00\n    /* \"#utility.yul\":13548:13550   */\n  0x60\n    /* \"#utility.yul\":13537:13546   */\n  dup3\n    /* \"#utility.yul\":13533:13551   */\n  add\n    /* \"#utility.yul\":13525:13551   */\n  swap1\n  pop\n    /* \"#utility.yul\":13561:13632   */\n  tag_254\n    /* \"#utility.yul\":13629:13630   */\n  0x00\n    /* \"#utility.yul\":13618:13627   */\n  dup4\n    /* \"#utility.yul\":13614:13631   */\n  add\n    /* \"#utility.yul\":13605:13611   */\n  dup7\n    /* \"#utility.yul\":13561:13632   */\n  tag_82\n  jump\t// in\ntag_254:\n    /* \"#utility.yul\":13642:13714   */\n  tag_255\n    /* \"#utility.yul\":13710:13712   */\n  0x20\n    /* \"#utility.yul\":13699:13708   */\n  dup4\n    /* \"#utility.yul\":13695:13713   */\n  add\n    /* \"#utility.yul\":13686:13692   */\n  dup6\n    /* \"#utility.yul\":13642:13714   */\n  tag_87\n  jump\t// in\ntag_255:\n    /* \"#utility.yul\":13724:13796   */\n  tag_256\n    /* \"#utility.yul\":13792:13794   */\n  0x40\n    /* \"#utility.yul\":13781:13790   */\n  dup4\n    /* \"#utility.yul\":13777:13795   */\n  add\n    /* \"#utility.yul\":13768:13774   */\n  dup5\n    /* \"#utility.yul\":13724:13796   */\n  tag_87\n  jump\t// in\ntag_256:\n    /* \"#utility.yul\":13361:13803   */\n  swap5\n  swap4\n  pop\n  pop\n  pop\n  pop\n  jump\t// out\n    /* \"#utility.yul\":13809:14031   */\ntag_42:\n    /* \"#utility.yul\":13902:13906   */\n  0x00\n    /* \"#utility.yul\":13940:13942   */\n  0x20\n    /* \"#utility.yul\":13929:13938   */\n  dup3\n    /* \"#utility.yul\":13925:13943   */\n  add\n    /* \"#utility.yul\":13917:13943   */\n  swap1\n  pop\n    /* \"#utility.yul\":13953:14024   */\n  tag_258\n    /* \"#utility.yul\":14021:14022   */\n  0x00\n    /* \"#utility.yul\":14010:14019   */\n  dup4\n    /* \"#utility.yul\":14006:14023   */\n  add\n    /* \"#utility.yul\":13997:14003   */\n  dup5\n    /* \"#utility.yul\":13953:14024   */\n  tag_87\n  jump\t// in\ntag_258:\n    /* \"#utility.yul\":13809:14031   */\n  swap3\n  swap2\n  pop\n  pop\n  jump\t// out\n    /* \"TestToken.sol\":271:1555  contract TestToken is ERC20, Ownable {... */\ntag_24:\n  dataSize(sub_0)\n  dup1\n  dataOffset(sub_0)\n  0x00\n  codecopy\n  0x00\n  return\nstop\n\nsub_0: assembly {\n        /* \"TestToken.sol\":271:1555  contract TestToken is ERC20, Ownable {... */\n      mstore(0x40, 0x80)\n      callvalue\n      dup1\n      iszero\n      tag_1\n      jumpi\n      0x00\n      dup1\n      revert\n    tag_1:\n      pop\n      jumpi(tag_2, lt(calldatasize, 0x04))\n      shr(0xe0, calldataload(0x00))\n      dup1\n      0x715018a6\n      gt\n      tag_17\n      jumpi\n      dup1\n      0x95d89b41\n      gt\n      tag_18\n      jumpi\n      dup1\n      0x95d89b41\n      eq\n      tag_13\n      jumpi\n      dup1\n      0xa9059cbb\n      eq\n      tag_14\n      jumpi\n      dup1\n      0xdd62ed3e\n      eq\n      tag_15\n      jumpi\n      dup1\n      0xf2fde38b\n      eq\n      tag_16\n      jumpi\n      jump(tag_2)\n    tag_18:\n      dup1\n      0x715018a6\n      eq\n      tag_10\n      jumpi\n      dup1\n      0x88d695b2\n      eq\n      tag_11\n      jumpi\n      dup1\n      0x8da5cb5b\n      eq\n      tag_12\n      jumpi\n      jump(tag_2)\n    tag_17:\n      dup1\n      0x23b872dd\n      gt\n      tag_19\n      jumpi\n      dup1\n      0x23b872dd\n      eq\n      tag_6\n      jumpi\n      dup1\n      0x313ce567\n      eq\n      tag_7\n      jumpi\n      dup1\n      0x40c10f19\n      eq\n      tag_8\n      jumpi\n      dup1\n      0x70a08231\n      eq\n      tag_9\n      jumpi\n      jump(tag_2)\n    tag_19:\n      dup1\n      0x06fdde03\n      eq\n      tag_3\n      jumpi\n      dup1\n      0x095ea7b3\n      eq\n      tag_4\n      jumpi\n      dup1\n      0x18160ddd\n      eq\n      tag_5\n      jumpi\n    tag_2:\n      0x00\n      dup1\n      revert\n        /* \"@openzeppelin/contracts/token/ERC20/ERC20.sol\":1779:1868  function name() public view virtual returns (string memory) {... */\n    tag_3:\n      tag_20\n      tag_21\n      jump\t// in\n    tag_20:\n      mload(0x40)\n      tag_22\n      swap2\n      swap1\n      tag_23\n      jump\t// in\n    tag_22:\n      mload(0x40)\n      dup1\n      swap2\n      sub\n      swap1\n      return\n        /* \"@openzeppelin/contracts/token/ERC20/ERC20.sol\":3998:4184  function approve(address spender, uint256 value) public virtual returns (bool) {... */\n    tag_4:\n      tag_24\n      0x04\n      dup1\n      calldatasize\n      sub\n      dup2\n      add\n      swap1\n      tag_25\n      swap2\n      swap1\n      tag_26\n      jump\t// in\n    tag_25:\n      tag_27\n      jump\t// in\n    tag_24:\n      mload(0x40)\n      tag_28\n      swap2\n      swap1\n      tag_29\n      jump\t// in\n    tag_28:\n      mload(0x40)\n      dup1\n      swap2\n      sub\n      swap1\n      return\n        /* \"@openzeppelin/contracts/token/ERC20/ERC20.sol\":2849:2946  function totalSupply() public view virtual returns (uint256) {... */\n    tag_5:\n      tag_30\n      tag_31\n      jump\t// in\n    tag_30:\n      mload(0x40)\n      tag_32\n      swap2\n      swap1\n      tag_33\n      jump\t// in\n    tag_32:\n      mload(0x40)\n      dup1\n      swap2\n      sub\n      swap1\n      return\n        /* \"@openzeppelin/contracts/token/ERC20/ERC20.sol\":4776:5020  function transferFrom(address from, address to, uint256 value) public virtual returns (bool) {... */\n    tag_6:\n      tag_34\n      0x04\n      dup1\n      calldatasize\n      sub\n      dup2\n      add\n      swap1\n      tag_35\n      swap2\n      swap1\n      tag_36\n      jump\t// in\n    tag_35:\n      tag_37\n      jump\t// in\n    tag_34:\n      mload(0x40)\n      tag_38\n      swap2\n      swap1\n      tag_29\n      jump\t// in\n    tag_38:\n      mload(0x40)\n      dup1\n      swap2\n      sub\n      swap1\n      return\n        /* \"TestToken.sol\":665:765  function decimals() public view virtual override returns (uint8) {... */\n    tag_7:\n      tag_39\n      tag_40\n      jump\t// in\n    tag_39:\n      mload(0x40)\n      tag_41\n      swap2\n      swap1\n      tag_42\n      jump\t// in\n    tag_41:\n      mload(0x40)\n      dup1\n      swap2\n      sub\n      swap1\n      return\n        /* \"TestToken.sol\":924:1021  function mint(address to, uint256 amount) external onlyOwner {... */\n    tag_8:\n      tag_43\n      0x04\n      dup1\n      calldatasize\n      sub\n      dup2\n      add\n      swap1\n      tag_44\n      swap2\n      swap1\n      tag_26\n      jump\t// in\n    tag_44:\n      tag_45\n      jump\t// in\n    tag_43:\n      stop\n        /* \"@openzeppelin/contracts/token/ERC20/ERC20.sol\":3004:3120  function balanceOf(address account) public view virtual returns (uint256) {... */\n    tag_9:\n      tag_46\n      0x04\n      dup1\n      calldatasize\n      sub\n      dup2\n      add\n      swap1\n      tag_47\n      swap2\n      swap1\n      tag_48\n      jump\t// in\n    tag_47:\n      tag_49\n      jump\t// in\n    tag_46:\n      mload(0x40)\n      tag_50\n      swap2\n      swap1\n      tag_33\n      jump\t// in\n    tag_50:\n      mload(0x40)\n      dup1\n      swap2\n      sub\n      swap1\n      return\n        /* \"@openzeppelin/contracts/access/Ownable.sol\":2293:2394  function renounceOwnership() public virtual onlyOwner {... */\n    tag_10:\n      tag_51\n      tag_52\n      jump\t// in\n    tag_51:\n      stop\n        /* \"TestToken.sol\":1229:1552  function batchTransfer(address[] calldata recipients, uint256[] calldata amounts) external {... */\n    tag_11:\n      tag_53\n      0x04\n      dup1\n      calldatasize\n      sub\n      dup2\n      add\n      swap1\n      tag_54\n      swap2\n      swap1\n      tag_55\n      jump\t// in\n    tag_54:\n      tag_56\n      jump\t// in\n    tag_53:\n      stop\n        /* \"@openzeppelin/contracts/access/Ownable.sol\":1638:1723  function owner() public view virtual returns (address) {... */\n    tag_12:\n      tag_57\n      tag_58\n      jump\t// in\n    tag_57:\n      mload(0x40)\n      tag_59\n      swap2\n      swap1\n      tag_60\n      jump\t// in\n    tag_59:\n      mload(0x40)\n      dup1\n      swap2\n      sub\n      swap1\n      return\n        /* \"@openzeppelin/contracts/token/ERC20/ERC20.sol\":1981:2074  function symbol() public view virtual returns (string memory) {... */\n    tag_13:\n      tag_61\n      tag_62\n      jump\t// in\n    tag_61:\n      mload(0x40)\n      tag_63\n      swap2\n      swap1\n      tag_23\n      jump\t// in\n    tag_63:\n      mload(0x40)\n      dup1\n      swap2\n      sub\n      swap1\n      return\n        /* \"@openzeppelin/contracts/token/ERC20/ERC20.sol\":3315:3493  function transfer(address to, uint256 value) public virtual returns (bool) {... */\n    tag_14:\n      tag_64\n      0x04\n      dup1\n      calldatasize\n      sub\n      dup2\n      add\n      swap1\n      tag_65\n      swap2\n      swap1\n      tag_26\n      jump\t// in\n    tag_65:\n      tag_66\n      jump\t// in\n    tag_64:\n      mload(0x40)\n      tag_67\n      swap2\n      swap1\n      tag_29\n      jump\t// in\n    tag_67:\n      mload(0x40)\n      dup1\n      swap2\n      sub\n      swap1\n      return\n        /* \"@openzeppelin/contracts/token/ERC20/ERC20.sol\":3551:3691  function allowance(address owner, address spender) public view virtual returns (uint256) {... */\n    tag_15:\n      tag_68\n      0x04\n      dup1\n      calldatasize\n      sub\n      dup2\n      add\n      swap1\n      tag_69\n      swap2\n      swap1\n      tag_70\n      jump\t// in\n    tag_69:\n      tag_71\n      jump\t// in\n    tag_68:\n      mload(0x40)\n      tag_72\n      swap2\n      swap1\n      tag_33\n      jump\t// in\n    tag_72:\n      mload(0x40)\n      dup1\n      swap2\n      sub\n      swap1\n      return\n        /* \"@openzeppelin/contracts/access/Ownable.sol\":2543:2758  function transferOwnership(address newOwner) public virtual onlyOwner {... */\n    tag_16:\n      tag_73\n      0x04\n      dup1\n      calldatasize\n      sub\n      dup2\n      add\n      swap1\n      tag_74\n      swap2\n      swap1\n      tag_48\n      jump\t// in\n    tag_74:\n      tag_75\n      jump\t// in\n    tag_73:\n      stop\n        /* \"@openzeppelin/contracts/token/ERC20/ERC20.sol\":1779:1868  function name() public view virtual returns (string memory) {... */\n    tag_21:\n        /* \"@openzeppelin/contracts/token/ERC20/ERC20.sol\":1824:1837  string memory */\n      0x60\n        /* \"@openzeppelin/contracts/token/ERC20/ERC20.sol\":1856:1861  _name */\n      0x03\n        /* \"@openzeppelin/contracts/token/ERC20/ERC20.sol\":1849:1861  return _name */\n      dup1\n      sload\n      tag_77\n      swap1\n      tag_78\n      jump\t// in\n    tag_77:\n      dup1\n      0x1f\n      add\n      0x20\n      dup1\n      swap2\n      div\n      mul\n      0x20\n      add\n      mload(0x40)\n      swap1\n      dup2\n      add\n      0x40\n      mstore\n      dup1\n      swap3\n      swap2\n      swap1\n      dup2\n      dup2\n      mstore\n      0x20\n      add\n      dup3\n      dup1\n      sload\n      tag_79\n      swap1\n      tag_78\n      jump\t// in\n    tag_79:\n      dup1\n      iszero\n      tag_80\n      jumpi\n      dup1\n      0x1f\n      lt\n      tag_81\n      jumpi\n      0x0100\n      dup1\n      dup4\n      sload\n      div\n      mul\n      dup4\n      mstore\n      swap2\n      0x20\n      add\n      swap2\n      jump(tag_80)\n    tag_81:\n      dup3\n      add\n      swap2\n      swap1\n      0x00\n      mstore\n      keccak256(0x00, 0x20)\n      swap1\n    tag_82:\n      dup2\n      sload\n      dup2\n      mstore\n      swap1\n      0x01\n      add\n      swap1\n      0x20\n      add\n      dup1\n      dup4\n      gt\n      tag_82\n      jumpi\n      dup3\n      swap1\n      sub\n      0x1f\n      and\n      dup3\n      add\n      swap2\n    tag_80:\n      pop\n      pop\n      pop\n      pop\n      pop\n      swap1\n      pop\n        /* \"@openzeppelin/contracts/token/ERC20/ERC20.sol\":1779:1868  function name() public view virtual returns (string memory) {... */\n      swap1\n      jump\t// out\n        /* \"@openzeppelin/contracts/token/ERC20/ERC20.sol\":3998:4184  function approve(address spender, uint256 value) public virtual returns (bool) {... */\n    tag_27:\n        /* \"@openzeppelin/contracts/token/ERC20/ERC20.sol\":4071:4075  bool */\n      0x00\n        /* \"@openzeppelin/contracts/token/ERC20/ERC20.sol\":4087:4100  address owner */\n      dup1\n        /* \"@openzeppelin/contracts/token/ERC20/ERC20.sol\":4103:4115  _msgSender() */\n      tag_84\n        /* \"@openzeppelin/contracts/token/ERC20/ERC20.sol\":4103:4113  _msgSender */\n      tag_85\n        /* \"@openzeppelin/contracts/token/ERC20/ERC20.sol\":4103:4115  _msgSender() */\n      jump\t// in\n    tag_84:\n        /* \"@openzeppelin/contracts/token/ERC20/ERC20.sol\":4087:4115  address owner = _msgSender() */\n      swap1\n      pop\n        /* \"@openzeppelin/contracts/token/ERC20/ERC20.sol\":4125:4156  _approve(owner, spender, value) */\n      tag_86\n        /* \"@openzeppelin/contracts/token/ERC20/ERC20.sol\":4134:4139  owner */\n      dup2\n        /* \"@openzeppelin/contracts/token/ERC20/ERC20.sol\":4141:4148  spender */\n      dup6\n        /* \"@openzeppelin/contracts/token/ERC20/ERC20.sol\":4150:4155  value */\n      dup6\n        /* \"@openzeppelin/contracts/token/ERC20/ERC20.sol\":4125:4133  _approve */\n      tag_87\n        /* \"@openzeppelin/contracts/token/ERC20/ERC20.sol\":4125:4156  _approve(owner, spender, value) */\n      jump\t// in\n    tag_86:\n        /* \"@openzeppelin/contracts/token/ERC20/ERC20.sol\":4173:4177  true */\n      0x01\n        /* \"@openzeppelin/contracts/token/ERC20/ERC20.sol\":4166:4177  return true */\n      swap2\n      pop\n      pop\n        /* \"@openzeppelin/contracts/token/ERC20/ERC20.sol\":3998:4184  function approve(address spender, uint256 value) public virtual returns (bool) {... */\n      swap3\n      swap2\n      pop\n      pop\n      jump\t// out\n        /* \"@openzeppelin/contracts/token/ERC20/ERC20.sol\":2849:2946  function totalSupply() public view virtual returns (uint256) {... */\n    tag_31:\n        /* \"@openzeppelin/contracts/token/ERC20/ERC20.sol\":2901:2908  uint256 */\n      0x00\n        /* \"@openzeppelin/contracts/token/ERC20/ERC20.sol\":2927:2939  _totalSupply */\n      sload(0x02)\n        /* \"@openzeppelin/contracts/token/ERC20/ERC20.sol\":2920:2939  return _totalSupply */\n      swap1\n      pop\n        /* \"@openzeppelin/contracts/token/ERC20/ERC20.sol\":2849:2946  function totalSupply() public view virtual returns (uint256) {... */\n      swap1\n      jump\t// out\n        /* \"@openzeppelin/contracts/token/ERC20/ERC20.sol\":4776:5020  function transferFrom(address from, address to, uint256 value) public virtual returns (bool) {... */\n    tag_37:\n        /* \"@openzeppelin/contracts/token/ERC20/ERC20.sol\":4863:4867  bool */\n      0x00\n        /* \"@openzeppelin/contracts/token/ERC20/ERC20.sol\":4879:4894  address spender */\n      dup1\n        /* \"@openzeppelin/contracts/token/ERC20/ERC20.sol\":4897:4909  _msgSender() */\n      tag_90\n        /* \"@openzeppelin/contracts/token/ERC20/ERC20.sol\":4897:4907  _msgSender */\n      tag_85\n        /* \"@openzeppelin/contracts/token/ERC20/ERC20.sol\":4897:4909  _msgSender() */\n      jump\t// in\n    tag_90:\n        /* \"@openzeppelin/contracts/token/ERC20/ERC20.sol\":4879:4909  address spender = _msgSender() */\n      swap1\n      pop\n        /* \"@openzeppelin/contracts/token/ERC20/ERC20.sol\":4919:4956  _spendAllowance(from, spender, value) */\n      tag_91\n        /* \"@openzeppelin/contracts/token/ERC20/ERC20.sol\":4935:4939  from */\n      dup6\n        /* \"@openzeppelin/contracts/token/ERC20/ERC20.sol\":4941:4948  spender */\n      dup3\n        /* \"@openzeppelin/contracts/token/ERC20/ERC20.sol\":4950:4955  value */\n      dup6\n        /* \"@openzeppelin/contracts/token/ERC20/ERC20.sol\":4919:4934  _spendAllowance */\n      tag_92\n        /* \"@openzeppelin/contracts/token/ERC20/ERC20.sol\":4919:4956  _spendAllowance(from, spender, value) */\n      jump\t// in\n    tag_91:\n        /* \"@openzeppelin/contracts/token/ERC20/ERC20.sol\":4966:4992  _transfer(from, to, value) */\n      tag_93\n        /* \"@openzeppelin/contracts/token/ERC20/ERC20.sol\":4976:4980  from */\n      dup6\n        /* \"@openzeppelin/contracts/token/ERC20/ERC20.sol\":4982:4984  to */\n      dup6\n        /* \"@openzeppelin/contracts/token/ERC20/ERC20.sol\":4986:4991  value */\n      dup6\n        /* \"@openzeppelin/contracts/token/ERC20/ERC20.sol\":4966:4975  _transfer */\n      tag_94\n        /* \"@openzeppelin/contracts/token/ERC20/ERC20.sol\":4966:4992  _transfer(from, to, value) */\n      jump\t// in\n    tag_93:\n        /* \"@openzeppelin/contracts/token/ERC20/ERC20.sol\":5009:5013  true */\n      0x01\n        /* \"@openzeppelin/contracts/token/ERC20/ERC20.sol\":5002:5013  return true */\n      swap2\n      pop\n      pop\n        /* \"@openzeppelin/contracts/token/ERC20/ERC20.sol\":4776:5020  function transferFrom(address from, address to, uint256 value) public virtual returns (bool) {... */\n      swap4\n      swap3\n      pop\n      pop\n      pop\n      jump\t// out\n        /* \"TestToken.sol\":665:765  function decimals() public view virtual override returns (uint8) {... */\n    tag_40:\n        /* \"TestToken.sol\":723:728  uint8 */\n      0x00\n        /* \"TestToken.sol\":748:757  _decimals */\n      0x05\n      0x14\n      swap1\n      sload\n      swap1\n      0x0100\n      exp\n      swap1\n      div\n      0xff\n      and\n        /* \"TestToken.sol\":741:757  return _decimals */\n      swap1\n      pop\n        /* \"TestToken.sol\":665:765  function decimals() public view virtual override returns (uint8) {... */\n      swap1\n      jump\t// out\n        /* \"TestToken.sol\":924:1021  function mint(address to, uint256 amount) external onlyOwner {... */\n    tag_45:\n        /* \"@openzeppelin/contracts/access/Ownable.sol\":1531:1544  _checkOwner() */\n      tag_97\n        /* \"@openzeppelin/contracts/access/Ownable.sol\":1531:1542  _checkOwner */\n      tag_98\n        /* \"@openzeppelin/contracts/access/Ownable.sol\":1531:1544  _checkOwner() */\n      jump\t// in\n    tag_97:\n        /* \"TestToken.sol\":996:1013  _mint(to, amount) */\n      tag_100\n        /* \"TestToken.sol\":1002:1004  to */\n      dup3\n        /* \"TestToken.sol\":1006:1012  amount */\n      dup3\n        /* \"TestToken.sol\":996:1001  _mint */\n      tag_101\n        /* \"TestToken.sol\":996:1013  _mint(to, amount) */\n      jump\t// in\n    tag_100:\n        /* \"TestToken.sol\":924:1021  function mint(address to, uint256 amount) external onlyOwner {... */\n      pop\n      pop\n      jump\t// out\n        /* \"@openzeppelin/contracts/token/ERC20/ERC20.sol\":3004:3120  function balanceOf(address account) public view virtual returns (uint256) {... */\n    tag_49:\n        /* \"@openzeppelin/contracts/token/ERC20/ERC20.sol\":3069:3076  uint256 */\n      0x00\n        /* \"@openzeppelin/contracts/token/ERC20/ERC20.sol\":3095:3104  _balances */\n      dup1\n        /* \"@openzeppelin/contracts/token/ERC20/ERC20.sol\":3095:3113  _balances[account] */\n      0x00\n        /* \"@openzeppelin/contracts/token/ERC20/ERC20.sol\":3105:3112  account */\n      dup4\n        /* \"@openzeppelin/contracts/token/ERC20/ERC20.sol\":3095:3113  _balances[account] */\n      0xffffffffffffffffffffffffffffffffffffffff\n      and\n      0xffffffffffffffffffffffffffffffffffffffff\n      and\n      dup2\n      mstore\n      0x20\n      add\n      swap1\n      dup2\n      mstore\n      0x20\n      add\n      0x00\n      keccak256\n      sload\n        /* \"@openzeppelin/contracts/token/ERC20/ERC20.sol\":3088:3113  return _balances[account] */\n      swap1\n      pop\n        /* \"@openzeppelin/contracts/token/ERC20/ERC20.sol\":3004:3120  function balanceOf(address account) public view virtual returns (uint256) {... */\n      swap2\n      swap1\n      pop\n      jump\t// out\n        /* \"@openzeppelin/contracts/access/Ownable.sol\":2293:2394  function renounceOwnership() public virtual onlyOwner {... */\n    tag_52:\n        /* \"@openzeppelin/contracts/access/Ownable.sol\":1531:1544  _checkOwner() */\n      tag_104\n        /* \"@openzeppelin/contracts/access/Ownable.sol\":1531:1542  _checkOwner */\n      tag_98\n        /* \"@openzeppelin/contracts/access/Ownable.sol\":1531:1544  _checkOwner() */\n      jump\t// in\n    tag_104:\n        /* \"@openzeppelin/contracts/access/Ownable.sol\":2357:2387  _transferOwnership(address(0)) */\n      tag_106\n        /* \"@openzeppelin/contracts/access/Ownable.sol\":2384:2385  0 */\n      0x00\n        /* \"@openzeppelin/contracts/access/Ownable.sol\":2357:2375  _transferOwnership */\n      tag_107\n        /* \"@openzeppelin/contracts/access/Ownable.sol\":2357:2387  _transferOwnership(address(0)) */\n      jump\t// in\n    tag_106:\n        /* \"@openzeppelin/contracts/access/Ownable.sol\":2293:2394  function renounceOwnership() public virtual onlyOwner {... */\n      jump\t// out\n        /* \"TestToken.sol\":1229:1552  function batchTransfer(address[] calldata recipients, uint256[] calldata amounts) external {... */\n    tag_56:\n        /* \"TestToken.sol\":1360:1367  amounts */\n      dup2\n      dup2\n        /* \"TestToken.sol\":1360:1374  amounts.length */\n      swap1\n      pop\n        /* \"TestToken.sol\":1339:1349  recipients */\n      dup5\n      dup5\n        /* \"TestToken.sol\":1339:1356  recipients.length */\n      swap1\n      pop\n        /* \"TestToken.sol\":1339:1374  recipients.length == amounts.length */\n      eq\n        /* \"TestToken.sol\":1331:1417  require(recipients.length == amounts.length, \"Recipients and amounts length mismatch\") */\n      tag_109\n      jumpi\n      mload(0x40)\n      0x08c379a000000000000000000000000000000000000000000000000000000000\n      dup2\n      mstore\n      0x04\n      add\n      tag_110\n      swap1\n      tag_111\n      jump\t// in\n    tag_110:\n      mload(0x40)\n      dup1\n      swap2\n      sub\n      swap1\n      revert\n    tag_109:\n        /* \"TestToken.sol\":1443:1449  uint i */\n      0x00\n        /* \"TestToken.sol\":1438:1545  for (uint i = 0; i < recipients.length; i++) {... */\n    tag_112:\n        /* \"TestToken.sol\":1459:1469  recipients */\n      dup5\n      dup5\n        /* \"TestToken.sol\":1459:1476  recipients.length */\n      swap1\n      pop\n        /* \"TestToken.sol\":1455:1456  i */\n      dup2\n        /* \"TestToken.sol\":1455:1476  i < recipients.length */\n      lt\n        /* \"TestToken.sol\":1438:1545  for (uint i = 0; i < recipients.length; i++) {... */\n      iszero\n      tag_113\n      jumpi\n        /* \"TestToken.sol\":1498:1533  transfer(recipients[i], amounts[i]) */\n      tag_115\n        /* \"TestToken.sol\":1507:1517  recipients */\n      dup6\n      dup6\n        /* \"TestToken.sol\":1518:1519  i */\n      dup4\n        /* \"TestToken.sol\":1507:1520  recipients[i] */\n      dup2\n      dup2\n      lt\n      tag_116\n      jumpi\n      tag_117\n      tag_118\n      jump\t// in\n    tag_117:\n    tag_116:\n      swap1\n      pop\n      0x20\n      mul\n      add\n      0x20\n      dup2\n      add\n      swap1\n      tag_119\n      swap2\n      swap1\n      tag_48\n      jump\t// in\n    tag_119:\n        /* \"TestToken.sol\":1522:1529  amounts */\n      dup5\n      dup5\n        /* \"TestToken.sol\":1530:1531  i */\n      dup5\n        /* \"TestToken.sol\":1522:1532  amounts[i] */\n      dup2\n      dup2\n      lt\n      tag_120\n      jumpi\n      tag_121\n      tag_118\n      jump\t// in\n    tag_121:\n    tag_120:\n      swap1\n      pop\n      0x20\n      mul\n      add\n      calldataload\n        /* \"TestToken.sol\":1498:1506  transfer */\n      tag_66\n        /* \"TestToken.sol\":1498:1533  transfer(recipients[i], amounts[i]) */\n      jump\t// in\n    tag_115:\n      pop\n        /* \"TestToken.sol\":1478:1481  i++ */\n      dup1\n      dup1\n      tag_122\n      swap1\n      tag_123\n      jump\t// in\n    tag_122:\n      swap2\n      pop\n      pop\n        /* \"TestToken.sol\":1438:1545  for (uint i = 0; i < recipients.length; i++) {... */\n      jump(tag_112)\n    tag_113:\n      pop\n        /* \"TestToken.sol\":1229:1552  function batchTransfer(address[] calldata recipients, uint256[] calldata amounts) external {... */\n      pop\n      pop\n      pop\n      pop\n      jump\t// out\n        /* \"@openzeppelin/contracts/access/Ownable.sol\":1638:1723  function owner() public view virtual returns (address) {... */\n    tag_58:\n        /* \"@openzeppelin/contracts/access/Ownable.sol\":1684:1691  address */\n      0x00\n        /* \"@openzeppelin/contracts/access/Ownable.sol\":1710:1716  _owner */\n      0x05\n      0x00\n      swap1\n      sload\n      swap1\n      0x0100\n      exp\n      swap1\n      div\n      0xffffffffffffffffffffffffffffffffffffffff\n      and\n        /* \"@openzeppelin/contracts/access/Ownable.sol\":1703:1716  return _owner */\n      swap1\n      pop\n        /* \"@openzeppelin/contracts/access/Ownable.sol\":1638:1723  function owner() public view virtual returns (address) {... */\n      swap1\n      jump\t// out\n        /* \"@openzeppelin/contracts/token/ERC20/ERC20.sol\":1981:2074  function symbol() public view virtual returns (string memory) {... */\n    tag_62:\n        /* \"@openzeppelin/contracts/token/ERC20/ERC20.sol\":2028:2041  string memory */\n      0x60\n        /* \"@openzeppelin/contracts/token/ERC20/ERC20.sol\":2060:2067  _symbol */\n      0x04\n        /* \"@openzeppelin/contracts/token/ERC20/ERC20.sol\":2053:2067  return _symbol */\n      dup1\n      sload\n      tag_126\n      swap1\n      tag_78\n      jump\t// in\n    tag_126:\n      dup1\n      0x1f\n      add\n      0x20\n      dup1\n      swap2\n      div\n      mul\n      0x20\n      add\n      mload(0x40)\n      swap1\n      dup2\n      add\n      0x40\n      mstore\n      dup1\n      swap3\n      swap2\n      swap1\n      dup2\n      dup2\n      mstore\n      0x20\n      add\n      dup3\n      dup1\n      sload\n      tag_127\n      swap1\n      tag_78\n      jump\t// in\n    tag_127:\n      dup1\n      iszero\n      tag_128\n      jumpi\n      dup1\n      0x1f\n      lt\n      tag_129\n      jumpi\n      0x0100\n      dup1\n      dup4\n      sload\n      div\n      mul\n      dup4\n      mstore\n      swap2\n      0x20\n      add\n      swap2\n      jump(tag_128)\n    tag_129:\n      dup3\n      add\n      swap2\n      swap1\n      0x00\n      mstore\n      keccak256(0x00, 0x20)\n      swap1\n    tag_130:\n      dup2\n      sload\n      dup2\n      mstore\n      swap1\n      0x01\n      add\n      swap1\n      0x20\n      add\n      dup1\n      dup4\n      gt\n      tag_130\n      jumpi\n      dup3\n      swap1\n      sub\n      0x1f\n      and\n      dup3\n      add\n      swap2\n    tag_128:\n      pop\n      pop\n      pop\n      pop\n      pop\n      swap1\n      pop\n        /* \"@openzeppelin/contracts/token/ERC20/ERC20.sol\":1981:2074  function symbol() public view virtual returns (string memory) {... */\n      swap1\n      jump\t// out\n        /* \"@openzeppelin/contracts/token/ERC20/ERC20.sol\":3315:3493  function transfer(address to, uint256 value) public virtual returns (bool) {... */\n    tag_66:\n        /* \"@openzeppelin/contracts/token/ERC20/ERC20.sol\":3384:3388  bool */\n      0x00\n        /* \"@openzeppelin/contracts/token/ERC20/ERC20.sol\":3400:3413  address owner */\n      dup1\n        /* \"@openzeppelin/contracts/token/ERC20/ERC20.sol\":3416:3428  _msgSender() */\n      tag_132\n        /* \"@openzeppelin/contracts/token/ERC20/ERC20.sol\":3416:3426  _msgSender */\n      tag_85\n        /* \"@openzeppelin/contracts/token/ERC20/ERC20.sol\":3416:3428  _msgSender() */\n      jump\t// in\n    tag_132:\n        /* \"@openzeppelin/contracts/token/ERC20/ERC20.sol\":3400:3428  address owner = _msgSender() */\n      swap1\n      pop\n        /* \"@openzeppelin/contracts/token/ERC20/ERC20.sol\":3438:3465  _transfer(owner, to, value) */\n      tag_133\n        /* \"@openzeppelin/contracts/token/ERC20/ERC20.sol\":3448:3453  owner */\n      dup2\n        /* \"@openzeppelin/contracts/token/ERC20/ERC20.sol\":3455:3457  to */\n      dup6\n        /* \"@openzeppelin/contracts/token/ERC20/ERC20.sol\":3459:3464  value */\n      dup6\n        /* \"@openzeppelin/contracts/token/ERC20/ERC20.sol\":3438:3447  _transfer */\n      tag_94\n        /* \"@openzeppelin/contracts/token/ERC20/ERC20.sol\":3438:3465  _transfer(owner, to, value) */\n      jump\t// in\n    tag_133:\n        /* \"@openzeppelin/contracts/token/ERC20/ERC20.sol\":3482:3486  true */\n      0x01\n        /* \"@openzeppelin/contracts/token/ERC20/ERC20.sol\":3475:3486  return true */\n      swap2\n      pop\n      pop\n        /* \"@openzeppelin/contracts/token/ERC20/ERC20.sol\":3315:3493  function transfer(address to, uint256 value) public virtual returns (bool) {... */\n      swap3\n      swap2\n      pop\n      pop\n      jump\t// out\n        /* \"@openzeppelin/contracts/token/ERC20/ERC20.sol\":3551:3691  function allowance(address owner, address spender) public view virtual returns (uint256) {... */\n    tag_71:\n        /* \"@openzeppelin/contracts/token/ERC20/ERC20.sol\":3631:3638  uint256 */\n      0x00\n        /* \"@openzeppelin/contracts/token/ERC20/ERC20.sol\":3657:3668  _allowances */\n      0x01\n        /* \"@openzeppelin/contracts/token/ERC20/ERC20.sol\":3657:3675  _allowances[owner] */\n      0x00\n        /* \"@openzeppelin/contracts/token/ERC20/ERC20.sol\":3669:3674  owner */\n      dup5\n        /* \"@openzeppelin/contracts/token/ERC20/ERC20.sol\":3657:3675  _allowances[owner] */\n      0xffffffffffffffffffffffffffffffffffffffff\n      and\n      0xffffffffffffffffffffffffffffffffffffffff\n      and\n      dup2\n      mstore\n      0x20\n      add\n      swap1\n      dup2\n      mstore\n      0x20\n      add\n      0x00\n      keccak256\n        /* \"@openzeppelin/contracts/token/ERC20/ERC20.sol\":3657:3684  _allowances[owner][spender] */\n      0x00\n        /* \"@openzeppelin/contracts/token/ERC20/ERC20.sol\":3676:3683  spender */\n      dup4\n        /* \"@openzeppelin/contracts/token/ERC20/ERC20.sol\":3657:3684  _allowances[owner][spender] */\n      0xffffffffffffffffffffffffffffffffffffffff\n      and\n      0xffffffffffffffffffffffffffffffffffffffff\n      and\n      dup2\n      mstore\n      0x20\n      add\n      swap1\n      dup2\n      mstore\n      0x20\n      add\n      0x00\n      keccak256\n      sload\n        /* \"@openzeppelin/contracts/token/ERC20/ERC20.sol\":3650:3684  return _allowances[owner][spender] */\n      swap1\n      pop\n        /* \"@openzeppelin/contracts/token/ERC20/ERC20.sol\":3551:3691  function allowance(address owner, address spender) public view virtual returns (uint256) {... */\n      swap3\n      swap2\n      pop\n      pop\n      jump\t// out\n        /* \"@openzeppelin/contracts/access/Ownable.sol\":2543:2758  function transferOwnership(address newOwner) public virtual onlyOwner {... */\n    tag_75:\n        /* \"@openzeppelin/contracts/access/Ownable.sol\":1531:1544  _checkOwner() */\n      tag_136\n        /* \"@openzeppelin/contracts/access/Ownable.sol\":1531:1542  _checkOwner */\n      tag_98\n        /* \"@openzeppelin/contracts/access/Ownable.sol\":1531:1544  _checkOwner() */\n      jump\t// in\n    tag_136:\n        /* \"@openzeppelin/contracts/access/Ownable.sol\":2647:2648  0 */\n      0x00\n        /* \"@openzeppelin/contracts/access/Ownable.sol\":2627:2649  newOwner == address(0) */\n      0xffffffffffffffffffffffffffffffffffffffff\n      and\n        /* \"@openzeppelin/contracts/access/Ownable.sol\":2627:2635  newOwner */\n      dup2\n        /* \"@openzeppelin/contracts/access/Ownable.sol\":2627:2649  newOwner == address(0) */\n      0xffffffffffffffffffffffffffffffffffffffff\n      and\n      sub\n        /* \"@openzeppelin/contracts/access/Ownable.sol\":2623:2714  if (newOwner == address(0)) {... */\n      tag_138\n      jumpi\n        /* \"@openzeppelin/contracts/access/Ownable.sol\":2700:2701  0 */\n      0x00\n        /* \"@openzeppelin/contracts/access/Ownable.sol\":2672:2703  OwnableInvalidOwner(address(0)) */\n      mload(0x40)\n      0x1e4fbdf700000000000000000000000000000000000000000000000000000000\n      dup2\n      mstore\n      0x04\n      add\n      tag_139\n      swap2\n      swap1\n      tag_60\n      jump\t// in\n    tag_139:\n      mload(0x40)\n      dup1\n      swap2\n      sub\n      swap1\n      revert\n        /* \"@openzeppelin/contracts/access/Ownable.sol\":2623:2714  if (newOwner == address(0)) {... */\n    tag_138:\n        /* \"@openzeppelin/contracts/access/Ownable.sol\":2723:2751  _transferOwnership(newOwner) */\n      tag_140\n        /* \"@openzeppelin/contracts/access/Ownable.sol\":2742:2750  newOwner */\n      dup2\n        /* \"@openzeppelin/contracts/access/Ownable.sol\":2723:2741  _transferOwnership */\n      tag_107\n        /* \"@openzeppelin/contracts/access/Ownable.sol\":2723:2751  _transferOwnership(newOwner) */\n      jump\t// in\n    tag_140:\n        /* \"@openzeppelin/contracts/access/Ownable.sol\":2543:2758  function transferOwnership(address newOwner) public virtual onlyOwner {... */\n      pop\n      jump\t// out\n        /* \"@openzeppelin/contracts/utils/Context.sol\":656:752  function _msgSender() internal view virtual returns (address) {... */\n    tag_85:\n        /* \"@openzeppelin/contracts/utils/Context.sol\":709:716  address */\n      0x00\n        /* \"@openzeppelin/contracts/utils/Context.sol\":735:745  msg.sender */\n      caller\n        /* \"@openzeppelin/contracts/utils/Context.sol\":728:745  return msg.sender */\n      swap1\n      pop\n        /* \"@openzeppelin/contracts/utils/Context.sol\":656:752  function _msgSender() internal view virtual returns (address) {... */\n      swap1\n      jump\t// out\n        /* \"@openzeppelin/contracts/token/ERC20/ERC20.sol\":8726:8854  function _approve(address owner, address spender, uint256 value) internal {... */\n    tag_87:\n        /* \"@openzeppelin/contracts/token/ERC20/ERC20.sol\":8810:8847  _approve(owner, spender, value, true) */\n      tag_143\n        /* \"@openzeppelin/contracts/token/ERC20/ERC20.sol\":8819:8824  owner */\n      dup4\n        /* \"@openzeppelin/contracts/token/ERC20/ERC20.sol\":8826:8833  spender */\n      dup4\n        /* \"@openzeppelin/contracts/token/ERC20/ERC20.sol\":8835:8840  value */\n      dup4\n        /* \"@openzeppelin/contracts/token/ERC20/ERC20.sol\":8842:8846  true */\n      0x01\n        /* \"@openzeppelin/contracts/token/ERC20/ERC20.sol\":8810:8818  _approve */\n      tag_144\n        /* \"@openzeppelin/contracts/token/ERC20/ERC20.sol\":8810:8847  _approve(owner, spender, value, true) */\n      jump\t// in\n    tag_143:\n        /* \"@openzeppelin/contracts/token/ERC20/ERC20.sol\":8726:8854  function _approve(address owner, address spender, uint256 value) internal {... */\n      pop\n      pop\n      pop\n      jump\t// out\n        /* \"@openzeppelin/contracts/token/ERC20/ERC20.sol\":10415:10891  function _spendAllowance(address owner, address spender, uint256 value) internal virtual {... */\n    tag_92:\n        /* \"@openzeppelin/contracts/token/ERC20/ERC20.sol\":10514:10538  uint256 currentAllowance */\n      0x00\n        /* \"@openzeppelin/contracts/token/ERC20/ERC20.sol\":10541:10566  allowance(owner, spender) */\n      tag_146\n        /* \"@openzeppelin/contracts/token/ERC20/ERC20.sol\":10551:10556  owner */\n      dup5\n        /* \"@openzeppelin/contracts/token/ERC20/ERC20.sol\":10558:10565  spender */\n      dup5\n        /* \"@openzeppelin/contracts/token/ERC20/ERC20.sol\":10541:10550  allowance */\n      tag_71\n        /* \"@openzeppelin/contracts/token/ERC20/ERC20.sol\":10541:10566  allowance(owner, spender) */\n      jump\t// in\n    tag_146:\n        /* \"@openzeppelin/contracts/token/ERC20/ERC20.sol\":10514:10566  uint256 currentAllowance = allowance(owner, spender) */\n      swap1\n      pop\n        /* \"@openzeppelin/contracts/token/ERC20/ERC20.sol\":10599:10616  type(uint256).max */\n      0xffffffffffffffffffffffffffffffffffffffffffffffffffffffffffffffff\n        /* \"@openzeppelin/contracts/token/ERC20/ERC20.sol\":10580:10596  currentAllowance */\n      dup2\n        /* \"@openzeppelin/contracts/token/ERC20/ERC20.sol\":10580:10616  currentAllowance < type(uint256).max */\n      lt\n        /* \"@openzeppelin/contracts/token/ERC20/ERC20.sol\":10576:10885  if (currentAllowance < type(uint256).max) {... */\n      iszero\n      tag_147\n      jumpi\n        /* \"@openzeppelin/contracts/token/ERC20/ERC20.sol\":10655:10660  value */\n      dup2\n        /* \"@openzeppelin/contracts/token/ERC20/ERC20.sol\":10636:10652  currentAllowance */\n      dup2\n        /* \"@openzeppelin/contracts/token/ERC20/ERC20.sol\":10636:10660  currentAllowance < value */\n      lt\n        /* \"@openzeppelin/contracts/token/ERC20/ERC20.sol\":10632:10762  if (currentAllowance < value) {... */\n      iszero\n      tag_148\n      jumpi\n        /* \"@openzeppelin/contracts/token/ERC20/ERC20.sol\":10714:10721  spender */\n      dup3\n        /* \"@openzeppelin/contracts/token/ERC20/ERC20.sol\":10723:10739  currentAllowance */\n      dup2\n        /* \"@openzeppelin/contracts/token/ERC20/ERC20.sol\":10741:10746  value */\n      dup4\n        /* \"@openzeppelin/contracts/token/ERC20/ERC20.sol\":10687:10747  ERC20InsufficientAllowance(spender, currentAllowance, value) */\n      mload(0x40)\n      0xfb8f41b200000000000000000000000000000000000000000000000000000000\n      dup2\n      mstore\n      0x04\n      add\n      tag_149\n      swap4\n      swap3\n      swap2\n      swap1\n      tag_150\n      jump\t// in\n    tag_149:\n      mload(0x40)\n      dup1\n      swap2\n      sub\n      swap1\n      revert\n        /* \"@openzeppelin/contracts/token/ERC20/ERC20.sol\":10632:10762  if (currentAllowance < value) {... */\n    tag_148:\n        /* \"@openzeppelin/contracts/token/ERC20/ERC20.sol\":10803:10860  _approve(owner, spender, currentAllowance - value, false) */\n      tag_151\n        /* \"@openzeppelin/contracts/token/ERC20/ERC20.sol\":10812:10817  owner */\n      dup5\n        /* \"@openzeppelin/contracts/token/ERC20/ERC20.sol\":10819:10826  spender */\n      dup5\n        /* \"@openzeppelin/contracts/token/ERC20/ERC20.sol\":10847:10852  value */\n      dup5\n        /* \"@openzeppelin/contracts/token/ERC20/ERC20.sol\":10828:10844  currentAllowance */\n      dup5\n        /* \"@openzeppelin/contracts/token/ERC20/ERC20.sol\":10828:10852  currentAllowance - value */\n      sub\n        /* \"@openzeppelin/contracts/token/ERC20/ERC20.sol\":10854:10859  false */\n      0x00\n        /* \"@openzeppelin/contracts/token/ERC20/ERC20.sol\":10803:10811  _approve */\n      tag_144\n        /* \"@openzeppelin/contracts/token/ERC20/ERC20.sol\":10803:10860  _approve(owner, spender, currentAllowance - value, false) */\n      jump\t// in\n    tag_151:\n        /* \"@openzeppelin/contracts/token/ERC20/ERC20.sol\":10576:10885  if (currentAllowance < type(uint256).max) {... */\n    tag_147:\n        /* \"@openzeppelin/contracts/token/ERC20/ERC20.sol\":10504:10891  {... */\n      pop\n        /* \"@openzeppelin/contracts/token/ERC20/ERC20.sol\":10415:10891  function _spendAllowance(address owner, address spender, uint256 value) internal virtual {... */\n      pop\n      pop\n      pop\n      jump\t// out\n        /* \"@openzeppelin/contracts/token/ERC20/ERC20.sol\":5393:5693  function _transfer(address from, address to, uint256 value) internal {... */\n    tag_94:\n        /* \"@openzeppelin/contracts/token/ERC20/ERC20.sol\":5492:5493  0 */\n      0x00\n        /* \"@openzeppelin/contracts/token/ERC20/ERC20.sol\":5476:5494  from == address(0) */\n      0xffffffffffffffffffffffffffffffffffffffff\n      and\n        /* \"@openzeppelin/contracts/token/ERC20/ERC20.sol\":5476:5480  from */\n      dup4\n        /* \"@openzeppelin/contracts/token/ERC20/ERC20.sol\":5476:5494  from == address(0) */\n      0xffffffffffffffffffffffffffffffffffffffff\n      and\n      sub\n        /* \"@openzeppelin/contracts/token/ERC20/ERC20.sol\":5472:5558  if (from == address(0)) {... */\n      tag_153\n      jumpi\n        /* \"@openzeppelin/contracts/token/ERC20/ERC20.sol\":5544:5545  0 */\n      0x00\n        /* \"@openzeppelin/contracts/token/ERC20/ERC20.sol\":5517:5547  ERC20InvalidSender(address(0)) */\n      mload(0x40)\n      0x96c6fd1e00000000000000000000000000000000000000000000000000000000\n      dup2\n      mstore\n      0x04\n      add\n      tag_154\n      swap2\n      swap1\n      tag_60\n      jump\t// in\n    tag_154:\n      mload(0x40)\n      dup1\n      swap2\n      sub\n      swap1\n      revert\n        /* \"@openzeppelin/contracts/token/ERC20/ERC20.sol\":5472:5558  if (from == address(0)) {... */\n    tag_153:\n        /* \"@openzeppelin/contracts/token/ERC20/ERC20.sol\":5585:5586  0 */\n      0x00\n        /* \"@openzeppelin/contracts/token/ERC20/ERC20.sol\":5571:5587  to == address(0) */\n      0xffffffffffffffffffffffffffffffffffffffff\n      and\n        /* \"@openzeppelin/contracts/token/ERC20/ERC20.sol\":5571:5573  to */\n      dup3\n        /* \"@openzeppelin/contracts/token/ERC20/ERC20.sol\":5571:5587  to == address(0) */\n      0xffffffffffffffffffffffffffffffffffffffff\n      and\n      sub\n        /* \"@openzeppelin/contracts/token/ERC20/ERC20.sol\":5567:5653  if (to == address(0)) {... */\n      tag_155\n      jumpi\n        /* \"@openzeppelin/contracts/token/ERC20/ERC20.sol\":5639:5640  0 */\n      0x00\n        /* \"@openzeppelin/contracts/token/ERC20/ERC20.sol\":5610:5642  ERC20InvalidReceiver(address(0)) */\n      mload(0x40)\n      0xec442f0500000000000000000000000000000000000000000000000000000000\n      dup2\n      mstore\n      0x04\n      add\n      tag_156\n      swap2\n      swap1\n      tag_60\n      jump\t// in\n    tag_156:\n      mload(0x40)\n      dup1\n      swap2\n      sub\n      swap1\n      revert\n        /* \"@openzeppelin/contracts/token/ERC20/ERC20.sol\":5567:5653  if (to == address(0)) {... */\n    tag_155:\n        /* \"@openzeppelin/contracts/token/ERC20/ERC20.sol\":5662:5686  _update(from, to, value) */\n      tag_157\n        /* \"@openzeppelin/contracts/token/ERC20/ERC20.sol\":5670:5674  from */\n      dup4\n        /* \"@openzeppelin/contracts/token/ERC20/ERC20.sol\":5676:5678  to */\n      dup4\n        /* \"@openzeppelin/contracts/token/ERC20/ERC20.sol\":5680:5685  value */\n      dup4\n        /* \"@openzeppelin/contracts/token/ERC20/ERC20.sol\":5662:5669  _update */\n      tag_158\n        /* \"@openzeppelin/contracts/token/ERC20/ERC20.sol\":5662:5686  _update(from, to, value) */\n      jump\t// in\n    tag_157:\n        /* \"@openzeppelin/contracts/token/ERC20/ERC20.sol\":5393:5693  function _transfer(address from, address to, uint256 value) internal {... */\n      pop\n      pop\n      pop\n      jump\t// out\n        /* \"@openzeppelin/contracts/access/Ownable.sol\":1796:1958  function _checkOwner() internal view virtual {... */\n    tag_98:\n        /* \"@openzeppelin/contracts/access/Ownable.sol\":1866:1878  _msgSender() */\n      tag_160\n        /* \"@openzeppelin/contracts/access/Ownable.sol\":1866:1876  _msgSender */\n      tag_85\n        /* \"@openzeppelin/contracts/access/Ownable.sol\":1866:1878  _msgSender() */\n      jump\t// in\n    tag_160:\n        /* \"@openzeppelin/contracts/access/Ownable.sol\":1855:1878  owner() != _msgSender() */\n      0xffffffffffffffffffffffffffffffffffffffff\n      and\n        /* \"@openzeppelin/contracts/access/Ownable.sol\":1855:1862  owner() */\n      tag_161\n        /* \"@openzeppelin/contracts/access/Ownable.sol\":1855:1860  owner */\n      tag_58\n        /* \"@openzeppelin/contracts/access/Ownable.sol\":1855:1862  owner() */\n      jump\t// in\n    tag_161:\n        /* \"@openzeppelin/contracts/access/Ownable.sol\":1855:1878  owner() != _msgSender() */\n      0xffffffffffffffffffffffffffffffffffffffff\n      and\n      eq\n        /* \"@openzeppelin/contracts/access/Ownable.sol\":1851:1952  if (owner() != _msgSender()) {... */\n      tag_162\n      jumpi\n        /* \"@openzeppelin/contracts/access/Ownable.sol\":1928:1940  _msgSender() */\n      tag_163\n        /* \"@openzeppelin/contracts/access/Ownable.sol\":1928:1938  _msgSender */\n      tag_85\n        /* \"@openzeppelin/contracts/access/Ownable.sol\":1928:1940  _msgSender() */\n      jump\t// in\n    tag_163:\n        /* \"@openzeppelin/contracts/access/Ownable.sol\":1901:1941  OwnableUnauthorizedAccount(_msgSender()) */\n      mload(0x40)\n      0x118cdaa700000000000000000000000000000000000000000000000000000000\n      dup2\n      mstore\n      0x04\n      add\n      tag_164\n      swap2\n      swap1\n      tag_60\n      jump\t// in\n    tag_164:\n      mload(0x40)\n      dup1\n      swap2\n      sub\n      swap1\n      revert\n        /* \"@openzeppelin/contracts/access/Ownable.sol\":1851:1952  if (owner() != _msgSender()) {... */\n    tag_162:\n        /* \"@openzeppelin/contracts/access/Ownable.sol\":1796:1958  function _checkOwner() internal view virtual {... */\n      jump\t// out\n        /* \"@openzeppelin/contracts/token/ERC20/ERC20.sol\":7458:7666  function _mint(address account, uint256 value) internal {... */\n    tag_101:\n        /* \"@openzeppelin/contracts/token/ERC20/ERC20.sol\":7547:7548  0 */\n      0x00\n        /* \"@openzeppelin/contracts/token/ERC20/ERC20.sol\":7528:7549  account == address(0) */\n      0xffffffffffffffffffffffffffffffffffffffff\n      and\n        /* \"@openzeppelin/contracts/token/ERC20/ERC20.sol\":7528:7535  account */\n      dup3\n        /* \"@openzeppelin/contracts/token/ERC20/ERC20.sol\":7528:7549  account == address(0) */\n      0xffffffffffffffffffffffffffffffffffffffff\n      and\n      sub\n        /* \"@openzeppelin/contracts/token/ERC20/ERC20.sol\":7524:7615  if (account == address(0)) {... */\n      tag_166\n      jumpi\n        /* \"@openzeppelin/contracts/token/ERC20/ERC20.sol\":7601:7602  0 */\n      0x00\n        /* \"@openzeppelin/contracts/token/ERC20/ERC20.sol\":7572:7604  ERC20InvalidReceiver(address(0)) */\n      mload(0x40)\n      0xec442f0500000000000000000000000000000000000000000000000000000000\n      dup2\n      mstore\n      0x04\n      add\n      tag_167\n      swap2\n      swap1\n      tag_60\n      jump\t// in\n    tag_167:\n      mload(0x40)\n      dup1\n      swap2\n      sub\n      swap1\n      revert\n        /* \"@openzeppelin/contracts/token/ERC20/ERC20.sol\":7524:7615  if (account == address(0)) {... */\n    tag_166:\n        /* \"@openzeppelin/contracts/token/ERC20/ERC20.sol\":7624:7659  _update(address(0), account, value) */\n      tag_168\n        /* \"@openzeppelin/contracts/token/ERC20/ERC20.sol\":7640:7641  0 */\n      0x00\n        /* \"@openzeppelin/contracts/token/ERC20/ERC20.sol\":7644:7651  account */\n      dup4\n        /* \"@openzeppelin/contracts/token/ERC20/ERC20.sol\":7653:7658  value */\n      dup4\n        /* \"@openzeppelin/contracts/token/ERC20/ERC20.sol\":7624:7631  _update */\n      tag_158\n        /* \"@openzeppelin/contracts/token/ERC20/ERC20.sol\":7624:7659  _update(address(0), account, value) */\n      jump\t// in\n    tag_168:\n        /* \"@openzeppelin/contracts/token/ERC20/ERC20.sol\":7458:7666  function _mint(address account, uint256 value) internal {... */\n      pop\n      pop\n      jump\t// out\n        /* \"@openzeppelin/contracts/access/Ownable.sol\":2912:3099  function _transferOwnership(address newOwner) internal virtual {... */\n    tag_107:\n        /* \"@openzeppelin/contracts/access/Ownable.sol\":2985:3001  address oldOwner */\n      0x00\n        /* \"@openzeppelin/contracts/access/Ownable.sol\":3004:3010  _owner */\n      0x05\n      0x00\n      swap1\n      sload\n      swap1\n      0x0100\n      exp\n      swap1\n      div\n      0xffffffffffffffffffffffffffffffffffffffff\n      and\n        /* \"@openzeppelin/contracts/access/Ownable.sol\":2985:3010  address oldOwner = _owner */\n      swap1\n      pop\n        /* \"@openzeppelin/contracts/access/Ownable.sol\":3029:3037  newOwner */\n      dup2\n        /* \"@openzeppelin/contracts/access/Ownable.sol\":3020:3026  _owner */\n      0x05\n      0x00\n        /* \"@openzeppelin/contracts/access/Ownable.sol\":3020:3037  _owner = newOwner */\n      0x0100\n      exp\n      dup2\n      sload\n      dup2\n      0xffffffffffffffffffffffffffffffffffffffff\n      mul\n      not\n      and\n      swap1\n      dup4\n      0xffffffffffffffffffffffffffffffffffffffff\n      and\n      mul\n      or\n      swap1\n      sstore\n      pop\n        /* \"@openzeppelin/contracts/access/Ownable.sol\":3083:3091  newOwner */\n      dup2\n        /* \"@openzeppelin/contracts/access/Ownable.sol\":3052:3092  OwnershipTransferred(oldOwner, newOwner) */\n      0xffffffffffffffffffffffffffffffffffffffff\n      and\n        /* \"@openzeppelin/contracts/access/Ownable.sol\":3073:3081  oldOwner */\n      dup2\n        /* \"@openzeppelin/contracts/access/Ownable.sol\":3052:3092  OwnershipTransferred(oldOwner, newOwner) */\n      0xffffffffffffffffffffffffffffffffffffffff\n      and\n      0x8be0079c531659141344cd1fd0a4f28419497f9722a3daafe3b4186f6b6457e0\n      mload(0x40)\n      mload(0x40)\n      dup1\n      swap2\n      sub\n      swap1\n      log3\n        /* \"@openzeppelin/contracts/access/Ownable.sol\":2975:3099  {... */\n      pop\n        /* \"@openzeppelin/contracts/access/Ownable.sol\":2912:3099  function _transferOwnership(address newOwner) internal virtual {... */\n      pop\n      jump\t// out\n        /* \"@openzeppelin/contracts/token/ERC20/ERC20.sol\":9701:10133  function _approve(address owner, address spender, uint256 value, bool emitEvent) internal virtual {... */\n    tag_144:\n        /* \"@openzeppelin/contracts/token/ERC20/ERC20.sol\":9830:9831  0 */\n      0x00\n        /* \"@openzeppelin/contracts/token/ERC20/ERC20.sol\":9813:9832  owner == address(0) */\n      0xffffffffffffffffffffffffffffffffffffffff\n      and\n        /* \"@openzeppelin/contracts/token/ERC20/ERC20.sol\":9813:9818  owner */\n      dup5\n        /* \"@openzeppelin/contracts/token/ERC20/ERC20.sol\":9813:9832  owner == address(0) */\n      0xffffffffffffffffffffffffffffffffffffffff\n      and\n      sub\n        /* \"@openzeppelin/contracts/token/ERC20/ERC20.sol\":9809:9898  if (owner == address(0)) {... */\n      tag_171\n      jumpi\n        /* \"@openzeppelin/contracts/token/ERC20/ERC20.sol\":9884:9885  0 */\n      0x00\n        /* \"@openzeppelin/contracts/token/ERC20/ERC20.sol\":9855:9887  ERC20InvalidApprover(address(0)) */\n      mload(0x40)\n      0xe602df0500000000000000000000000000000000000000000000000000000000\n      dup2\n      mstore\n      0x04\n      add\n      tag_172\n      swap2\n      swap1\n      tag_60\n      jump\t// in\n    tag_172:\n      mload(0x40)\n      dup1\n      swap2\n      sub\n      swap1\n      revert\n        /* \"@openzeppelin/contracts/token/ERC20/ERC20.sol\":9809:9898  if (owner == address(0)) {... */\n    tag_171:\n        /* \"@openzeppelin/contracts/token/ERC20/ERC20.sol\":9930:9931  0 */\n      0x00\n        /* \"@openzeppelin/contracts/token/ERC20/ERC20.sol\":9911:9932  spender == address(0) */\n      0xffffffffffffffffffffffffffffffffffffffff\n      and\n        /* \"@openzeppelin/contracts/token/ERC20/ERC20.sol\":9911:9918  spender */\n      dup4\n        /* \"@openzeppelin/contracts/token/ERC20/ERC20.sol\":9911:9932  spender == address(0) */\n      0xffffffffffffffffffffffffffffffffffffffff\n      and\n      sub\n        /* \"@openzeppelin/contracts/token/ERC20/ERC20.sol\":9907:9997  if (spender == address(0)) {... */\n      tag_173\n      jumpi\n        /* \"@openzeppelin/contracts/token/ERC20/ERC20.sol\":9983:9984  0 */\n      0x00\n        /* \"@openzeppelin/contracts/token/ERC20/ERC20.sol\":9955:9986  ERC20InvalidSpender(address(0)) */\n      mload(0x40)\n      0x94280d6200000000000000000000000000000000000000000000000000000000\n      dup2\n      mstore\n      0x04\n      add\n      tag_174\n      swap2\n      swap1\n      tag_60\n      jump\t// in\n    tag_174:\n      mload(0x40)\n      dup1\n      swap2\n      sub\n      swap1\n      revert\n        /* \"@openzeppelin/contracts/token/ERC20/ERC20.sol\":9907:9997  if (spender == address(0)) {... */\n    tag_173:\n        /* \"@openzeppelin/contracts/token/ERC20/ERC20.sol\":10036:10041  value */\n      dup2\n        /* \"@openzeppelin/contracts/token/ERC20/ERC20.sol\":10006:10017  _allowances */\n      0x01\n        /* \"@openzeppelin/contracts/token/ERC20/ERC20.sol\":10006:10024  _allowances[owner] */\n      0x00\n        /* \"@openzeppelin/contracts/token/ERC20/ERC20.sol\":10018:10023  owner */\n      dup7\n        /* \"@openzeppelin/contracts/token/ERC20/ERC20.sol\":10006:10024  _allowances[owner] */\n      0xffffffffffffffffffffffffffffffffffffffff\n      and\n      0xffffffffffffffffffffffffffffffffffffffff\n      and\n      dup2\n      mstore\n      0x20\n      add\n      swap1\n      dup2\n      mstore\n      0x20\n      add\n      0x00\n      keccak256\n        /* \"@openzeppelin/contracts/token/ERC20/ERC20.sol\":10006:10033  _allowances[owner][spender] */\n      0x00\n        /* \"@openzeppelin/contracts/token/ERC20/ERC20.sol\":10025:10032  spender */\n      dup6\n        /* \"@openzeppelin/contracts/token/ERC20/ERC20.sol\":10006:10033  _allowances[owner][spender] */\n      0xffffffffffffffffffffffffffffffffffffffff\n      and\n      0xffffffffffffffffffffffffffffffffffffffff\n      and\n      dup2\n      mstore\n      0x20\n      add\n      swap1\n      dup2\n      mstore\n      0x20\n      add\n      0x00\n      keccak256\n        /* \"@openzeppelin/contracts/token/ERC20/ERC20.sol\":10006:10041  _allowances[owner][spender] = value */\n      dup2\n      swap1\n      sstore\n      pop\n        /* \"@openzeppelin/contracts/token/ERC20/ERC20.sol\":10055:10064  emitEvent */\n      dup1\n        /* \"@openzeppelin/contracts/token/ERC20/ERC20.sol\":10051:10127  if (emitEvent) {... */\n      iszero\n      tag_175\n      jumpi\n        /* \"@openzeppelin/contracts/token/ERC20/ERC20.sol\":10101:10108  spender */\n      dup3\n        /* \"@openzeppelin/contracts/token/ERC20/ERC20.sol\":10085:10116  Approval(owner, spender, value) */\n      0xffffffffffffffffffffffffffffffffffffffff\n      and\n        /* \"@openzeppelin/contracts/token/ERC20/ERC20.sol\":10094:10099  owner */\n      dup5\n        /* \"@openzeppelin/contracts/token/ERC20/ERC20.sol\":10085:10116  Approval(owner, spender, value) */\n      0xffffffffffffffffffffffffffffffffffffffff\n      and\n      0x8c5be1e5ebec7d5bd14f71427d1e84f3dd0314c0f7b2291e5b200ac8c7c3b925\n        /* \"@openzeppelin/contracts/token/ERC20/ERC20.sol\":10110:10115  value */\n      dup5\n        /* \"@openzeppelin/contracts/token/ERC20/ERC20.sol\":10085:10116  Approval(owner, spender, value) */\n      mload(0x40)\n      tag_176\n      swap2\n      swap1\n      tag_33\n      jump\t// in\n    tag_176:\n      mload(0x40)\n      dup1\n      swap2\n      sub\n      swap1\n      log3\n        /* \"@openzeppelin/contracts/token/ERC20/ERC20.sol\":10051:10127  if (emitEvent) {... */\n    tag_175:\n        /* \"@openzeppelin/contracts/token/ERC20/ERC20.sol\":9701:10133  function _approve(address owner, address spender, uint256 value, bool emitEvent) internal virtual {... */\n      pop\n      pop\n      pop\n      pop\n      jump\t// out\n        /* \"@openzeppelin/contracts/token/ERC20/ERC20.sol\":6008:7115  function _update(address from, address to, uint256 value) internal virtual {... */\n    tag_158:\n        /* \"@openzeppelin/contracts/token/ERC20/ERC20.sol\":6113:6114  0 */\n      0x00\n        /* \"@openzeppelin/contracts/token/ERC20/ERC20.sol\":6097:6115  from == address(0) */\n      0xffffffffffffffffffffffffffffffffffffffff\n      and\n        /* \"@openzeppelin/contracts/token/ERC20/ERC20.sol\":6097:6101  from */\n      dup4\n        /* \"@openzeppelin/contracts/token/ERC20/ERC20.sol\":6097:6115  from == address(0) */\n      0xffffffffffffffffffffffffffffffffffffffff\n      and\n      sub\n        /* \"@openzeppelin/contracts/token/ERC20/ERC20.sol\":6093:6633  if (from == address(0)) {... */\n      tag_178\n      jumpi\n        /* \"@openzeppelin/contracts/token/ERC20/ERC20.sol\":6249:6254  value */\n      dup1\n        /* \"@openzeppelin/contracts/token/ERC20/ERC20.sol\":6233:6245  _totalSupply */\n      0x02\n      0x00\n        /* \"@openzeppelin/contracts/token/ERC20/ERC20.sol\":6233:6254  _totalSupply += value */\n      dup3\n      dup3\n      sload\n      tag_179\n      swap2\n      swap1\n      tag_180\n      jump\t// in\n    tag_179:\n      swap3\n      pop\n      pop\n      dup2\n      swap1\n      sstore\n      pop\n        /* \"@openzeppelin/contracts/token/ERC20/ERC20.sol\":6093:6633  if (from == address(0)) {... */\n      jump(tag_181)\n    tag_178:\n        /* \"@openzeppelin/contracts/token/ERC20/ERC20.sol\":6285:6304  uint256 fromBalance */\n      0x00\n        /* \"@openzeppelin/contracts/token/ERC20/ERC20.sol\":6307:6316  _balances */\n      dup1\n        /* \"@openzeppelin/contracts/token/ERC20/ERC20.sol\":6307:6322  _balances[from] */\n      0x00\n        /* \"@openzeppelin/contracts/token/ERC20/ERC20.sol\":6317:6321  from */\n      dup6\n        /* \"@openzeppelin/contracts/token/ERC20/ERC20.sol\":6307:6322  _balances[from] */\n      0xffffffffffffffffffffffffffffffffffffffff\n      and\n      0xffffffffffffffffffffffffffffffffffffffff\n      and\n      dup2\n      mstore\n      0x20\n      add\n      swap1\n      dup2\n      mstore\n      0x20\n      add\n      0x00\n      keccak256\n      sload\n        /* \"@openzeppelin/contracts/token/ERC20/ERC20.sol\":6285:6322  uint256 fromBalance = _balances[from] */\n      swap1\n      pop\n        /* \"@openzeppelin/contracts/token/ERC20/ERC20.sol\":6354:6359  value */\n      dup2\n        /* \"@openzeppelin/contracts/token/ERC20/ERC20.sol\":6340:6351  fromBalance */\n      dup2\n        /* \"@openzeppelin/contracts/token/ERC20/ERC20.sol\":6340:6359  fromBalance < value */\n      lt\n        /* \"@openzeppelin/contracts/token/ERC20/ERC20.sol\":6336:6451  if (fromBalance < value) {... */\n      iszero\n      tag_182\n      jumpi\n        /* \"@openzeppelin/contracts/token/ERC20/ERC20.sol\":6411:6415  from */\n      dup4\n        /* \"@openzeppelin/contracts/token/ERC20/ERC20.sol\":6417:6428  fromBalance */\n      dup2\n        /* \"@openzeppelin/contracts/token/ERC20/ERC20.sol\":6430:6435  value */\n      dup4\n        /* \"@openzeppelin/contracts/token/ERC20/ERC20.sol\":6386:6436  ERC20InsufficientBalance(from, fromBalance, value) */\n      mload(0x40)\n      0xe450d38c00000000000000000000000000000000000000000000000000000000\n      dup2\n      mstore\n      0x04\n      add\n      tag_183\n      swap4\n      swap3\n      swap2\n      swap1\n      tag_150\n      jump\t// in\n    tag_183:\n      mload(0x40)\n      dup1\n      swap2\n      sub\n      swap1\n      revert\n        /* \"@openzeppelin/contracts/token/ERC20/ERC20.sol\":6336:6451  if (fromBalance < value) {... */\n    tag_182:\n        /* \"@openzeppelin/contracts/token/ERC20/ERC20.sol\":6603:6608  value */\n      dup2\n        /* \"@openzeppelin/contracts/token/ERC20/ERC20.sol\":6589:6600  fromBalance */\n      dup2\n        /* \"@openzeppelin/contracts/token/ERC20/ERC20.sol\":6589:6608  fromBalance - value */\n      sub\n        /* \"@openzeppelin/contracts/token/ERC20/ERC20.sol\":6571:6580  _balances */\n      0x00\n        /* \"@openzeppelin/contracts/token/ERC20/ERC20.sol\":6571:6586  _balances[from] */\n      dup1\n        /* \"@openzeppelin/contracts/token/ERC20/ERC20.sol\":6581:6585  from */\n      dup7\n        /* \"@openzeppelin/contracts/token/ERC20/ERC20.sol\":6571:6586  _balances[from] */\n      0xffffffffffffffffffffffffffffffffffffffff\n      and\n      0xffffffffffffffffffffffffffffffffffffffff\n      and\n      dup2\n      mstore\n      0x20\n      add\n      swap1\n      dup2\n      mstore\n      0x20\n      add\n      0x00\n      keccak256\n        /* \"@openzeppelin/contracts/token/ERC20/ERC20.sol\":6571:6608  _balances[from] = fromBalance - value */\n      dup2\n      swap1\n      sstore\n      pop\n        /* \"@openzeppelin/contracts/token/ERC20/ERC20.sol\":6271:6633  {... */\n      pop\n        /* \"@openzeppelin/contracts/token/ERC20/ERC20.sol\":6093:6633  if (from == address(0)) {... */\n    tag_181:\n        /* \"@openzeppelin/contracts/token/ERC20/ERC20.sol\":6661:6662  0 */\n      0x00\n        /* \"@openzeppelin/contracts/token/ERC20/ERC20.sol\":6647:6663  to == address(0) */\n      0xffffffffffffffffffffffffffffffffffffffff\n      and\n        /* \"@openzeppelin/contracts/token/ERC20/ERC20.sol\":6647:6649  to */\n      dup3\n        /* \"@openzeppelin/contracts/token/ERC20/ERC20.sol\":6647:6663  to == address(0) */\n      0xffffffffffffffffffffffffffffffffffffffff\n      and\n      sub\n        /* \"@openzeppelin/contracts/token/ERC20/ERC20.sol\":6643:7068  if (to == address(0)) {... */\n      tag_184\n      jumpi\n        /* \"@openzeppelin/contracts/token/ERC20/ERC20.sol\":6826:6831  value */\n      dup1\n        /* \"@openzeppelin/contracts/token/ERC20/ERC20.sol\":6810:6822  _totalSupply */\n      0x02\n      0x00\n        /* \"@openzeppelin/contracts/token/ERC20/ERC20.sol\":6810:6831  _totalSupply -= value */\n      dup3\n      dup3\n      sload\n      sub\n      swap3\n      pop\n      pop\n      dup2\n      swap1\n      sstore\n      pop\n        /* \"@openzeppelin/contracts/token/ERC20/ERC20.sol\":6643:7068  if (to == address(0)) {... */\n      jump(tag_185)\n    tag_184:\n        /* \"@openzeppelin/contracts/token/ERC20/ERC20.sol\":7038:7043  value */\n      dup1\n        /* \"@openzeppelin/contracts/token/ERC20/ERC20.sol\":7021:7030  _balances */\n      0x00\n        /* \"@openzeppelin/contracts/token/ERC20/ERC20.sol\":7021:7034  _balances[to] */\n      dup1\n        /* \"@openzeppelin/contracts/token/ERC20/ERC20.sol\":7031:7033  to */\n      dup5\n        /* \"@openzeppelin/contracts/token/ERC20/ERC20.sol\":7021:7034  _balances[to] */\n      0xffffffffffffffffffffffffffffffffffffffff\n      and\n      0xffffffffffffffffffffffffffffffffffffffff\n      and\n      dup2\n      mstore\n      0x20\n      add\n      swap1\n      dup2\n      mstore\n      0x20\n      add\n      0x00\n      keccak256\n      0x00\n        /* \"@openzeppelin/contracts/token/ERC20/ERC20.sol\":7021:7043  _balances[to] += value */\n      dup3\n      dup3\n      sload\n      add\n      swap3\n      pop\n      pop\n      dup2\n      swap1\n      sstore\n      pop\n        /* \"@openzeppelin/contracts/token/ERC20/ERC20.sol\":6643:7068  if (to == address(0)) {... */\n    tag_185:\n        /* \"@openzeppelin/contracts/token/ERC20/ERC20.sol\":7098:7100  to */\n      dup2\n        /* \"@openzeppelin/contracts/token/ERC20/ERC20.sol\":7083:7108  Transfer(from, to, value) */\n      0xffffffffffffffffffffffffffffffffffffffff\n      and\n        /* \"@openzeppelin/contracts/token/ERC20/ERC20.sol\":7092:7096  from */\n      dup4\n        /* \"@openzeppelin/contracts/token/ERC20/ERC20.sol\":7083:7108  Transfer(from, to, value) */\n      0xffffffffffffffffffffffffffffffffffffffff\n      and\n      0xddf252ad1be2c89b69c2b068fc378daa952ba7f163c4a11628f55a4df523b3ef\n        /* \"@openzeppelin/contracts/token/ERC20/ERC20.sol\":7102:7107  value */\n      dup4\n        /* \"@openzeppelin/contracts/token/ERC20/ERC20.sol\":7083:7108  Transfer(from, to, value) */\n      mload(0x40)\n      tag_186\n      swap2\n      swap1\n      tag_33\n      jump\t// in\n    tag_186:\n      mload(0x40)\n      dup1\n      swap2\n      sub\n      swap1\n      log3\n        /* \"@openzeppelin/contracts/token/ERC20/ERC20.sol\":6008:7115  function _update(address from, address to, uint256 value) internal virtual {... */\n      pop\n      pop\n      pop\n      jump\t// out\n        /* \"#utility.yul\":7:106   */\n    tag_187:\n        /* \"#utility.yul\":59:65   */\n      0x00\n        /* \"#utility.yul\":93:98   */\n      dup2\n        /* \"#utility.yul\":87:99   */\n      mload\n        /* \"#utility.yul\":77:99   */\n      swap1\n      pop\n        /* \"#utility.yul\":7:106   */\n      swap2\n      swap1\n      pop\n      jump\t// out\n        /* \"#utility.yul\":112:281   */\n    tag_188:\n        /* \"#utility.yul\":196:207   */\n      0x00\n        /* \"#utility.yul\":230:236   */\n      dup3\n        /* \"#utility.yul\":225:228   */\n      dup3\n        /* \"#utility.yul\":218:237   */\n      mstore\n        /* \"#utility.yul\":270:274   */\n      0x20\n        /* \"#utility.yul\":265:268   */\n      dup3\n        /* \"#utility.yul\":261:275   */\n      add\n        /* \"#utility.yul\":246:275   */\n      swap1\n      pop\n        /* \"#utility.yul\":112:281   */\n      swap3\n      swap2\n      pop\n      pop\n      jump\t// out\n        /* \"#utility.yul\":287:533   */\n    tag_189:\n        /* \"#utility.yul\":368:369   */\n      0x00\n        /* \"#utility.yul\":378:491   */\n    tag_221:\n        /* \"#utility.yul\":392:398   */\n      dup4\n        /* \"#utility.yul\":389:390   */\n      dup2\n        /* \"#utility.yul\":386:399   */\n      lt\n        /* \"#utility.yul\":378:491   */\n      iszero\n      tag_223\n      jumpi\n        /* \"#utility.yul\":477:478   */\n      dup1\n        /* \"#utility.yul\":472:475   */\n      dup3\n        /* \"#utility.yul\":468:479   */\n      add\n        /* \"#utility.yul\":462:480   */\n      mload\n        /* \"#utility.yul\":458:459   */\n      dup2\n        /* \"#utility.yul\":453:456   */\n      dup5\n        /* \"#utility.yul\":449:460   */\n      add\n        /* \"#utility.yul\":442:481   */\n      mstore\n        /* \"#utility.yul\":414:416   */\n      0x20\n        /* \"#utility.yul\":411:412   */\n      dup2\n        /* \"#utility.yul\":407:417   */\n      add\n        /* \"#utility.yul\":402:417   */\n      swap1\n      pop\n        /* \"#utility.yul\":378:491   */\n      jump(tag_221)\n    tag_223:\n        /* \"#utility.yul\":525:526   */\n      0x00\n        /* \"#utility.yul\":516:522   */\n      dup5\n        /* \"#utility.yul\":511:514   */\n      dup5\n        /* \"#utility.yul\":507:523   */\n      add\n        /* \"#utility.yul\":500:527   */\n      mstore\n        /* \"#utility.yul\":349:533   */\n      pop\n        /* \"#utility.yul\":287:533   */\n      pop\n      pop\n      pop\n      jump\t// out\n        /* \"#utility.yul\":539:641   */\n    tag_190:\n        /* \"#utility.yul\":580:586   */\n      0x00\n        /* \"#utility.yul\":631:633   */\n      0x1f\n        /* \"#utility.yul\":627:634   */\n      not\n        /* \"#utility.yul\":622:624   */\n      0x1f\n        /* \"#utility.yul\":615:620   */\n      dup4\n        /* \"#utility.yul\":611:625   */\n      add\n        /* \"#utility.yul\":607:635   */\n      and\n        /* \"#utility.yul\":597:635   */\n      swap1\n      pop\n        /* \"#utility.yul\":539:641   */\n      swap2\n      swap1\n      pop\n      jump\t// out\n        /* \"#utility.yul\":647:1024   */\n    tag_191:\n        /* \"#utility.yul\":735:738   */\n      0x00\n        /* \"#utility.yul\":763:802   */\n      tag_226\n        /* \"#utility.yul\":796:801   */\n      dup3\n        /* \"#utility.yul\":763:802   */\n      tag_187\n      jump\t// in\n    tag_226:\n        /* \"#utility.yul\":818:889   */\n      tag_227\n        /* \"#utility.yul\":882:888   */\n      dup2\n        /* \"#utility.yul\":877:880   */\n      dup6\n        /* \"#utility.yul\":818:889   */\n      tag_188\n      jump\t// in\n    tag_227:\n        /* \"#utility.yul\":811:889   */\n      swap4\n      pop\n        /* \"#utility.yul\":898:963   */\n      tag_228\n        /* \"#utility.yul\":956:962   */\n      dup2\n        /* \"#utility.yul\":951:954   */\n      dup6\n        /* \"#utility.yul\":944:948   */\n      0x20\n        /* \"#utility.yul\":937:942   */\n      dup7\n        /* \"#utility.yul\":933:949   */\n      add\n        /* \"#utility.yul\":898:963   */\n      tag_189\n      jump\t// in\n    tag_228:\n        /* \"#utility.yul\":988:1017   */\n      tag_229\n        /* \"#utility.yul\":1010:1016   */\n      dup2\n        /* \"#utility.yul\":988:1017   */\n      tag_190\n      jump\t// in\n    tag_229:\n        /* \"#utility.yul\":983:986   */\n      dup5\n        /* \"#utility.yul\":979:1018   */\n      add\n        /* \"#utility.yul\":972:1018   */\n      swap2\n      pop\n        /* \"#utility.yul\":739:1024   */\n      pop\n        /* \"#utility.yul\":647:1024   */\n      swap3\n      swap2\n      pop\n      pop\n      jump\t// out\n        /* \"#utility.yul\":1030:1343   */\n    tag_23:\n        /* \"#utility.yul\":1143:1147   */\n      0x00\n        /* \"#utility.yul\":1181:1183   */\n      0x20\n        /* \"#utility.yul\":1170:1179   */\n      dup3\n        /* \"#utility.yul\":1166:1184   */\n      add\n        /* \"#utility.yul\":1158:1184   */\n      swap1\n      pop\n        /* \"#utility.yul\":1230:1239   */\n      dup2\n        /* \"#utility.yul\":1224:1228   */\n      dup2\n        /* \"#utility.yul\":1220:1240   */\n      sub\n        /* \"#utility.yul\":1216:1217   */\n      0x00\n        /* \"#utility.yul\":1205:1214   */\n      dup4\n        /* \"#utility.yul\":1201:1218   */\n      add\n        /* \"#utility.yul\":1194:1241   */\n      mstore\n        /* \"#utility.yul\":1258:1336   */\n      tag_231\n        /* \"#utility.yul\":1331:1335   */\n      dup2\n        /* \"#utility.yul\":1322:1328   */\n      dup5\n        /* \"#utility.yul\":1258:1336   */\n      tag_191\n      jump\t// in\n    tag_231:\n        /* \"#utility.yul\":1250:1336   */\n      swap1\n      pop\n        /* \"#utility.yul\":1030:1343   */\n      swap3\n      swap2\n      pop\n      pop\n      jump\t// out\n        /* \"#utility.yul\":1430:1547   */\n    tag_193:\n        /* \"#utility.yul\":1539:1540   */\n      0x00\n        /* \"#utility.yul\":1536:1537   */\n      dup1\n        /* \"#utility.yul\":1529:1541   */\n      revert\n        /* \"#utility.yul\":1553:1670   */\n    tag_194:\n        /* \"#utility.yul\":1662:1663   */\n      0x00\n        /* \"#utility.yul\":1659:1660   */\n      dup1\n        /* \"#utility.yul\":1652:1664   */\n      revert\n        /* \"#utility.yul\":1676:1802   */\n    tag_195:\n        /* \"#utility.yul\":1713:1720   */\n      0x00\n        /* \"#utility.yul\":1753:1795   */\n      0xffffffffffffffffffffffffffffffffffffffff\n        /* \"#utility.yul\":1746:1751   */\n      dup3\n        /* \"#utility.yul\":1742:1796   */\n      and\n        /* \"#utility.yul\":1731:1796   */\n      swap1\n      pop\n        /* \"#utility.yul\":1676:1802   */\n      swap2\n      swap1\n      pop\n      jump\t// out\n        /* \"#utility.yul\":1808:1904   */\n    tag_196:\n        /* \"#utility.yul\":1845:1852   */\n      0x00\n        /* \"#utility.yul\":1874:1898   */\n      tag_237\n        /* \"#utility.yul\":1892:1897   */\n      dup3\n        /* \"#utility.yul\":1874:1898   */\n      tag_195\n      jump\t// in\n    tag_237:\n        /* \"#utility.yul\":1863:1898   */\n      swap1\n      pop\n        /* \"#utility.yul\":1808:1904   */\n      swap2\n      swap1\n      pop\n      jump\t// out\n        /* \"#utility.yul\":1910:2032   */\n    tag_197:\n        /* \"#utility.yul\":1983:2007   */\n      tag_239\n        /* \"#utility.yul\":2001:2006   */\n      dup2\n        /* \"#utility.yul\":1983:2007   */\n      tag_196\n      jump\t// in\n    tag_239:\n        /* \"#utility.yul\":1976:1981   */\n      dup2\n        /* \"#utility.yul\":1973:2008   */\n      eq\n        /* \"#utility.yul\":1963:2026   */\n      tag_240\n      jumpi\n        /* \"#utility.yul\":2022:2023   */\n      0x00\n        /* \"#utility.yul\":2019:2020   */\n      dup1\n        /* \"#utility.yul\":2012:2024   */\n      revert\n        /* \"#utility.yul\":1963:2026   */\n    tag_240:\n        /* \"#utility.yul\":1910:2032   */\n      pop\n      jump\t// out\n        /* \"#utility.yul\":2038:2177   */\n    tag_198:\n        /* \"#utility.yul\":2084:2089   */\n      0x00\n        /* \"#utility.yul\":2122:2128   */\n      dup2\n        /* \"#utility.yul\":2109:2129   */\n      calldataload\n        /* \"#utility.yul\":2100:2129   */\n      swap1\n      pop\n        /* \"#utility.yul\":2138:2171   */\n      tag_242\n        /* \"#utility.yul\":2165:2170   */\n      dup2\n        /* \"#utility.yul\":2138:2171   */\n      tag_197\n      jump\t// in\n    tag_242:\n        /* \"#utility.yul\":2038:2177   */\n      swap3\n      swap2\n      pop\n      pop\n      jump\t// out\n        /* \"#utility.yul\":2183:2260   */\n    tag_199:\n        /* \"#utility.yul\":2220:2227   */\n      0x00\n        /* \"#utility.yul\":2249:2254   */\n      dup2\n        /* \"#utility.yul\":2238:2254   */\n      swap1\n      pop\n        /* \"#utility.yul\":2183:2260   */\n      swap2\n      swap1\n      pop\n      jump\t// out\n        /* \"#utility.yul\":2266:2388   */\n    tag_200:\n        /* \"#utility.yul\":2339:2363   */\n      tag_245\n        /* \"#utility.yul\":2357:2362   */\n      dup2\n        /* \"#utility.yul\":2339:2363   */\n      tag_199\n      jump\t// in\n    tag_245:\n        /* \"#utility.yul\":2332:2337   */\n      dup2\n        /* \"#utility.yul\":2329:2364   */\n      eq\n        /* \"#utility.yul\":2319:2382   */\n      tag_246\n      jumpi\n        /* \"#utility.yul\":2378:2379   */\n      0x00\n        /* \"#utility.yul\":2375:2376   */\n      dup1\n        /* \"#utility.yul\":2368:2380   */\n      revert\n        /* \"#utility.yul\":2319:2382   */\n    tag_246:\n        /* \"#utility.yul\":2266:2388   */\n      pop\n      jump\t// out\n        /* \"#utility.yul\":2394:2533   */\n    tag_201:\n        /* \"#utility.yul\":2440:2445   */\n      0x00\n        /* \"#utility.yul\":2478:2484   */\n      dup2\n        /* \"#utility.yul\":2465:2485   */\n      calldataload\n        /* \"#utility.yul\":2456:2485   */\n      swap1\n      pop\n        /* \"#utility.yul\":2494:2527   */\n      tag_248\n        /* \"#utility.yul\":2521:2526   */\n      dup2\n        /* \"#utility.yul\":2494:2527   */\n      tag_200\n      jump\t// in\n    tag_248:\n        /* \"#utility.yul\":2394:2533   */\n      swap3\n      swap2\n      pop\n      pop\n      jump\t// out\n        /* \"#utility.yul\":2539:3013   */\n    tag_26:\n        /* \"#utility.yul\":2607:2613   */\n      0x00\n        /* \"#utility.yul\":2615:2621   */\n      dup1\n        /* \"#utility.yul\":2664:2666   */\n      0x40\n        /* \"#utility.yul\":2652:2661   */\n      dup4\n        /* \"#utility.yul\":2643:2650   */\n      dup6\n        /* \"#utility.yul\":2639:2662   */\n      sub\n        /* \"#utility.yul\":2635:2667   */\n      slt\n        /* \"#utility.yul\":2632:2751   */\n      iszero\n      tag_250\n      jumpi\n        /* \"#utility.yul\":2670:2749   */\n      tag_251\n      tag_193\n      jump\t// in\n    tag_251:\n        /* \"#utility.yul\":2632:2751   */\n    tag_250:\n        /* \"#utility.yul\":2790:2791   */\n      0x00\n        /* \"#utility.yul\":2815:2868   */\n      tag_252\n        /* \"#utility.yul\":2860:2867   */\n      dup6\n        /* \"#utility.yul\":2851:2857   */\n      dup3\n        /* \"#utility.yul\":2840:2849   */\n      dup7\n        /* \"#utility.yul\":2836:2858   */\n      add\n        /* \"#utility.yul\":2815:2868   */\n      tag_198\n      jump\t// in\n    tag_252:\n        /* \"#utility.yul\":2805:2868   */\n      swap3\n      pop\n        /* \"#utility.yul\":2761:2878   */\n      pop\n        /* \"#utility.yul\":2917:2919   */\n      0x20\n        /* \"#utility.yul\":2943:2996   */\n      tag_253\n        /* \"#utility.yul\":2988:2995   */\n      dup6\n        /* \"#utility.yul\":2979:2985   */\n      dup3\n        /* \"#utility.yul\":2968:2977   */\n      dup7\n        /* \"#utility.yul\":2964:2986   */\n      add\n        /* \"#utility.yul\":2943:2996   */\n      tag_201\n      jump\t// in\n    tag_253:\n        /* \"#utility.yul\":2933:2996   */\n      swap2\n      pop\n        /* \"#utility.yul\":2888:3006   */\n      pop\n        /* \"#utility.yul\":2539:3013   */\n      swap3\n      pop\n      swap3\n      swap1\n      pop\n      jump\t// out\n        /* \"#utility.yul\":3019:3109   */\n    tag_202:\n        /* \"#utility.yul\":3053:3060   */\n      0x00\n        /* \"#utility.yul\":3096:3101   */\n      dup2\n        /* \"#utility.yul\":3089:3102   */\n      iszero\n        /* \"#utility.yul\":3082:3103   */\n      iszero\n        /* \"#utility.yul\":3071:3103   */\n      swap1\n      pop\n        /* \"#utility.yul\":3019:3109   */\n      swap2\n      swap1\n      pop\n      jump\t// out\n        /* \"#utility.yul\":3115:3224   */\n    tag_203:\n        /* \"#utility.yul\":3196:3217   */\n      tag_256\n        /* \"#utility.yul\":3211:3216   */\n      dup2\n        /* \"#utility.yul\":3196:3217   */\n      tag_202\n      jump\t// in\n    tag_256:\n        /* \"#utility.yul\":3191:3194   */\n      dup3\n        /* \"#utility.yul\":3184:3218   */\n      mstore\n        /* \"#utility.yul\":3115:3224   */\n      pop\n      pop\n      jump\t// out\n        /* \"#utility.yul\":3230:3440   */\n    tag_29:\n        /* \"#utility.yul\":3317:3321   */\n      0x00\n        /* \"#utility.yul\":3355:3357   */\n      0x20\n        /* \"#utility.yul\":3344:3353   */\n      dup3\n        /* \"#utility.yul\":3340:3358   */\n      add\n        /* \"#utility.yul\":3332:3358   */\n      swap1\n      pop\n        /* \"#utility.yul\":3368:3433   */\n      tag_258\n        /* \"#utility.yul\":3430:3431   */\n      0x00\n        /* \"#utility.yul\":3419:3428   */\n      dup4\n        /* \"#utility.yul\":3415:3432   */\n      add\n        /* \"#utility.yul\":3406:3412   */\n      dup5\n        /* \"#utility.yul\":3368:3433   */\n      tag_203\n      jump\t// in\n    tag_258:\n        /* \"#utility.yul\":3230:3440   */\n      swap3\n      swap2\n      pop\n      pop\n      jump\t// out\n        /* \"#utility.yul\":3446:3564   */\n    tag_204:\n        /* \"#utility.yul\":3533:3557   */\n      tag_260\n        /* \"#utility.yul\":3551:3556   */\n      dup2\n        /* \"#utility.yul\":3533:3557   */\n      tag_199\n      jump\t// in\n    tag_260:\n        /* \"#utility.yul\":3528:3531   */\n      dup3\n        /* \"#utility.yul\":3521:3558   */\n      mstore\n        /* \"#utility.yul\":3446:3564   */\n      pop\n      pop\n      jump\t// out\n        /* \"#utility.yul\":3570:3792   */\n    tag_33:\n        /* \"#utility.yul\":3663:3667   */\n      0x00\n        /* \"#utility.yul\":3701:3703   */\n      0x20\n        /* \"#utility.yul\":3690:3699   */\n      dup3\n        /* \"#utility.yul\":3686:3704   */\n      add\n        /* \"#utility.yul\":3678:3704   */\n      swap1\n      pop\n        /* \"#utility.yul\":3714:3785   */\n      tag_262\n        /* \"#utility.yul\":3782:3783   */\n      0x00\n        /* \"#utility.yul\":3771:3780   */\n      dup4\n        /* \"#utility.yul\":3767:3784   */\n      add\n        /* \"#utility.yul\":3758:3764   */\n      dup5\n        /* \"#utility.yul\":3714:3785   */\n      tag_204\n      jump\t// in\n    tag_262:\n        /* \"#utility.yul\":3570:3792   */\n      swap3\n      swap2\n      pop\n      pop\n      jump\t// out\n        /* \"#utility.yul\":3798:4417   */\n    tag_36:\n        /* \"#utility.yul\":3875:3881   */\n      0x00\n        /* \"#utility.yul\":3883:3889   */\n      dup1\n        /* \"#utility.yul\":3891:3897   */\n      0x00\n        /* \"#utility.yul\":3940:3942   */\n      0x60\n        /* \"#utility.yul\":3928:3937   */\n      dup5\n        /* \"#utility.yul\":3919:3926   */\n      dup7\n        /* \"#utility.yul\":3915:3938   */\n      sub\n        /* \"#utility.yul\":3911:3943   */\n      slt\n        /* \"#utility.yul\":3908:4027   */\n      iszero\n      tag_264\n      jumpi\n        /* \"#utility.yul\":3946:4025   */\n      tag_265\n      tag_193\n      jump\t// in\n    tag_265:\n        /* \"#utility.yul\":3908:4027   */\n    tag_264:\n        /* \"#utility.yul\":4066:4067   */\n      0x00\n        /* \"#utility.yul\":4091:4144   */\n      tag_266\n        /* \"#utility.yul\":4136:4143   */\n      dup7\n        /* \"#utility.yul\":4127:4133   */\n      dup3\n        /* \"#utility.yul\":4116:4125   */\n      dup8\n        /* \"#utility.yul\":4112:4134   */\n      add\n        /* \"#utility.yul\":4091:4144   */\n      tag_198\n      jump\t// in\n    tag_266:\n        /* \"#utility.yul\":4081:4144   */\n      swap4\n      pop\n        /* \"#utility.yul\":4037:4154   */\n      pop\n        /* \"#utility.yul\":4193:4195   */\n      0x20\n        /* \"#utility.yul\":4219:4272   */\n      tag_267\n        /* \"#utility.yul\":4264:4271   */\n      dup7\n        /* \"#utility.yul\":4255:4261   */\n      dup3\n        /* \"#utility.yul\":4244:4253   */\n      dup8\n        /* \"#utility.yul\":4240:4262   */\n      add\n        /* \"#utility.yul\":4219:4272   */\n      tag_198\n      jump\t// in\n    tag_267:\n        /* \"#utility.yul\":4209:4272   */\n      swap3\n      pop\n        /* \"#utility.yul\":4164:4282   */\n      pop\n        /* \"#utility.yul\":4321:4323   */\n      0x40\n        /* \"#utility.yul\":4347:4400   */\n      tag_268\n        /* \"#utility.yul\":4392:4399   */\n      dup7\n        /* \"#utility.yul\":4383:4389   */\n      dup3\n        /* \"#utility.yul\":4372:4381   */\n      dup8\n        /* \"#utility.yul\":4368:4390   */\n      add\n        /* \"#utility.yul\":4347:4400   */\n      tag_201\n      jump\t// in\n    tag_268:\n        /* \"#utility.yul\":4337:4400   */\n      swap2\n      pop\n        /* \"#utility.yul\":4292:4410   */\n      pop\n        /* \"#utility.yul\":3798:4417   */\n      swap3\n      pop\n      swap3\n      pop\n      swap3\n      jump\t// out\n        /* \"#utility.yul\":4423:4509   */\n    tag_205:\n        /* \"#utility.yul\":4458:4465   */\n      0x00\n        /* \"#utility.yul\":4498:4502   */\n      0xff\n        /* \"#utility.yul\":4491:4496   */\n      dup3\n        /* \"#utility.yul\":4487:4503   */\n      and\n        /* \"#utility.yul\":4476:4503   */\n      swap1\n      pop\n        /* \"#utility.yul\":4423:4509   */\n      swap2\n      swap1\n      pop\n      jump\t// out\n        /* \"#utility.yul\":4515:4627   */\n    tag_206:\n        /* \"#utility.yul\":4598:4620   */\n      tag_271\n        /* \"#utility.yul\":4614:4619   */\n      dup2\n        /* \"#utility.yul\":4598:4620   */\n      tag_205\n      jump\t// in\n    tag_271:\n        /* \"#utility.yul\":4593:4596   */\n      dup3\n        /* \"#utility.yul\":4586:4621   */\n      mstore\n        /* \"#utility.yul\":4515:4627   */\n      pop\n      pop\n      jump\t// out\n        /* \"#utility.yul\":4633:4847   */\n    tag_42:\n        /* \"#utility.yul\":4722:4726   */\n      0x00\n        /* \"#utility.yul\":4760:4762   */\n      0x20\n        /* \"#utility.yul\":4749:4758   */\n      dup3\n        /* \"#utility.yul\":4745:4763   */\n      add\n        /* \"#utility.yul\":4737:4763   */\n      swap1\n      pop\n        /* \"#utility.yul\":4773:4840   */\n      tag_273\n        /* \"#utility.yul\":4837:4838   */\n      0x00\n        /* \"#utility.yul\":4826:4835   */\n      dup4\n        /* \"#utility.yul\":4822:4839   */\n      add\n        /* \"#utility.yul\":4813:4819   */\n      dup5\n        /* \"#utility.yul\":4773:4840   */\n      tag_206\n      jump\t// in\n    tag_273:\n        /* \"#utility.yul\":4633:4847   */\n      swap3\n      swap2\n      pop\n      pop\n      jump\t// out\n        /* \"#utility.yul\":4853:5182   */\n    tag_48:\n        /* \"#utility.yul\":4912:4918   */\n      0x00\n        /* \"#utility.yul\":4961:4963   */\n      0x20\n        /* \"#utility.yul\":4949:4958   */\n      dup3\n        /* \"#utility.yul\":4940:4947   */\n      dup5\n        /* \"#utility.yul\":4936:4959   */\n      sub\n        /* \"#utility.yul\":4932:4964   */\n      slt\n        /* \"#utility.yul\":4929:5048   */\n      iszero\n      tag_275\n      jumpi\n        /* \"#utility.yul\":4967:5046   */\n      tag_276\n      tag_193\n      jump\t// in\n    tag_276:\n        /* \"#utility.yul\":4929:5048   */\n    tag_275:\n        /* \"#utility.yul\":5087:5088   */\n      0x00\n        /* \"#utility.yul\":5112:5165   */\n      tag_277\n        /* \"#utility.yul\":5157:5164   */\n      dup5\n        /* \"#utility.yul\":5148:5154   */\n      dup3\n        /* \"#utility.yul\":5137:5146   */\n      dup6\n        /* \"#utility.yul\":5133:5155   */\n      add\n        /* \"#utility.yul\":5112:5165   */\n      tag_198\n      jump\t// in\n    tag_277:\n        /* \"#utility.yul\":5102:5165   */\n      swap2\n      pop\n        /* \"#utility.yul\":5058:5175   */\n      pop\n        /* \"#utility.yul\":4853:5182   */\n      swap3\n      swap2\n      pop\n      pop\n      jump\t// out\n        /* \"#utility.yul\":5188:5305   */\n    tag_207:\n        /* \"#utility.yul\":5297:5298   */\n      0x00\n        /* \"#utility.yul\":5294:5295   */\n      dup1\n        /* \"#utility.yul\":5287:5299   */\n      revert\n        /* \"#utility.yul\":5311:5428   */\n    tag_208:\n        /* \"#utility.yul\":5420:5421   */\n      0x00\n        /* \"#utility.yul\":5417:5418   */\n      dup1\n        /* \"#utility.yul\":5410:5422   */\n      revert\n        /* \"#utility.yul\":5434:5551   */\n    tag_209:\n        /* \"#utility.yul\":5543:5544   */\n      0x00\n        /* \"#utility.yul\":5540:5541   */\n      dup1\n        /* \"#utility.yul\":5533:5545   */\n      revert\n        /* \"#utility.yul\":5574:6142   */\n    tag_210:\n        /* \"#utility.yul\":5647:5655   */\n      0x00\n        /* \"#utility.yul\":5657:5663   */\n      dup1\n        /* \"#utility.yul\":5707:5710   */\n      dup4\n        /* \"#utility.yul\":5700:5704   */\n      0x1f\n        /* \"#utility.yul\":5692:5698   */\n      dup5\n        /* \"#utility.yul\":5688:5705   */\n      add\n        /* \"#utility.yul\":5684:5711   */\n      slt\n        /* \"#utility.yul\":5674:5796   */\n      tag_282\n      jumpi\n        /* \"#utility.yul\":5715:5794   */\n      tag_283\n      tag_207\n      jump\t// in\n    tag_283:\n        /* \"#utility.yul\":5674:5796   */\n    tag_282:\n        /* \"#utility.yul\":5828:5834   */\n      dup3\n        /* \"#utility.yul\":5815:5835   */\n      calldataload\n        /* \"#utility.yul\":5805:5835   */\n      swap1\n      pop\n        /* \"#utility.yul\":5858:5876   */\n      0xffffffffffffffff\n        /* \"#utility.yul\":5850:5856   */\n      dup2\n        /* \"#utility.yul\":5847:5877   */\n      gt\n        /* \"#utility.yul\":5844:5961   */\n      iszero\n      tag_284\n      jumpi\n        /* \"#utility.yul\":5880:5959   */\n      tag_285\n      tag_208\n      jump\t// in\n    tag_285:\n        /* \"#utility.yul\":5844:5961   */\n    tag_284:\n        /* \"#utility.yul\":5994:5998   */\n      0x20\n        /* \"#utility.yul\":5986:5992   */\n      dup4\n        /* \"#utility.yul\":5982:5999   */\n      add\n        /* \"#utility.yul\":5970:5999   */\n      swap2\n      pop\n        /* \"#utility.yul\":6048:6051   */\n      dup4\n        /* \"#utility.yul\":6040:6044   */\n      0x20\n        /* \"#utility.yul\":6032:6038   */\n      dup3\n        /* \"#utility.yul\":6028:6045   */\n      mul\n        /* \"#utility.yul\":6018:6026   */\n      dup4\n        /* \"#utility.yul\":6014:6046   */\n      add\n        /* \"#utility.yul\":6011:6052   */\n      gt\n        /* \"#utility.yul\":6008:6136   */\n      iszero\n      tag_286\n      jumpi\n        /* \"#utility.yul\":6055:6134   */\n      tag_287\n      tag_209\n      jump\t// in\n    tag_287:\n        /* \"#utility.yul\":6008:6136   */\n    tag_286:\n        /* \"#utility.yul\":5574:6142   */\n      swap3\n      pop\n      swap3\n      swap1\n      pop\n      jump\t// out\n        /* \"#utility.yul\":6165:6733   */\n    tag_211:\n        /* \"#utility.yul\":6238:6246   */\n      0x00\n        /* \"#utility.yul\":6248:6254   */\n      dup1\n        /* \"#utility.yul\":6298:6301   */\n      dup4\n        /* \"#utility.yul\":6291:6295   */\n      0x1f\n        /* \"#utility.yul\":6283:6289   */\n      dup5\n        /* \"#utility.yul\":6279:6296   */\n      add\n        /* \"#utility.yul\":6275:6302   */\n      slt\n        /* \"#utility.yul\":6265:6387   */\n      tag_289\n      jumpi\n        /* \"#utility.yul\":6306:6385   */\n      tag_290\n      tag_207\n      jump\t// in\n    tag_290:\n        /* \"#utility.yul\":6265:6387   */\n    tag_289:\n        /* \"#utility.yul\":6419:6425   */\n      dup3\n        /* \"#utility.yul\":6406:6426   */\n      calldataload\n        /* \"#utility.yul\":6396:6426   */\n      swap1\n      pop\n        /* \"#utility.yul\":6449:6467   */\n      0xffffffffffffffff\n        /* \"#utility.yul\":6441:6447   */\n      dup2\n        /* \"#utility.yul\":6438:6468   */\n      gt\n        /* \"#utility.yul\":6435:6552   */\n      iszero\n      tag_291\n      jumpi\n        /* \"#utility.yul\":6471:6550   */\n      tag_292\n      tag_208\n      jump\t// in\n    tag_292:\n        /* \"#utility.yul\":6435:6552   */\n    tag_291:\n        /* \"#utility.yul\":6585:6589   */\n      0x20\n        /* \"#utility.yul\":6577:6583   */\n      dup4\n        /* \"#utility.yul\":6573:6590   */\n      add\n        /* \"#utility.yul\":6561:6590   */\n      swap2\n      pop\n        /* \"#utility.yul\":6639:6642   */\n      dup4\n        /* \"#utility.yul\":6631:6635   */\n      0x20\n        /* \"#utility.yul\":6623:6629   */\n      dup3\n        /* \"#utility.yul\":6619:6636   */\n      mul\n        /* \"#utility.yul\":6609:6617   */\n      dup4\n        /* \"#utility.yul\":6605:6637   */\n      add\n        /* \"#utility.yul\":6602:6643   */\n      gt\n        /* \"#utility.yul\":6599:6727   */\n      iszero\n      tag_293\n      jumpi\n        /* \"#utility.yul\":6646:6725   */\n      tag_294\n      tag_209\n      jump\t// in\n    tag_294:\n        /* \"#utility.yul\":6599:6727   */\n    tag_293:\n        /* \"#utility.yul\":6165:6733   */\n      swap3\n      pop\n      swap3\n      swap1\n      pop\n      jump\t// out\n        /* \"#utility.yul\":6739:7673   */\n    tag_55:\n        /* \"#utility.yul\":6861:6867   */\n      0x00\n        /* \"#utility.yul\":6869:6875   */\n      dup1\n        /* \"#utility.yul\":6877:6883   */\n      0x00\n        /* \"#utility.yul\":6885:6891   */\n      dup1\n        /* \"#utility.yul\":6934:6936   */\n      0x40\n        /* \"#utility.yul\":6922:6931   */\n      dup6\n        /* \"#utility.yul\":6913:6920   */\n      dup8\n        /* \"#utility.yul\":6909:6932   */\n      sub\n        /* \"#utility.yul\":6905:6937   */\n      slt\n        /* \"#utility.yul\":6902:7021   */\n      iszero\n      tag_296\n      jumpi\n        /* \"#utility.yul\":6940:7019   */\n      tag_297\n      tag_193\n      jump\t// in\n    tag_297:\n        /* \"#utility.yul\":6902:7021   */\n    tag_296:\n        /* \"#utility.yul\":7088:7089   */\n      0x00\n        /* \"#utility.yul\":7077:7086   */\n      dup6\n        /* \"#utility.yul\":7073:7090   */\n      add\n        /* \"#utility.yul\":7060:7091   */\n      calldataload\n        /* \"#utility.yul\":7118:7136   */\n      0xffffffffffffffff\n        /* \"#utility.yul\":7110:7116   */\n      dup2\n        /* \"#utility.yul\":7107:7137   */\n      gt\n        /* \"#utility.yul\":7104:7221   */\n      iszero\n      tag_298\n      jumpi\n        /* \"#utility.yul\":7140:7219   */\n      tag_299\n      tag_194\n      jump\t// in\n    tag_299:\n        /* \"#utility.yul\":7104:7221   */\n    tag_298:\n        /* \"#utility.yul\":7253:7333   */\n      tag_300\n        /* \"#utility.yul\":7325:7332   */\n      dup8\n        /* \"#utility.yul\":7316:7322   */\n      dup3\n        /* \"#utility.yul\":7305:7314   */\n      dup9\n        /* \"#utility.yul\":7301:7323   */\n      add\n        /* \"#utility.yul\":7253:7333   */\n      tag_210\n      jump\t// in\n    tag_300:\n        /* \"#utility.yul\":7235:7333   */\n      swap5\n      pop\n      swap5\n      pop\n        /* \"#utility.yul\":7031:7343   */\n      pop\n        /* \"#utility.yul\":7410:7412   */\n      0x20\n        /* \"#utility.yul\":7399:7408   */\n      dup6\n        /* \"#utility.yul\":7395:7413   */\n      add\n        /* \"#utility.yul\":7382:7414   */\n      calldataload\n        /* \"#utility.yul\":7441:7459   */\n      0xffffffffffffffff\n        /* \"#utility.yul\":7433:7439   */\n      dup2\n        /* \"#utility.yul\":7430:7460   */\n      gt\n        /* \"#utility.yul\":7427:7544   */\n      iszero\n      tag_301\n      jumpi\n        /* \"#utility.yul\":7463:7542   */\n      tag_302\n      tag_194\n      jump\t// in\n    tag_302:\n        /* \"#utility.yul\":7427:7544   */\n    tag_301:\n        /* \"#utility.yul\":7576:7656   */\n      tag_303\n        /* \"#utility.yul\":7648:7655   */\n      dup8\n        /* \"#utility.yul\":7639:7645   */\n      dup3\n        /* \"#utility.yul\":7628:7637   */\n      dup9\n        /* \"#utility.yul\":7624:7646   */\n      add\n        /* \"#utility.yul\":7576:7656   */\n      tag_211\n      jump\t// in\n    tag_303:\n        /* \"#utility.yul\":7558:7656   */\n      swap3\n      pop\n      swap3\n      pop\n        /* \"#utility.yul\":7353:7666   */\n      pop\n        /* \"#utility.yul\":6739:7673   */\n      swap3\n      swap6\n      swap2\n      swap5\n      pop\n      swap3\n      pop\n      jump\t// out\n        /* \"#utility.yul\":7679:7797   */\n    tag_212:\n        /* \"#utility.yul\":7766:7790   */\n      tag_305\n        /* \"#utility.yul\":7784:7789   */\n      dup2\n        /* \"#utility.yul\":7766:7790   */\n      tag_196\n      jump\t// in\n    tag_305:\n        /* \"#utility.yul\":7761:7764   */\n      dup3\n        /* \"#utility.yul\":7754:7791   */\n      mstore\n        /* \"#utility.yul\":7679:7797   */\n      pop\n      pop\n      jump\t// out\n        /* \"#utility.yul\":7803:8025   */\n    tag_60:\n        /* \"#utility.yul\":7896:7900   */\n      0x00\n        /* \"#utility.yul\":7934:7936   */\n      0x20\n        /* \"#utility.yul\":7923:7932   */\n      dup3\n        /* \"#utility.yul\":7919:7937   */\n      add\n        /* \"#utility.yul\":7911:7937   */\n      swap1\n      pop\n        /* \"#utility.yul\":7947:8018   */\n      tag_307\n        /* \"#utility.yul\":8015:8016   */\n      0x00\n        /* \"#utility.yul\":8004:8013   */\n      dup4\n        /* \"#utility.yul\":8000:8017   */\n      add\n        /* \"#utility.yul\":7991:7997   */\n      dup5\n        /* \"#utility.yul\":7947:8018   */\n      tag_212\n      jump\t// in\n    tag_307:\n        /* \"#utility.yul\":7803:8025   */\n      swap3\n      swap2\n      pop\n      pop\n      jump\t// out\n        /* \"#utility.yul\":8031:8505   */\n    tag_70:\n        /* \"#utility.yul\":8099:8105   */\n      0x00\n        /* \"#utility.yul\":8107:8113   */\n      dup1\n        /* \"#utility.yul\":8156:8158   */\n      0x40\n        /* \"#utility.yul\":8144:8153   */\n      dup4\n        /* \"#utility.yul\":8135:8142   */\n      dup6\n        /* \"#utility.yul\":8131:8154   */\n      sub\n        /* \"#utility.yul\":8127:8159   */\n      slt\n        /* \"#utility.yul\":8124:8243   */\n      iszero\n      tag_309\n      jumpi\n        /* \"#utility.yul\":8162:8241   */\n      tag_310\n      tag_193\n      jump\t// in\n    tag_310:\n        /* \"#utility.yul\":8124:8243   */\n    tag_309:\n        /* \"#utility.yul\":8282:8283   */\n      0x00\n        /* \"#utility.yul\":8307:8360   */\n      tag_311\n        /* \"#utility.yul\":8352:8359   */\n      dup6\n        /* \"#utility.yul\":8343:8349   */\n      dup3\n        /* \"#utility.yul\":8332:8341   */\n      dup7\n        /* \"#utility.yul\":8328:8350   */\n      add\n        /* \"#utility.yul\":8307:8360   */\n      tag_198\n      jump\t// in\n    tag_311:\n        /* \"#utility.yul\":8297:8360   */\n      swap3\n      pop\n        /* \"#utility.yul\":8253:8370   */\n      pop\n        /* \"#utility.yul\":8409:8411   */\n      0x20\n        /* \"#utility.yul\":8435:8488   */\n      tag_312\n        /* \"#utility.yul\":8480:8487   */\n      dup6\n        /* \"#utility.yul\":8471:8477   */\n      dup3\n        /* \"#utility.yul\":8460:8469   */\n      dup7\n        /* \"#utility.yul\":8456:8478   */\n      add\n        /* \"#utility.yul\":8435:8488   */\n      tag_198\n      jump\t// in\n    tag_312:\n        /* \"#utility.yul\":8425:8488   */\n      swap2\n      pop\n        /* \"#utility.yul\":8380:8498   */\n      pop\n        /* \"#utility.yul\":8031:8505   */\n      swap3\n      pop\n      swap3\n      swap1\n      pop\n      jump\t// out\n        /* \"#utility.yul\":8511:8691   */\n    tag_213:\n        /* \"#utility.yul\":8559:8636   */\n      0x4e487b7100000000000000000000000000000000000000000000000000000000\n        /* \"#utility.yul\":8556:8557   */\n      0x00\n        /* \"#utility.yul\":8549:8637   */\n      mstore\n        /* \"#utility.yul\":8656:8660   */\n      0x22\n        /* \"#utility.yul\":8653:8654   */\n      0x04\n        /* \"#utility.yul\":8646:8661   */\n      mstore\n        /* \"#utility.yul\":8680:8684   */\n      0x24\n        /* \"#utility.yul\":8677:8678   */\n      0x00\n        /* \"#utility.yul\":8670:8685   */\n      revert\n        /* \"#utility.yul\":8697:9017   */\n    tag_78:\n        /* \"#utility.yul\":8741:8747   */\n      0x00\n        /* \"#utility.yul\":8778:8779   */\n      0x02\n        /* \"#utility.yul\":8772:8776   */\n      dup3\n        /* \"#utility.yul\":8768:8780   */\n      div\n        /* \"#utility.yul\":8758:8780   */\n      swap1\n      pop\n        /* \"#utility.yul\":8825:8826   */\n      0x01\n        /* \"#utility.yul\":8819:8823   */\n      dup3\n        /* \"#utility.yul\":8815:8827   */\n      and\n        /* \"#utility.yul\":8846:8864   */\n      dup1\n        /* \"#utility.yul\":8836:8917   */\n      tag_315\n      jumpi\n        /* \"#utility.yul\":8902:8906   */\n      0x7f\n        /* \"#utility.yul\":8894:8900   */\n      dup3\n        /* \"#utility.yul\":8890:8907   */\n      and\n        /* \"#utility.yul\":8880:8907   */\n      swap2\n      pop\n        /* \"#utility.yul\":8836:8917   */\n    tag_315:\n        /* \"#utility.yul\":8964:8966   */\n      0x20\n        /* \"#utility.yul\":8956:8962   */\n      dup3\n        /* \"#utility.yul\":8953:8967   */\n      lt\n        /* \"#utility.yul\":8933:8951   */\n      dup2\n        /* \"#utility.yul\":8930:8968   */\n      sub\n        /* \"#utility.yul\":8927:9011   */\n      tag_316\n      jumpi\n        /* \"#utility.yul\":8983:9001   */\n      tag_317\n      tag_213\n      jump\t// in\n    tag_317:\n        /* \"#utility.yul\":8927:9011   */\n    tag_316:\n        /* \"#utility.yul\":8748:9017   */\n      pop\n        /* \"#utility.yul\":8697:9017   */\n      swap2\n      swap1\n      pop\n      jump\t// out\n        /* \"#utility.yul\":9023:9248   */\n    tag_214:\n        /* \"#utility.yul\":9163:9197   */\n      0x526563697069656e747320616e6420616d6f756e7473206c656e677468206d69\n        /* \"#utility.yul\":9159:9160   */\n      0x00\n        /* \"#utility.yul\":9151:9157   */\n      dup3\n        /* \"#utility.yul\":9147:9161   */\n      add\n        /* \"#utility.yul\":9140:9198   */\n      mstore\n        /* \"#utility.yul\":9232:9240   */\n      0x736d617463680000000000000000000000000000000000000000000000000000\n        /* \"#utility.yul\":9227:9229   */\n      0x20\n        /* \"#utility.yul\":9219:9225   */\n      dup3\n        /* \"#utility.yul\":9215:9230   */\n      add\n        /* \"#utility.yul\":9208:9241   */\n      mstore\n        /* \"#utility.yul\":9023:9248   */\n      pop\n      jump\t// out\n        /* \"#utility.yul\":9254:9620   */\n    tag_215:\n        /* \"#utility.yul\":9396:9399   */\n      0x00\n        /* \"#utility.yul\":9417:9484   */\n      tag_320\n        /* \"#utility.yul\":9481:9483   */\n      0x26\n        /* \"#utility.yul\":9476:9479   */\n      dup4\n        /* \"#utility.yul\":9417:9484   */\n      tag_188\n      jump\t// in\n    tag_320:\n        /* \"#utility.yul\":9410:9484   */\n      swap2\n      pop\n        /* \"#utility.yul\":9493:9586   */\n      tag_321\n        /* \"#utility.yul\":9582:9585   */\n      dup3\n        /* \"#utility.yul\":9493:9586   */\n      tag_214\n      jump\t// in\n    tag_321:\n        /* \"#utility.yul\":9611:9613   */\n      0x40\n        /* \"#utility.yul\":9606:9609   */\n      dup3\n        /* \"#utility.yul\":9602:9614   */\n      add\n        /* \"#utility.yul\":9595:9614   */\n      swap1\n      pop\n        /* \"#utility.yul\":9254:9620   */\n      swap2\n      swap1\n      pop\n      jump\t// out\n        /* \"#utility.yul\":9626:10045   */\n    tag_111:\n        /* \"#utility.yul\":9792:9796   */\n      0x00\n        /* \"#utility.yul\":9830:9832   */\n      0x20\n        /* \"#utility.yul\":9819:9828   */\n      dup3\n        /* \"#utility.yul\":9815:9833   */\n      add\n        /* \"#utility.yul\":9807:9833   */\n      swap1\n      pop\n        /* \"#utility.yul\":9879:9888   */\n      dup2\n        /* \"#utility.yul\":9873:9877   */\n      dup2\n        /* \"#utility.yul\":9869:9889   */\n      sub\n        /* \"#utility.yul\":9865:9866   */\n      0x00\n        /* \"#utility.yul\":9854:9863   */\n      dup4\n        /* \"#utility.yul\":9850:9867   */\n      add\n        /* \"#utility.yul\":9843:9890   */\n      mstore\n        /* \"#utility.yul\":9907:10038   */\n      tag_323\n        /* \"#utility.yul\":10033:10037   */\n      dup2\n        /* \"#utility.yul\":9907:10038   */\n      tag_215\n      jump\t// in\n    tag_323:\n        /* \"#utility.yul\":9899:10038   */\n      swap1\n      pop\n        /* \"#utility.yul\":9626:10045   */\n      swap2\n      swap1\n      pop\n      jump\t// out\n        /* \"#utility.yul\":10051:10231   */\n    tag_118:\n        /* \"#utility.yul\":10099:10176   */\n      0x4e487b7100000000000000000000000000000000000000000000000000000000\n        /* \"#utility.yul\":10096:10097   */\n      0x00\n        /* \"#utility.yul\":10089:10177   */\n      mstore\n        /* \"#utility.yul\":10196:10200   */\n      0x32\n        /* \"#utility.yul\":10193:10194   */\n      0x04\n        /* \"#utility.yul\":10186:10201   */\n      mstore\n        /* \"#utility.yul\":10220:10224   */\n      0x24\n        /* \"#utility.yul\":10217:10218   */\n      0x00\n        /* \"#utility.yul\":10210:10225   */\n      revert\n        /* \"#utility.yul\":10237:10417   */\n    tag_216:\n        /* \"#utility.yul\":10285:10362   */\n      0x4e487b7100000000000000000000000000000000000000000000000000000000\n        /* \"#utility.yul\":10282:10283   */\n      0x00\n        /* \"#utility.yul\":10275:10363   */\n      mstore\n        /* \"#utility.yul\":10382:10386   */\n      0x11\n        /* \"#utility.yul\":10379:10380   */\n      0x04\n        /* \"#utility.yul\":10372:10387   */\n      mstore\n        /* \"#utility.yul\":10406:10410   */\n      0x24\n        /* \"#utility.yul\":10403:10404   */\n      0x00\n        /* \"#utility.yul\":10396:10411   */\n      revert\n        /* \"#utility.yul\":10423:10656   */\n    tag_123:\n        /* \"#utility.yul\":10462:10465   */\n      0x00\n        /* \"#utility.yul\":10485:10509   */\n      tag_327\n        /* \"#utility.yul\":10503:10508   */\n      dup3\n        /* \"#utility.yul\":10485:10509   */\n      tag_199\n      jump\t// in\n    tag_327:\n        /* \"#utility.yul\":10476:10509   */\n      swap2\n      pop\n        /* \"#utility.yul\":10531:10597   */\n      0xffffffffffffffffffffffffffffffffffffffffffffffffffffffffffffffff\n        /* \"#utility.yul\":10524:10529   */\n      dup3\n        /* \"#utility.yul\":10521:10598   */\n      sub\n        /* \"#utility.yul\":10518:10621   */\n      tag_328\n      jumpi\n        /* \"#utility.yul\":10601:10619   */\n      tag_329\n      tag_216\n      jump\t// in\n    tag_329:\n        /* \"#utility.yul\":10518:10621   */\n    tag_328:\n        /* \"#utility.yul\":10648:10649   */\n      0x01\n        /* \"#utility.yul\":10641:10646   */\n      dup3\n        /* \"#utility.yul\":10637:10650   */\n      add\n        /* \"#utility.yul\":10630:10650   */\n      swap1\n      pop\n        /* \"#utility.yul\":10423:10656   */\n      swap2\n      swap1\n      pop\n      jump\t// out\n        /* \"#utility.yul\":10662:11104   */\n    tag_150:\n        /* \"#utility.yul\":10811:10815   */\n      0x00\n        /* \"#utility.yul\":10849:10851   */\n      0x60\n        /* \"#utility.yul\":10838:10847   */\n      dup3\n        /* \"#utility.yul\":10834:10852   */\n      add\n        /* \"#utility.yul\":10826:10852   */\n      swap1\n      pop\n        /* \"#utility.yul\":10862:10933   */\n      tag_331\n        /* \"#utility.yul\":10930:10931   */\n      0x00\n        /* \"#utility.yul\":10919:10928   */\n      dup4\n        /* \"#utility.yul\":10915:10932   */\n      add\n        /* \"#utility.yul\":10906:10912   */\n      dup7\n        /* \"#utility.yul\":10862:10933   */\n      tag_212\n      jump\t// in\n    tag_331:\n        /* \"#utility.yul\":10943:11015   */\n      tag_332\n        /* \"#utility.yul\":11011:11013   */\n      0x20\n        /* \"#utility.yul\":11000:11009   */\n      dup4\n        /* \"#utility.yul\":10996:11014   */\n      add\n        /* \"#utility.yul\":10987:10993   */\n      dup6\n        /* \"#utility.yul\":10943:11015   */\n      tag_204\n      jump\t// in\n    tag_332:\n        /* \"#utility.yul\":11025:11097   */\n      tag_333\n        /* \"#utility.yul\":11093:11095   */\n      0x40\n        /* \"#utility.yul\":11082:11091   */\n      dup4\n        /* \"#utility.yul\":11078:11096   */\n      add\n        /* \"#utility.yul\":11069:11075   */\n      dup5\n        /* \"#utility.yul\":11025:11097   */\n      tag_204\n      jump\t// in\n    tag_333:\n        /* \"#utility.yul\":10662:11104   */\n      swap5\n      swap4\n      pop\n      pop\n      pop\n      pop\n      jump\t// out\n        /* \"#utility.yul\":11110:11301   */\n    tag_180:\n        /* \"#utility.yul\":11150:11153   */\n      0x00\n        /* \"#utility.yul\":11169:11189   */\n      tag_335\n        /* \"#utility.yul\":11187:11188   */\n      dup3\n        /* \"#utility.yul\":11169:11189   */\n      tag_199\n      jump\t// in\n    tag_335:\n        /* \"#utility.yul\":11164:11189   */\n      swap2\n      pop\n        /* \"#utility.yul\":11203:11223   */\n      tag_336\n        /* \"#utility.yul\":11221:11222   */\n      dup4\n        /* \"#utility.yul\":11203:11223   */\n      tag_199\n      jump\t// in\n    tag_336:\n        /* \"#utility.yul\":11198:11223   */\n      swap3\n      pop\n        /* \"#utility.yul\":11246:11247   */\n      dup3\n        /* \"#utility.yul\":11243:11244   */\n      dup3\n        /* \"#utility.yul\":11239:11248   */\n      add\n        /* \"#utility.yul\":11232:11248   */\n      swap1\n      pop\n        /* \"#utility.yul\":11267:11270   */\n      dup1\n        /* \"#utility.yul\":11264:11265   */\n      dup3\n        /* \"#utility.yul\":11261:11271   */\n      gt\n        /* \"#utility.yul\":11258:11294   */\n      iszero\n      tag_337\n      jumpi\n        /* \"#utility.yul\":11274:11292   */\n      tag_338\n      tag_216\n      jump\t// in\n    tag_338:\n        /* \"#utility.yul\":11258:11294   */\n    tag_337:\n        /* \"#utility.yul\":11110:11301   */\n      swap3\n      swap2\n      pop\n      pop\n      jump\t// out\n\n    auxdata: 0xa2646970667358221220268c1b7a7188483071cb0b974c1493d4006cc1e492696b8a34b63aeb9aca61f264736f6c63430008140033\n}\n",
				"bytecode": {
					"linkReferences": {},
					"object": "608060405234801562000010575f80fd5b50604051620021f1380380620021f183398181016040528101906200003691906200069f565b33848481600390816200004a91906200097a565b5080600490816200005c91906200097a565b5050505f73ffffffffffffffffffffffffffffffffffffffff168173ffffffffffffffffffffffffffffffffffffffff1603620000d2575f6040517f1e4fbdf7000000000000000000000000000000000000000000000000000000008152600401620000c9919062000aa1565b60405180910390fd5b620000e3816200013660201b60201c565b5081600560146101000a81548160ff021916908360ff1602179055506200012c3383600a62000113919062000c39565b8362000120919062000c89565b620001f960201b60201c565b5050505062000d74565b5f60055f9054906101000a900473ffffffffffffffffffffffffffffffffffffffff1690508160055f6101000a81548173ffffffffffffffffffffffffffffffffffffffff021916908373ffffffffffffffffffffffffffffffffffffffff1602179055508173ffffffffffffffffffffffffffffffffffffffff168173ffffffffffffffffffffffffffffffffffffffff167f8be0079c531659141344cd1fd0a4f28419497f9722a3daafe3b4186f6b6457e060405160405180910390a35050565b5f73ffffffffffffffffffffffffffffffffffffffff168273ffffffffffffffffffffffffffffffffffffffff16036200026c575f6040517fec442f0500000000000000000000000000000000000000000000000000000000815260040162000263919062000aa1565b60405180910390fd5b6200027f5f83836200028360201b60201c565b5050565b5f73ffffffffffffffffffffffffffffffffffffffff168373ffffffffffffffffffffffffffffffffffffffff1603620002d7578060025f828254620002ca919062000cd3565b92505081905550620003a8565b5f805f8573ffffffffffffffffffffffffffffffffffffffff1673ffffffffffffffffffffffffffffffffffffffff1681526020019081526020015f205490508181101562000363578381836040517fe450d38c0000000000000000000000000000000000000000000000000000000081526004016200035a9392919062000d1e565b60405180910390fd5b8181035f808673ffffffffffffffffffffffffffffffffffffffff1673ffffffffffffffffffffffffffffffffffffffff1681526020019081526020015f2081905550505b5f73ffffffffffffffffffffffffffffffffffffffff168273ffffffffffffffffffffffffffffffffffffffff1603620003f1578060025f82825403925050819055506200043b565b805f808473ffffffffffffffffffffffffffffffffffffffff1673ffffffffffffffffffffffffffffffffffffffff1681526020019081526020015f205f82825401925050819055505b8173ffffffffffffffffffffffffffffffffffffffff168373ffffffffffffffffffffffffffffffffffffffff167fddf252ad1be2c89b69c2b068fc378daa952ba7f163c4a11628f55a4df523b3ef836040516200049a919062000d59565b60405180910390a3505050565b5f604051905090565b5f80fd5b5f80fd5b5f80fd5b5f80fd5b5f601f19601f8301169050919050565b7f4e487b71000000000000000000000000000000000000000000000000000000005f52604160045260245ffd5b6200050882620004c0565b810181811067ffffffffffffffff821117156200052a5762000529620004d0565b5b80604052505050565b5f6200053e620004a7565b90506200054c8282620004fd565b919050565b5f67ffffffffffffffff8211156200056e576200056d620004d0565b5b6200057982620004c0565b9050602081019050919050565b5f5b83811015620005a557808201518184015260208101905062000588565b5f8484015250505050565b5f620005c6620005c08462000551565b62000533565b905082815260208101848484011115620005e557620005e4620004bc565b5b620005f284828562000586565b509392505050565b5f82601f830112620006115762000610620004b8565b5b815162000623848260208601620005b0565b91505092915050565b5f60ff82169050919050565b62000643816200062c565b81146200064e575f80fd5b50565b5f81519050620006618162000638565b92915050565b5f819050919050565b6200067b8162000667565b811462000686575f80fd5b50565b5f81519050620006998162000670565b92915050565b5f805f8060808587031215620006ba57620006b9620004b0565b5b5f85015167ffffffffffffffff811115620006da57620006d9620004b4565b5b620006e887828801620005fa565b945050602085015167ffffffffffffffff8111156200070c576200070b620004b4565b5b6200071a87828801620005fa565b93505060406200072d8782880162000651565b9250506060620007408782880162000689565b91505092959194509250565b5f81519050919050565b7f4e487b71000000000000000000000000000000000000000000000000000000005f52602260045260245ffd5b5f60028204905060018216806200079b57607f821691505b602082108103620007b157620007b062000756565b5b50919050565b5f819050815f5260205f209050919050565b5f6020601f8301049050919050565b5f82821b905092915050565b5f60088302620008157fffffffffffffffffffffffffffffffffffffffffffffffffffffffffffffffff82620007d8565b620008218683620007d8565b95508019841693508086168417925050509392505050565b5f819050919050565b5f620008626200085c620008568462000667565b62000839565b62000667565b9050919050565b5f819050919050565b6200087d8362000842565b620008956200088c8262000869565b848454620007e4565b825550505050565b5f90565b620008ab6200089d565b620008b881848462000872565b505050565b5b81811015620008df57620008d35f82620008a1565b600181019050620008be565b5050565b601f8211156200092e57620008f881620007b7565b6200090384620007c9565b8101602085101562000913578190505b6200092b6200092285620007c9565b830182620008bd565b50505b505050565b5f82821c905092915050565b5f620009505f198460080262000933565b1980831691505092915050565b5f6200096a83836200093f565b9150826002028217905092915050565b62000985826200074c565b67ffffffffffffffff811115620009a157620009a0620004d0565b5b620009ad825462000783565b620009ba828285620008e3565b5f60209050601f831160018114620009f0575f8415620009db578287015190505b620009e785826200095d565b86555062000a56565b601f19841662000a0086620007b7565b5f5b8281101562000a295784890151825560018201915060208501945060208101905062000a02565b8683101562000a49578489015162000a45601f8916826200093f565b8355505b6001600288020188555050505b505050505050565b5f73ffffffffffffffffffffffffffffffffffffffff82169050919050565b5f62000a898262000a5e565b9050919050565b62000a9b8162000a7d565b82525050565b5f60208201905062000ab65f83018462000a90565b92915050565b7f4e487b71000000000000000000000000000000000000000000000000000000005f52601160045260245ffd5b5f8160011c9050919050565b5f808291508390505b600185111562000b465780860481111562000b1e5762000b1d62000abc565b5b600185161562000b2e5780820291505b808102905062000b3e8562000ae9565b945062000afe565b94509492505050565b5f8262000b60576001905062000c32565b8162000b6f575f905062000c32565b816001811462000b88576002811462000b935762000bc9565b600191505062000c32565b60ff84111562000ba85762000ba762000abc565b5b8360020a91508482111562000bc25762000bc162000abc565b5b5062000c32565b5060208310610133831016604e8410600b841016171562000c035782820a90508381111562000bfd5762000bfc62000abc565b5b62000c32565b62000c12848484600162000af5565b9250905081840481111562000c2c5762000c2b62000abc565b5b81810290505b9392505050565b5f62000c458262000667565b915062000c52836200062c565b925062000c817fffffffffffffffffffffffffffffffffffffffffffffffffffffffffffffffff848462000b4f565b905092915050565b5f62000c958262000667565b915062000ca28362000667565b925082820262000cb28162000667565b9150828204841483151762000ccc5762000ccb62000abc565b5b5092915050565b5f62000cdf8262000667565b915062000cec8362000667565b925082820190508082111562000d075762000d0662000abc565b5b92915050565b62000d188162000667565b82525050565b5f60608201905062000d335f83018662000a90565b62000d42602083018562000d0d565b62000d51604083018462000d0d565b949350505050565b5f60208201905062000d6e5f83018462000d0d565b92915050565b61146f8062000d825f395ff3fe608060405234801561000f575f80fd5b50600436106100e8575f3560e01c8063715018a61161008a57806395d89b411161006457806395d89b4114610236578063a9059cbb14610254578063dd62ed3e14610284578063f2fde38b146102b4576100e8565b8063715018a6146101f257806388d695b2146101fc5780638da5cb5b14610218576100e8565b806323b872dd116100c657806323b872dd14610158578063313ce5671461018857806340c10f19146101a657806370a08231146101c2576100e8565b806306fdde03146100ec578063095ea7b31461010a57806318160ddd1461013a575b5f80fd5b6100f46102d0565b6040516101019190610eae565b60405180910390f35b610124600480360381019061011f9190610f63565b610360565b6040516101319190610fbb565b60405180910390f35b610142610382565b60405161014f9190610fe3565b60405180910390f35b610172600480360381019061016d9190610ffc565b61038b565b60405161017f9190610fbb565b60405180910390f35b6101906103b9565b60405161019d9190611067565b60405180910390f35b6101c060048036038101906101bb9190610f63565b6103cf565b005b6101dc60048036038101906101d79190611080565b6103e5565b6040516101e99190610fe3565b60405180910390f35b6101fa61042a565b005b61021660048036038101906102119190611161565b61043d565b005b6102206104f7565b60405161022d91906111ee565b60405180910390f35b61023e61051f565b60405161024b9190610eae565b60405180910390f35b61026e60048036038101906102699190610f63565b6105af565b60405161027b9190610fbb565b60405180910390f35b61029e60048036038101906102999190611207565b6105d1565b6040516102ab9190610fe3565b60405180910390f35b6102ce60048036038101906102c99190611080565b610653565b005b6060600380546102df90611272565b80601f016020809104026020016040519081016040528092919081815260200182805461030b90611272565b80156103565780601f1061032d57610100808354040283529160200191610356565b820191905f5260205f20905b81548152906001019060200180831161033957829003601f168201915b5050505050905090565b5f8061036a6106d7565b90506103778185856106de565b600191505092915050565b5f600254905090565b5f806103956106d7565b90506103a28582856106f0565b6103ad858585610783565b60019150509392505050565b5f600560149054906101000a900460ff16905090565b6103d7610873565b6103e182826108fa565b5050565b5f805f8373ffffffffffffffffffffffffffffffffffffffff1673ffffffffffffffffffffffffffffffffffffffff1681526020019081526020015f20549050919050565b610432610873565b61043b5f610979565b565b818190508484905014610485576040517f08c379a000000000000000000000000000000000000000000000000000000000815260040161047c90611312565b60405180910390fd5b5f5b848490508110156104f0576104dc8585838181106104a8576104a7611330565b5b90506020020160208101906104bd9190611080565b8484848181106104d0576104cf611330565b5b905060200201356105af565b5080806104e89061138a565b915050610487565b5050505050565b5f60055f9054906101000a900473ffffffffffffffffffffffffffffffffffffffff16905090565b60606004805461052e90611272565b80601f016020809104026020016040519081016040528092919081815260200182805461055a90611272565b80156105a55780601f1061057c576101008083540402835291602001916105a5565b820191905f5260205f20905b81548152906001019060200180831161058857829003601f168201915b5050505050905090565b5f806105b96106d7565b90506105c6818585610783565b600191505092915050565b5f60015f8473ffffffffffffffffffffffffffffffffffffffff1673ffffffffffffffffffffffffffffffffffffffff1681526020019081526020015f205f8373ffffffffffffffffffffffffffffffffffffffff1673ffffffffffffffffffffffffffffffffffffffff1681526020019081526020015f2054905092915050565b61065b610873565b5f73ffffffffffffffffffffffffffffffffffffffff168173ffffffffffffffffffffffffffffffffffffffff16036106cb575f6040517f1e4fbdf70000000000000000000000000000000000000000000000000000000081526004016106c291906111ee565b60405180910390fd5b6106d481610979565b50565b5f33905090565b6106eb8383836001610a3c565b505050565b5f6106fb84846105d1565b90507fffffffffffffffffffffffffffffffffffffffffffffffffffffffffffffffff81101561077d578181101561076e578281836040517ffb8f41b2000000000000000000000000000000000000000000000000000000008152600401610765939291906113d1565b60405180910390fd5b61077c84848484035f610a3c565b5b50505050565b5f73ffffffffffffffffffffffffffffffffffffffff168373ffffffffffffffffffffffffffffffffffffffff16036107f3575f6040517f96c6fd1e0000000000000000000000000000000000000000000000000000000081526004016107ea91906111ee565b60405180910390fd5b5f73ffffffffffffffffffffffffffffffffffffffff168273ffffffffffffffffffffffffffffffffffffffff1603610863575f6040517fec442f0500000000000000000000000000000000000000000000000000000000815260040161085a91906111ee565b60405180910390fd5b61086e838383610c0b565b505050565b61087b6106d7565b73ffffffffffffffffffffffffffffffffffffffff166108996104f7565b73ffffffffffffffffffffffffffffffffffffffff16146108f8576108bc6106d7565b6040517f118cdaa70000000000000000000000000000000000000000000000000000000081526004016108ef91906111ee565b60405180910390fd5b565b5f73ffffffffffffffffffffffffffffffffffffffff168273ffffffffffffffffffffffffffffffffffffffff160361096a575f6040517fec442f0500000000000000000000000000000000000000000000000000000000815260040161096191906111ee565b60405180910390fd5b6109755f8383610c0b565b5050565b5f60055f9054906101000a900473ffffffffffffffffffffffffffffffffffffffff1690508160055f6101000a81548173ffffffffffffffffffffffffffffffffffffffff021916908373ffffffffffffffffffffffffffffffffffffffff1602179055508173ffffffffffffffffffffffffffffffffffffffff168173ffffffffffffffffffffffffffffffffffffffff167f8be0079c531659141344cd1fd0a4f28419497f9722a3daafe3b4186f6b6457e060405160405180910390a35050565b5f73ffffffffffffffffffffffffffffffffffffffff168473ffffffffffffffffffffffffffffffffffffffff1603610aac575f6040517fe602df05000000000000000000000000000000000000000000000000000000008152600401610aa391906111ee565b60405180910390fd5b5f73ffffffffffffffffffffffffffffffffffffffff168373ffffffffffffffffffffffffffffffffffffffff1603610b1c575f6040517f94280d62000000000000000000000000000000000000000000000000000000008152600401610b1391906111ee565b60405180910390fd5b8160015f8673ffffffffffffffffffffffffffffffffffffffff1673ffffffffffffffffffffffffffffffffffffffff1681526020019081526020015f205f8573ffffffffffffffffffffffffffffffffffffffff1673ffffffffffffffffffffffffffffffffffffffff1681526020019081526020015f20819055508015610c05578273ffffffffffffffffffffffffffffffffffffffff168473ffffffffffffffffffffffffffffffffffffffff167f8c5be1e5ebec7d5bd14f71427d1e84f3dd0314c0f7b2291e5b200ac8c7c3b92584604051610bfc9190610fe3565b60405180910390a35b50505050565b5f73ffffffffffffffffffffffffffffffffffffffff168373ffffffffffffffffffffffffffffffffffffffff1603610c5b578060025f828254610c4f9190611406565b92505081905550610d29565b5f805f8573ffffffffffffffffffffffffffffffffffffffff1673ffffffffffffffffffffffffffffffffffffffff1681526020019081526020015f2054905081811015610ce4578381836040517fe450d38c000000000000000000000000000000000000000000000000000000008152600401610cdb939291906113d1565b60405180910390fd5b8181035f808673ffffffffffffffffffffffffffffffffffffffff1673ffffffffffffffffffffffffffffffffffffffff1681526020019081526020015f2081905550505b5f73ffffffffffffffffffffffffffffffffffffffff168273ffffffffffffffffffffffffffffffffffffffff1603610d70578060025f8282540392505081905550610dba565b805f808473ffffffffffffffffffffffffffffffffffffffff1673ffffffffffffffffffffffffffffffffffffffff1681526020019081526020015f205f82825401925050819055505b8173ffffffffffffffffffffffffffffffffffffffff168373ffffffffffffffffffffffffffffffffffffffff167fddf252ad1be2c89b69c2b068fc378daa952ba7f163c4a11628f55a4df523b3ef83604051610e179190610fe3565b60405180910390a3505050565b5f81519050919050565b5f82825260208201905092915050565b5f5b83811015610e5b578082015181840152602081019050610e40565b5f8484015250505050565b5f601f19601f8301169050919050565b5f610e8082610e24565b610e8a8185610e2e565b9350610e9a818560208601610e3e565b610ea381610e66565b840191505092915050565b5f6020820190508181035f830152610ec68184610e76565b905092915050565b5f80fd5b5f80fd5b5f73ffffffffffffffffffffffffffffffffffffffff82169050919050565b5f610eff82610ed6565b9050919050565b610f0f81610ef5565b8114610f19575f80fd5b50565b5f81359050610f2a81610f06565b92915050565b5f819050919050565b610f4281610f30565b8114610f4c575f80fd5b50565b5f81359050610f5d81610f39565b92915050565b5f8060408385031215610f7957610f78610ece565b5b5f610f8685828601610f1c565b9250506020610f9785828601610f4f565b9150509250929050565b5f8115159050919050565b610fb581610fa1565b82525050565b5f602082019050610fce5f830184610fac565b92915050565b610fdd81610f30565b82525050565b5f602082019050610ff65f830184610fd4565b92915050565b5f805f6060848603121561101357611012610ece565b5b5f61102086828701610f1c565b935050602061103186828701610f1c565b925050604061104286828701610f4f565b9150509250925092565b5f60ff82169050919050565b6110618161104c565b82525050565b5f60208201905061107a5f830184611058565b92915050565b5f6020828403121561109557611094610ece565b5b5f6110a284828501610f1c565b91505092915050565b5f80fd5b5f80fd5b5f80fd5b5f8083601f8401126110cc576110cb6110ab565b5b8235905067ffffffffffffffff8111156110e9576110e86110af565b5b602083019150836020820283011115611105576111046110b3565b5b9250929050565b5f8083601f840112611121576111206110ab565b5b8235905067ffffffffffffffff81111561113e5761113d6110af565b5b60208301915083602082028301111561115a576111596110b3565b5b9250929050565b5f805f806040858703121561117957611178610ece565b5b5f85013567ffffffffffffffff81111561119657611195610ed2565b5b6111a2878288016110b7565b9450945050602085013567ffffffffffffffff8111156111c5576111c4610ed2565b5b6111d18782880161110c565b925092505092959194509250565b6111e881610ef5565b82525050565b5f6020820190506112015f8301846111df565b92915050565b5f806040838503121561121d5761121c610ece565b5b5f61122a85828601610f1c565b925050602061123b85828601610f1c565b9150509250929050565b7f4e487b71000000000000000000000000000000000000000000000000000000005f52602260045260245ffd5b5f600282049050600182168061128957607f821691505b60208210810361129c5761129b611245565b5b50919050565b7f526563697069656e747320616e6420616d6f756e7473206c656e677468206d695f8201527f736d617463680000000000000000000000000000000000000000000000000000602082015250565b5f6112fc602683610e2e565b9150611307826112a2565b604082019050919050565b5f6020820190508181035f830152611329816112f0565b9050919050565b7f4e487b71000000000000000000000000000000000000000000000000000000005f52603260045260245ffd5b7f4e487b71000000000000000000000000000000000000000000000000000000005f52601160045260245ffd5b5f61139482610f30565b91507fffffffffffffffffffffffffffffffffffffffffffffffffffffffffffffffff82036113c6576113c561135d565b5b600182019050919050565b5f6060820190506113e45f8301866111df565b6113f16020830185610fd4565b6113fe6040830184610fd4565b949350505050565b5f61141082610f30565b915061141b83610f30565b92508282019050808211156114335761143261135d565b5b9291505056fea2646970667358221220268c1b7a7188483071cb0b974c1493d4006cc1e492696b8a34b63aeb9aca61f264736f6c63430008140033",
					"opcodes": "PUSH1 0x80 PUSH1 0x40 MSTORE CALLVALUE DUP1 ISZERO PUSH3 0x10 JUMPI PUSH0 DUP1 REVERT JUMPDEST POP PUSH1 0x40 MLOAD PUSH3 0x21F1 CODESIZE SUB DUP1 PUSH3 0x21F1 DUP4 CODECOPY DUP2 DUP2 ADD PUSH1 0x40 MSTORE DUP2 ADD SWAP1 PUSH3 0x36 SWAP2 SWAP1 PUSH3 0x69F JUMP JUMPDEST CALLER DUP5 DUP5 DUP2 PUSH1 0x3 SWAP1 DUP2 PUSH3 0x4A SWAP2 SWAP1 PUSH3 0x97A JUMP JUMPDEST POP DUP1 PUSH1 0x4 SWAP1 DUP2 PUSH3 0x5C SWAP2 SWAP1 PUSH3 0x97A JUMP JUMPDEST POP POP POP PUSH0 PUSH20 0xFFFFFFFFFFFFFFFFFFFFFFFFFFFFFFFFFFFFFFFF AND DUP2 PUSH20 0xFFFFFFFFFFFFFFFFFFFFFFFFFFFFFFFFFFFFFFFF AND SUB PUSH3 0xD2 JUMPI PUSH0 PUSH1 0x40 MLOAD PUSH32 0x1E4FBDF700000000000000000000000000000000000000000000000000000000 DUP2 MSTORE PUSH1 0x4 ADD PUSH3 0xC9 SWAP2 SWAP1 PUSH3 0xAA1 JUMP JUMPDEST PUSH1 0x40 MLOAD DUP1 SWAP2 SUB SWAP1 REVERT JUMPDEST PUSH3 0xE3 DUP2 PUSH3 0x136 PUSH1 0x20 SHL PUSH1 0x20 SHR JUMP JUMPDEST POP DUP2 PUSH1 0x5 PUSH1 0x14 PUSH2 0x100 EXP DUP2 SLOAD DUP2 PUSH1 0xFF MUL NOT AND SWAP1 DUP4 PUSH1 0xFF AND MUL OR SWAP1 SSTORE POP PUSH3 0x12C CALLER DUP4 PUSH1 0xA PUSH3 0x113 SWAP2 SWAP1 PUSH3 0xC39 JUMP JUMPDEST DUP4 PUSH3 0x120 SWAP2 SWAP1 PUSH3 0xC89 JUMP JUMPDEST PUSH3 0x1F9 PUSH1 0x20 SHL PUSH1 0x20 SHR JUMP JUMPDEST POP POP POP POP PUSH3 0xD74 JUMP JUMPDEST PUSH0 PUSH1 0x5 PUSH0 SWAP1 SLOAD SWAP1 PUSH2 0x100 EXP SWAP1 DIV PUSH20 0xFFFFFFFFFFFFFFFFFFFFFFFFFFFFFFFFFFFFFFFF AND SWAP1 POP DUP2 PUSH1 0x5 PUSH0 PUSH2 0x100 EXP DUP2 SLOAD DUP2 PUSH20 0xFFFFFFFFFFFFFFFFFFFFFFFFFFFFFFFFFFFFFFFF MUL NOT AND SWAP1 DUP4 PUSH20 0xFFFFFFFFFFFFFFFFFFFFFFFFFFFFFFFFFFFFFFFF AND MUL OR SWAP1 SSTORE POP DUP2 PUSH20 0xFFFFFFFFFFFFFFFFFFFFFFFFFFFFFFFFFFFFFFFF AND DUP2 PUSH20 0xFFFFFFFFFFFFFFFFFFFFFFFFFFFFFFFFFFFFFFFF AND PUSH32 0x8BE0079C531659141344CD1FD0A4F28419497F9722A3DAAFE3B4186F6B6457E0 PUSH1 0x40 MLOAD PUSH1 0x40 MLOAD DUP1 SWAP2 SUB SWAP1 LOG3 POP POP JUMP JUMPDEST PUSH0 PUSH20 0xFFFFFFFFFFFFFFFFFFFFFFFFFFFFFFFFFFFFFFFF AND DUP3 PUSH20 0xFFFFFFFFFFFFFFFFFFFFFFFFFFFFFFFFFFFFFFFF AND SUB PUSH3 0x26C JUMPI PUSH0 PUSH1 0x40 MLOAD PUSH32 0xEC442F0500000000000000000000000000000000000000000000000000000000 DUP2 MSTORE PUSH1 0x4 ADD PUSH3 0x263 SWAP2 SWAP1 PUSH3 0xAA1 JUMP JUMPDEST PUSH1 0x40 MLOAD DUP1 SWAP2 SUB SWAP1 REVERT JUMPDEST PUSH3 0x27F PUSH0 DUP4 DUP4 PUSH3 0x283 PUSH1 0x20 SHL PUSH1 0x20 SHR JUMP JUMPDEST POP POP JUMP JUMPDEST PUSH0 PUSH20 0xFFFFFFFFFFFFFFFFFFFFFFFFFFFFFFFFFFFFFFFF AND DUP4 PUSH20 0xFFFFFFFFFFFFFFFFFFFFFFFFFFFFFFFFFFFFFFFF AND SUB PUSH3 0x2D7 JUMPI DUP1 PUSH1 0x2 PUSH0 DUP3 DUP3 SLOAD PUSH3 0x2CA SWAP2 SWAP1 PUSH3 0xCD3 JUMP JUMPDEST SWAP3 POP POP DUP2 SWAP1 SSTORE POP PUSH3 0x3A8 JUMP JUMPDEST PUSH0 DUP1 PUSH0 DUP6 PUSH20 0xFFFFFFFFFFFFFFFFFFFFFFFFFFFFFFFFFFFFFFFF AND PUSH20 0xFFFFFFFFFFFFFFFFFFFFFFFFFFFFFFFFFFFFFFFF AND DUP2 MSTORE PUSH1 0x20 ADD SWAP1 DUP2 MSTORE PUSH1 0x20 ADD PUSH0 KECCAK256 SLOAD SWAP1 POP DUP2 DUP2 LT ISZERO PUSH3 0x363 JUMPI DUP4 DUP2 DUP4 PUSH1 0x40 MLOAD PUSH32 0xE450D38C00000000000000000000000000000000000000000000000000000000 DUP2 MSTORE PUSH1 0x4 ADD PUSH3 0x35A SWAP4 SWAP3 SWAP2 SWAP1 PUSH3 0xD1E JUMP JUMPDEST PUSH1 0x40 MLOAD DUP1 SWAP2 SUB SWAP1 REVERT JUMPDEST DUP2 DUP2 SUB PUSH0 DUP1 DUP7 PUSH20 0xFFFFFFFFFFFFFFFFFFFFFFFFFFFFFFFFFFFFFFFF AND PUSH20 0xFFFFFFFFFFFFFFFFFFFFFFFFFFFFFFFFFFFFFFFF AND DUP2 MSTORE PUSH1 0x20 ADD SWAP1 DUP2 MSTORE PUSH1 0x20 ADD PUSH0 KECCAK256 DUP2 SWAP1 SSTORE POP POP JUMPDEST PUSH0 PUSH20 0xFFFFFFFFFFFFFFFFFFFFFFFFFFFFFFFFFFFFFFFF AND DUP3 PUSH20 0xFFFFFFFFFFFFFFFFFFFFFFFFFFFFFFFFFFFFFFFF AND SUB PUSH3 0x3F1 JUMPI DUP1 PUSH1 0x2 PUSH0 DUP3 DUP3 SLOAD SUB SWAP3 POP POP DUP2 SWAP1 SSTORE POP PUSH3 0x43B JUMP JUMPDEST DUP1 PUSH0 DUP1 DUP5 PUSH20 0xFFFFFFFFFFFFFFFFFFFFFFFFFFFFFFFFFFFFFFFF AND PUSH20 0xFFFFFFFFFFFFFFFFFFFFFFFFFFFFFFFFFFFFFFFF AND DUP2 MSTORE PUSH1 0x20 ADD SWAP1 DUP2 MSTORE PUSH1 0x20 ADD PUSH0 KECCAK256 PUSH0 DUP3 DUP3 SLOAD ADD SWAP3 POP POP DUP2 SWAP1 SSTORE POP JUMPDEST DUP2 PUSH20 0xFFFFFFFFFFFFFFFFFFFFFFFFFFFFFFFFFFFFFFFF AND DUP4 PUSH20 0xFFFFFFFFFFFFFFFFFFFFFFFFFFFFFFFFFFFFFFFF AND PUSH32 0xDDF252AD1BE2C89B69C2B068FC378DAA952BA7F163C4A11628F55A4DF523B3EF DUP4 PUSH1 0x40 MLOAD PUSH3 0x49A SWAP2 SWAP1 PUSH3 0xD59 JUMP JUMPDEST PUSH1 0x40 MLOAD DUP1 SWAP2 SUB SWAP1 LOG3 POP POP POP JUMP JUMPDEST PUSH0 PUSH1 0x40 MLOAD SWAP1 POP SWAP1 JUMP JUMPDEST PUSH0 DUP1 REVERT JUMPDEST PUSH0 DUP1 REVERT JUMPDEST PUSH0 DUP1 REVERT JUMPDEST PUSH0 DUP1 REVERT JUMPDEST PUSH0 PUSH1 0x1F NOT PUSH1 0x1F DUP4 ADD AND SWAP1 POP SWAP2 SWAP1 POP JUMP JUMPDEST PUSH32 0x4E487B7100000000000000000000000000000000000000000000000000000000 PUSH0 MSTORE PUSH1 0x41 PUSH1 0x4 MSTORE PUSH1 0x24 PUSH0 REVERT JUMPDEST PUSH3 0x508 DUP3 PUSH3 0x4C0 JUMP JUMPDEST DUP2 ADD DUP2 DUP2 LT PUSH8 0xFFFFFFFFFFFFFFFF DUP3 GT OR ISZERO PUSH3 0x52A JUMPI PUSH3 0x529 PUSH3 0x4D0 JUMP JUMPDEST JUMPDEST DUP1 PUSH1 0x40 MSTORE POP POP POP JUMP JUMPDEST PUSH0 PUSH3 0x53E PUSH3 0x4A7 JUMP JUMPDEST SWAP1 POP PUSH3 0x54C DUP3 DUP3 PUSH3 0x4FD JUMP JUMPDEST SWAP2 SWAP1 POP JUMP JUMPDEST PUSH0 PUSH8 0xFFFFFFFFFFFFFFFF DUP3 GT ISZERO PUSH3 0x56E JUMPI PUSH3 0x56D PUSH3 0x4D0 JUMP JUMPDEST JUMPDEST PUSH3 0x579 DUP3 PUSH3 0x4C0 JUMP JUMPDEST SWAP1 POP PUSH1 0x20 DUP2 ADD SWAP1 POP SWAP2 SWAP1 POP JUMP JUMPDEST PUSH0 JUMPDEST DUP4 DUP2 LT ISZERO PUSH3 0x5A5 JUMPI DUP1 DUP3 ADD MLOAD DUP2 DUP5 ADD MSTORE PUSH1 0x20 DUP2 ADD SWAP1 POP PUSH3 0x588 JUMP JUMPDEST PUSH0 DUP5 DUP5 ADD MSTORE POP POP POP POP JUMP JUMPDEST PUSH0 PUSH3 0x5C6 PUSH3 0x5C0 DUP5 PUSH3 0x551 JUMP JUMPDEST PUSH3 0x533 JUMP JUMPDEST SWAP1 POP DUP3 DUP2 MSTORE PUSH1 0x20 DUP2 ADD DUP5 DUP5 DUP5 ADD GT ISZERO PUSH3 0x5E5 JUMPI PUSH3 0x5E4 PUSH3 0x4BC JUMP JUMPDEST JUMPDEST PUSH3 0x5F2 DUP5 DUP3 DUP6 PUSH3 0x586 JUMP JUMPDEST POP SWAP4 SWAP3 POP POP POP JUMP JUMPDEST PUSH0 DUP3 PUSH1 0x1F DUP4 ADD SLT PUSH3 0x611 JUMPI PUSH3 0x610 PUSH3 0x4B8 JUMP JUMPDEST JUMPDEST DUP2 MLOAD PUSH3 0x623 DUP5 DUP3 PUSH1 0x20 DUP7 ADD PUSH3 0x5B0 JUMP JUMPDEST SWAP2 POP POP SWAP3 SWAP2 POP POP JUMP JUMPDEST PUSH0 PUSH1 0xFF DUP3 AND SWAP1 POP SWAP2 SWAP1 POP JUMP JUMPDEST PUSH3 0x643 DUP2 PUSH3 0x62C JUMP JUMPDEST DUP2 EQ PUSH3 0x64E JUMPI PUSH0 DUP1 REVERT JUMPDEST POP JUMP JUMPDEST PUSH0 DUP2 MLOAD SWAP1 POP PUSH3 0x661 DUP2 PUSH3 0x638 JUMP JUMPDEST SWAP3 SWAP2 POP POP JUMP JUMPDEST PUSH0 DUP2 SWAP1 POP SWAP2 SWAP1 POP JUMP JUMPDEST PUSH3 0x67B DUP2 PUSH3 0x667 JUMP JUMPDEST DUP2 EQ PUSH3 0x686 JUMPI PUSH0 DUP1 REVERT JUMPDEST POP JUMP JUMPDEST PUSH0 DUP2 MLOAD SWAP1 POP PUSH3 0x699 DUP2 PUSH3 0x670 JUMP JUMPDEST SWAP3 SWAP2 POP POP JUMP JUMPDEST PUSH0 DUP1 PUSH0 DUP1 PUSH1 0x80 DUP6 DUP8 SUB SLT ISZERO PUSH3 0x6BA JUMPI PUSH3 0x6B9 PUSH3 0x4B0 JUMP JUMPDEST JUMPDEST PUSH0 DUP6 ADD MLOAD PUSH8 0xFFFFFFFFFFFFFFFF DUP2 GT ISZERO PUSH3 0x6DA JUMPI PUSH3 0x6D9 PUSH3 0x4B4 JUMP JUMPDEST JUMPDEST PUSH3 0x6E8 DUP8 DUP3 DUP9 ADD PUSH3 0x5FA JUMP JUMPDEST SWAP5 POP POP PUSH1 0x20 DUP6 ADD MLOAD PUSH8 0xFFFFFFFFFFFFFFFF DUP2 GT ISZERO PUSH3 0x70C JUMPI PUSH3 0x70B PUSH3 0x4B4 JUMP JUMPDEST JUMPDEST PUSH3 0x71A DUP8 DUP3 DUP9 ADD PUSH3 0x5FA JUMP JUMPDEST SWAP4 POP POP PUSH1 0x40 PUSH3 0x72D DUP8 DUP3 DUP9 ADD PUSH3 0x651 JUMP JUMPDEST SWAP3 POP POP PUSH1 0x60 PUSH3 0x740 DUP8 DUP3 DUP9 ADD PUSH3 0x689 JUMP JUMPDEST SWAP2 POP POP SWAP3 SWAP6 SWAP2 SWAP5 POP SWAP3 POP JUMP JUMPDEST PUSH0 DUP2 MLOAD SWAP1 POP SWAP2 SWAP1 POP JUMP JUMPDEST PUSH32 0x4E487B7100000000000000000000000000000000000000000000000000000000 PUSH0 MSTORE PUSH1 0x22 PUSH1 0x4 MSTORE PUSH1 0x24 PUSH0 REVERT JUMPDEST PUSH0 PUSH1 0x2 DUP3 DIV SWAP1 POP PUSH1 0x1 DUP3 AND DUP1 PUSH3 0x79B JUMPI PUSH1 0x7F DUP3 AND SWAP2 POP JUMPDEST PUSH1 0x20 DUP3 LT DUP2 SUB PUSH3 0x7B1 JUMPI PUSH3 0x7B0 PUSH3 0x756 JUMP JUMPDEST JUMPDEST POP SWAP2 SWAP1 POP JUMP JUMPDEST PUSH0 DUP2 SWAP1 POP DUP2 PUSH0 MSTORE PUSH1 0x20 PUSH0 KECCAK256 SWAP1 POP SWAP2 SWAP1 POP JUMP JUMPDEST PUSH0 PUSH1 0x20 PUSH1 0x1F DUP4 ADD DIV SWAP1 POP SWAP2 SWAP1 POP JUMP JUMPDEST PUSH0 DUP3 DUP3 SHL SWAP1 POP SWAP3 SWAP2 POP POP JUMP JUMPDEST PUSH0 PUSH1 0x8 DUP4 MUL PUSH3 0x815 PUSH32 0xFFFFFFFFFFFFFFFFFFFFFFFFFFFFFFFFFFFFFFFFFFFFFFFFFFFFFFFFFFFFFFFF DUP3 PUSH3 0x7D8 JUMP JUMPDEST PUSH3 0x821 DUP7 DUP4 PUSH3 0x7D8 JUMP JUMPDEST SWAP6 POP DUP1 NOT DUP5 AND SWAP4 POP DUP1 DUP7 AND DUP5 OR SWAP3 POP POP POP SWAP4 SWAP3 POP POP POP JUMP JUMPDEST PUSH0 DUP2 SWAP1 POP SWAP2 SWAP1 POP JUMP JUMPDEST PUSH0 PUSH3 0x862 PUSH3 0x85C PUSH3 0x856 DUP5 PUSH3 0x667 JUMP JUMPDEST PUSH3 0x839 JUMP JUMPDEST PUSH3 0x667 JUMP JUMPDEST SWAP1 POP SWAP2 SWAP1 POP JUMP JUMPDEST PUSH0 DUP2 SWAP1 POP SWAP2 SWAP1 POP JUMP JUMPDEST PUSH3 0x87D DUP4 PUSH3 0x842 JUMP JUMPDEST PUSH3 0x895 PUSH3 0x88C DUP3 PUSH3 0x869 JUMP JUMPDEST DUP5 DUP5 SLOAD PUSH3 0x7E4 JUMP JUMPDEST DUP3 SSTORE POP POP POP POP JUMP JUMPDEST PUSH0 SWAP1 JUMP JUMPDEST PUSH3 0x8AB PUSH3 0x89D JUMP JUMPDEST PUSH3 0x8B8 DUP2 DUP5 DUP5 PUSH3 0x872 JUMP JUMPDEST POP POP POP JUMP JUMPDEST JUMPDEST DUP2 DUP2 LT ISZERO PUSH3 0x8DF JUMPI PUSH3 0x8D3 PUSH0 DUP3 PUSH3 0x8A1 JUMP JUMPDEST PUSH1 0x1 DUP2 ADD SWAP1 POP PUSH3 0x8BE JUMP JUMPDEST POP POP JUMP JUMPDEST PUSH1 0x1F DUP3 GT ISZERO PUSH3 0x92E JUMPI PUSH3 0x8F8 DUP2 PUSH3 0x7B7 JUMP JUMPDEST PUSH3 0x903 DUP5 PUSH3 0x7C9 JUMP JUMPDEST DUP2 ADD PUSH1 0x20 DUP6 LT ISZERO PUSH3 0x913 JUMPI DUP2 SWAP1 POP JUMPDEST PUSH3 0x92B PUSH3 0x922 DUP6 PUSH3 0x7C9 JUMP JUMPDEST DUP4 ADD DUP3 PUSH3 0x8BD JUMP JUMPDEST POP POP JUMPDEST POP POP POP JUMP JUMPDEST PUSH0 DUP3 DUP3 SHR SWAP1 POP SWAP3 SWAP2 POP POP JUMP JUMPDEST PUSH0 PUSH3 0x950 PUSH0 NOT DUP5 PUSH1 0x8 MUL PUSH3 0x933 JUMP JUMPDEST NOT DUP1 DUP4 AND SWAP2 POP POP SWAP3 SWAP2 POP POP JUMP JUMPDEST PUSH0 PUSH3 0x96A DUP4 DUP4 PUSH3 0x93F JUMP JUMPDEST SWAP2 POP DUP3 PUSH1 0x2 MUL DUP3 OR SWAP1 POP SWAP3 SWAP2 POP POP JUMP JUMPDEST PUSH3 0x985 DUP3 PUSH3 0x74C JUMP JUMPDEST PUSH8 0xFFFFFFFFFFFFFFFF DUP2 GT ISZERO PUSH3 0x9A1 JUMPI PUSH3 0x9A0 PUSH3 0x4D0 JUMP JUMPDEST JUMPDEST PUSH3 0x9AD DUP3 SLOAD PUSH3 0x783 JUMP JUMPDEST PUSH3 0x9BA DUP3 DUP3 DUP6 PUSH3 0x8E3 JUMP JUMPDEST PUSH0 PUSH1 0x20 SWAP1 POP PUSH1 0x1F DUP4 GT PUSH1 0x1 DUP2 EQ PUSH3 0x9F0 JUMPI PUSH0 DUP5 ISZERO PUSH3 0x9DB JUMPI DUP3 DUP8 ADD MLOAD SWAP1 POP JUMPDEST PUSH3 0x9E7 DUP6 DUP3 PUSH3 0x95D JUMP JUMPDEST DUP7 SSTORE POP PUSH3 0xA56 JUMP JUMPDEST PUSH1 0x1F NOT DUP5 AND PUSH3 0xA00 DUP7 PUSH3 0x7B7 JUMP JUMPDEST PUSH0 JUMPDEST DUP3 DUP2 LT ISZERO PUSH3 0xA29 JUMPI DUP5 DUP10 ADD MLOAD DUP3 SSTORE PUSH1 0x1 DUP3 ADD SWAP2 POP PUSH1 0x20 DUP6 ADD SWAP5 POP PUSH1 0x20 DUP2 ADD SWAP1 POP PUSH3 0xA02 JUMP JUMPDEST DUP7 DUP4 LT ISZERO PUSH3 0xA49 JUMPI DUP5 DUP10 ADD MLOAD PUSH3 0xA45 PUSH1 0x1F DUP10 AND DUP3 PUSH3 0x93F JUMP JUMPDEST DUP4 SSTORE POP JUMPDEST PUSH1 0x1 PUSH1 0x2 DUP9 MUL ADD DUP9 SSTORE POP POP POP JUMPDEST POP POP POP POP POP POP JUMP JUMPDEST PUSH0 PUSH20 0xFFFFFFFFFFFFFFFFFFFFFFFFFFFFFFFFFFFFFFFF DUP3 AND SWAP1 POP SWAP2 SWAP1 POP JUMP JUMPDEST PUSH0 PUSH3 0xA89 DUP3 PUSH3 0xA5E JUMP JUMPDEST SWAP1 POP SWAP2 SWAP1 POP JUMP JUMPDEST PUSH3 0xA9B DUP2 PUSH3 0xA7D JUMP JUMPDEST DUP3 MSTORE POP POP JUMP JUMPDEST PUSH0 PUSH1 0x20 DUP3 ADD SWAP1 POP PUSH3 0xAB6 PUSH0 DUP4 ADD DUP5 PUSH3 0xA90 JUMP JUMPDEST SWAP3 SWAP2 POP POP JUMP JUMPDEST PUSH32 0x4E487B7100000000000000000000000000000000000000000000000000000000 PUSH0 MSTORE PUSH1 0x11 PUSH1 0x4 MSTORE PUSH1 0x24 PUSH0 REVERT JUMPDEST PUSH0 DUP2 PUSH1 0x1 SHR SWAP1 POP SWAP2 SWAP1 POP JUMP JUMPDEST PUSH0 DUP1 DUP3 SWAP2 POP DUP4 SWAP1 POP JUMPDEST PUSH1 0x1 DUP6 GT ISZERO PUSH3 0xB46 JUMPI DUP1 DUP7 DIV DUP2 GT ISZERO PUSH3 0xB1E JUMPI PUSH3 0xB1D PUSH3 0xABC JUMP JUMPDEST JUMPDEST PUSH1 0x1 DUP6 AND ISZERO PUSH3 0xB2E JUMPI DUP1 DUP3 MUL SWAP2 POP JUMPDEST DUP1 DUP2 MUL SWAP1 POP PUSH3 0xB3E DUP6 PUSH3 0xAE9 JUMP JUMPDEST SWAP5 POP PUSH3 0xAFE JUMP JUMPDEST SWAP5 POP SWAP5 SWAP3 POP POP POP JUMP JUMPDEST PUSH0 DUP3 PUSH3 0xB60 JUMPI PUSH1 0x1 SWAP1 POP PUSH3 0xC32 JUMP JUMPDEST DUP2 PUSH3 0xB6F JUMPI PUSH0 SWAP1 POP PUSH3 0xC32 JUMP JUMPDEST DUP2 PUSH1 0x1 DUP2 EQ PUSH3 0xB88 JUMPI PUSH1 0x2 DUP2 EQ PUSH3 0xB93 JUMPI PUSH3 0xBC9 JUMP JUMPDEST PUSH1 0x1 SWAP2 POP POP PUSH3 0xC32 JUMP JUMPDEST PUSH1 0xFF DUP5 GT ISZERO PUSH3 0xBA8 JUMPI PUSH3 0xBA7 PUSH3 0xABC JUMP JUMPDEST JUMPDEST DUP4 PUSH1 0x2 EXP SWAP2 POP DUP5 DUP3 GT ISZERO PUSH3 0xBC2 JUMPI PUSH3 0xBC1 PUSH3 0xABC JUMP JUMPDEST JUMPDEST POP PUSH3 0xC32 JUMP JUMPDEST POP PUSH1 0x20 DUP4 LT PUSH2 0x133 DUP4 LT AND PUSH1 0x4E DUP5 LT PUSH1 0xB DUP5 LT AND OR ISZERO PUSH3 0xC03 JUMPI DUP3 DUP3 EXP SWAP1 POP DUP4 DUP2 GT ISZERO PUSH3 0xBFD JUMPI PUSH3 0xBFC PUSH3 0xABC JUMP JUMPDEST JUMPDEST PUSH3 0xC32 JUMP JUMPDEST PUSH3 0xC12 DUP5 DUP5 DUP5 PUSH1 0x1 PUSH3 0xAF5 JUMP JUMPDEST SWAP3 POP SWAP1 POP DUP2 DUP5 DIV DUP2 GT ISZERO PUSH3 0xC2C JUMPI PUSH3 0xC2B PUSH3 0xABC JUMP JUMPDEST JUMPDEST DUP2 DUP2 MUL SWAP1 POP JUMPDEST SWAP4 SWAP3 POP POP POP JUMP JUMPDEST PUSH0 PUSH3 0xC45 DUP3 PUSH3 0x667 JUMP JUMPDEST SWAP2 POP PUSH3 0xC52 DUP4 PUSH3 0x62C JUMP JUMPDEST SWAP3 POP PUSH3 0xC81 PUSH32 0xFFFFFFFFFFFFFFFFFFFFFFFFFFFFFFFFFFFFFFFFFFFFFFFFFFFFFFFFFFFFFFFF DUP5 DUP5 PUSH3 0xB4F JUMP JUMPDEST SWAP1 POP SWAP3 SWAP2 POP POP JUMP JUMPDEST PUSH0 PUSH3 0xC95 DUP3 PUSH3 0x667 JUMP JUMPDEST SWAP2 POP PUSH3 0xCA2 DUP4 PUSH3 0x667 JUMP JUMPDEST SWAP3 POP DUP3 DUP3 MUL PUSH3 0xCB2 DUP2 PUSH3 0x667 JUMP JUMPDEST SWAP2 POP DUP3 DUP3 DIV DUP5 EQ DUP4 ISZERO OR PUSH3 0xCCC JUMPI PUSH3 0xCCB PUSH3 0xABC JUMP JUMPDEST JUMPDEST POP SWAP3 SWAP2 POP POP JUMP JUMPDEST PUSH0 PUSH3 0xCDF DUP3 PUSH3 0x667 JUMP JUMPDEST SWAP2 POP PUSH3 0xCEC DUP4 PUSH3 0x667 JUMP JUMPDEST SWAP3 POP DUP3 DUP3 ADD SWAP1 POP DUP1 DUP3 GT ISZERO PUSH3 0xD07 JUMPI PUSH3 0xD06 PUSH3 0xABC JUMP JUMPDEST JUMPDEST SWAP3 SWAP2 POP POP JUMP JUMPDEST PUSH3 0xD18 DUP2 PUSH3 0x667 JUMP JUMPDEST DUP3 MSTORE POP POP JUMP JUMPDEST PUSH0 PUSH1 0x60 DUP3 ADD SWAP1 POP PUSH3 0xD33 PUSH0 DUP4 ADD DUP7 PUSH3 0xA90 JUMP JUMPDEST PUSH3 0xD42 PUSH1 0x20 DUP4 ADD DUP6 PUSH3 0xD0D JUMP JUMPDEST PUSH3 0xD51 PUSH1 0x40 DUP4 ADD DUP5 PUSH3 0xD0D JUMP JUMPDEST SWAP5 SWAP4 POP POP POP POP JUMP JUMPDEST PUSH0 PUSH1 0x20 DUP3 ADD SWAP1 POP PUSH3 0xD6E PUSH0 DUP4 ADD DUP5 PUSH3 0xD0D JUMP JUMPDEST SWAP3 SWAP2 POP POP JUMP JUMPDEST PUSH2 0x146F DUP1 PUSH3 0xD82 PUSH0 CODECOPY PUSH0 RETURN INVALID PUSH1 0x80 PUSH1 0x40 MSTORE CALLVALUE DUP1 ISZERO PUSH2 0xF JUMPI PUSH0 DUP1 REVERT JUMPDEST POP PUSH1 0x4 CALLDATASIZE LT PUSH2 0xE8 JUMPI PUSH0 CALLDATALOAD PUSH1 0xE0 SHR DUP1 PUSH4 0x715018A6 GT PUSH2 0x8A JUMPI DUP1 PUSH4 0x95D89B41 GT PUSH2 0x64 JUMPI DUP1 PUSH4 0x95D89B41 EQ PUSH2 0x236 JUMPI DUP1 PUSH4 0xA9059CBB EQ PUSH2 0x254 JUMPI DUP1 PUSH4 0xDD62ED3E EQ PUSH2 0x284 JUMPI DUP1 PUSH4 0xF2FDE38B EQ PUSH2 0x2B4 JUMPI PUSH2 0xE8 JUMP JUMPDEST DUP1 PUSH4 0x715018A6 EQ PUSH2 0x1F2 JUMPI DUP1 PUSH4 0x88D695B2 EQ PUSH2 0x1FC JUMPI DUP1 PUSH4 0x8DA5CB5B EQ PUSH2 0x218 JUMPI PUSH2 0xE8 JUMP JUMPDEST DUP1 PUSH4 0x23B872DD GT PUSH2 0xC6 JUMPI DUP1 PUSH4 0x23B872DD EQ PUSH2 0x158 JUMPI DUP1 PUSH4 0x313CE567 EQ PUSH2 0x188 JUMPI DUP1 PUSH4 0x40C10F19 EQ PUSH2 0x1A6 JUMPI DUP1 PUSH4 0x70A08231 EQ PUSH2 0x1C2 JUMPI PUSH2 0xE8 JUMP JUMPDEST DUP1 PUSH4 0x6FDDE03 EQ PUSH2 0xEC JUMPI DUP1 PUSH4 0x95EA7B3 EQ PUSH2 0x10A JUMPI DUP1 PUSH4 0x18160DDD EQ PUSH2 0x13A JUMPI JUMPDEST PUSH0 DUP1 REVERT JUMPDEST PUSH2 0xF4 PUSH2 0x2D0 JUMP JUMPDEST PUSH1 0x40 MLOAD PUSH2 0x101 SWAP2 SWAP1 PUSH2 0xEAE JUMP JUMPDEST PUSH1 0x40 MLOAD DUP1 SWAP2 SUB SWAP1 RETURN JUMPDEST PUSH2 0x124 PUSH1 0x4 DUP1 CALLDATASIZE SUB DUP2 ADD SWAP1 PUSH2 0x11F SWAP2 SWAP1 PUSH2 0xF63 JUMP JUMPDEST PUSH2 0x360 JUMP JUMPDEST PUSH1 0x40 MLOAD PUSH2 0x131 SWAP2 SWAP1 PUSH2 0xFBB JUMP JUMPDEST PUSH1 0x40 MLOAD DUP1 SWAP2 SUB SWAP1 RETURN JUMPDEST PUSH2 0x142 PUSH2 0x382 JUMP JUMPDEST PUSH1 0x40 MLOAD PUSH2 0x14F SWAP2 SWAP1 PUSH2 0xFE3 JUMP JUMPDEST PUSH1 0x40 MLOAD DUP1 SWAP2 SUB SWAP1 RETURN JUMPDEST PUSH2 0x172 PUSH1 0x4 DUP1 CALLDATASIZE SUB DUP2 ADD SWAP1 PUSH2 0x16D SWAP2 SWAP1 PUSH2 0xFFC JUMP JUMPDEST PUSH2 0x38B JUMP JUMPDEST PUSH1 0x40 MLOAD PUSH2 0x17F SWAP2 SWAP1 PUSH2 0xFBB JUMP JUMPDEST PUSH1 0x40 MLOAD DUP1 SWAP2 SUB SWAP1 RETURN JUMPDEST PUSH2 0x190 PUSH2 0x3B9 JUMP JUMPDEST PUSH1 0x40 MLOAD PUSH2 0x19D SWAP2 SWAP1 PUSH2 0x1067 JUMP JUMPDEST PUSH1 0x40 MLOAD DUP1 SWAP2 SUB SWAP1 RETURN JUMPDEST PUSH2 0x1C0 PUSH1 0x4 DUP1 CALLDATASIZE SUB DUP2 ADD SWAP1 PUSH2 0x1BB SWAP2 SWAP1 PUSH2 0xF63 JUMP JUMPDEST PUSH2 0x3CF JUMP JUMPDEST STOP JUMPDEST PUSH2 0x1DC PUSH1 0x4 DUP1 CALLDATASIZE SUB DUP2 ADD SWAP1 PUSH2 0x1D7 SWAP2 SWAP1 PUSH2 0x1080 JUMP JUMPDEST PUSH2 0x3E5 JUMP JUMPDEST PUSH1 0x40 MLOAD PUSH2 0x1E9 SWAP2 SWAP1 PUSH2 0xFE3 JUMP JUMPDEST PUSH1 0x40 MLOAD DUP1 SWAP2 SUB SWAP1 RETURN JUMPDEST PUSH2 0x1FA PUSH2 0x42A JUMP JUMPDEST STOP JUMPDEST PUSH2 0x216 PUSH1 0x4 DUP1 CALLDATASIZE SUB DUP2 ADD SWAP1 PUSH2 0x211 SWAP2 SWAP1 PUSH2 0x1161 JUMP JUMPDEST PUSH2 0x43D JUMP JUMPDEST STOP JUMPDEST PUSH2 0x220 PUSH2 0x4F7 JUMP JUMPDEST PUSH1 0x40 MLOAD PUSH2 0x22D SWAP2 SWAP1 PUSH2 0x11EE JUMP JUMPDEST PUSH1 0x40 MLOAD DUP1 SWAP2 SUB SWAP1 RETURN JUMPDEST PUSH2 0x23E PUSH2 0x51F JUMP JUMPDEST PUSH1 0x40 MLOAD PUSH2 0x24B SWAP2 SWAP1 PUSH2 0xEAE JUMP JUMPDEST PUSH1 0x40 MLOAD DUP1 SWAP2 SUB SWAP1 RETURN JUMPDEST PUSH2 0x26E PUSH1 0x4 DUP1 CALLDATASIZE SUB DUP2 ADD SWAP1 PUSH2 0x269 SWAP2 SWAP1 PUSH2 0xF63 JUMP JUMPDEST PUSH2 0x5AF JUMP JUMPDEST PUSH1 0x40 MLOAD PUSH2 0x27B SWAP2 SWAP1 PUSH2 0xFBB JUMP JUMPDEST PUSH1 0x40 MLOAD DUP1 SWAP2 SUB SWAP1 RETURN JUMPDEST PUSH2 0x29E PUSH1 0x4 DUP1 CALLDATASIZE SUB DUP2 ADD SWAP1 PUSH2 0x299 SWAP2 SWAP1 PUSH2 0x1207 JUMP JUMPDEST PUSH2 0x5D1 JUMP JUMPDEST PUSH1 0x40 MLOAD PUSH2 0x2AB SWAP2 SWAP1 PUSH2 0xFE3 JUMP JUMPDEST PUSH1 0x40 MLOAD DUP1 SWAP2 SUB SWAP1 RETURN JUMPDEST PUSH2 0x2CE PUSH1 0x4 DUP1 CALLDATASIZE SUB DUP2 ADD SWAP1 PUSH2 0x2C9 SWAP2 SWAP1 PUSH2 0x1080 JUMP JUMPDEST PUSH2 0x653 JUMP JUMPDEST STOP JUMPDEST PUSH1 0x60 PUSH1 0x3 DUP1 SLOAD PUSH2 0x2DF SWAP1 PUSH2 0x1272 JUMP JUMPDEST DUP1 PUSH1 0x1F ADD PUSH1 0x20 DUP1 SWAP2 DIV MUL PUSH1 0x20 ADD PUSH1 0x40 MLOAD SWAP1 DUP2 ADD PUSH1 0x40 MSTORE DUP1 SWAP3 SWAP2 SWAP1 DUP2 DUP2 MSTORE PUSH1 0x20 ADD DUP3 DUP1 SLOAD PUSH2 0x30B SWAP1 PUSH2 0x1272 JUMP JUMPDEST DUP1 ISZERO PUSH2 0x356 JUMPI DUP1 PUSH1 0x1F LT PUSH2 0x32D JUMPI PUSH2 0x100 DUP1 DUP4 SLOAD DIV MUL DUP4 MSTORE SWAP2 PUSH1 0x20 ADD SWAP2 PUSH2 0x356 JUMP JUMPDEST DUP3 ADD SWAP2 SWAP1 PUSH0 MSTORE PUSH1 0x20 PUSH0 KECCAK256 SWAP1 JUMPDEST DUP2 SLOAD DUP2 MSTORE SWAP1 PUSH1 0x1 ADD SWAP1 PUSH1 0x20 ADD DUP1 DUP4 GT PUSH2 0x339 JUMPI DUP3 SWAP1 SUB PUSH1 0x1F AND DUP3 ADD SWAP2 JUMPDEST POP POP POP POP POP SWAP1 POP SWAP1 JUMP JUMPDEST PUSH0 DUP1 PUSH2 0x36A PUSH2 0x6D7 JUMP JUMPDEST SWAP1 POP PUSH2 0x377 DUP2 DUP6 DUP6 PUSH2 0x6DE JUMP JUMPDEST PUSH1 0x1 SWAP2 POP POP SWAP3 SWAP2 POP POP JUMP JUMPDEST PUSH0 PUSH1 0x2 SLOAD SWAP1 POP SWAP1 JUMP JUMPDEST PUSH0 DUP1 PUSH2 0x395 PUSH2 0x6D7 JUMP JUMPDEST SWAP1 POP PUSH2 0x3A2 DUP6 DUP3 DUP6 PUSH2 0x6F0 JUMP JUMPDEST PUSH2 0x3AD DUP6 DUP6 DUP6 PUSH2 0x783 JUMP JUMPDEST PUSH1 0x1 SWAP2 POP POP SWAP4 SWAP3 POP POP POP JUMP JUMPDEST PUSH0 PUSH1 0x5 PUSH1 0x14 SWAP1 SLOAD SWAP1 PUSH2 0x100 EXP SWAP1 DIV PUSH1 0xFF AND SWAP1 POP SWAP1 JUMP JUMPDEST PUSH2 0x3D7 PUSH2 0x873 JUMP JUMPDEST PUSH2 0x3E1 DUP3 DUP3 PUSH2 0x8FA JUMP JUMPDEST POP POP JUMP JUMPDEST PUSH0 DUP1 PUSH0 DUP4 PUSH20 0xFFFFFFFFFFFFFFFFFFFFFFFFFFFFFFFFFFFFFFFF AND PUSH20 0xFFFFFFFFFFFFFFFFFFFFFFFFFFFFFFFFFFFFFFFF AND DUP2 MSTORE PUSH1 0x20 ADD SWAP1 DUP2 MSTORE PUSH1 0x20 ADD PUSH0 KECCAK256 SLOAD SWAP1 POP SWAP2 SWAP1 POP JUMP JUMPDEST PUSH2 0x432 PUSH2 0x873 JUMP JUMPDEST PUSH2 0x43B PUSH0 PUSH2 0x979 JUMP JUMPDEST JUMP JUMPDEST DUP2 DUP2 SWAP1 POP DUP5 DUP5 SWAP1 POP EQ PUSH2 0x485 JUMPI PUSH1 0x40 MLOAD PUSH32 0x8C379A000000000000000000000000000000000000000000000000000000000 DUP2 MSTORE PUSH1 0x4 ADD PUSH2 0x47C SWAP1 PUSH2 0x1312 JUMP JUMPDEST PUSH1 0x40 MLOAD DUP1 SWAP2 SUB SWAP1 REVERT JUMPDEST PUSH0 JUMPDEST DUP5 DUP5 SWAP1 POP DUP2 LT ISZERO PUSH2 0x4F0 JUMPI PUSH2 0x4DC DUP6 DUP6 DUP4 DUP2 DUP2 LT PUSH2 0x4A8 JUMPI PUSH2 0x4A7 PUSH2 0x1330 JUMP JUMPDEST JUMPDEST SWAP1 POP PUSH1 0x20 MUL ADD PUSH1 0x20 DUP2 ADD SWAP1 PUSH2 0x4BD SWAP2 SWAP1 PUSH2 0x1080 JUMP JUMPDEST DUP5 DUP5 DUP5 DUP2 DUP2 LT PUSH2 0x4D0 JUMPI PUSH2 0x4CF PUSH2 0x1330 JUMP JUMPDEST JUMPDEST SWAP1 POP PUSH1 0x20 MUL ADD CALLDATALOAD PUSH2 0x5AF JUMP JUMPDEST POP DUP1 DUP1 PUSH2 0x4E8 SWAP1 PUSH2 0x138A JUMP JUMPDEST SWAP2 POP POP PUSH2 0x487 JUMP JUMPDEST POP POP POP POP POP JUMP JUMPDEST PUSH0 PUSH1 0x5 PUSH0 SWAP1 SLOAD SWAP1 PUSH2 0x100 EXP SWAP1 DIV PUSH20 0xFFFFFFFFFFFFFFFFFFFFFFFFFFFFFFFFFFFFFFFF AND SWAP1 POP SWAP1 JUMP JUMPDEST PUSH1 0x60 PUSH1 0x4 DUP1 SLOAD PUSH2 0x52E SWAP1 PUSH2 0x1272 JUMP JUMPDEST DUP1 PUSH1 0x1F ADD PUSH1 0x20 DUP1 SWAP2 DIV MUL PUSH1 0x20 ADD PUSH1 0x40 MLOAD SWAP1 DUP2 ADD PUSH1 0x40 MSTORE DUP1 SWAP3 SWAP2 SWAP1 DUP2 DUP2 MSTORE PUSH1 0x20 ADD DUP3 DUP1 SLOAD PUSH2 0x55A SWAP1 PUSH2 0x1272 JUMP JUMPDEST DUP1 ISZERO PUSH2 0x5A5 JUMPI DUP1 PUSH1 0x1F LT PUSH2 0x57C JUMPI PUSH2 0x100 DUP1 DUP4 SLOAD DIV MUL DUP4 MSTORE SWAP2 PUSH1 0x20 ADD SWAP2 PUSH2 0x5A5 JUMP JUMPDEST DUP3 ADD SWAP2 SWAP1 PUSH0 MSTORE PUSH1 0x20 PUSH0 KECCAK256 SWAP1 JUMPDEST DUP2 SLOAD DUP2 MSTORE SWAP1 PUSH1 0x1 ADD SWAP1 PUSH1 0x20 ADD DUP1 DUP4 GT PUSH2 0x588 JUMPI DUP3 SWAP1 SUB PUSH1 0x1F AND DUP3 ADD SWAP2 JUMPDEST POP POP POP POP POP SWAP1 POP SWAP1 JUMP JUMPDEST PUSH0 DUP1 PUSH2 0x5B9 PUSH2 0x6D7 JUMP JUMPDEST SWAP1 POP PUSH2 0x5C6 DUP2 DUP6 DUP6 PUSH2 0x783 JUMP JUMPDEST PUSH1 0x1 SWAP2 POP POP SWAP3 SWAP2 POP POP JUMP JUMPDEST PUSH0 PUSH1 0x1 PUSH0 DUP5 PUSH20 0xFFFFFFFFFFFFFFFFFFFFFFFFFFFFFFFFFFFFFFFF AND PUSH20 0xFFFFFFFFFFFFFFFFFFFFFFFFFFFFFFFFFFFFFFFF AND DUP2 MSTORE PUSH1 0x20 ADD SWAP1 DUP2 MSTORE PUSH1 0x20 ADD PUSH0 KECCAK256 PUSH0 DUP4 PUSH20 0xFFFFFFFFFFFFFFFFFFFFFFFFFFFFFFFFFFFFFFFF AND PUSH20 0xFFFFFFFFFFFFFFFFFFFFFFFFFFFFFFFFFFFFFFFF AND DUP2 MSTORE PUSH1 0x20 ADD SWAP1 DUP2 MSTORE PUSH1 0x20 ADD PUSH0 KECCAK256 SLOAD SWAP1 POP SWAP3 SWAP2 POP POP JUMP JUMPDEST PUSH2 0x65B PUSH2 0x873 JUMP JUMPDEST PUSH0 PUSH20 0xFFFFFFFFFFFFFFFFFFFFFFFFFFFFFFFFFFFFFFFF AND DUP2 PUSH20 0xFFFFFFFFFFFFFFFFFFFFFFFFFFFFFFFFFFFFFFFF AND SUB PUSH2 0x6CB JUMPI PUSH0 PUSH1 0x40 MLOAD PUSH32 0x1E4FBDF700000000000000000000000000000000000000000000000000000000 DUP2 MSTORE PUSH1 0x4 ADD PUSH2 0x6C2 SWAP2 SWAP1 PUSH2 0x11EE JUMP JUMPDEST PUSH1 0x40 MLOAD DUP1 SWAP2 SUB SWAP1 REVERT JUMPDEST PUSH2 0x6D4 DUP2 PUSH2 0x979 JUMP JUMPDEST POP JUMP JUMPDEST PUSH0 CALLER SWAP1 POP SWAP1 JUMP JUMPDEST PUSH2 0x6EB DUP4 DUP4 DUP4 PUSH1 0x1 PUSH2 0xA3C JUMP JUMPDEST POP POP POP JUMP JUMPDEST PUSH0 PUSH2 0x6FB DUP5 DUP5 PUSH2 0x5D1 JUMP JUMPDEST SWAP1 POP PUSH32 0xFFFFFFFFFFFFFFFFFFFFFFFFFFFFFFFFFFFFFFFFFFFFFFFFFFFFFFFFFFFFFFFF DUP2 LT ISZERO PUSH2 0x77D JUMPI DUP2 DUP2 LT ISZERO PUSH2 0x76E JUMPI DUP3 DUP2 DUP4 PUSH1 0x40 MLOAD PUSH32 0xFB8F41B200000000000000000000000000000000000000000000000000000000 DUP2 MSTORE PUSH1 0x4 ADD PUSH2 0x765 SWAP4 SWAP3 SWAP2 SWAP1 PUSH2 0x13D1 JUMP JUMPDEST PUSH1 0x40 MLOAD DUP1 SWAP2 SUB SWAP1 REVERT JUMPDEST PUSH2 0x77C DUP5 DUP5 DUP5 DUP5 SUB PUSH0 PUSH2 0xA3C JUMP JUMPDEST JUMPDEST POP POP POP POP JUMP JUMPDEST PUSH0 PUSH20 0xFFFFFFFFFFFFFFFFFFFFFFFFFFFFFFFFFFFFFFFF AND DUP4 PUSH20 0xFFFFFFFFFFFFFFFFFFFFFFFFFFFFFFFFFFFFFFFF AND SUB PUSH2 0x7F3 JUMPI PUSH0 PUSH1 0x40 MLOAD PUSH32 0x96C6FD1E00000000000000000000000000000000000000000000000000000000 DUP2 MSTORE PUSH1 0x4 ADD PUSH2 0x7EA SWAP2 SWAP1 PUSH2 0x11EE JUMP JUMPDEST PUSH1 0x40 MLOAD DUP1 SWAP2 SUB SWAP1 REVERT JUMPDEST PUSH0 PUSH20 0xFFFFFFFFFFFFFFFFFFFFFFFFFFFFFFFFFFFFFFFF AND DUP3 PUSH20 0xFFFFFFFFFFFFFFFFFFFFFFFFFFFFFFFFFFFFFFFF AND SUB PUSH2 0x863 JUMPI PUSH0 PUSH1 0x40 MLOAD PUSH32 0xEC442F0500000000000000000000000000000000000000000000000000000000 DUP2 MSTORE PUSH1 0x4 ADD PUSH2 0x85A SWAP2 SWAP1 PUSH2 0x11EE JUMP JUMPDEST PUSH1 0x40 MLOAD DUP1 SWAP2 SUB SWAP1 REVERT JUMPDEST PUSH2 0x86E DUP4 DUP4 DUP4 PUSH2 0xC0B JUMP JUMPDEST POP POP POP JUMP JUMPDEST PUSH2 0x87B PUSH2 0x6D7 JUMP JUMPDEST PUSH20 0xFFFFFFFFFFFFFFFFFFFFFFFFFFFFFFFFFFFFFFFF AND PUSH2 0x899 PUSH2 0x4F7 JUMP JUMPDEST PUSH20 0xFFFFFFFFFFFFFFFFFFFFFFFFFFFFFFFFFFFFFFFF AND EQ PUSH2 0x8F8 JUMPI PUSH2 0x8BC PUSH2 0x6D7 JUMP JUMPDEST PUSH1 0x40 MLOAD PUSH32 0x118CDAA700000000000000000000000000000000000000000000000000000000 DUP2 MSTORE PUSH1 0x4 ADD PUSH2 0x8EF SWAP2 SWAP1 PUSH2 0x11EE JUMP JUMPDEST PUSH1 0x40 MLOAD DUP1 SWAP2 SUB SWAP1 REVERT JUMPDEST JUMP JUMPDEST PUSH0 PUSH20 0xFFFFFFFFFFFFFFFFFFFFFFFFFFFFFFFFFFFFFFFF AND DUP3 PUSH20 0xFFFFFFFFFFFFFFFFFFFFFFFFFFFFFFFFFFFFFFFF AND SUB PUSH2 0x96A JUMPI PUSH0 PUSH1 0x40 MLOAD PUSH32 0xEC442F0500000000000000000000000000000000000000000000000000000000 DUP2 MSTORE PUSH1 0x4 ADD PUSH2 0x961 SWAP2 SWAP1 PUSH2 0x11EE JUMP JUMPDEST PUSH1 0x40 MLOAD DUP1 SWAP2 SUB SWAP1 REVERT JUMPDEST PUSH2 0x975 PUSH0 DUP4 DUP4 PUSH2 0xC0B JUMP JUMPDEST POP POP JUMP JUMPDEST PUSH0 PUSH1 0x5 PUSH0 SWAP1 SLOAD SWAP1 PUSH2 0x100 EXP SWAP1 DIV PUSH20 0xFFFFFFFFFFFFFFFFFFFFFFFFFFFFFFFFFFFFFFFF AND SWAP1 POP DUP2 PUSH1 0x5 PUSH0 PUSH2 0x100 EXP DUP2 SLOAD DUP2 PUSH20 0xFFFFFFFFFFFFFFFFFFFFFFFFFFFFFFFFFFFFFFFF MUL NOT AND SWAP1 DUP4 PUSH20 0xFFFFFFFFFFFFFFFFFFFFFFFFFFFFFFFFFFFFFFFF AND MUL OR SWAP1 SSTORE POP DUP2 PUSH20 0xFFFFFFFFFFFFFFFFFFFFFFFFFFFFFFFFFFFFFFFF AND DUP2 PUSH20 0xFFFFFFFFFFFFFFFFFFFFFFFFFFFFFFFFFFFFFFFF AND PUSH32 0x8BE0079C531659141344CD1FD0A4F28419497F9722A3DAAFE3B4186F6B6457E0 PUSH1 0x40 MLOAD PUSH1 0x40 MLOAD DUP1 SWAP2 SUB SWAP1 LOG3 POP POP JUMP JUMPDEST PUSH0 PUSH20 0xFFFFFFFFFFFFFFFFFFFFFFFFFFFFFFFFFFFFFFFF AND DUP5 PUSH20 0xFFFFFFFFFFFFFFFFFFFFFFFFFFFFFFFFFFFFFFFF AND SUB PUSH2 0xAAC JUMPI PUSH0 PUSH1 0x40 MLOAD PUSH32 0xE602DF0500000000000000000000000000000000000000000000000000000000 DUP2 MSTORE PUSH1 0x4 ADD PUSH2 0xAA3 SWAP2 SWAP1 PUSH2 0x11EE JUMP JUMPDEST PUSH1 0x40 MLOAD DUP1 SWAP2 SUB SWAP1 REVERT JUMPDEST PUSH0 PUSH20 0xFFFFFFFFFFFFFFFFFFFFFFFFFFFFFFFFFFFFFFFF AND DUP4 PUSH20 0xFFFFFFFFFFFFFFFFFFFFFFFFFFFFFFFFFFFFFFFF AND SUB PUSH2 0xB1C JUMPI PUSH0 PUSH1 0x40 MLOAD PUSH32 0x94280D6200000000000000000000000000000000000000000000000000000000 DUP2 MSTORE PUSH1 0x4 ADD PUSH2 0xB13 SWAP2 SWAP1 PUSH2 0x11EE JUMP JUMPDEST PUSH1 0x40 MLOAD DUP1 SWAP2 SUB SWAP1 REVERT JUMPDEST DUP2 PUSH1 0x1 PUSH0 DUP7 PUSH20 0xFFFFFFFFFFFFFFFFFFFFFFFFFFFFFFFFFFFFFFFF AND PUSH20 0xFFFFFFFFFFFFFFFFFFFFFFFFFFFFFFFFFFFFFFFF AND DUP2 MSTORE PUSH1 0x20 ADD SWAP1 DUP2 MSTORE PUSH1 0x20 ADD PUSH0 KECCAK256 PUSH0 DUP6 PUSH20 0xFFFFFFFFFFFFFFFFFFFFFFFFFFFFFFFFFFFFFFFF AND PUSH20 0xFFFFFFFFFFFFFFFFFFFFFFFFFFFFFFFFFFFFFFFF AND DUP2 MSTORE PUSH1 0x20 ADD SWAP1 DUP2 MSTORE PUSH1 0x20 ADD PUSH0 KECCAK256 DUP2 SWAP1 SSTORE POP DUP1 ISZERO PUSH2 0xC05 JUMPI DUP3 PUSH20 0xFFFFFFFFFFFFFFFFFFFFFFFFFFFFFFFFFFFFFFFF AND DUP5 PUSH20 0xFFFFFFFFFFFFFFFFFFFFFFFFFFFFFFFFFFFFFFFF AND PUSH32 0x8C5BE1E5EBEC7D5BD14F71427D1E84F3DD0314C0F7B2291E5B200AC8C7C3B925 DUP5 PUSH1 0x40 MLOAD PUSH2 0xBFC SWAP2 SWAP1 PUSH2 0xFE3 JUMP JUMPDEST PUSH1 0x40 MLOAD DUP1 SWAP2 SUB SWAP1 LOG3 JUMPDEST POP POP POP POP JUMP JUMPDEST PUSH0 PUSH20 0xFFFFFFFFFFFFFFFFFFFFFFFFFFFFFFFFFFFFFFFF AND DUP4 PUSH20 0xFFFFFFFFFFFFFFFFFFFFFFFFFFFFFFFFFFFFFFFF AND SUB PUSH2 0xC5B JUMPI DUP1 PUSH1 0x2 PUSH0 DUP3 DUP3 SLOAD PUSH2 0xC4F SWAP2 SWAP1 PUSH2 0x1406 JUMP JUMPDEST SWAP3 POP POP DUP2 SWAP1 SSTORE POP PUSH2 0xD29 JUMP JUMPDEST PUSH0 DUP1 PUSH0 DUP6 PUSH20 0xFFFFFFFFFFFFFFFFFFFFFFFFFFFFFFFFFFFFFFFF AND PUSH20 0xFFFFFFFFFFFFFFFFFFFFFFFFFFFFFFFFFFFFFFFF AND DUP2 MSTORE PUSH1 0x20 ADD SWAP1 DUP2 MSTORE PUSH1 0x20 ADD PUSH0 KECCAK256 SLOAD SWAP1 POP DUP2 DUP2 LT ISZERO PUSH2 0xCE4 JUMPI DUP4 DUP2 DUP4 PUSH1 0x40 MLOAD PUSH32 0xE450D38C00000000000000000000000000000000000000000000000000000000 DUP2 MSTORE PUSH1 0x4 ADD PUSH2 0xCDB SWAP4 SWAP3 SWAP2 SWAP1 PUSH2 0x13D1 JUMP JUMPDEST PUSH1 0x40 MLOAD DUP1 SWAP2 SUB SWAP1 REVERT JUMPDEST DUP2 DUP2 SUB PUSH0 DUP1 DUP7 PUSH20 0xFFFFFFFFFFFFFFFFFFFFFFFFFFFFFFFFFFFFFFFF AND PUSH20 0xFFFFFFFFFFFFFFFFFFFFFFFFFFFFFFFFFFFFFFFF AND DUP2 MSTORE PUSH1 0x20 ADD SWAP1 DUP2 MSTORE PUSH1 0x20 ADD PUSH0 KECCAK256 DUP2 SWAP1 SSTORE POP POP JUMPDEST PUSH0 PUSH20 0xFFFFFFFFFFFFFFFFFFFFFFFFFFFFFFFFFFFFFFFF AND DUP3 PUSH20 0xFFFFFFFFFFFFFFFFFFFFFFFFFFFFFFFFFFFFFFFF AND SUB PUSH2 0xD70 JUMPI DUP1 PUSH1 0x2 PUSH0 DUP3 DUP3 SLOAD SUB SWAP3 POP POP DUP2 SWAP1 SSTORE POP PUSH2 0xDBA JUMP JUMPDEST DUP1 PUSH0 DUP1 DUP5 PUSH20 0xFFFFFFFFFFFFFFFFFFFFFFFFFFFFFFFFFFFFFFFF AND PUSH20 0xFFFFFFFFFFFFFFFFFFFFFFFFFFFFFFFFFFFFFFFF AND DUP2 MSTORE PUSH1 0x20 ADD SWAP1 DUP2 MSTORE PUSH1 0x20 ADD PUSH0 KECCAK256 PUSH0 DUP3 DUP3 SLOAD ADD SWAP3 POP POP DUP2 SWAP1 SSTORE POP JUMPDEST DUP2 PUSH20 0xFFFFFFFFFFFFFFFFFFFFFFFFFFFFFFFFFFFFFFFF AND DUP4 PUSH20 0xFFFFFFFFFFFFFFFFFFFFFFFFFFFFFFFFFFFFFFFF AND PUSH32 0xDDF252AD1BE2C89B69C2B068FC378DAA952BA7F163C4A11628F55A4DF523B3EF DUP4 PUSH1 0x40 MLOAD PUSH2 0xE17 SWAP2 SWAP1 PUSH2 0xFE3 JUMP JUMPDEST PUSH1 0x40 MLOAD DUP1 SWAP2 SUB SWAP1 LOG3 POP POP POP JUMP JUMPDEST PUSH0 DUP2 MLOAD SWAP1 POP SWAP2 SWAP1 POP JUMP JUMPDEST PUSH0 DUP3 DUP3 MSTORE PUSH1 0x20 DUP3 ADD SWAP1 POP SWAP3 SWAP2 POP POP JUMP JUMPDEST PUSH0 JUMPDEST DUP4 DUP2 LT ISZERO PUSH2 0xE5B JUMPI DUP1 DUP3 ADD MLOAD DUP2 DUP5 ADD MSTORE PUSH1 0x20 DUP2 ADD SWAP1 POP PUSH2 0xE40 JUMP JUMPDEST PUSH0 DUP5 DUP5 ADD MSTORE POP POP POP POP JUMP JUMPDEST PUSH0 PUSH1 0x1F NOT PUSH1 0x1F DUP4 ADD AND SWAP1 POP SWAP2 SWAP1 POP JUMP JUMPDEST PUSH0 PUSH2 0xE80 DUP3 PUSH2 0xE24 JUMP JUMPDEST PUSH2 0xE8A DUP2 DUP6 PUSH2 0xE2E JUMP JUMPDEST SWAP4 POP PUSH2 0xE9A DUP2 DUP6 PUSH1 0x20 DUP7 ADD PUSH2 0xE3E JUMP JUMPDEST PUSH2 0xEA3 DUP2 PUSH2 0xE66 JUMP JUMPDEST DUP5 ADD SWAP2 POP POP SWAP3 SWAP2 POP POP JUMP JUMPDEST PUSH0 PUSH1 0x20 DUP3 ADD SWAP1 POP DUP2 DUP2 SUB PUSH0 DUP4 ADD MSTORE PUSH2 0xEC6 DUP2 DUP5 PUSH2 0xE76 JUMP JUMPDEST SWAP1 POP SWAP3 SWAP2 POP POP JUMP JUMPDEST PUSH0 DUP1 REVERT JUMPDEST PUSH0 DUP1 REVERT JUMPDEST PUSH0 PUSH20 0xFFFFFFFFFFFFFFFFFFFFFFFFFFFFFFFFFFFFFFFF DUP3 AND SWAP1 POP SWAP2 SWAP1 POP JUMP JUMPDEST PUSH0 PUSH2 0xEFF DUP3 PUSH2 0xED6 JUMP JUMPDEST SWAP1 POP SWAP2 SWAP1 POP JUMP JUMPDEST PUSH2 0xF0F DUP2 PUSH2 0xEF5 JUMP JUMPDEST DUP2 EQ PUSH2 0xF19 JUMPI PUSH0 DUP1 REVERT JUMPDEST POP JUMP JUMPDEST PUSH0 DUP2 CALLDATALOAD SWAP1 POP PUSH2 0xF2A DUP2 PUSH2 0xF06 JUMP JUMPDEST SWAP3 SWAP2 POP POP JUMP JUMPDEST PUSH0 DUP2 SWAP1 POP SWAP2 SWAP1 POP JUMP JUMPDEST PUSH2 0xF42 DUP2 PUSH2 0xF30 JUMP JUMPDEST DUP2 EQ PUSH2 0xF4C JUMPI PUSH0 DUP1 REVERT JUMPDEST POP JUMP JUMPDEST PUSH0 DUP2 CALLDATALOAD SWAP1 POP PUSH2 0xF5D DUP2 PUSH2 0xF39 JUMP JUMPDEST SWAP3 SWAP2 POP POP JUMP JUMPDEST PUSH0 DUP1 PUSH1 0x40 DUP4 DUP6 SUB SLT ISZERO PUSH2 0xF79 JUMPI PUSH2 0xF78 PUSH2 0xECE JUMP JUMPDEST JUMPDEST PUSH0 PUSH2 0xF86 DUP6 DUP3 DUP7 ADD PUSH2 0xF1C JUMP JUMPDEST SWAP3 POP POP PUSH1 0x20 PUSH2 0xF97 DUP6 DUP3 DUP7 ADD PUSH2 0xF4F JUMP JUMPDEST SWAP2 POP POP SWAP3 POP SWAP3 SWAP1 POP JUMP JUMPDEST PUSH0 DUP2 ISZERO ISZERO SWAP1 POP SWAP2 SWAP1 POP JUMP JUMPDEST PUSH2 0xFB5 DUP2 PUSH2 0xFA1 JUMP JUMPDEST DUP3 MSTORE POP POP JUMP JUMPDEST PUSH0 PUSH1 0x20 DUP3 ADD SWAP1 POP PUSH2 0xFCE PUSH0 DUP4 ADD DUP5 PUSH2 0xFAC JUMP JUMPDEST SWAP3 SWAP2 POP POP JUMP JUMPDEST PUSH2 0xFDD DUP2 PUSH2 0xF30 JUMP JUMPDEST DUP3 MSTORE POP POP JUMP JUMPDEST PUSH0 PUSH1 0x20 DUP3 ADD SWAP1 POP PUSH2 0xFF6 PUSH0 DUP4 ADD DUP5 PUSH2 0xFD4 JUMP JUMPDEST SWAP3 SWAP2 POP POP JUMP JUMPDEST PUSH0 DUP1 PUSH0 PUSH1 0x60 DUP5 DUP7 SUB SLT ISZERO PUSH2 0x1013 JUMPI PUSH2 0x1012 PUSH2 0xECE JUMP JUMPDEST JUMPDEST PUSH0 PUSH2 0x1020 DUP7 DUP3 DUP8 ADD PUSH2 0xF1C JUMP JUMPDEST SWAP4 POP POP PUSH1 0x20 PUSH2 0x1031 DUP7 DUP3 DUP8 ADD PUSH2 0xF1C JUMP JUMPDEST SWAP3 POP POP PUSH1 0x40 PUSH2 0x1042 DUP7 DUP3 DUP8 ADD PUSH2 0xF4F JUMP JUMPDEST SWAP2 POP POP SWAP3 POP SWAP3 POP SWAP3 JUMP JUMPDEST PUSH0 PUSH1 0xFF DUP3 AND SWAP1 POP SWAP2 SWAP1 POP JUMP JUMPDEST PUSH2 0x1061 DUP2 PUSH2 0x104C JUMP JUMPDEST DUP3 MSTORE POP POP JUMP JUMPDEST PUSH0 PUSH1 0x20 DUP3 ADD SWAP1 POP PUSH2 0x107A PUSH0 DUP4 ADD DUP5 PUSH2 0x1058 JUMP JUMPDEST SWAP3 SWAP2 POP POP JUMP JUMPDEST PUSH0 PUSH1 0x20 DUP3 DUP5 SUB SLT ISZERO PUSH2 0x1095 JUMPI PUSH2 0x1094 PUSH2 0xECE JUMP JUMPDEST JUMPDEST PUSH0 PUSH2 0x10A2 DUP5 DUP3 DUP6 ADD PUSH2 0xF1C JUMP JUMPDEST SWAP2 POP POP SWAP3 SWAP2 POP POP JUMP JUMPDEST PUSH0 DUP1 REVERT JUMPDEST PUSH0 DUP1 REVERT JUMPDEST PUSH0 DUP1 REVERT JUMPDEST PUSH0 DUP1 DUP4 PUSH1 0x1F DUP5 ADD SLT PUSH2 0x10CC JUMPI PUSH2 0x10CB PUSH2 0x10AB JUMP JUMPDEST JUMPDEST DUP3 CALLDATALOAD SWAP1 POP PUSH8 0xFFFFFFFFFFFFFFFF DUP2 GT ISZERO PUSH2 0x10E9 JUMPI PUSH2 0x10E8 PUSH2 0x10AF JUMP JUMPDEST JUMPDEST PUSH1 0x20 DUP4 ADD SWAP2 POP DUP4 PUSH1 0x20 DUP3 MUL DUP4 ADD GT ISZERO PUSH2 0x1105 JUMPI PUSH2 0x1104 PUSH2 0x10B3 JUMP JUMPDEST JUMPDEST SWAP3 POP SWAP3 SWAP1 POP JUMP JUMPDEST PUSH0 DUP1 DUP4 PUSH1 0x1F DUP5 ADD SLT PUSH2 0x1121 JUMPI PUSH2 0x1120 PUSH2 0x10AB JUMP JUMPDEST JUMPDEST DUP3 CALLDATALOAD SWAP1 POP PUSH8 0xFFFFFFFFFFFFFFFF DUP2 GT ISZERO PUSH2 0x113E JUMPI PUSH2 0x113D PUSH2 0x10AF JUMP JUMPDEST JUMPDEST PUSH1 0x20 DUP4 ADD SWAP2 POP DUP4 PUSH1 0x20 DUP3 MUL DUP4 ADD GT ISZERO PUSH2 0x115A JUMPI PUSH2 0x1159 PUSH2 0x10B3 JUMP JUMPDEST JUMPDEST SWAP3 POP SWAP3 SWAP1 POP JUMP JUMPDEST PUSH0 DUP1 PUSH0 DUP1 PUSH1 0x40 DUP6 DUP8 SUB SLT ISZERO PUSH2 0x1179 JUMPI PUSH2 0x1178 PUSH2 0xECE JUMP JUMPDEST JUMPDEST PUSH0 DUP6 ADD CALLDATALOAD PUSH8 0xFFFFFFFFFFFFFFFF DUP2 GT ISZERO PUSH2 0x1196 JUMPI PUSH2 0x1195 PUSH2 0xED2 JUMP JUMPDEST JUMPDEST PUSH2 0x11A2 DUP8 DUP3 DUP9 ADD PUSH2 0x10B7 JUMP JUMPDEST SWAP5 POP SWAP5 POP POP PUSH1 0x20 DUP6 ADD CALLDATALOAD PUSH8 0xFFFFFFFFFFFFFFFF DUP2 GT ISZERO PUSH2 0x11C5 JUMPI PUSH2 0x11C4 PUSH2 0xED2 JUMP JUMPDEST JUMPDEST PUSH2 0x11D1 DUP8 DUP3 DUP9 ADD PUSH2 0x110C JUMP JUMPDEST SWAP3 POP SWAP3 POP POP SWAP3 SWAP6 SWAP2 SWAP5 POP SWAP3 POP JUMP JUMPDEST PUSH2 0x11E8 DUP2 PUSH2 0xEF5 JUMP JUMPDEST DUP3 MSTORE POP POP JUMP JUMPDEST PUSH0 PUSH1 0x20 DUP3 ADD SWAP1 POP PUSH2 0x1201 PUSH0 DUP4 ADD DUP5 PUSH2 0x11DF JUMP JUMPDEST SWAP3 SWAP2 POP POP JUMP JUMPDEST PUSH0 DUP1 PUSH1 0x40 DUP4 DUP6 SUB SLT ISZERO PUSH2 0x121D JUMPI PUSH2 0x121C PUSH2 0xECE JUMP JUMPDEST JUMPDEST PUSH0 PUSH2 0x122A DUP6 DUP3 DUP7 ADD PUSH2 0xF1C JUMP JUMPDEST SWAP3 POP POP PUSH1 0x20 PUSH2 0x123B DUP6 DUP3 DUP7 ADD PUSH2 0xF1C JUMP JUMPDEST SWAP2 POP POP SWAP3 POP SWAP3 SWAP1 POP JUMP JUMPDEST PUSH32 0x4E487B7100000000000000000000000000000000000000000000000000000000 PUSH0 MSTORE PUSH1 0x22 PUSH1 0x4 MSTORE PUSH1 0x24 PUSH0 REVERT JUMPDEST PUSH0 PUSH1 0x2 DUP3 DIV SWAP1 POP PUSH1 0x1 DUP3 AND DUP1 PUSH2 0x1289 JUMPI PUSH1 0x7F DUP3 AND SWAP2 POP JUMPDEST PUSH1 0x20 DUP3 LT DUP2 SUB PUSH2 0x129C JUMPI PUSH2 0x129B PUSH2 0x1245 JUMP JUMPDEST JUMPDEST POP SWAP2 SWAP1 POP JUMP JUMPDEST PUSH32 0x526563697069656E747320616E6420616D6F756E7473206C656E677468206D69 PUSH0 DUP3 ADD MSTORE PUSH32 0x736D617463680000000000000000000000000000000000000000000000000000 PUSH1 0x20 DUP3 ADD MSTORE POP JUMP JUMPDEST PUSH0 PUSH2 0x12FC PUSH1 0x26 DUP4 PUSH2 0xE2E JUMP JUMPDEST SWAP2 POP PUSH2 0x1307 DUP3 PUSH2 0x12A2 JUMP JUMPDEST PUSH1 0x40 DUP3 ADD SWAP1 POP SWAP2 SWAP1 POP JUMP JUMPDEST PUSH0 PUSH1 0x20 DUP3 ADD SWAP1 POP DUP2 DUP2 SUB PUSH0 DUP4 ADD MSTORE PUSH2 0x1329 DUP2 PUSH2 0x12F0 JUMP JUMPDEST SWAP1 POP SWAP2 SWAP1 POP JUMP JUMPDEST PUSH32 0x4E487B7100000000000000000000000000000000000000000000000000000000 PUSH0 MSTORE PUSH1 0x32 PUSH1 0x4 MSTORE PUSH1 0x24 PUSH0 REVERT JUMPDEST PUSH32 0x4E487B7100000000000000000000000000000000000000000000000000000000 PUSH0 MSTORE PUSH1 0x11 PUSH1 0x4 MSTORE PUSH1 0x24 PUSH0 REVERT JUMPDEST PUSH0 PUSH2 0x1394 DUP3 PUSH2 0xF30 JUMP JUMPDEST SWAP2 POP PUSH32 0xFFFFFFFFFFFFFFFFFFFFFFFFFFFFFFFFFFFFFFFFFFFFFFFFFFFFFFFFFFFFFFFF DUP3 SUB PUSH2 0x13C6 JUMPI PUSH2 0x13C5 PUSH2 0x135D JUMP JUMPDEST JUMPDEST PUSH1 0x1 DUP3 ADD SWAP1 POP SWAP2 SWAP1 POP JUMP JUMPDEST PUSH0 PUSH1 0x60 DUP3 ADD SWAP1 POP PUSH2 0x13E4 PUSH0 DUP4 ADD DUP7 PUSH2 0x11DF JUMP JUMPDEST PUSH2 0x13F1 PUSH1 0x20 DUP4 ADD DUP6 PUSH2 0xFD4 JUMP JUMPDEST PUSH2 0x13FE PUSH1 0x40 DUP4 ADD DUP5 PUSH2 0xFD4 JUMP JUMPDEST SWAP5 SWAP4 POP POP POP POP JUMP JUMPDEST PUSH0 PUSH2 0x1410 DUP3 PUSH2 0xF30 JUMP JUMPDEST SWAP2 POP PUSH2 0x141B DUP4 PUSH2 0xF30 JUMP JUMPDEST SWAP3 POP DUP3 DUP3 ADD SWAP1 POP DUP1 DUP3 GT ISZERO PUSH2 0x1433 JUMPI PUSH2 0x1432 PUSH2 0x135D JUMP JUMPDEST JUMPDEST SWAP3 SWAP2 POP POP JUMP INVALID LOG2 PUSH5 0x6970667358 0x22 SLT KECCAK256 0x26 DUP13 SHL PUSH27 0x7188483071CB0B974C1493D4006CC1E492696B8A34B63AEB9ACA61 CALLCODE PUSH5 0x736F6C6343 STOP ADDMOD EQ STOP CALLER "
				},
				"gasEstimates": {
					"creation": {
						"codeDepositCost": "1046200",
						"executionCost": "infinite",
						"totalCost": "infinite"
					},
					"external": {
						"allowance(address,address)": "infinite",
						"approve(address,uint256)": "infinite",
						"balanceOf(address)": "2918",
						"batchTransfer(address[],uint256[])": "infinite",
						"decimals()": "2569",
						"mint(address,uint256)": "infinite",
						"name()": "infinite",
						"owner()": "2582",
						"renounceOwnership()": "infinite",
						"symbol()": "infinite",
						"totalSupply()": "2500",
						"transfer(address,uint256)": "infinite",
						"transferFrom(address,address,uint256)": "infinite",
						"transferOwnership(address)": "infinite"
					}
				},
				"methodIdentifiers": {
					"allowance(address,address)": "dd62ed3e",
					"approve(address,uint256)": "095ea7b3",
					"balanceOf(address)": "70a08231",
					"batchTransfer(address[],uint256[])": "88d695b2",
					"decimals()": "313ce567",
					"mint(address,uint256)": "40c10f19",
					"name()": "06fdde03",
					"owner()": "8da5cb5b",
					"renounceOwnership()": "715018a6",
					"symbol()": "95d89b41",
					"totalSupply()": "18160ddd",
					"transfer(address,uint256)": "a9059cbb",
					"transferFrom(address,address,uint256)": "23b872dd",
					"transferOwnership(address)": "f2fde38b"
				}
			},
			"storageLayout": {
				"storage": [
					{
						"astId": 307,
						"contract": "TestToken.sol:TestToken",
						"label": "_balances",
						"offset": 0,
						"slot": "0",
						"type": "t_mapping(t_address,t_uint256)"
					},
					{
						"astId": 313,
						"contract": "TestToken.sol:TestToken",
						"label": "_allowances",
						"offset": 0,
						"slot": "1",
						"type": "t_mapping(t_address,t_mapping(t_address,t_uint256))"
					},
					{
						"astId": 315,
						"contract": "TestToken.sol:TestToken",
						"label": "_totalSupply",
						"offset": 0,
						"slot": "2",
						"type": "t_uint256"
					},
					{
						"astId": 317,
						"contract": "TestToken.sol:TestToken",
						"label": "_name",
						"offset": 0,
						"slot": "3",
						"type": "t_string_storage"
					},
					{
						"astId": 319,
						"contract": "TestToken.sol:TestToken",
						"label": "_symbol",
						"offset": 0,
						"slot": "4",
						"type": "t_string_storage"
					},
					{
						"astId": 8,
						"contract": "TestToken.sol:TestToken",
						"label": "_owner",
						"offset": 0,
						"slot": "5",
						"type": "t_address"
					},
					{
						"astId": 944,
						"contract": "TestToken.sol:TestToken",
						"label": "_decimals",
						"offset": 20,
						"slot": "5",
						"type": "t_uint8"
					}
				],
				"types": {
					"t_address": {
						"encoding": "inplace",
						"label": "address",
						"numberOfBytes": "20"
					},
					"t_mapping(t_address,t_mapping(t_address,t_uint256))": {
						"encoding": "mapping",
						"key": "t_address",
						"label": "mapping(address => mapping(address => uint256))",
						"numberOfBytes": "32",
						"value": "t_mapping(t_address,t_uint256)"
					},
					"t_mapping(t_address,t_uint256)": {
						"encoding": "mapping",
						"key": "t_address",
						"label": "mapping(address => uint256)",
						"numberOfBytes": "32",
						"value": "t_uint256"
					},
					"t_string_storage": {
						"encoding": "bytes",
						"label": "string",
						"numberOfBytes": "32"
					},
					"t_uint256": {
						"encoding": "inplace",
						"label": "uint256",
						"numberOfBytes": "32"
					},
					"t_uint8": {
						"encoding": "inplace",
						"label": "uint8",
						"numberOfBytes": "1"
					}
				}
			},
			"userdoc": {
				"kind": "user",
				"methods": {},
				"version": 1
			}
		}
	}
}